{
  "contractName": "ActionMock",
  "abi": [
    {
      "constant": false,
      "inputs": [
        {
          "name": "avatar",
          "type": "address"
        },
        {
          "name": "params",
          "type": "bytes32[]"
        }
      ],
      "name": "genericAction",
      "outputs": [
        {
          "name": "",
          "type": "bool"
        }
      ],
      "payable": false,
      "stateMutability": "nonpayable",
      "type": "function"
    },
    {
      "constant": false,
      "inputs": [
        {
          "name": "params",
          "type": "bytes32[]"
        }
      ],
      "name": "action",
      "outputs": [
        {
          "name": "",
          "type": "bool"
        }
      ],
      "payable": false,
      "stateMutability": "nonpayable",
      "type": "function"
    },
    {
      "anonymous": false,
      "inputs": [
        {
          "indexed": false,
          "name": "_sender",
          "type": "address"
        },
        {
          "indexed": false,
          "name": "_param",
          "type": "bytes32"
        }
      ],
      "name": "Action",
      "type": "event"
    }
  ],
  "bytecode": "0x6060604052341561000f57600080fd5b6102c68061001e6000396000f30060606040526004361061004b5763ffffffff7c01000000000000000000000000000000000000000000000000000000006000350416636ce15a5481146100505780637ff4b630146100ce575b600080fd5b341561005b57600080fd5b6100ba6004803573ffffffffffffffffffffffffffffffffffffffff1690604460248035908101908301358060208082020160405190810160405280939291908181526020018383602002808284375094965061011d95505050505050565b604051901515815260200160405180910390f35b34156100d957600080fd5b6100ba600460248135818101908301358060208181020160405190810160405280939291908181526020018383602002808284375094965061022995505050505050565b60008273ffffffffffffffffffffffffffffffffffffffff16636ce15a5430846000604051602001526040518363ffffffff167c0100000000000000000000000000000000000000000000000000000000028152600401808373ffffffffffffffffffffffffffffffffffffffff1673ffffffffffffffffffffffffffffffffffffffff16815260200180602001828103825283818151815260200191508051906020019060200280838360005b838110156101e35780820151838201526020016101cb565b505050509050019350505050602060405180830381600087803b151561020857600080fd5b6102c65a03f1151561021957600080fd5b5050506040518051949350505050565b60007f38986d52282e94f11fdf413d0c6cb2f89ce3ef8986c7e800152f440db2bcbfb2338360008151811061025a57fe5b9060200190602002015160405173ffffffffffffffffffffffffffffffffffffffff909216825260208201526040908101905180910390a15060019190505600a165627a7a723058206598ccdd3d0a29f391cb3706b1265cfb7bdb2f4e3b48aca6f318b164a1318a770029",
  "source": "pragma solidity ^0.4.18;\r\n\r\nimport \"../controller/Avatar.sol\";\r\n\r\n\r\ncontract ActionMock is ActionInterface {\r\n\r\n    event Action(address _sender,bytes32 _param);\r\n\r\n    function action(bytes32[] params) public returns(bool) {\r\n        Action(msg.sender,params[0]);\r\n        return true;\r\n    }\r\n\r\n    function genericAction(Avatar avatar,bytes32[] params) public returns(bool) {\r\n        return avatar.genericAction(address(this),params);\r\n    }\r\n\r\n}\r\n",
  "sourcePath": "C:\\Users\\dkent\\Documents\\Projects\\GitHub\\DAOStack\\daostack\\contracts\\test\\ActionMock.sol",
  "compiler": {
    "name": "solc",
    "version": "0.4.18+commit.9cf6e910.Emscripten.clang"
  },
  "schemaVersion": "1.0.1",
  "updatedAt": "2017-12-17T14:52:53.198Z"
}