{
  "contractName": "Avatar",
  "abi": [
    {
      "constant": true,
      "inputs": [],
      "name": "orgName",
      "outputs": [
        {
          "name": "",
          "type": "bytes32"
        }
      ],
      "payable": false,
      "stateMutability": "view",
      "type": "function"
    },
    {
      "constant": false,
      "inputs": [
        {
          "name": "_action",
          "type": "address"
        },
        {
          "name": "_params",
          "type": "bytes32[]"
        }
      ],
      "name": "genericAction",
      "outputs": [
        {
          "name": "",
          "type": "bool"
        }
      ],
      "payable": false,
      "stateMutability": "nonpayable",
      "type": "function"
    },
    {
      "constant": true,
      "inputs": [],
      "name": "nativeReputation",
      "outputs": [
        {
          "name": "",
          "type": "address"
        }
      ],
      "payable": false,
      "stateMutability": "view",
      "type": "function"
    },
    {
      "constant": false,
      "inputs": [
        {
          "name": "_externalToken",
          "type": "address"
        },
        {
          "name": "_spender",
          "type": "address"
        },
        {
          "name": "_addedValue",
          "type": "uint256"
        }
      ],
      "name": "externalTokenIncreaseApproval",
      "outputs": [
        {
          "name": "",
          "type": "bool"
        }
      ],
      "payable": false,
      "stateMutability": "nonpayable",
      "type": "function"
    },
    {
      "constant": true,
      "inputs": [],
      "name": "owner",
      "outputs": [
        {
          "name": "",
          "type": "address"
        }
      ],
      "payable": false,
      "stateMutability": "view",
      "type": "function"
    },
    {
      "constant": false,
      "inputs": [
        {
          "name": "_externalToken",
          "type": "address"
        },
        {
          "name": "_from",
          "type": "address"
        },
        {
          "name": "_to",
          "type": "address"
        },
        {
          "name": "_value",
          "type": "uint256"
        }
      ],
      "name": "externalTokenTransferFrom",
      "outputs": [
        {
          "name": "",
          "type": "bool"
        }
      ],
      "payable": false,
      "stateMutability": "nonpayable",
      "type": "function"
    },
    {
      "constant": false,
      "inputs": [
        {
          "name": "_amountInWei",
          "type": "uint256"
        },
        {
          "name": "_to",
          "type": "address"
        }
      ],
      "name": "sendEther",
      "outputs": [
        {
          "name": "",
          "type": "bool"
        }
      ],
      "payable": false,
      "stateMutability": "nonpayable",
      "type": "function"
    },
    {
      "constant": false,
      "inputs": [
        {
          "name": "_externalToken",
          "type": "address"
        },
        {
          "name": "_spender",
          "type": "address"
        },
        {
          "name": "_subtractedValue",
          "type": "uint256"
        }
      ],
      "name": "externalTokenDecreaseApproval",
      "outputs": [
        {
          "name": "",
          "type": "bool"
        }
      ],
      "payable": false,
      "stateMutability": "nonpayable",
      "type": "function"
    },
    {
      "constant": false,
      "inputs": [
        {
          "name": "_externalToken",
          "type": "address"
        },
        {
          "name": "_to",
          "type": "address"
        },
        {
          "name": "_value",
          "type": "uint256"
        }
      ],
      "name": "externalTokenTransfer",
      "outputs": [
        {
          "name": "",
          "type": "bool"
        }
      ],
      "payable": false,
      "stateMutability": "nonpayable",
      "type": "function"
    },
    {
      "constant": true,
      "inputs": [],
      "name": "nativeToken",
      "outputs": [
        {
          "name": "",
          "type": "address"
        }
      ],
      "payable": false,
      "stateMutability": "view",
      "type": "function"
    },
    {
      "constant": false,
      "inputs": [
        {
          "name": "newOwner",
          "type": "address"
        }
      ],
      "name": "transferOwnership",
      "outputs": [],
      "payable": false,
      "stateMutability": "nonpayable",
      "type": "function"
    },
    {
      "inputs": [
        {
          "name": "_orgName",
          "type": "bytes32"
        },
        {
          "name": "_nativeToken",
          "type": "address"
        },
        {
          "name": "_nativeReputation",
          "type": "address"
        }
      ],
      "payable": false,
      "stateMutability": "nonpayable",
      "type": "constructor"
    },
    {
      "payable": true,
      "stateMutability": "payable",
      "type": "fallback"
    },
    {
      "anonymous": false,
      "inputs": [
        {
          "indexed": true,
          "name": "_action",
          "type": "address"
        },
        {
          "indexed": false,
          "name": "_params",
          "type": "bytes32[]"
        }
      ],
      "name": "GenericAction",
      "type": "event"
    },
    {
      "anonymous": false,
      "inputs": [
        {
          "indexed": false,
          "name": "_amountInWei",
          "type": "uint256"
        },
        {
          "indexed": true,
          "name": "_to",
          "type": "address"
        }
      ],
      "name": "SendEther",
      "type": "event"
    },
    {
      "anonymous": false,
      "inputs": [
        {
          "indexed": true,
          "name": "_externalToken",
          "type": "address"
        },
        {
          "indexed": true,
          "name": "_to",
          "type": "address"
        },
        {
          "indexed": false,
          "name": "_value",
          "type": "uint256"
        }
      ],
      "name": "ExternalTokenTransfer",
      "type": "event"
    },
    {
      "anonymous": false,
      "inputs": [
        {
          "indexed": true,
          "name": "_externalToken",
          "type": "address"
        },
        {
          "indexed": false,
          "name": "_from",
          "type": "address"
        },
        {
          "indexed": false,
          "name": "_to",
          "type": "address"
        },
        {
          "indexed": false,
          "name": "_value",
          "type": "uint256"
        }
      ],
      "name": "ExternalTokenTransferFrom",
      "type": "event"
    },
    {
      "anonymous": false,
      "inputs": [
        {
          "indexed": true,
          "name": "_externalToken",
          "type": "address"
        },
        {
          "indexed": false,
          "name": "_spender",
          "type": "address"
        },
        {
          "indexed": false,
          "name": "_addedValue",
          "type": "uint256"
        }
      ],
      "name": "ExternalTokenIncreaseApproval",
      "type": "event"
    },
    {
      "anonymous": false,
      "inputs": [
        {
          "indexed": true,
          "name": "_externalToken",
          "type": "address"
        },
        {
          "indexed": false,
          "name": "_spender",
          "type": "address"
        },
        {
          "indexed": false,
          "name": "_subtractedValue",
          "type": "uint256"
        }
      ],
      "name": "ExternalTokenDecreaseApproval",
      "type": "event"
    },
    {
      "anonymous": false,
      "inputs": [
        {
          "indexed": true,
          "name": "_sender",
          "type": "address"
        },
        {
          "indexed": false,
          "name": "_value",
          "type": "uint256"
        }
      ],
      "name": "ReceiveEther",
      "type": "event"
    },
    {
      "anonymous": false,
      "inputs": [
        {
          "indexed": true,
          "name": "previousOwner",
          "type": "address"
        },
        {
          "indexed": true,
          "name": "newOwner",
          "type": "address"
        }
      ],
      "name": "OwnershipTransferred",
      "type": "event"
    }
  ],
  "bytecode": "0x6060604052341561000f57600080fd5b6040516060806109d583398101604052808051919060200180519190602001805160008054600160a060020a03338116600160a060020a031992831617909255600196909655600280549582169587169590951790945560038054949091169390941692909217909255505061094b8061008a6000396000f3006060604052600436106100955763ffffffff60e060020a6000350416631386dc2d81146100d45780636ce15a54146100f957806389ae1c901461016a5780638cf1355c146101995780638da5cb5b146101c1578063b756d5a2146101d4578063cb16d4a214610202578063d29ab9c414610224578063dab0efff1461024c578063e1758bd814610274578063f2fde38b14610287575b33600160a060020a03167ff32a9f77675fd5917534c7746608fd3e309eac68fbdcbf5925e24ca97a7043963460405190815260200160405180910390a2005b34156100df57600080fd5b6100e76102a8565b60405190815260200160405180910390f35b341561010457600080fd5b61015660048035600160a060020a03169060446024803590810190830135806020808202016040519081016040528093929190818152602001838360200280828437509496506102ae95505050505050565b604051901515815260200160405180910390f35b341561017557600080fd5b61017d610400565b604051600160a060020a03909116815260200160405180910390f35b34156101a457600080fd5b610156600160a060020a036004358116906024351660443561040f565b34156101cc57600080fd5b61017d6104fb565b34156101df57600080fd5b610156600160a060020a036004358116906024358116906044351660643561050a565b341561020d57600080fd5b610156600435600160a060020a0360243516610610565b341561022f57600080fd5b610156600160a060020a03600435811690602435166044356106a3565b341561025757600080fd5b610156600160a060020a036004358116906024351660443561078f565b341561027f57600080fd5b61017d610875565b341561029257600080fd5b6102a6600160a060020a0360043516610884565b005b60015481565b6000805433600160a060020a039081169116146102ca57600080fd5b82600160a060020a03167f8518530cc6bc186721ab2fc226031ca054c8484893d8b0c7faab65a58aac238d8360405160208082528190810183818151815260200191508051906020019060200280838360005b8381101561033557808201518382015260200161031d565b505050509050019250505060405180910390a282600160a060020a03166040517f616374696f6e28627974657333325b5d290000000000000000000000000000008152601101604051809103902060e060020a900460208451856040518463ffffffff1660e060020a02815260040180848152602001838152602001828051906020019060200280838360005b838110156103da5780820151838201526020016103c2565b5050505090500193505050506000604051808303818661646e5a03f49695505050505050565b600354600160a060020a031681565b6000805433600160a060020a0390811691161461042b57600080fd5b83600160a060020a031663d73dd623848460006040516020015260405160e060020a63ffffffff8516028152600160a060020a0390921660048301526024820152604401602060405180830381600087803b151561048857600080fd5b6102c65a03f1151561049957600080fd5b50505060405180515050600160a060020a0384167fbe7df27d98bd0614ae920a695c2c2be09c164d8456083da020a98538692c465f8484604051600160a060020a03909216825260208201526040908101905180910390a25060019392505050565b600054600160a060020a031681565b6000805433600160a060020a0390811691161461052657600080fd5b84600160a060020a03166323b872dd85858560006040516020015260405160e060020a63ffffffff8616028152600160a060020a0393841660048201529190921660248201526044810191909152606401602060405180830381600087803b151561059057600080fd5b6102c65a03f115156105a157600080fd5b50505060405180515050600160a060020a0385167f179c15de44aa7ab84896301974328eb40b5b40fe01cfe0fee2924ea712c3e843858585604051600160a060020a039384168152919092166020820152604080820192909252606001905180910390a2506001949350505050565b6000805433600160a060020a0390811691161461062c57600080fd5b600160a060020a03821683156108fc0284604051600060405180830381858888f19350505050151561065d57600080fd5b81600160a060020a03167f22fca66666089f39bc900dd6605b489df4aae6260cc8ea8257594cfb8c84926c8460405190815260200160405180910390a250600192915050565b6000805433600160a060020a039081169116146106bf57600080fd5b83600160a060020a03166366188463848460006040516020015260405160e060020a63ffffffff8516028152600160a060020a0390921660048301526024820152604401602060405180830381600087803b151561071c57600080fd5b6102c65a03f1151561072d57600080fd5b50505060405180515050600160a060020a0384167f495e426dd61227fe840d969dfba17620c573364af8c37748ea71f96f744ae3348484604051600160a060020a03909216825260208201526040908101905180910390a25060019392505050565b6000805433600160a060020a039081169116146107ab57600080fd5b83600160a060020a031663a9059cbb848460006040516020015260405160e060020a63ffffffff8516028152600160a060020a0390921660048301526024820152604401602060405180830381600087803b151561080857600080fd5b6102c65a03f1151561081957600080fd5b505050604051805190505082600160a060020a031684600160a060020a03167f49dc2a60d2599a7b6932d78fb694c30dfc596fe4e0282b5d0fd184b52472c04d8460405190815260200160405180910390a35060019392505050565b600254600160a060020a031681565b60005433600160a060020a0390811691161461089f57600080fd5b600160a060020a03811615156108b457600080fd5b600054600160a060020a0380831691167f8be0079c531659141344cd1fd0a4f28419497f9722a3daafe3b4186f6b6457e060405160405180910390a36000805473ffffffffffffffffffffffffffffffffffffffff1916600160a060020a03929092169190911790555600a165627a7a72305820786998839b4cbdb5de27a89e499d071bb45a6e91c521dbfe4500bd3b9d6741d90029",
  "source": "pragma solidity ^0.4.18;\r\n\r\nimport \"./Controller.sol\";\r\nimport \"./Reputation.sol\";\r\nimport \"./DAOToken.sol\";\r\nimport \"zeppelin-solidity/contracts/ownership/Ownable.sol\";\r\nimport \"zeppelin-solidity/contracts/token/StandardToken.sol\";\r\n\r\n\r\ncontract ActionInterface {\r\n    function action(bytes32[] _params) public returns(bool);\r\n}\r\n\r\n\r\n/**\r\n * @title An Avatar holds tokens, reputation and ether for a controller\r\n */\r\ncontract Avatar is Ownable {\r\n    bytes32 public orgName;\r\n    DAOToken public nativeToken;\r\n    Reputation public nativeReputation;\r\n\r\n    event GenericAction(address indexed _action, bytes32[] _params);\r\n    event SendEther(uint _amountInWei, address indexed _to);\r\n    event ExternalTokenTransfer(address indexed _externalToken, address indexed _to, uint _value);\r\n    event ExternalTokenTransferFrom(address indexed _externalToken, address _from, address _to, uint _value);\r\n    event ExternalTokenIncreaseApproval(StandardToken indexed _externalToken, address _spender, uint _addedValue);\r\n    event ExternalTokenDecreaseApproval(StandardToken indexed _externalToken, address _spender, uint _subtractedValue);\r\n    event ReceiveEther(address indexed _sender, uint _value);\r\n\r\n    /**\r\n    * @dev the constructor takes organization name, native token and reputation system\r\n    and creates an avatar for a controller\r\n    */\r\n    function Avatar(bytes32 _orgName, DAOToken _nativeToken, Reputation _nativeReputation) public {\r\n        orgName = _orgName;\r\n        nativeToken = _nativeToken;\r\n        nativeReputation = _nativeReputation;\r\n    }\r\n\r\n    /**\r\n    * @dev enables an avatar to receive ethers\r\n    */\r\n    function() public payable {\r\n        ReceiveEther(msg.sender, msg.value);\r\n    }\r\n\r\n    /**\r\n    * @dev call an action function on an ActionInterface.\r\n    * This function use deligatecall and might expose the organization to security\r\n    * risk. Use this function only if you really knows what you are doing.\r\n    * @param _action the address of the contract to call.\r\n    * @param _params the params for the call.\r\n    * @return bool which represents success\r\n    */\r\n    function genericAction(address _action, bytes32[] _params)\r\n    public onlyOwner returns(bool)\r\n    {\r\n        GenericAction(_action, _params);\r\n\r\n        return _action.delegatecall(bytes4(keccak256(\"action(bytes32[])\")),\r\n        uint256(32),// length of length of the array\r\n        uint256(_params.length), // length of the array\r\n        _params);                 // array itself);\r\n    }\r\n\r\n    /**\r\n    * @dev send ethers from the avatar's wallet\r\n    * @param _amountInWei amount to send in Wei units\r\n    * @param _to send the ethers to this address\r\n    * @return bool which represents success\r\n    */\r\n    function sendEther(uint _amountInWei, address _to) public onlyOwner returns(bool) {\r\n        _to.transfer(_amountInWei);\r\n        SendEther(_amountInWei, _to);\r\n        return true;\r\n    }\r\n\r\n    /**\r\n    * @dev external token transfer\r\n    * @param _externalToken the token contract\r\n    * @param _to the destination address\r\n    * @param _value the amount of tokens to transfer\r\n    * @return bool which represents success\r\n    */\r\n    function externalTokenTransfer(StandardToken _externalToken, address _to, uint _value)\r\n    public onlyOwner returns(bool)\r\n    {\r\n        _externalToken.transfer(_to, _value);\r\n        ExternalTokenTransfer(_externalToken, _to, _value);\r\n        return true;\r\n    }\r\n\r\n    /**\r\n    * @dev external token transfer from a specific account\r\n    * @param _externalToken the token contract\r\n    * @param _from the account to spend token from\r\n    * @param _to the destination address\r\n    * @param _value the amount of tokens to transfer\r\n    * @return bool which represents success\r\n    */\r\n    function externalTokenTransferFrom(\r\n        StandardToken _externalToken,\r\n        address _from,\r\n        address _to,\r\n        uint _value\r\n    )\r\n    public onlyOwner returns(bool)\r\n    {\r\n        _externalToken.transferFrom(_from, _to, _value);\r\n        ExternalTokenTransferFrom(_externalToken, _from, _to, _value);\r\n        return true;\r\n    }\r\n\r\n    /**\r\n    * @dev increase approval for the spender address to spend a specified amount of tokens\r\n    *      on behalf of msg.sender.\r\n    * @param _externalToken the address of the Token Contract\r\n    * @param _spender address\r\n    * @param _addedValue the amount of ether (in Wei) which the approval is refering to.\r\n    * @return bool which represents a success\r\n    */\r\n    function externalTokenIncreaseApproval(StandardToken _externalToken, address _spender, uint _addedValue)\r\n    public onlyOwner returns(bool)\r\n    {\r\n        _externalToken.increaseApproval(_spender, _addedValue);\r\n        ExternalTokenIncreaseApproval(_externalToken, _spender, _addedValue);\r\n        return true;\r\n    }\r\n\r\n    /**\r\n    * @dev decrease approval for the spender address to spend a specified amount of tokens\r\n    *      on behalf of msg.sender.\r\n    * @param _externalToken the address of the Token Contract\r\n    * @param _spender address\r\n    * @param _subtractedValue the amount of ether (in Wei) which the approval is refering to.\r\n    * @return bool which represents a success\r\n    */\r\n    function externalTokenDecreaseApproval(StandardToken _externalToken, address _spender, uint _subtractedValue )\r\n    public onlyOwner returns(bool)\r\n    {\r\n        _externalToken.decreaseApproval(_spender, _subtractedValue);\r\n        ExternalTokenDecreaseApproval(_externalToken,_spender, _subtractedValue);\r\n        return true;\r\n    }\r\n\r\n}\r\n",
  "sourcePath": "C:\\users\\dkent\\documents\\projects\\GitHub\\DAOStack\\daostack\\contracts\\controller\\Avatar.sol",
  "compiler": {
    "name": "solc",
    "version": "0.4.18+commit.9cf6e910.Emscripten.clang"
  },
  "schemaVersion": "1.0.1",
  "updatedAt": "2017-12-29T21:31:04.835Z"
}