{
  "contractName": "ContributionReward",
  "abi": [
    {
      "constant": true,
      "inputs": [
        {
          "name": "",
          "type": "bytes32"
        }
      ],
      "name": "parameters",
      "outputs": [
        {
          "name": "orgNativeTokenFee",
          "type": "uint256"
        },
        {
          "name": "voteApproveParams",
          "type": "bytes32"
        },
        {
          "name": "schemeNativeTokenFee",
          "type": "uint256"
        },
        {
          "name": "intVote",
          "type": "address"
        }
      ],
      "payable": false,
      "stateMutability": "view",
      "type": "function"
    },
    {
      "constant": true,
      "inputs": [
        {
          "name": "",
          "type": "address"
        },
        {
          "name": "",
          "type": "bytes32"
        }
      ],
      "name": "organizationsProposals",
      "outputs": [
        {
          "name": "contributionDescriptionHash",
          "type": "bytes32"
        },
        {
          "name": "nativeTokenReward",
          "type": "uint256"
        },
        {
          "name": "reputationReward",
          "type": "uint256"
        },
        {
          "name": "ethReward",
          "type": "uint256"
        },
        {
          "name": "externalToken",
          "type": "address"
        },
        {
          "name": "externalTokenReward",
          "type": "uint256"
        },
        {
          "name": "beneficiary",
          "type": "address"
        }
      ],
      "payable": false,
      "stateMutability": "view",
      "type": "function"
    },
    {
      "constant": false,
      "inputs": [
        {
          "name": "_proposalId",
          "type": "bytes32"
        },
        {
          "name": "_avatar",
          "type": "address"
        },
        {
          "name": "_param",
          "type": "int256"
        }
      ],
      "name": "execute",
      "outputs": [
        {
          "name": "",
          "type": "bool"
        }
      ],
      "payable": false,
      "stateMutability": "nonpayable",
      "type": "function"
    },
    {
      "constant": true,
      "inputs": [],
      "name": "beneficiary",
      "outputs": [
        {
          "name": "",
          "type": "address"
        }
      ],
      "payable": false,
      "stateMutability": "view",
      "type": "function"
    },
    {
      "constant": false,
      "inputs": [
        {
          "name": "_nativeToken",
          "type": "address"
        },
        {
          "name": "_fee",
          "type": "uint256"
        },
        {
          "name": "_beneficiary",
          "type": "address"
        },
        {
          "name": "_hashedParameters",
          "type": "bytes32"
        }
      ],
      "name": "updateParameters",
      "outputs": [],
      "payable": false,
      "stateMutability": "nonpayable",
      "type": "function"
    },
    {
      "constant": true,
      "inputs": [
        {
          "name": "",
          "type": "address"
        }
      ],
      "name": "organizations",
      "outputs": [
        {
          "name": "",
          "type": "bool"
        }
      ],
      "payable": false,
      "stateMutability": "view",
      "type": "function"
    },
    {
      "constant": true,
      "inputs": [],
      "name": "owner",
      "outputs": [
        {
          "name": "",
          "type": "address"
        }
      ],
      "payable": false,
      "stateMutability": "view",
      "type": "function"
    },
    {
      "constant": false,
      "inputs": [
        {
          "name": "_avatar",
          "type": "address"
        }
      ],
      "name": "registerOrganization",
      "outputs": [],
      "payable": false,
      "stateMutability": "nonpayable",
      "type": "function"
    },
    {
      "constant": true,
      "inputs": [
        {
          "name": "_orgNativeTokenFee",
          "type": "uint256"
        },
        {
          "name": "_schemeNativeTokenFee",
          "type": "uint256"
        },
        {
          "name": "_voteApproveParams",
          "type": "bytes32"
        },
        {
          "name": "_intVote",
          "type": "address"
        }
      ],
      "name": "getParametersHash",
      "outputs": [
        {
          "name": "",
          "type": "bytes32"
        }
      ],
      "payable": false,
      "stateMutability": "pure",
      "type": "function"
    },
    {
      "constant": false,
      "inputs": [
        {
          "name": "_orgNativeTokenFee",
          "type": "uint256"
        },
        {
          "name": "_schemeNativeTokenFee",
          "type": "uint256"
        },
        {
          "name": "_voteApproveParams",
          "type": "bytes32"
        },
        {
          "name": "_intVote",
          "type": "address"
        }
      ],
      "name": "setParameters",
      "outputs": [
        {
          "name": "",
          "type": "bytes32"
        }
      ],
      "payable": false,
      "stateMutability": "nonpayable",
      "type": "function"
    },
    {
      "constant": false,
      "inputs": [
        {
          "name": "_avatar",
          "type": "address"
        },
        {
          "name": "_contributionDesciptionHash",
          "type": "bytes32"
        },
        {
          "name": "_rewards",
          "type": "uint256[4]"
        },
        {
          "name": "_externalToken",
          "type": "address"
        },
        {
          "name": "_beneficiary",
          "type": "address"
        }
      ],
      "name": "submitContribution",
      "outputs": [
        {
          "name": "",
          "type": "bytes32"
        }
      ],
      "payable": false,
      "stateMutability": "nonpayable",
      "type": "function"
    },
    {
      "constant": true,
      "inputs": [
        {
          "name": "_avatar",
          "type": "address"
        }
      ],
      "name": "isRegistered",
      "outputs": [
        {
          "name": "",
          "type": "bool"
        }
      ],
      "payable": false,
      "stateMutability": "view",
      "type": "function"
    },
    {
      "constant": true,
      "inputs": [],
      "name": "fee",
      "outputs": [
        {
          "name": "",
          "type": "uint256"
        }
      ],
      "payable": false,
      "stateMutability": "view",
      "type": "function"
    },
    {
      "constant": true,
      "inputs": [],
      "name": "nativeToken",
      "outputs": [
        {
          "name": "",
          "type": "address"
        }
      ],
      "payable": false,
      "stateMutability": "view",
      "type": "function"
    },
    {
      "constant": false,
      "inputs": [
        {
          "name": "newOwner",
          "type": "address"
        }
      ],
      "name": "transferOwnership",
      "outputs": [],
      "payable": false,
      "stateMutability": "nonpayable",
      "type": "function"
    },
    {
      "constant": true,
      "inputs": [],
      "name": "hashedParameters",
      "outputs": [
        {
          "name": "",
          "type": "bytes32"
        }
      ],
      "payable": false,
      "stateMutability": "view",
      "type": "function"
    },
    {
      "inputs": [
        {
          "name": "_nativeToken",
          "type": "address"
        },
        {
          "name": "_fee",
          "type": "uint256"
        },
        {
          "name": "_beneficiary",
          "type": "address"
        }
      ],
      "payable": false,
      "stateMutability": "nonpayable",
      "type": "constructor"
    },
    {
      "anonymous": false,
      "inputs": [
        {
          "indexed": true,
          "name": "_avatar",
          "type": "address"
        },
        {
          "indexed": true,
          "name": "_proposalId",
          "type": "bytes32"
        },
        {
          "indexed": true,
          "name": "_intVoteInterface",
          "type": "address"
        },
        {
          "indexed": false,
          "name": "_contributionDesciption",
          "type": "bytes32"
        },
        {
          "indexed": false,
          "name": "_nativeTokenReward",
          "type": "uint256"
        },
        {
          "indexed": false,
          "name": "_reputationReward",
          "type": "uint256"
        },
        {
          "indexed": false,
          "name": "_ethReward",
          "type": "uint256"
        },
        {
          "indexed": false,
          "name": "_externalTokenReward",
          "type": "uint256"
        },
        {
          "indexed": false,
          "name": "_externalToken",
          "type": "address"
        },
        {
          "indexed": false,
          "name": "_beneficiary",
          "type": "address"
        }
      ],
      "name": "LogNewContributionProposal",
      "type": "event"
    },
    {
      "anonymous": false,
      "inputs": [
        {
          "indexed": true,
          "name": "_avatar",
          "type": "address"
        },
        {
          "indexed": true,
          "name": "_proposalId",
          "type": "bytes32"
        }
      ],
      "name": "LogProposalExecuted",
      "type": "event"
    },
    {
      "anonymous": false,
      "inputs": [
        {
          "indexed": true,
          "name": "_avatar",
          "type": "address"
        },
        {
          "indexed": true,
          "name": "_proposalId",
          "type": "bytes32"
        }
      ],
      "name": "LogProposalDeleted",
      "type": "event"
    },
    {
      "anonymous": false,
      "inputs": [
        {
          "indexed": false,
          "name": "_avatar",
          "type": "address"
        }
      ],
      "name": "OrganizationRegistered",
      "type": "event"
    },
    {
      "anonymous": false,
      "inputs": [
        {
          "indexed": false,
          "name": "proposalId",
          "type": "bytes32"
        }
      ],
      "name": "LogNewProposal",
      "type": "event"
    },
    {
      "anonymous": false,
      "inputs": [
        {
          "indexed": true,
          "name": "previousOwner",
          "type": "address"
        },
        {
          "indexed": true,
          "name": "newOwner",
          "type": "address"
        }
      ],
      "name": "OwnershipTransferred",
      "type": "event"
    }
  ],
  "bytecode": "0x6060604052341561000f57600080fd5b6040516060806112a083398101604052808051919060200180519190602001805160008054600160a060020a03191633600160a060020a031617815590925061006b9150849084908490640100000000610073810261086b1704565b5050506100c6565b60005433600160a060020a0390811691161461008e57600080fd5b60018054600160a060020a0319908116600160a060020a03968716179091556002939093556003805490931691909316179055600455565b6111cb806100d56000396000f3006060604052600436106100cc5763ffffffff60e060020a6000350416630250680481146100d157806306e3a9781461011b578063310ce4e21461018957806338af3eed146101c25780634345a610146101f15780635a1f74061461021f5780638da5cb5b1461023e57806390be003c1461025157806399c0bef514610270578063b8961d32146102aa578063bd7a89fa146102d2578063c3c5a5471461032d578063ddca3f431461034c578063e1758bd81461035f578063f2fde38b14610372578063f98e87ba14610391575b600080fd5b34156100dc57600080fd5b6100e76004356103a4565b6040519384526020840192909252604080840191909152600160a060020a0390911660608301526080909101905180910390f35b341561012657600080fd5b61013d600160a060020a03600435166024356103d4565b60405196875260208701959095526040808701949094526060860192909252600160a060020a03908116608086015260a085019190915290911660c083015260e0909101905180910390f35b341561019457600080fd5b6101ae600435600160a060020a0360243516604435610426565b604051901515815260200160405180910390f35b34156101cd57600080fd5b6101d561085c565b604051600160a060020a03909116815260200160405180910390f35b34156101fc57600080fd5b61021d600160a060020a03600435811690602435906044351660643561086b565b005b341561022a57600080fd5b6101ae600160a060020a03600435166108be565b341561024957600080fd5b6101d56108d3565b341561025c57600080fd5b61021d600160a060020a03600435166108e2565b341561027b57600080fd5b610298600435602435604435600160a060020a0360643516610a0b565b60405190815260200160405180910390f35b34156102b557600080fd5b610298600435602435604435600160a060020a0360643516610a5d565b34156102dd57600080fd5b61029860048035600160a060020a0316906024359060c46044826080604051908101604052919082826080808284375093955050600160a060020a03843581169460200135169250610ab6915050565b341561033857600080fd5b6101ae600160a060020a0360043516610f98565b341561035757600080fd5b610298610fb6565b341561036a57600080fd5b6101d5610fbc565b341561037d57600080fd5b61021d600160a060020a0360043516610fcb565b341561039c57600080fd5b610298611059565b600760205260009081526040902080546001820154600283015460039093015491929091600160a060020a031684565b6006602081815260009384526040808520909152918352912080546001820154600283015460038401546004850154600586015495909601549395929491939092600160a060020a0390811692911687565b600061043061113c565b600033600160a060020a0316600760006104498861105f565b8152602081019190915260400160002060030154600160a060020a03161461047057600080fd5b83600114156107be57600160a060020a0385166000908152600660209081526040808320898452909152908190209060e0905190810160409081528254825260018301546020830152600283015481830152600383015460608301526004830154600160a060020a039081166080840152600584015460a0840152600690930154831660c083015290935090861690638da5cb5b9060009051602001526040518163ffffffff1660e060020a028152600401602060405180830381600087803b151561053b57600080fd5b6102c65a03f1151561054c57600080fd5b5050506040518051915050600160a060020a0381166318e236e460408401518460c0015160006040516020015260405160e060020a63ffffffff85160281526004810192909252600160a060020a03166024820152604401602060405180830381600087803b15156105bd57600080fd5b6102c65a03f115156105ce57600080fd5b5050506040518051905015156105e357600080fd5b80600160a060020a03166310c5b32883602001518460c0015160006040516020015260405160e060020a63ffffffff85160281526004810192909252600160a060020a03166024820152604401602060405180830381600087803b151561064957600080fd5b6102c65a03f1151561065a57600080fd5b50505060405180519050151561066f57600080fd5b80600160a060020a031663cb16d4a283606001518460c0015160006040516020015260405160e060020a63ffffffff85160281526004810192909252600160a060020a03166024820152604401602060405180830381600087803b15156106d557600080fd5b6102c65a03f115156106e657600080fd5b5050506040518051905015156106fb57600080fd5b60006080830151600160a060020a03161415801561071d575060008260a00151115b156107be5780600160a060020a031663dab0efff83608001518460c001518560a0015160006040516020015260405160e060020a63ffffffff8616028152600160a060020a0393841660048201529190921660248201526044810191909152606401602060405180830381600087803b151561079857600080fd5b6102c65a03f115156107a957600080fd5b5050506040518051905015156107be57600080fd5b600160a060020a03851660008181526006602081815260408084208b8552909152808320838155600181018490556002810184905560038101849055600481018054600160a060020a0319908116909155600582019490945590910180549092169091558791907f1f9b6fe94f8389fd9936094c2246b3cb2b4392e59e72e915e70e6a08a47a1fb9905160405180910390a350600195945050505050565b600354600160a060020a031681565b60005433600160a060020a0390811691161461088657600080fd5b60018054600160a060020a0319908116600160a060020a03968716179091556002939093556003805490931691909316179055600455565b60056020526000908152604090205460ff1681565b600054600160a060020a031681565b600060025411801561090d5750600160a060020a03811660009081526005602052604090205460ff16155b156109a657600154600354600254600160a060020a03928316926323b872dd92859291169060006040516020015260405160e060020a63ffffffff8616028152600160a060020a0393841660048201529190921660248201526044810191909152606401602060405180830381600087803b151561098a57600080fd5b6102c65a03f1151561099b57600080fd5b505050604051805150505b600160a060020a03811660009081526005602052604090819020805460ff191660011790557f2178e9c576507a4c15d3deab489af3f699a3dedbff9a7ef27c43a017027710e590829051600160a060020a03909116815260200160405180910390a150565b6000828585846040519384526020840192909252604080840191909152600160a060020a039091166c010000000000000000000000000260608301526074909101905180910390209050949350505050565b600080610a6c86868686610a0b565b600081815260076020526040902096875560028701959095555050600184019190915560039092018054600160a060020a031916600160a060020a03939093169290921790915590565b6000610ac0611178565b6000610aca61113c565b600160a060020a038916600090815260056020526040902054899060ff161515610af357600080fd5b60076000610b008c61105f565b815260208101919091526040908101600020906080905190810160409081528254825260018301546020830152600283015490820152600390910154600160a060020a031660608201529350600084511115610c3d5789600160a060020a031663e1758bd86000604051602001526040518163ffffffff1660e060020a028152600401602060405180830381600087803b1515610b9c57600080fd5b6102c65a03f11515610bad57600080fd5b5050506040518051600160a060020a031690506323b872dd338c875160006040516020015260405160e060020a63ffffffff8616028152600160a060020a0393841660048201529190921660248201526044810191909152606401602060405180830381600087803b1515610c2157600080fd5b6102c65a03f11515610c3257600080fd5b505050604051805150505b600084604001511115610cd657600154600160a060020a03166323b872dd338c604088015160006040516020015260405160e060020a63ffffffff8616028152600160a060020a0393841660048201529190921660248201526044810191909152606401602060405180830381600087803b1515610cba57600080fd5b6102c65a03f11515610ccb57600080fd5b505050604051805150505b8360600151600160a060020a03166388737b5e600286602001518d3060006040516020015260405160e060020a63ffffffff871602815260048101949094526024840192909252600160a060020a039081166044840152166064820152608401602060405180830381600087803b1515610d4f57600080fd5b6102c65a03f11515610d6057600080fd5b5050506040518051935050600160a060020a0386161515610d7f573395505b60e060405190810160405289815260208101895181526020018960016020020151815260200160408a01518152600160a060020a038916602082015260400160608a01518152600160a060020a038089166020928301528c166000908152600682526040808220878352909252209092508290815181556020820151816001015560408201518160020155606082015181600301556080820151600482018054600160a060020a031916600160a060020a039290921691909117905560a0820151816005015560c08201516006919091018054600160a060020a031916600160a060020a03909216919091179055506060840151600160a060020a039081169084908c167f5cc98899c5cc30cc7fb336d0e1f31f81039617b2e23ff5ed8cd43803208e75ac8c8c5160208e015160408f01518f600360200201518f8f604051968752602087019590955260408087019490945260608601929092526080850152600160a060020a0390811660a085015290911660c083015260e0909101905180910390a48360600151600160a060020a031663339e23d18460013360006040516020015260405160e060020a63ffffffff861602815260048101939093526024830191909152600160a060020a03166044820152606401602060405180830381600087803b1515610f6f57600080fd5b6102c65a03f11515610f8057600080fd5b505050604051805150929a9950505050505050505050565b600160a060020a031660009081526005602052604090205460ff1690565b60025481565b600154600160a060020a031681565b60005433600160a060020a03908116911614610fe657600080fd5b600160a060020a0381161515610ffb57600080fd5b600054600160a060020a0380831691167f8be0079c531659141344cd1fd0a4f28419497f9722a3daafe3b4186f6b6457e060405160405180910390a360008054600160a060020a031916600160a060020a0392909216919091179055565b60045481565b60008082600160a060020a0316638da5cb5b6000604051602001526040518163ffffffff1660e060020a028152600401602060405180830381600087803b15156110a857600080fd5b6102c65a03f115156110b957600080fd5b5050506040518051915050600160a060020a0381166346e361b73060006040516020015260405160e060020a63ffffffff8416028152600160a060020a039091166004820152602401602060405180830381600087803b151561111b57600080fd5b6102c65a03f1151561112c57600080fd5b5050506040518051949350505050565b60e06040519081016040908152600080835260208301819052908201819052606082018190526080820181905260a0820181905260c082015290565b608060405190810160409081526000808352602083018190529082018190526060820152905600a165627a7a72305820e19ba5c3407769bb4219cc46acf422cec18259d7c9b564b87474be37281a77490029",
  "source": "pragma solidity ^0.4.18;\r\n\r\nimport \"../VotingMachines/IntVoteInterface.sol\";\r\nimport \"./UniversalScheme.sol\";\r\n\r\n\r\n/**\r\n * @title A scheme for proposing and rewarding contributions to an organization\r\n * @dev An agent can ask an organization to recognize a contribution and reward\r\n * him with token, reputation, ether or any combination.\r\n */\r\n\r\ncontract ContributionReward is UniversalScheme {\r\n    event LogNewContributionProposal(\r\n        address indexed _avatar,\r\n        bytes32 indexed _proposalId,\r\n        address indexed _intVoteInterface,\r\n        bytes32 _contributionDesciption,\r\n        uint _nativeTokenReward,\r\n        uint _reputationReward,\r\n        uint _ethReward,\r\n        uint _externalTokenReward,\r\n        StandardToken _externalToken,\r\n        address _beneficiary\r\n    );\r\n    event LogProposalExecuted(address indexed _avatar, bytes32 indexed _proposalId);\r\n    event LogProposalDeleted(address indexed _avatar, bytes32 indexed _proposalId);\r\n\r\n    // A struct holding the data for a contribution proposal\r\n    struct ContributionProposal {\r\n        bytes32 contributionDescriptionHash; // Hash of contribution document.\r\n        uint nativeTokenReward; // Reward asked in the native token of the organization.\r\n        uint reputationReward; // Organization reputation reward requested.\r\n        uint ethReward;\r\n        StandardToken externalToken;\r\n        uint externalTokenReward;\r\n        address beneficiary;\r\n    }\r\n\r\n    // A mapping from the organization (Avatar) address to the saved data of the organization:\r\n    mapping(address=>mapping(bytes32=>ContributionProposal)) public organizationsProposals;\r\n\r\n    // A mapping from hashes to parameters (use to store a particular configuration on the controller)\r\n    // A contibution fee can be in the organization token or the scheme token or a combination\r\n    struct Parameters {\r\n        uint orgNativeTokenFee; // a fee (in the organization's token) that is to be paid for submitting a contribution\r\n        bytes32 voteApproveParams;\r\n        uint schemeNativeTokenFee; // a fee (in the present schemes token)  that is to be paid for submission\r\n        IntVoteInterface intVote;\r\n    }\r\n    // A mapping from hashes to parameters (use to store a particular configuration on the controller)\r\n    mapping(bytes32=>Parameters) public parameters;\r\n\r\n    /**\r\n    * @dev the constructor takes a token address, fee and beneficiary\r\n    */\r\n    function ContributionReward(StandardToken _nativeToken, uint _fee, address _beneficiary) public {\r\n        updateParameters(_nativeToken, _fee, _beneficiary, bytes32(0));\r\n    }\r\n\r\n    /**\r\n    * @dev hash the parameters, save them if necessary, and return the hash value\r\n    */\r\n    function setParameters(\r\n        uint _orgNativeTokenFee,\r\n        uint _schemeNativeTokenFee,\r\n        bytes32 _voteApproveParams,\r\n        IntVoteInterface _intVote\r\n    ) public returns(bytes32)\r\n    {\r\n        bytes32 paramsHash = getParametersHash(\r\n            _orgNativeTokenFee,\r\n            _schemeNativeTokenFee,\r\n            _voteApproveParams,\r\n            _intVote\r\n        );\r\n        parameters[paramsHash].orgNativeTokenFee = _orgNativeTokenFee;\r\n        parameters[paramsHash].schemeNativeTokenFee = _schemeNativeTokenFee;\r\n        parameters[paramsHash].voteApproveParams = _voteApproveParams;\r\n        parameters[paramsHash].intVote = _intVote;\r\n        return paramsHash;\r\n    }\r\n\r\n    /**\r\n    * @dev return a hash of the given parameters\r\n    * @param _orgNativeTokenFee the fee for submitting a contribution in organizations native token\r\n    * @param _schemeNativeTokenFee the fee for submitting a contribution if paied in schemes native token\r\n    * @param _voteApproveParams parameters for the voting machine used to approve a contribution\r\n    * @param _intVote the voting machine used to approve a contribution\r\n    * @return a hash of the parameters\r\n    */\r\n    // TODO: These fees are messy. Better to have a _fee and _feeToken pair, just as in some other contract (which one?) with some sane default\r\n    function getParametersHash(\r\n        uint _orgNativeTokenFee,\r\n        uint _schemeNativeTokenFee,\r\n        bytes32 _voteApproveParams,\r\n        IntVoteInterface _intVote\r\n    ) public pure returns(bytes32)\r\n    {\r\n        return (keccak256(_voteApproveParams, _orgNativeTokenFee, _schemeNativeTokenFee, _intVote));\r\n    }\r\n\r\n    /**\r\n    * @dev Submit a proposal for a reward for a contribution:\r\n    * @param _avatar Avatar of the organization that the contribution was made for\r\n    * @param _contributionDesciptionHash A hash of the contribution's description\r\n    * @param _rewards rewards array:\r\n    *         rewards[0] - Amount of tokens requested\r\n    *         rewards[1] - Amount of reputation requested\r\n    *         rewards[2] - Amount of ETH requested\r\n    *         rewards[3] - Amount of extenral tokens requested\r\n    * @param _externalToken Address of external token, if reward is requested there\r\n    * @param _beneficiary Who gets the rewards\r\n    */\r\n    function submitContribution(\r\n        Avatar _avatar,\r\n        bytes32 _contributionDesciptionHash,\r\n        uint[4] _rewards,\r\n        StandardToken _externalToken,\r\n        address _beneficiary\r\n    ) public\r\n      onlyRegisteredOrganization(_avatar)\r\n      returns(bytes32)\r\n    {\r\n        Parameters memory controllerParams = parameters[getParametersFromController(_avatar)];\r\n        // Pay fees for submitting the contribution:\r\n        if (controllerParams.orgNativeTokenFee > 0) {\r\n            _avatar.nativeToken().transferFrom(msg.sender, _avatar, controllerParams.orgNativeTokenFee);\r\n        }\r\n        if (controllerParams.schemeNativeTokenFee > 0) {\r\n            nativeToken.transferFrom(msg.sender, _avatar, controllerParams.schemeNativeTokenFee);\r\n        }\r\n\r\n        bytes32 contributionId = controllerParams.intVote.propose(2, controllerParams.voteApproveParams, _avatar, ExecutableInterface(this));\r\n\r\n        // Check beneficiary is not null:\r\n        if (_beneficiary == address(0)) {\r\n            _beneficiary = msg.sender;\r\n        }\r\n\r\n        // Set the struct:\r\n        ContributionProposal memory proposal = ContributionProposal({\r\n            contributionDescriptionHash: _contributionDesciptionHash,\r\n            nativeTokenReward: _rewards[0],\r\n            reputationReward: _rewards[1],\r\n            ethReward: _rewards[2],\r\n            externalToken: _externalToken,\r\n            externalTokenReward: _rewards[3],\r\n            beneficiary: _beneficiary\r\n        });\r\n        organizationsProposals[_avatar][contributionId] = proposal;\r\n\r\n        LogNewContributionProposal(\r\n            _avatar,\r\n            contributionId,\r\n            controllerParams.intVote,\r\n            _contributionDesciptionHash,\r\n            _rewards[0],\r\n            _rewards[1],\r\n            _rewards[2],\r\n            _rewards[3],\r\n            _externalToken,\r\n            _beneficiary\r\n        );\r\n\r\n        // vote for this proposal\r\n        controllerParams.intVote.ownerVote(contributionId, 1, msg.sender); // Automatically votes `yes` in the name of the opener.\r\n        return contributionId;\r\n    }\r\n\r\n    /**\r\n    * @dev execution of proposals, can only be called by the voting machine in which the vote is held.\r\n    * @param _proposalId the ID of the voting in the voting machine\r\n    * @param _avatar address of the controller\r\n    * @param _param a parameter of the voting result, 0 is no and 1 is yes.\r\n    */\r\n    function execute(bytes32 _proposalId, address _avatar, int _param) public returns(bool) {\r\n        // Check the caller is indeed the voting machine:\r\n        require(parameters[getParametersFromController(Avatar(_avatar))].intVote == msg.sender);\r\n        // Check if vote was successful:\r\n        if (_param == 1) {\r\n        // Define controller and get the parmas:\r\n            ContributionProposal memory proposal = organizationsProposals[_avatar][_proposalId];\r\n\r\n        // pay the funds:\r\n            Controller controller = Controller(Avatar(_avatar).owner());\r\n            if (!controller.mintReputation(int(proposal.reputationReward), proposal.beneficiary)) {\r\n                revert();\r\n              }\r\n            if (!controller.mintTokens(proposal.nativeTokenReward, proposal.beneficiary)) {\r\n                revert();\r\n              }\r\n            if (!controller.sendEther(proposal.ethReward, proposal.beneficiary)) {\r\n                revert();\r\n              }\r\n            if (proposal.externalToken != address(0) && proposal.externalTokenReward > 0) {\r\n                if (!controller.externalTokenTransfer(proposal.externalToken, proposal.beneficiary, proposal.externalTokenReward)) {\r\n                    revert();\r\n                  }\r\n                }\r\n          }\r\n        delete organizationsProposals[_avatar][_proposalId];\r\n        LogProposalExecuted(_avatar, _proposalId);\r\n        return true;\r\n    }\r\n}\r\n",
  "sourcePath": "C:\\Users\\dkent\\Documents\\Projects\\GitHub\\DAOStack\\daostack\\contracts\\universalSchemes\\ContributionReward.sol",
  "compiler": {
    "name": "solc",
    "version": "0.4.18+commit.9cf6e910.Emscripten.clang"
  },
  "schemaVersion": "1.0.1",
  "updatedAt": "2017-12-29T14:00:23.519Z"
}