{
  "contractName": "Controller",
  "abi": [
    {
      "constant": false,
      "inputs": [
        {
          "name": "_amount",
          "type": "uint256"
        },
        {
          "name": "_beneficiary",
          "type": "address"
        }
      ],
      "name": "mintTokens",
      "outputs": [
        {
          "name": "",
          "type": "bool"
        }
      ],
      "payable": false,
      "stateMutability": "nonpayable",
      "type": "function"
    },
    {
      "constant": false,
      "inputs": [
        {
          "name": "_amount",
          "type": "int256"
        },
        {
          "name": "_beneficiary",
          "type": "address"
        }
      ],
      "name": "mintReputation",
      "outputs": [
        {
          "name": "",
          "type": "bool"
        }
      ],
      "payable": false,
      "stateMutability": "nonpayable",
      "type": "function"
    },
    {
      "constant": true,
      "inputs": [],
      "name": "newController",
      "outputs": [
        {
          "name": "",
          "type": "address"
        }
      ],
      "payable": false,
      "stateMutability": "view",
      "type": "function"
    },
    {
      "constant": false,
      "inputs": [
        {
          "name": "_globalConstraint",
          "type": "address"
        },
        {
          "name": "_params",
          "type": "bytes32"
        }
      ],
      "name": "addGlobalConstraint",
      "outputs": [
        {
          "name": "",
          "type": "bool"
        }
      ],
      "payable": false,
      "stateMutability": "nonpayable",
      "type": "function"
    },
    {
      "constant": true,
      "inputs": [
        {
          "name": "_scheme",
          "type": "address"
        }
      ],
      "name": "getSchemeParameters",
      "outputs": [
        {
          "name": "",
          "type": "bytes32"
        }
      ],
      "payable": false,
      "stateMutability": "view",
      "type": "function"
    },
    {
      "constant": false,
      "inputs": [
        {
          "name": "_globalConstraint",
          "type": "address"
        }
      ],
      "name": "removeGlobalConstraint",
      "outputs": [
        {
          "name": "",
          "type": "bool"
        }
      ],
      "payable": false,
      "stateMutability": "nonpayable",
      "type": "function"
    },
    {
      "constant": true,
      "inputs": [],
      "name": "avatar",
      "outputs": [
        {
          "name": "",
          "type": "address"
        }
      ],
      "payable": false,
      "stateMutability": "view",
      "type": "function"
    },
    {
      "constant": false,
      "inputs": [
        {
          "name": "_scheme",
          "type": "address"
        }
      ],
      "name": "unregisterScheme",
      "outputs": [
        {
          "name": "",
          "type": "bool"
        }
      ],
      "payable": false,
      "stateMutability": "nonpayable",
      "type": "function"
    },
    {
      "constant": true,
      "inputs": [
        {
          "name": "",
          "type": "uint256"
        }
      ],
      "name": "globalConstraints",
      "outputs": [
        {
          "name": "gcAddress",
          "type": "address"
        },
        {
          "name": "params",
          "type": "bytes32"
        }
      ],
      "payable": false,
      "stateMutability": "view",
      "type": "function"
    },
    {
      "constant": false,
      "inputs": [],
      "name": "unregisterSelf",
      "outputs": [
        {
          "name": "",
          "type": "bool"
        }
      ],
      "payable": false,
      "stateMutability": "nonpayable",
      "type": "function"
    },
    {
      "constant": false,
      "inputs": [
        {
          "name": "_action",
          "type": "address"
        },
        {
          "name": "_params",
          "type": "bytes32[]"
        }
      ],
      "name": "genericAction",
      "outputs": [
        {
          "name": "",
          "type": "bool"
        }
      ],
      "payable": false,
      "stateMutability": "nonpayable",
      "type": "function"
    },
    {
      "constant": false,
      "inputs": [
        {
          "name": "_externalToken",
          "type": "address"
        },
        {
          "name": "_spender",
          "type": "address"
        },
        {
          "name": "_value",
          "type": "uint256"
        }
      ],
      "name": "externalTokenApprove",
      "outputs": [
        {
          "name": "",
          "type": "bool"
        }
      ],
      "payable": false,
      "stateMutability": "nonpayable",
      "type": "function"
    },
    {
      "constant": true,
      "inputs": [
        {
          "name": "_scheme",
          "type": "address"
        }
      ],
      "name": "isSchemeRegistered",
      "outputs": [
        {
          "name": "",
          "type": "bool"
        }
      ],
      "payable": false,
      "stateMutability": "view",
      "type": "function"
    },
    {
      "constant": true,
      "inputs": [],
      "name": "nativeReputation",
      "outputs": [
        {
          "name": "",
          "type": "address"
        }
      ],
      "payable": false,
      "stateMutability": "view",
      "type": "function"
    },
    {
      "constant": true,
      "inputs": [
        {
          "name": "_scheme",
          "type": "address"
        }
      ],
      "name": "getSchemePermissions",
      "outputs": [
        {
          "name": "",
          "type": "bytes4"
        }
      ],
      "payable": false,
      "stateMutability": "view",
      "type": "function"
    },
    {
      "constant": false,
      "inputs": [
        {
          "name": "_scheme",
          "type": "address"
        },
        {
          "name": "_paramsHash",
          "type": "bytes32"
        },
        {
          "name": "_permissions",
          "type": "bytes4"
        }
      ],
      "name": "registerScheme",
      "outputs": [
        {
          "name": "",
          "type": "bool"
        }
      ],
      "payable": false,
      "stateMutability": "nonpayable",
      "type": "function"
    },
    {
      "constant": false,
      "inputs": [
        {
          "name": "_externalToken",
          "type": "address"
        },
        {
          "name": "_from",
          "type": "address"
        },
        {
          "name": "_to",
          "type": "address"
        },
        {
          "name": "_value",
          "type": "uint256"
        }
      ],
      "name": "externalTokenTransferFrom",
      "outputs": [
        {
          "name": "",
          "type": "bool"
        }
      ],
      "payable": false,
      "stateMutability": "nonpayable",
      "type": "function"
    },
    {
      "constant": false,
      "inputs": [
        {
          "name": "_newController",
          "type": "address"
        }
      ],
      "name": "upgradeController",
      "outputs": [
        {
          "name": "",
          "type": "bool"
        }
      ],
      "payable": false,
      "stateMutability": "nonpayable",
      "type": "function"
    },
    {
      "constant": false,
      "inputs": [
        {
          "name": "_amountInWei",
          "type": "uint256"
        },
        {
          "name": "_to",
          "type": "address"
        }
      ],
      "name": "sendEther",
      "outputs": [
        {
          "name": "",
          "type": "bool"
        }
      ],
      "payable": false,
      "stateMutability": "nonpayable",
      "type": "function"
    },
    {
      "constant": true,
      "inputs": [],
      "name": "globalConstraintsCount",
      "outputs": [
        {
          "name": "",
          "type": "uint256"
        }
      ],
      "payable": false,
      "stateMutability": "view",
      "type": "function"
    },
    {
      "constant": false,
      "inputs": [
        {
          "name": "_externalToken",
          "type": "address"
        },
        {
          "name": "_to",
          "type": "address"
        },
        {
          "name": "_value",
          "type": "uint256"
        }
      ],
      "name": "externalTokenTransfer",
      "outputs": [
        {
          "name": "",
          "type": "bool"
        }
      ],
      "payable": false,
      "stateMutability": "nonpayable",
      "type": "function"
    },
    {
      "constant": true,
      "inputs": [
        {
          "name": "",
          "type": "address"
        }
      ],
      "name": "schemes",
      "outputs": [
        {
          "name": "paramsHash",
          "type": "bytes32"
        },
        {
          "name": "permissions",
          "type": "bytes4"
        }
      ],
      "payable": false,
      "stateMutability": "view",
      "type": "function"
    },
    {
      "constant": true,
      "inputs": [],
      "name": "nativeToken",
      "outputs": [
        {
          "name": "",
          "type": "address"
        }
      ],
      "payable": false,
      "stateMutability": "view",
      "type": "function"
    },
    {
      "inputs": [
        {
          "name": "_avatar",
          "type": "address"
        },
        {
          "name": "_nativeToken",
          "type": "address"
        },
        {
          "name": "_nativeReputation",
          "type": "address"
        },
        {
          "name": "_schemes",
          "type": "address[]"
        },
        {
          "name": "_params",
          "type": "bytes32[]"
        },
        {
          "name": "_permissions",
          "type": "bytes4[]"
        }
      ],
      "payable": false,
      "stateMutability": "nonpayable",
      "type": "constructor"
    },
    {
      "payable": false,
      "stateMutability": "nonpayable",
      "type": "fallback"
    },
    {
      "anonymous": false,
      "inputs": [
        {
          "indexed": true,
          "name": "_sender",
          "type": "address"
        },
        {
          "indexed": true,
          "name": "_beneficiary",
          "type": "address"
        },
        {
          "indexed": false,
          "name": "_amount",
          "type": "int256"
        }
      ],
      "name": "MintReputation",
      "type": "event"
    },
    {
      "anonymous": false,
      "inputs": [
        {
          "indexed": true,
          "name": "_sender",
          "type": "address"
        },
        {
          "indexed": true,
          "name": "_beneficiary",
          "type": "address"
        },
        {
          "indexed": false,
          "name": "_amount",
          "type": "uint256"
        }
      ],
      "name": "MintTokens",
      "type": "event"
    },
    {
      "anonymous": false,
      "inputs": [
        {
          "indexed": true,
          "name": "_sender",
          "type": "address"
        },
        {
          "indexed": true,
          "name": "_scheme",
          "type": "address"
        }
      ],
      "name": "RegisterScheme",
      "type": "event"
    },
    {
      "anonymous": false,
      "inputs": [
        {
          "indexed": true,
          "name": "_sender",
          "type": "address"
        },
        {
          "indexed": true,
          "name": "_scheme",
          "type": "address"
        }
      ],
      "name": "UnregisterScheme",
      "type": "event"
    },
    {
      "anonymous": false,
      "inputs": [
        {
          "indexed": true,
          "name": "_sender",
          "type": "address"
        },
        {
          "indexed": true,
          "name": "_action",
          "type": "address"
        },
        {
          "indexed": false,
          "name": "_params",
          "type": "bytes32[]"
        }
      ],
      "name": "GenericAction",
      "type": "event"
    },
    {
      "anonymous": false,
      "inputs": [
        {
          "indexed": true,
          "name": "_sender",
          "type": "address"
        },
        {
          "indexed": false,
          "name": "_amountInWei",
          "type": "uint256"
        },
        {
          "indexed": true,
          "name": "_to",
          "type": "address"
        }
      ],
      "name": "SendEther",
      "type": "event"
    },
    {
      "anonymous": false,
      "inputs": [
        {
          "indexed": true,
          "name": "_sender",
          "type": "address"
        },
        {
          "indexed": true,
          "name": "_externalToken",
          "type": "address"
        },
        {
          "indexed": true,
          "name": "_to",
          "type": "address"
        },
        {
          "indexed": false,
          "name": "_value",
          "type": "uint256"
        }
      ],
      "name": "ExternalTokenTransfer",
      "type": "event"
    },
    {
      "anonymous": false,
      "inputs": [
        {
          "indexed": true,
          "name": "_sender",
          "type": "address"
        },
        {
          "indexed": true,
          "name": "_externalToken",
          "type": "address"
        },
        {
          "indexed": false,
          "name": "_from",
          "type": "address"
        },
        {
          "indexed": false,
          "name": "_to",
          "type": "address"
        },
        {
          "indexed": false,
          "name": "_value",
          "type": "uint256"
        }
      ],
      "name": "ExternalTokenTransferFrom",
      "type": "event"
    },
    {
      "anonymous": false,
      "inputs": [
        {
          "indexed": true,
          "name": "_sender",
          "type": "address"
        },
        {
          "indexed": true,
          "name": "_externalToken",
          "type": "address"
        },
        {
          "indexed": false,
          "name": "_spender",
          "type": "address"
        },
        {
          "indexed": false,
          "name": "_value",
          "type": "uint256"
        }
      ],
      "name": "ExternalTokenApprove",
      "type": "event"
    },
    {
      "anonymous": false,
      "inputs": [
        {
          "indexed": false,
          "name": "_globalconstraint",
          "type": "address"
        },
        {
          "indexed": false,
          "name": "_params",
          "type": "bytes32"
        }
      ],
      "name": "AddGlobalConstraint",
      "type": "event"
    },
    {
      "anonymous": false,
      "inputs": [
        {
          "indexed": false,
          "name": "_globalConstraint",
          "type": "address"
        },
        {
          "indexed": false,
          "name": "_index",
          "type": "uint256"
        }
      ],
      "name": "RemoveGlobalConstraint",
      "type": "event"
    },
    {
      "anonymous": false,
      "inputs": [
        {
          "indexed": false,
          "name": "_oldController",
          "type": "address"
        },
        {
          "indexed": false,
          "name": "_newController",
          "type": "address"
        }
      ],
      "name": "UpgradeController",
      "type": "event"
    }
  ],
  "bytecode": "0x606060405234156200001057600080fd5b60405162002a7f38038062002a7f8339810160405280805191906020018051919060200180519190602001805182019190602001805182019190602001805160018054600160a060020a03808b16600160a060020a031992831617909255600280548a84169083161790556003805492891692909116919091179055909101905060005b8351811015620001f1576040805190810160405280848381518110620000b657fe5b9060200190602002015181526020017c0100000000000000000000000000000000000000000000000000000000848481518110620000f057fe5b90602001906020020151177fffffffff000000000000000000000000000000000000000000000000000000001690526000808684815181106200012f57fe5b90602001906020020151600160a060020a031681526020810191909152604001600020815181556020820151600191909101805463ffffffff19167c0100000000000000000000000000000000000000000000000000000000909204919091179055508381815181106200019f57fe5b90602001906020020151600160a060020a031633600160a060020a03167f546816e99403df442acb68ef69562682a50762c20a3fb6b472f7af9923736cfc60405160405180910390a360010162000094565b5050505050505061287780620002086000396000f3006060604052600436106101195763ffffffff60e060020a60003504166310c5b328811461012957806318e236e41461015f5780633a02263c1461018157806346a4869c146101b057806346e361b7146101d2578063488b3814146102035780635aef7de614610222578063653915e51461023557806365ab1ae8146102545780636bafaa591461028c5780636ce15a541461029f57806379c6ad9e146102fc57806381d064c41461032457806389ae1c90146103435780639fe0272614610356578063a34abaa814610392578063b756d5a2146103c1578063b9c2ee82146103ef578063cb16d4a21461040e578063d5210f6014610430578063dab0efff14610443578063db6149ce1461046b578063e1758bd8146104ac575b341561012457600080fd5b600080fd5b341561013457600080fd5b61014b600435600160a060020a03602435166104bf565b604051901515815260200160405180910390f35b341561016a57600080fd5b61014b600435600160a060020a03602435166107a1565b341561018c57600080fd5b610194610a7b565b604051600160a060020a03909116815260200160405180910390f35b34156101bb57600080fd5b61014b600160a060020a0360043516602435610a8a565b34156101dd57600080fd5b6101f1600160a060020a0360043516610b9c565b60405190815260200160405180910390f35b341561020e57600080fd5b61014b600160a060020a0360043516610bb7565b341561022d57600080fd5b610194610d44565b341561024057600080fd5b61014b600160a060020a0360043516610d53565b341561025f57600080fd5b61026a600435611090565b604051600160a060020a03909216825260208201526040908101905180910390f35b341561029757600080fd5b61014b6110c6565b34156102aa57600080fd5b61014b60048035600160a060020a031690604460248035908101908301358060208082020160405190810160405280939291908181526020018383602002808284375094965061113f95505050505050565b341561030757600080fd5b61014b600160a060020a03600435811690602435166044356114a6565b341561032f57600080fd5b61014b600160a060020a03600435166117a7565b341561034e57600080fd5b6101946117d0565b341561036157600080fd5b610375600160a060020a03600435166117df565b604051600160e060020a0319909116815260200160405180910390f35b341561039d57600080fd5b61014b600160a060020a0360043516602435600160e060020a031960443516611803565b34156103cc57600080fd5b61014b600160a060020a0360043581169060243581169060443516606435611ba0565b34156103fa57600080fd5b61014b600160a060020a0360043516611eb5565b341561041957600080fd5b61014b600435600160a060020a03602435166121c7565b341561043b57600080fd5b6101f16124a2565b341561044e57600080fd5b61014b600160a060020a03600435811690602435166044356124a8565b341561047657600080fd5b61048a600160a060020a0360043516612799565b604051918252600160e060020a03191660208201526040908101905180910390f35b34156104b757600080fd5b6101946127b8565b600160a060020a03331660009081526020819052604081206001015460e060020a9081028116146104ef57600080fd5b7f6d696e74546f6b656e730000000000000000000000000000000000000000000060005b6005548110156105f357600580548290811061052b57fe5b600091825260209091206002909102015460058054600160a060020a039092169163c1786ab29133918590811061055e57fe5b9060005260206000209060020201600101548560006040516020015260405160e060020a63ffffffff8616028152600160a060020a03909316600484015260248301919091526044820152606401602060405180830381600087803b15156105c557600080fd5b6102c65a03f115156105d657600080fd5b5050506040518051905015156105eb57600080fd5b600101610513565b83600160a060020a031633600160a060020a03167f21f9c9a1a1f9a311a50f15fec5c1faa9e21fc9edf964f0fdecba5bd490484c5e8760405190815260200160405180910390a3600254600160a060020a03166340c10f19858760006040516020015260405160e060020a63ffffffff8516028152600160a060020a0390921660048301526024820152604401602060405180830381600087803b151561069957600080fd5b6102c65a03f115156106aa57600080fd5b50505060405180519350505060005b6005548110156107995760058054829081106106d157fe5b600091825260209091206002909102015460058054600160a060020a0390921691638043154d9133918590811061070457fe5b9060005260206000209060020201600101548560006040516020015260405160e060020a63ffffffff8616028152600160a060020a03909316600484015260248301919091526044820152606401602060405180830381600087803b151561076b57600080fd5b6102c65a03f1151561077c57600080fd5b50505060405180519050151561079157600080fd5b6001016106b9565b505092915050565b600160a060020a03331660009081526020819052604081206001015460e060020a9081028116146107d157600080fd5b7f6d696e7452657075746174696f6e00000000000000000000000000000000000060005b6005548110156108d557600580548290811061080d57fe5b600091825260209091206002909102015460058054600160a060020a039092169163c1786ab29133918590811061084057fe5b9060005260206000209060020201600101548560006040516020015260405160e060020a63ffffffff8616028152600160a060020a03909316600484015260248301919091526044820152606401602060405180830381600087803b15156108a757600080fd5b6102c65a03f115156108b857600080fd5b5050506040518051905015156108cd57600080fd5b6001016107f5565b83600160a060020a031633600160a060020a03167fb6ced7e295ffd06d19f45bd872b3bd3fd172b1ba53b17ce0543c276d06f5a4228760405190815260200160405180910390a3600354600160a060020a031663fd9bf3aa858760006040516020015260405160e060020a63ffffffff8516028152600160a060020a0390921660048301526024820152604401602060405180830381600087803b151561097b57600080fd5b6102c65a03f1151561098c57600080fd5b50505060405180519350505060005b6005548110156107995760058054829081106109b357fe5b600091825260209091206002909102015460058054600160a060020a0390921691638043154d913391859081106109e657fe5b9060005260206000209060020201600101548560006040516020015260405160e060020a63ffffffff8616028152600160a060020a03909316600484015260248301919091526044820152606401602060405180830381600087803b1515610a4d57600080fd5b6102c65a03f11515610a5e57600080fd5b505050604051805190501515610a7357600080fd5b60010161099b565b600454600160a060020a031681565b6000610a946127c7565b600160a060020a03331660009081526020819052604090206001015460e060020a027c040000000000000000000000000000000000000000000000000000000090811614610ae157600080fd5b600160a060020a0384168152602081018390526005805460018101610b0683826127de565b600092835260209092208391600202018151815473ffffffffffffffffffffffffffffffffffffffff1916600160a060020a03919091161781556020820151600190910155507f6f3ac186000a779fe66d0a5188f51993a6593d93c4ff052ec0453aa84f09dbcb90508484604051600160a060020a03909216825260208201526040908101905180910390a15060019392505050565b600160a060020a031660009081526020819052604090205490565b600160a060020a033316600090815260208190526040812060010154819060e060020a027c040000000000000000000000000000000000000000000000000000000090811614610c0657600080fd5b5060005b600554811015610d395782600160a060020a0316600582815481101515610c2d57fe5b6000918252602090912060029091020154600160a060020a03161415610d315760055460001901811015610cd057600580546000198101908110610c6d57fe5b9060005260206000209060020201600582815481101515610c8a57fe5b600091825260209091208254600290920201805473ffffffffffffffffffffffffffffffffffffffff1916600160a060020a039092169190911781556001918201549101555b6005805490610ce39060001983016127de565b507f6ceab662049113d466f7e28b69edbec7cf641bc175522623536b09785887982a8382604051600160a060020a03909216825260208201526040908101905180910390a160019150610d3e565b600101610c0a565b600091505b50919050565b600154600160a060020a031681565b600160a060020a03331660009081526020819052604081206001015460e060020a027c020000000000000000000000000000000000000000000000000000000090811614610da057600080fd5b7f756e7265676973746572536368656d650000000000000000000000000000000060005b600554811015610ea4576005805482908110610ddc57fe5b600091825260209091206002909102015460058054600160a060020a039092169163c1786ab291339185908110610e0f57fe5b9060005260206000209060020201600101548560006040516020015260405160e060020a63ffffffff8616028152600160a060020a03909316600484015260248301919091526044820152606401602060405180830381600087803b1515610e7657600080fd5b6102c65a03f11515610e8757600080fd5b505050604051805190501515610e9c57600080fd5b600101610dc4565b600160a060020a03841660009081526020819052604090206001015460e060020a908102161515610ed85760009250610fa5565b33600160a060020a0390811660009081526020819052604080822060019081015493881683529120015460e060020a918202199102167c0f000000000000000000000000000000000000000000000000000000001615610f3757600080fd5b83600160a060020a031633600160a060020a03167f10bb2cf04cb8b902a8e736d494f1a51003be6d4b16ef6fb95ce62c38445023bf60405160405180910390a3600160a060020a03841660009081526020819052604081209081556001908101805463ffffffff1916905592505b5060005b600554811015611089576005805482908110610fc157fe5b600091825260209091206002909102015460058054600160a060020a0390921691638043154d91339185908110610ff457fe5b9060005260206000209060020201600101548560006040516020015260405160e060020a63ffffffff8616028152600160a060020a03909316600484015260248301919091526044820152606401602060405180830381600087803b151561105b57600080fd5b6102c65a03f1151561106c57600080fd5b50505060405180519050151561108157600080fd5b600101610fa9565b5050919050565b600580548290811061109e57fe5b600091825260209091206002909102018054600190910154600160a060020a03909116915082565b60006110d1336117a7565b15156110df5750600061113c565b600160a060020a0333166000818152602081905260408082209182556001909101805463ffffffff1916905581907f10bb2cf04cb8b902a8e736d494f1a51003be6d4b16ef6fb95ce62c38445023bf905160405180910390a35060015b90565b600160a060020a03331660009081526020819052604081206001015460e060020a90810281161461116f57600080fd5b7f67656e65726963416374696f6e0000000000000000000000000000000000000060005b6005548110156112735760058054829081106111ab57fe5b600091825260209091206002909102015460058054600160a060020a039092169163c1786ab2913391859081106111de57fe5b9060005260206000209060020201600101548560006040516020015260405160e060020a63ffffffff8616028152600160a060020a03909316600484015260248301919091526044820152606401602060405180830381600087803b151561124557600080fd5b6102c65a03f1151561125657600080fd5b50505060405180519050151561126b57600080fd5b600101611193565b84600160a060020a031633600160a060020a03167fa780f470f73c5b728f451407660985d55be1b49386ec1a65a0b20d09f12d32468660405160208082528190810183818151815260200191508051906020019060200280838360005b838110156112e85780820151838201526020016112d0565b505050509050019250505060405180910390a3600154600160a060020a0316636ce15a5486866000604051602001526040518363ffffffff1660e060020a0281526004018083600160a060020a0316600160a060020a0316815260200180602001828103825283818151815260200191508051906020019060200280838360005b83811015611381578082015183820152602001611369565b505050509050019350505050602060405180830381600087803b15156113a657600080fd5b6102c65a03f115156113b757600080fd5b50505060405180519350505060005b6005548110156107995760058054829081106113de57fe5b600091825260209091206002909102015460058054600160a060020a0390921691638043154d9133918590811061141157fe5b9060005260206000209060020201600101548560006040516020015260405160e060020a63ffffffff8616028152600160a060020a03909316600484015260248301919091526044820152606401602060405180830381600087803b151561147857600080fd5b6102c65a03f1151561148957600080fd5b50505060405180519050151561149e57600080fd5b6001016113c6565b600160a060020a03331660009081526020819052604081206001015460e060020a9081028116146114d657600080fd5b7f65787465726e616c546f6b656e417070726f766500000000000000000000000060005b6005548110156115da57600580548290811061151257fe5b600091825260209091206002909102015460058054600160a060020a039092169163c1786ab29133918590811061154557fe5b9060005260206000209060020201600101548560006040516020015260405160e060020a63ffffffff8616028152600160a060020a03909316600484015260248301919091526044820152606401602060405180830381600087803b15156115ac57600080fd5b6102c65a03f115156115bd57600080fd5b5050506040518051905015156115d257600080fd5b6001016114fa565b85600160a060020a031633600160a060020a03167f5cda63dee3dca234a7ff99530838d4375718e5a398a4879f89119d92921fc6938787604051600160a060020a03909216825260208201526040908101905180910390a3600154600160a060020a03166379c6ad9e87878760006040516020015260405160e060020a63ffffffff8616028152600160a060020a0393841660048201529190921660248201526044810191909152606401602060405180830381600087803b151561169e57600080fd5b6102c65a03f115156116af57600080fd5b50505060405180519350505060005b60055481101561179e5760058054829081106116d657fe5b600091825260209091206002909102015460058054600160a060020a0390921691638043154d9133918590811061170957fe5b9060005260206000209060020201600101548560006040516020015260405160e060020a63ffffffff8616028152600160a060020a03909316600484015260248301919091526044820152606401602060405180830381600087803b151561177057600080fd5b6102c65a03f1151561178157600080fd5b50505060405180519050151561179657600080fd5b6001016116be565b50509392505050565b600160a060020a031660009081526020819052604090206001015460e060020a90810216151590565b600354600160a060020a031681565b600160a060020a031660009081526020819052604090206001015460e060020a0290565b600061180d6127c7565b600160a060020a03331660009081526020819052604090206001015460e060020a027c02000000000000000000000000000000000000000000000000000000009081161461185a57600080fd5b7f7265676973746572536368656d6500000000000000000000000000000000000060005b60055481101561195e57600580548290811061189657fe5b600091825260209091206002909102015460058054600160a060020a039092169163c1786ab2913391859081106118c957fe5b9060005260206000209060020201600101548560006040516020015260405160e060020a63ffffffff8616028152600160a060020a03909316600484015260248301919091526044820152606401602060405180830381600087803b151561193057600080fd5b6102c65a03f1151561194157600080fd5b50505060405180519050151561195657600080fd5b60010161187e565b600160a060020a03871660009081526020819052604090819020908051908101604090815282548252600192830154600160e060020a031960e060020a918202166020808501918252600160a060020a03331660009081529081905292832090940154929650909291021990518718167c0f0000000000000000000000000000000000000000000000000000000016146119f757600080fd5b600160a060020a03331660009081526020818152604082206001015460e060020a021990850151167c0f000000000000000000000000000000000000000000000000000000001614611a4857600080fd5b600160a060020a0387811660008181526020819052604090819020898155600101805463ffffffff191660e060020a8a81170417905590913316907f546816e99403df442acb68ef69562682a50762c20a3fb6b472f7af9923736cfc905160405180910390a3600193505060005b600554811015611b96576005805482908110611ace57fe5b600091825260209091206002909102015460058054600160a060020a0390921691638043154d91339185908110611b0157fe5b9060005260206000209060020201600101548560006040516020015260405160e060020a63ffffffff8616028152600160a060020a03909316600484015260248301919091526044820152606401602060405180830381600087803b1515611b6857600080fd5b6102c65a03f11515611b7957600080fd5b505050604051805190501515611b8e57600080fd5b600101611ab6565b5050509392505050565b600160a060020a03331660009081526020819052604081206001015460e060020a908102811614611bd057600080fd5b7f65787465726e616c546f6b656e5472616e7366657246726f6d0000000000000060005b600554811015611cd4576005805482908110611c0c57fe5b600091825260209091206002909102015460058054600160a060020a039092169163c1786ab291339185908110611c3f57fe5b9060005260206000209060020201600101548560006040516020015260405160e060020a63ffffffff8616028152600160a060020a03909316600484015260248301919091526044820152606401602060405180830381600087803b1515611ca657600080fd5b6102c65a03f11515611cb757600080fd5b505050604051805190501515611ccc57600080fd5b600101611bf4565b86600160a060020a031633600160a060020a03167f283faba4b8dcfe263728666be500623fdf5ae89ac78e40952fe2493f918ed62c888888604051600160a060020a039384168152919092166020820152604080820192909252606001905180910390a3600154600160a060020a031663b756d5a28888888860006040516020015260405160e060020a63ffffffff8716028152600160a060020a0394851660048201529284166024840152921660448201526064810191909152608401602060405180830381600087803b1515611dab57600080fd5b6102c65a03f11515611dbc57600080fd5b50505060405180519350505060005b600554811015611eab576005805482908110611de357fe5b600091825260209091206002909102015460058054600160a060020a0390921691638043154d91339185908110611e1657fe5b9060005260206000209060020201600101548560006040516020015260405160e060020a63ffffffff8616028152600160a060020a03909316600484015260248301919091526044820152606401602060405180830381600087803b1515611e7d57600080fd5b6102c65a03f11515611e8e57600080fd5b505050604051805190501515611ea357600080fd5b600101611dcb565b5050949350505050565b600160a060020a03331660009081526020819052604081206001015460e060020a027c080000000000000000000000000000000000000000000000000000000090811614611f0257600080fd5b600454600160a060020a031615611f1857600080fd5b600160a060020a0382161515611f2d57600080fd5b6004805473ffffffffffffffffffffffffffffffffffffffff1916600160a060020a03848116919091179091556001541663f2fde38b8360405160e060020a63ffffffff8416028152600160a060020a039091166004820152602401600060405180830381600087803b1515611fa257600080fd5b6102c65a03f11515611fb357600080fd5b5050600254600160a060020a03308116925016638da5cb5b6000604051602001526040518163ffffffff1660e060020a028152600401602060405180830381600087803b151561200257600080fd5b6102c65a03f1151561201357600080fd5b50505060405180519050600160a060020a0316141561209157600254600160a060020a031663f2fde38b8360405160e060020a63ffffffff8416028152600160a060020a039091166004820152602401600060405180830381600087803b151561207c57600080fd5b6102c65a03f1151561208d57600080fd5b5050505b600354600160a060020a033081169116638da5cb5b6000604051602001526040518163ffffffff1660e060020a028152600401602060405180830381600087803b15156120dd57600080fd5b6102c65a03f115156120ee57600080fd5b50505060405180519050600160a060020a0316141561216c57600354600160a060020a031663f2fde38b8360405160e060020a63ffffffff8416028152600160a060020a039091166004820152602401600060405180830381600087803b151561215757600080fd5b6102c65a03f1151561216857600080fd5b5050505b6004547fdb7cbacf8df312d794506c0cc9af07f64d29ca075796ea2e950a3832cc9a63dd903090600160a060020a0316604051600160a060020a039283168152911660208201526040908101905180910390a1506001919050565b600160a060020a03331660009081526020819052604081206001015460e060020a9081028116146121f757600080fd5b7f73656e644574686572000000000000000000000000000000000000000000000060005b6005548110156122fb57600580548290811061223357fe5b600091825260209091206002909102015460058054600160a060020a039092169163c1786ab29133918590811061226657fe5b9060005260206000209060020201600101548560006040516020015260405160e060020a63ffffffff8616028152600160a060020a03909316600484015260248301919091526044820152606401602060405180830381600087803b15156122cd57600080fd5b6102c65a03f115156122de57600080fd5b5050506040518051905015156122f357600080fd5b60010161221b565b83600160a060020a031633600160a060020a03167fda35e091786fbaaace32084910404a0e3a14f22a7645a4c3d0fec2c6731e3c348760405190815260200160405180910390a3600154600160a060020a031663cb16d4a2868660006040516020015260405160e060020a63ffffffff85160281526004810192909252600160a060020a03166024820152604401602060405180830381600087803b15156123a257600080fd5b6102c65a03f115156123b357600080fd5b50505060405180519350505060005b6005548110156107995760058054829081106123da57fe5b600091825260209091206002909102015460058054600160a060020a0390921691638043154d9133918590811061240d57fe5b9060005260206000209060020201600101548560006040516020015260405160e060020a63ffffffff8616028152600160a060020a03909316600484015260248301919091526044820152606401602060405180830381600087803b151561247457600080fd5b6102c65a03f1151561248557600080fd5b50505060405180519050151561249a57600080fd5b6001016123c2565b60055490565b600160a060020a03331660009081526020819052604081206001015460e060020a9081028116146124d857600080fd5b7f65787465726e616c546f6b656e5472616e73666572000000000000000000000060005b6005548110156125dc57600580548290811061251457fe5b600091825260209091206002909102015460058054600160a060020a039092169163c1786ab29133918590811061254757fe5b9060005260206000209060020201600101548560006040516020015260405160e060020a63ffffffff8616028152600160a060020a03909316600484015260248301919091526044820152606401602060405180830381600087803b15156125ae57600080fd5b6102c65a03f115156125bf57600080fd5b5050506040518051905015156125d457600080fd5b6001016124fc565b84600160a060020a031686600160a060020a031633600160a060020a03167fd4c08afec48fd2cbe49032dc89d3b388b7a4e4f0563a1fdccd73339beb025aa18760405190815260200160405180910390a4600154600160a060020a031663dab0efff87878760006040516020015260405160e060020a63ffffffff8616028152600160a060020a0393841660048201529190921660248201526044810191909152606401602060405180830381600087803b151561269957600080fd5b6102c65a03f115156126aa57600080fd5b50505060405180519350505060005b60055481101561179e5760058054829081106126d157fe5b600091825260209091206002909102015460058054600160a060020a0390921691638043154d9133918590811061270457fe5b9060005260206000209060020201600101548560006040516020015260405160e060020a63ffffffff8616028152600160a060020a03909316600484015260248301919091526044820152606401602060405180830381600087803b151561276b57600080fd5b6102c65a03f1151561277c57600080fd5b50505060405180519050151561279157600080fd5b6001016126b9565b6000602081905290815260409020805460019091015460e060020a0282565b600254600160a060020a031681565b604080519081016040526000808252602082015290565b81548183558181151161280a5760020281600202836000526020600020918201910161280a919061280f565b505050565b61113c91905b8082111561284757805473ffffffffffffffffffffffffffffffffffffffff1916815560006001820155600201612815565b50905600a165627a7a7230582067eec62e38782fa9f5037dbc5e98dbb6e1c6dd2a29f58cc090f60e2c408b76b30029",
  "source": "pragma solidity ^0.4.18;\r\n\r\nimport \"./Avatar.sol\";\r\nimport \"./Reputation.sol\";\r\nimport \"./DAOToken.sol\";\r\nimport \"../globalConstraints/GlobalConstraintInterface.sol\";\r\n\r\n\r\n/**\r\n * @title Controller contract\r\n * @dev A controller controls the organizations tokens,reputation and avatar.\r\n * It is subject to a set of schemes and constraints that determine its behavior.\r\n * Each scheme has it own parameters and operation permmisions.\r\n */\r\ncontract Controller {\r\n\r\n    struct Scheme {\r\n        bytes32 paramsHash;  // a hash \"configuration\" of the scheme\r\n        bytes4  permissions; // A bitwise flags of permissions,\r\n                             // All 0: Not registered,\r\n                             // 1st bit: Flag if the scheme is registered,\r\n                             // 2nd bit: Scheme can register other schemes\r\n                             // 3th bit: Scheme can add/remove global constraints\r\n                             // 4rd bit: Scheme can upgrade the controller\r\n    }\r\n\r\n    struct GlobalConstraint {\r\n        address gcAddress;\r\n        bytes32 params;\r\n    }\r\n\r\n    mapping(address=>Scheme) public schemes;\r\n\r\n    Avatar public avatar;\r\n    DAOToken public nativeToken;\r\n    Reputation public nativeReputation;\r\n  // newController will point to the new controller after the present controller is upgraded\r\n    address public newController;\r\n  // globalConstraints that determine pre- and post-conditions for all actions on the controller\r\n    GlobalConstraint[] public globalConstraints;\r\n\r\n    event MintReputation (address indexed _sender, address indexed _beneficiary, int256 _amount);\r\n    event MintTokens (address indexed _sender, address indexed _beneficiary, uint256 _amount);\r\n    event RegisterScheme (address indexed _sender, address indexed _scheme);\r\n    event UnregisterScheme (address indexed _sender, address indexed _scheme);\r\n    event GenericAction (address indexed _sender, address indexed _action, bytes32[] _params);\r\n    event SendEther (address indexed _sender, uint _amountInWei, address indexed _to);\r\n    event ExternalTokenTransfer (address indexed _sender, address indexed _externalToken, address indexed _to, uint _value);\r\n    event ExternalTokenTransferFrom (address indexed _sender, address indexed _externalToken, address _from, address _to, uint _value);\r\n    event ExternalTokenApprove (address indexed _sender, StandardToken indexed _externalToken, address _spender, uint _value);\r\n    event AddGlobalConstraint(address _globalconstraint, bytes32 _params);\r\n    event RemoveGlobalConstraint(address _globalConstraint ,uint256 _index);\r\n    event UpgradeController(address _oldController,address _newController);\r\n\r\n    function Controller(\r\n        Avatar _avatar,\r\n        DAOToken _nativeToken,\r\n        Reputation    _nativeReputation,\r\n        address[] _schemes,\r\n        bytes32[] _params,\r\n        bytes4[] _permissions\r\n    ) public\r\n    {\r\n        avatar = _avatar;\r\n        nativeToken = _nativeToken;\r\n        nativeReputation = _nativeReputation;\r\n\r\n    // Register the schemes:\r\n        for (uint i = 0; i < _schemes.length; i++) {\r\n            schemes[_schemes[i]] = Scheme({paramsHash: _params[i],permissions: _permissions[i]|bytes4(1)});\r\n            RegisterScheme(msg.sender, _schemes[i]);\r\n        }\r\n    }\r\n\r\n  // Do not allow mistaken calls:\r\n    function() public {\r\n        revert();\r\n    }\r\n\r\n  // Modifiers:\r\n    modifier onlyRegisteredScheme() {\r\n        require(schemes[msg.sender].permissions&bytes4(1) == bytes4(1));\r\n        _;\r\n    }\r\n\r\n    modifier onlyRegisteringSchemes() {\r\n        require(schemes[msg.sender].permissions&bytes4(2) == bytes4(2));\r\n        _;\r\n    }\r\n\r\n    modifier onlyGlobalConstraintsScheme() {\r\n        require(schemes[msg.sender].permissions&bytes4(4) == bytes4(4));\r\n        _;\r\n    }\r\n\r\n    modifier onlyUpgradingScheme() {\r\n        require(schemes[msg.sender].permissions&bytes4(8) == bytes4(8));\r\n        _;\r\n    }\r\n\r\n    modifier onlySubjectToConstraint(bytes32 func) {\r\n        uint index;\r\n        for (index = 0;index<globalConstraints.length;index++) {\r\n            require((GlobalConstraintInterface(globalConstraints[index].gcAddress)).pre(msg.sender, globalConstraints[index].params, func));\r\n        }\r\n        _;\r\n        for (index = 0;index<globalConstraints.length;index++) {\r\n            require((GlobalConstraintInterface(globalConstraints[index].gcAddress)).post(msg.sender, globalConstraints[index].params, func));\r\n        }\r\n    }\r\n\r\n    /**\r\n     * @dev mint reputation .\r\n     * @param  _amount amount of reputation to mint\r\n     * @param _beneficiary beneficiary address\r\n     * @return bool which represents a success\r\n     */\r\n    function mintReputation(int256 _amount, address _beneficiary)\r\n    public\r\n    onlyRegisteredScheme\r\n    onlySubjectToConstraint(\"mintReputation\")\r\n    returns(bool)\r\n    {\r\n        MintReputation(msg.sender, _beneficiary, _amount);\r\n        return nativeReputation.mint(_beneficiary, _amount);\r\n    }\r\n\r\n    /**\r\n     * @dev mint tokens .\r\n     * @param  _amount amount of token to mint\r\n     * @param _beneficiary beneficiary address\r\n     * @return bool which represents a success\r\n     */\r\n    function mintTokens(uint256 _amount, address _beneficiary)\r\n    public\r\n    onlyRegisteredScheme\r\n    onlySubjectToConstraint(\"mintTokens\")\r\n    returns(bool)\r\n    {\r\n        MintTokens(msg.sender, _beneficiary, _amount);\r\n        return nativeToken.mint(_beneficiary, _amount);\r\n    }\r\n\r\n  /**\r\n   * @dev register a scheme\r\n   * @param _scheme the address of the scheme\r\n   * @param _paramsHash a hashed configuration of the usage of the scheme\r\n   * @param _permissions the permissions the new scheme will have\r\n   * @return bool which represents a success\r\n   */\r\n    function registerScheme(address _scheme, bytes32 _paramsHash, bytes4 _permissions)\r\n    public\r\n    onlyRegisteringSchemes\r\n    onlySubjectToConstraint(\"registerScheme\")\r\n    returns(bool)\r\n    {\r\n\r\n        Scheme memory scheme = schemes[_scheme];\r\n\r\n    // Check scheme has at least the permissions it is changing, and at least the current permissions:\r\n    // Implementation is a bit messy. One must recall logic-circuits ^^\r\n\r\n    // produces non-zero if sender does not have all of the perms that are changing between old and new\r\n        require(bytes4(15)&(_permissions^scheme.permissions)&(~schemes[msg.sender].permissions) == bytes4(0));\r\n    \r\n    // produces non-zero if sender does not have all of the perms in the old scheme\r\n        require(bytes4(15)&(scheme.permissions&(~schemes[msg.sender].permissions)) == bytes4(0));\r\n\r\n    // Add or change the scheme:\r\n        schemes[_scheme].paramsHash = _paramsHash;\r\n        schemes[_scheme].permissions = _permissions|bytes4(1);\r\n        RegisterScheme(msg.sender, _scheme);\r\n        return true;\r\n    }\r\n\r\n    /**\r\n     * @dev unregister a scheme\r\n     * @param _scheme the address of the scheme\r\n     * @return bool which represents a success\r\n     */\r\n    function unregisterScheme( address _scheme )\r\n    public\r\n    onlyRegisteringSchemes\r\n    onlySubjectToConstraint(\"unregisterScheme\")\r\n    returns(bool)\r\n    {\r\n    //check if the scheme is register\r\n        if (schemes[_scheme].permissions&bytes4(1) == bytes4(0)) {\r\n            return false;\r\n          }\r\n    // Check the unregistering scheme has enough permissions:\r\n        require(bytes4(15)&(schemes[_scheme].permissions&(~schemes[msg.sender].permissions)) == bytes4(0));\r\n\r\n    // Unregister:\r\n        UnregisterScheme(msg.sender, _scheme);\r\n        delete schemes[_scheme];\r\n        return true;\r\n    }\r\n\r\n    /**\r\n     * @dev unregister the caller's scheme\r\n     * @return bool which represents a success\r\n     */\r\n    function unregisterSelf() public returns(bool) {\r\n        if (isSchemeRegistered(msg.sender) == false) {\r\n            return false;\r\n        }\r\n        delete schemes[msg.sender];\r\n        UnregisterScheme(msg.sender, msg.sender);\r\n        return true;\r\n    }\r\n\r\n    function isSchemeRegistered(address _scheme) public constant returns(bool) {\r\n        return (schemes[_scheme].permissions&bytes4(1) != bytes4(0));\r\n    }\r\n\r\n    function getSchemeParameters(address _scheme) public constant returns(bytes32) {\r\n        return schemes[_scheme].paramsHash;\r\n    }\r\n\r\n    function getSchemePermissions(address _scheme) public constant returns(bytes4) {\r\n        return schemes[_scheme].permissions;\r\n    }\r\n\r\n  // Global Contraints:\r\n    function globalConstraintsCount() public constant returns(uint) {\r\n        return globalConstraints.length;\r\n    }\r\n\r\n    /**\r\n     * @dev add Global Constraint\r\n     * @param _globalConstraint the address of the global constraint to be added.\r\n     * @param _params the constraint parameters hash.\r\n     * @return bool which represents a success\r\n     */\r\n    function addGlobalConstraint(address _globalConstraint, bytes32 _params)\r\n    public onlyGlobalConstraintsScheme returns(bool)\r\n    {\r\n        GlobalConstraint memory gc;\r\n        gc.gcAddress = _globalConstraint;\r\n        gc.params = _params;\r\n        globalConstraints.push(gc);\r\n        AddGlobalConstraint(_globalConstraint, _params);\r\n        return true;\r\n    }\r\n\r\n    /**\r\n     * @dev remove Global Constraint\r\n     * @param _globalConstraint the address of the global constraint to be remove.\r\n     * @return bool which represents a success\r\n     */\r\n    function removeGlobalConstraint (address _globalConstraint)\r\n    public onlyGlobalConstraintsScheme returns(bool)\r\n    {\r\n        for (uint index = 0 ;index<globalConstraints.length;index++) {\r\n            if (globalConstraints[index].gcAddress == _globalConstraint) {\r\n                if (index < globalConstraints.length-1) {\r\n                    globalConstraints[index] = globalConstraints[globalConstraints.length-1];\r\n                }\r\n                globalConstraints.length--;\r\n                RemoveGlobalConstraint(_globalConstraint,index);\r\n                return true;\r\n            }\r\n        }\r\n        return false;\r\n    }\r\n\r\n  /**\r\n    * @dev upgrade the Controller\r\n    *      The function will trigger an event 'UpgradeController'.\r\n    * @param  _newController the address of the new controller.\r\n    * @return bool which represents a success\r\n    */\r\n    function upgradeController(address _newController)\r\n    public onlyUpgradingScheme returns(bool)\r\n    {\r\n        require(newController == address(0));   // so the upgrade could be done once for a contract.\r\n        require(_newController != address(0));\r\n        newController = _newController;\r\n        avatar.transferOwnership(_newController);\r\n        if (nativeToken.owner() == address(this)) {\r\n            nativeToken.transferOwnership(_newController);\r\n        }\r\n        if (nativeReputation.owner() == address(this)) {\r\n            nativeReputation.transferOwnership(_newController);\r\n        }\r\n        UpgradeController(this,newController);\r\n        return true;\r\n    }\r\n\r\n   /**\r\n     * @dev perform a generic action on the controller's avatar.\r\n     *      The function will trigger an event 'GenericAction'.\r\n     * @param  _action the action\r\n     * @param  _params the action's params\r\n     * @return bool which represents a success\r\n    */\r\n    function genericAction(ActionInterface _action, bytes32[] _params)\r\n    public\r\n    onlyRegisteredScheme\r\n    onlySubjectToConstraint(\"genericAction\")\r\n    returns(bool)\r\n    {\r\n        GenericAction(msg.sender, _action, _params);\r\n        return avatar.genericAction(_action, _params);\r\n    }\r\n\r\n  /**\r\n   * @dev send some ether\r\n   * @param _amountInWei the amount of ether (in Wei) to send\r\n   * @param _to address of the beneficary\r\n   * @return bool which represents a success\r\n   */\r\n    function sendEther(uint _amountInWei, address _to)\r\n    public\r\n    onlyRegisteredScheme\r\n    onlySubjectToConstraint(\"sendEther\")\r\n    returns(bool)\r\n    {\r\n        SendEther(msg.sender, _amountInWei, _to);\r\n        return avatar.sendEther(_amountInWei, _to);\r\n    }\r\n\r\n    /**\r\n    * @dev send some amount of arbitrary ERC20 Tokens\r\n    * @param _externalToken the address of the Token Contract\r\n    * @param _to address of the beneficary\r\n    * @param _value the amount of ether (in Wei) to send\r\n    * @return bool which represents a success\r\n    */\r\n    function externalTokenTransfer(StandardToken _externalToken, address _to, uint _value)\r\n    public\r\n    onlyRegisteredScheme\r\n    onlySubjectToConstraint(\"externalTokenTransfer\")\r\n    returns(bool)\r\n    {\r\n        ExternalTokenTransfer(msg.sender, _externalToken, _to, _value);\r\n        return avatar.externalTokenTransfer(_externalToken, _to, _value);\r\n    }\r\n\r\n    /**\r\n    * @dev transfer token \"from\" address \"to\" address\r\n    *      One must to approve the amount of tokens which can be spend from the\r\n    *      \"from\" account.This can be done using externalTokenApprove.\r\n    * @param _externalToken the address of the Token Contract\r\n    * @param _from address of the account to send from\r\n    * @param _to address of the beneficary\r\n    * @param _value the amount of ether (in Wei) to send\r\n    * @return bool which represents a success\r\n    */\r\n    function externalTokenTransferFrom(StandardToken _externalToken, address _from, address _to, uint _value)\r\n    public\r\n    onlyRegisteredScheme\r\n    onlySubjectToConstraint(\"externalTokenTransferFrom\")\r\n    returns(bool)\r\n    {\r\n        ExternalTokenTransferFrom(msg.sender, _externalToken, _from, _to, _value);\r\n        return avatar.externalTokenTransferFrom(_externalToken, _from, _to, _value);\r\n    }\r\n\r\n    /**\r\n    * @dev approve the spender address to spend the specified amount of tokens\r\n    *      on behalf of msg.sender.\r\n    * @param _externalToken the address of the Token Contract\r\n    * @param _spender address\r\n    * @param _value the amount of ether (in Wei) which the approval is refering to.\r\n    * @return bool which represents a success\r\n    */\r\n    function externalTokenApprove(StandardToken _externalToken, address _spender, uint _value)\r\n    public\r\n    onlyRegisteredScheme\r\n    onlySubjectToConstraint(\"externalTokenApprove\")\r\n    returns(bool)\r\n    {\r\n        ExternalTokenApprove(msg.sender,_externalToken,_spender,_value);\r\n        return avatar.externalTokenApprove(_externalToken, _spender, _value);\r\n    }\r\n\r\n}\r\n",
  "sourcePath": "C:\\users\\dkent\\documents\\projects\\GitHub\\DAOStack\\daostack\\contracts\\controller\\Controller.sol",
  "compiler": {
    "name": "solc",
    "version": "0.4.18+commit.9cf6e910.Emscripten.clang"
  },
  "schemaVersion": "1.0.1",
  "updatedAt": "2017-12-12T06:13:15.377Z"
}