{
  "contractName": "Controller",
  "abi": [
    {
      "constant": true,
      "inputs": [
        {
          "name": "_globalConstraint",
          "type": "address"
        }
      ],
      "name": "isGlobalConstraintRegister",
      "outputs": [
        {
          "name": "",
          "type": "bool"
        }
      ],
      "payable": false,
      "stateMutability": "view",
      "type": "function"
    },
    {
      "constant": false,
      "inputs": [
        {
          "name": "_amount",
          "type": "uint256"
        },
        {
          "name": "_beneficiary",
          "type": "address"
        }
      ],
      "name": "mintTokens",
      "outputs": [
        {
          "name": "",
          "type": "bool"
        }
      ],
      "payable": false,
      "stateMutability": "nonpayable",
      "type": "function"
    },
    {
      "constant": false,
      "inputs": [
        {
          "name": "_amount",
          "type": "int256"
        },
        {
          "name": "_beneficiary",
          "type": "address"
        }
      ],
      "name": "mintReputation",
      "outputs": [
        {
          "name": "",
          "type": "bool"
        }
      ],
      "payable": false,
      "stateMutability": "nonpayable",
      "type": "function"
    },
    {
      "constant": false,
      "inputs": [
        {
          "name": "_params",
          "type": "bytes32[]"
        }
      ],
      "name": "genericAction",
      "outputs": [
        {
          "name": "",
          "type": "bool"
        }
      ],
      "payable": false,
      "stateMutability": "nonpayable",
      "type": "function"
    },
    {
      "constant": true,
      "inputs": [],
      "name": "newController",
      "outputs": [
        {
          "name": "",
          "type": "address"
        }
      ],
      "payable": false,
      "stateMutability": "view",
      "type": "function"
    },
    {
      "constant": false,
      "inputs": [
        {
          "name": "_globalConstraint",
          "type": "address"
        },
        {
          "name": "_params",
          "type": "bytes32"
        }
      ],
      "name": "addGlobalConstraint",
      "outputs": [
        {
          "name": "",
          "type": "bool"
        }
      ],
      "payable": false,
      "stateMutability": "nonpayable",
      "type": "function"
    },
    {
      "constant": true,
      "inputs": [
        {
          "name": "_scheme",
          "type": "address"
        }
      ],
      "name": "getSchemeParameters",
      "outputs": [
        {
          "name": "",
          "type": "bytes32"
        }
      ],
      "payable": false,
      "stateMutability": "view",
      "type": "function"
    },
    {
      "constant": false,
      "inputs": [
        {
          "name": "_globalConstraint",
          "type": "address"
        }
      ],
      "name": "removeGlobalConstraint",
      "outputs": [
        {
          "name": "",
          "type": "bool"
        }
      ],
      "payable": false,
      "stateMutability": "nonpayable",
      "type": "function"
    },
    {
      "constant": true,
      "inputs": [],
      "name": "avatar",
      "outputs": [
        {
          "name": "",
          "type": "address"
        }
      ],
      "payable": false,
      "stateMutability": "view",
      "type": "function"
    },
    {
      "constant": true,
      "inputs": [
        {
          "name": "",
          "type": "address"
        }
      ],
      "name": "globalConstraintsRegister",
      "outputs": [
        {
          "name": "register",
          "type": "bool"
        },
        {
          "name": "index",
          "type": "uint256"
        }
      ],
      "payable": false,
      "stateMutability": "view",
      "type": "function"
    },
    {
      "constant": false,
      "inputs": [
        {
          "name": "_scheme",
          "type": "address"
        }
      ],
      "name": "unregisterScheme",
      "outputs": [
        {
          "name": "",
          "type": "bool"
        }
      ],
      "payable": false,
      "stateMutability": "nonpayable",
      "type": "function"
    },
    {
      "constant": true,
      "inputs": [
        {
          "name": "",
          "type": "uint256"
        }
      ],
      "name": "globalConstraints",
      "outputs": [
        {
          "name": "gcAddress",
          "type": "address"
        },
        {
          "name": "params",
          "type": "bytes32"
        }
      ],
      "payable": false,
      "stateMutability": "view",
      "type": "function"
    },
    {
      "constant": false,
      "inputs": [],
      "name": "unregisterSelf",
      "outputs": [
        {
          "name": "",
          "type": "bool"
        }
      ],
      "payable": false,
      "stateMutability": "nonpayable",
      "type": "function"
    },
    {
      "constant": true,
      "inputs": [
        {
          "name": "_scheme",
          "type": "address"
        }
      ],
      "name": "isSchemeRegistered",
      "outputs": [
        {
          "name": "",
          "type": "bool"
        }
      ],
      "payable": false,
      "stateMutability": "view",
      "type": "function"
    },
    {
      "constant": true,
      "inputs": [],
      "name": "nativeReputation",
      "outputs": [
        {
          "name": "",
          "type": "address"
        }
      ],
      "payable": false,
      "stateMutability": "view",
      "type": "function"
    },
    {
      "constant": false,
      "inputs": [
        {
          "name": "_externalToken",
          "type": "address"
        },
        {
          "name": "_spender",
          "type": "address"
        },
        {
          "name": "_addedValue",
          "type": "uint256"
        }
      ],
      "name": "externalTokenIncreaseApproval",
      "outputs": [
        {
          "name": "",
          "type": "bool"
        }
      ],
      "payable": false,
      "stateMutability": "nonpayable",
      "type": "function"
    },
    {
      "constant": true,
      "inputs": [
        {
          "name": "_scheme",
          "type": "address"
        }
      ],
      "name": "getSchemePermissions",
      "outputs": [
        {
          "name": "",
          "type": "bytes4"
        }
      ],
      "payable": false,
      "stateMutability": "view",
      "type": "function"
    },
    {
      "constant": false,
      "inputs": [
        {
          "name": "_scheme",
          "type": "address"
        },
        {
          "name": "_paramsHash",
          "type": "bytes32"
        },
        {
          "name": "_permissions",
          "type": "bytes4"
        }
      ],
      "name": "registerScheme",
      "outputs": [
        {
          "name": "",
          "type": "bool"
        }
      ],
      "payable": false,
      "stateMutability": "nonpayable",
      "type": "function"
    },
    {
      "constant": false,
      "inputs": [
        {
          "name": "_externalToken",
          "type": "address"
        },
        {
          "name": "_from",
          "type": "address"
        },
        {
          "name": "_to",
          "type": "address"
        },
        {
          "name": "_value",
          "type": "uint256"
        }
      ],
      "name": "externalTokenTransferFrom",
      "outputs": [
        {
          "name": "",
          "type": "bool"
        }
      ],
      "payable": false,
      "stateMutability": "nonpayable",
      "type": "function"
    },
    {
      "constant": false,
      "inputs": [
        {
          "name": "_newController",
          "type": "address"
        }
      ],
      "name": "upgradeController",
      "outputs": [
        {
          "name": "",
          "type": "bool"
        }
      ],
      "payable": false,
      "stateMutability": "nonpayable",
      "type": "function"
    },
    {
      "constant": false,
      "inputs": [
        {
          "name": "_amountInWei",
          "type": "uint256"
        },
        {
          "name": "_to",
          "type": "address"
        }
      ],
      "name": "sendEther",
      "outputs": [
        {
          "name": "",
          "type": "bool"
        }
      ],
      "payable": false,
      "stateMutability": "nonpayable",
      "type": "function"
    },
    {
      "constant": false,
      "inputs": [
        {
          "name": "_externalToken",
          "type": "address"
        },
        {
          "name": "_spender",
          "type": "address"
        },
        {
          "name": "_subtractedValue",
          "type": "uint256"
        }
      ],
      "name": "externalTokenDecreaseApproval",
      "outputs": [
        {
          "name": "",
          "type": "bool"
        }
      ],
      "payable": false,
      "stateMutability": "nonpayable",
      "type": "function"
    },
    {
      "constant": true,
      "inputs": [],
      "name": "globalConstraintsCount",
      "outputs": [
        {
          "name": "",
          "type": "uint256"
        }
      ],
      "payable": false,
      "stateMutability": "view",
      "type": "function"
    },
    {
      "constant": false,
      "inputs": [
        {
          "name": "_externalToken",
          "type": "address"
        },
        {
          "name": "_to",
          "type": "address"
        },
        {
          "name": "_value",
          "type": "uint256"
        }
      ],
      "name": "externalTokenTransfer",
      "outputs": [
        {
          "name": "",
          "type": "bool"
        }
      ],
      "payable": false,
      "stateMutability": "nonpayable",
      "type": "function"
    },
    {
      "constant": true,
      "inputs": [
        {
          "name": "",
          "type": "address"
        }
      ],
      "name": "schemes",
      "outputs": [
        {
          "name": "paramsHash",
          "type": "bytes32"
        },
        {
          "name": "permissions",
          "type": "bytes4"
        }
      ],
      "payable": false,
      "stateMutability": "view",
      "type": "function"
    },
    {
      "constant": true,
      "inputs": [],
      "name": "nativeToken",
      "outputs": [
        {
          "name": "",
          "type": "address"
        }
      ],
      "payable": false,
      "stateMutability": "view",
      "type": "function"
    },
    {
      "inputs": [
        {
          "name": "_avatar",
          "type": "address"
        },
        {
          "name": "_schemes",
          "type": "address[]"
        },
        {
          "name": "_params",
          "type": "bytes32[]"
        },
        {
          "name": "_permissions",
          "type": "bytes4[]"
        }
      ],
      "payable": false,
      "stateMutability": "nonpayable",
      "type": "constructor"
    },
    {
      "payable": false,
      "stateMutability": "nonpayable",
      "type": "fallback"
    },
    {
      "anonymous": false,
      "inputs": [
        {
          "indexed": true,
          "name": "_sender",
          "type": "address"
        },
        {
          "indexed": true,
          "name": "_beneficiary",
          "type": "address"
        },
        {
          "indexed": false,
          "name": "_amount",
          "type": "int256"
        }
      ],
      "name": "MintReputation",
      "type": "event"
    },
    {
      "anonymous": false,
      "inputs": [
        {
          "indexed": true,
          "name": "_sender",
          "type": "address"
        },
        {
          "indexed": true,
          "name": "_beneficiary",
          "type": "address"
        },
        {
          "indexed": false,
          "name": "_amount",
          "type": "uint256"
        }
      ],
      "name": "MintTokens",
      "type": "event"
    },
    {
      "anonymous": false,
      "inputs": [
        {
          "indexed": true,
          "name": "_sender",
          "type": "address"
        },
        {
          "indexed": true,
          "name": "_scheme",
          "type": "address"
        }
      ],
      "name": "RegisterScheme",
      "type": "event"
    },
    {
      "anonymous": false,
      "inputs": [
        {
          "indexed": true,
          "name": "_sender",
          "type": "address"
        },
        {
          "indexed": true,
          "name": "_scheme",
          "type": "address"
        }
      ],
      "name": "UnregisterScheme",
      "type": "event"
    },
    {
      "anonymous": false,
      "inputs": [
        {
          "indexed": true,
          "name": "_sender",
          "type": "address"
        },
        {
          "indexed": false,
          "name": "_params",
          "type": "bytes32[]"
        }
      ],
      "name": "GenericAction",
      "type": "event"
    },
    {
      "anonymous": false,
      "inputs": [
        {
          "indexed": true,
          "name": "_sender",
          "type": "address"
        },
        {
          "indexed": false,
          "name": "_amountInWei",
          "type": "uint256"
        },
        {
          "indexed": true,
          "name": "_to",
          "type": "address"
        }
      ],
      "name": "SendEther",
      "type": "event"
    },
    {
      "anonymous": false,
      "inputs": [
        {
          "indexed": true,
          "name": "_sender",
          "type": "address"
        },
        {
          "indexed": true,
          "name": "_externalToken",
          "type": "address"
        },
        {
          "indexed": true,
          "name": "_to",
          "type": "address"
        },
        {
          "indexed": false,
          "name": "_value",
          "type": "uint256"
        }
      ],
      "name": "ExternalTokenTransfer",
      "type": "event"
    },
    {
      "anonymous": false,
      "inputs": [
        {
          "indexed": true,
          "name": "_sender",
          "type": "address"
        },
        {
          "indexed": true,
          "name": "_externalToken",
          "type": "address"
        },
        {
          "indexed": false,
          "name": "_from",
          "type": "address"
        },
        {
          "indexed": false,
          "name": "_to",
          "type": "address"
        },
        {
          "indexed": false,
          "name": "_value",
          "type": "uint256"
        }
      ],
      "name": "ExternalTokenTransferFrom",
      "type": "event"
    },
    {
      "anonymous": false,
      "inputs": [
        {
          "indexed": true,
          "name": "_sender",
          "type": "address"
        },
        {
          "indexed": true,
          "name": "_externalToken",
          "type": "address"
        },
        {
          "indexed": false,
          "name": "_spender",
          "type": "address"
        },
        {
          "indexed": false,
          "name": "_value",
          "type": "uint256"
        }
      ],
      "name": "ExternalTokenIncreaseApproval",
      "type": "event"
    },
    {
      "anonymous": false,
      "inputs": [
        {
          "indexed": true,
          "name": "_sender",
          "type": "address"
        },
        {
          "indexed": true,
          "name": "_externalToken",
          "type": "address"
        },
        {
          "indexed": false,
          "name": "_spender",
          "type": "address"
        },
        {
          "indexed": false,
          "name": "_value",
          "type": "uint256"
        }
      ],
      "name": "ExternalTokenDecreaseApproval",
      "type": "event"
    },
    {
      "anonymous": false,
      "inputs": [
        {
          "indexed": false,
          "name": "_globalconstraint",
          "type": "address"
        },
        {
          "indexed": false,
          "name": "_params",
          "type": "bytes32"
        }
      ],
      "name": "AddGlobalConstraint",
      "type": "event"
    },
    {
      "anonymous": false,
      "inputs": [
        {
          "indexed": false,
          "name": "_globalConstraint",
          "type": "address"
        },
        {
          "indexed": false,
          "name": "_index",
          "type": "uint256"
        }
      ],
      "name": "RemoveGlobalConstraint",
      "type": "event"
    },
    {
      "anonymous": false,
      "inputs": [
        {
          "indexed": false,
          "name": "_oldController",
          "type": "address"
        },
        {
          "indexed": false,
          "name": "_newController",
          "type": "address"
        }
      ],
      "name": "UpgradeController",
      "type": "event"
    }
  ],
  "bytecode": "0x606060405234156200001057600080fd5b6040516200307938038062003079833981016040528080519190602001805182019190602001805182019190602001805160018054600160a060020a031916600160a060020a0388811691909117918290559390910192600092501663e1758bd882604051602001526040518163ffffffff167c0100000000000000000000000000000000000000000000000000000000028152600401602060405180830381600087803b1515620000c157600080fd5b6102c65a03f11515620000d357600080fd5b505050604051805160028054600160a060020a031916600160a060020a039283161790556001541690506389ae1c906000604051602001526040518163ffffffff167c0100000000000000000000000000000000000000000000000000000000028152600401602060405180830381600087803b15156200015357600080fd5b6102c65a03f115156200016557600080fd5b505050604051805160038054600160a060020a031916600160a060020a039290921691909117905550600090505b8351811015620002f0576040805190810160405280848381518110620001b557fe5b9060200190602002015181526020017c0100000000000000000000000000000000000000000000000000000000848481518110620001ef57fe5b90602001906020020151177fffffffff000000000000000000000000000000000000000000000000000000001690526000808684815181106200022e57fe5b90602001906020020151600160a060020a031681526020810191909152604001600020815181556020820151600191909101805463ffffffff19167c0100000000000000000000000000000000000000000000000000000000909204919091179055508381815181106200029e57fe5b90602001906020020151600160a060020a031633600160a060020a03167f546816e99403df442acb68ef69562682a50762c20a3fb6b472f7af9923736cfc60405160405180910390a360010162000193565b5050505050612d7480620003056000396000f30060606040526004361061013a5763ffffffff60e060020a600035041663043cc6ee811461014a57806310c5b3281461017d57806318e236e41461019f578063277d811e146101c15780633a02263c1461021057806346a4869c1461023f57806346e361b714610261578063488b3814146102925780635aef7de6146102b157806364f47ace146102c4578063653915e5146102fd57806365ab1ae81461031c5780636bafaa591461035457806381d064c41461036757806389ae1c90146103865780638cf1355c146103995780639fe02726146103c1578063a34abaa8146103fd578063b756d5a21461042c578063b9c2ee821461045a578063cb16d4a214610479578063d29ab9c41461049b578063d5210f60146104c3578063dab0efff146104d6578063db6149ce146104fe578063e1758bd81461053f575b341561014557600080fd5b600080fd5b341561015557600080fd5b610169600160a060020a0360043516610552565b604051901515815260200160405180910390f35b341561018857600080fd5b610169600435600160a060020a0360243516610570565b34156101aa57600080fd5b610169600435600160a060020a0360243516610852565b34156101cc57600080fd5b6101696004602481358181019083013580602081810201604051908101604052809392919081815260200183836020028082843750949650610b2c95505050505050565b341561021b57600080fd5b610223610e90565b604051600160a060020a03909116815260200160405180910390f35b341561024a57600080fd5b610169600160a060020a0360043516602435610e9f565b341561026c57600080fd5b610280600160a060020a0360043516611069565b60405190815260200160405180910390f35b341561029d57600080fd5b610169600160a060020a0360043516611084565b34156102bc57600080fd5b610223611298565b34156102cf57600080fd5b6102e3600160a060020a03600435166112a7565b604051911515825260208201526040908101905180910390f35b341561030857600080fd5b610169600160a060020a03600435166112c6565b341561032757600080fd5b6103326004356115fc565b604051600160a060020a03909216825260208201526040908101905180910390f35b341561035f57600080fd5b610169611632565b341561037257600080fd5b610169600160a060020a03600435166116ab565b341561039157600080fd5b6102236116d4565b34156103a457600080fd5b610169600160a060020a03600435811690602435166044356116e3565b34156103cc57600080fd5b6103e0600160a060020a03600435166119e4565b604051600160e060020a0319909116815260200160405180910390f35b341561040857600080fd5b610169600160a060020a0360043516602435600160e060020a031960443516611a08565b341561043757600080fd5b610169600160a060020a0360043581169060243581169060443516606435611da5565b341561046557600080fd5b610169600160a060020a03600435166120ba565b341561048457600080fd5b610169600435600160a060020a03602435166123cc565b34156104a657600080fd5b610169600160a060020a03600435811690602435166044356126a7565b34156104ce57600080fd5b61028061299f565b34156104e157600080fd5b610169600160a060020a03600435811690602435166044356129a5565b341561050957600080fd5b61051d600160a060020a0360043516612c96565b604051918252600160e060020a03191660208201526040908101905180910390f35b341561054a57600080fd5b610223612cb5565b600160a060020a031660009081526006602052604090205460ff1690565b600160a060020a03331660009081526020819052604081206001015460e060020a9081028116146105a057600080fd5b7f6d696e74546f6b656e730000000000000000000000000000000000000000000060005b6005548110156106a45760058054829081106105dc57fe5b600091825260209091206002909102015460058054600160a060020a039092169163c1786ab29133918590811061060f57fe5b9060005260206000209060020201600101548560006040516020015260405160e060020a63ffffffff8616028152600160a060020a03909316600484015260248301919091526044820152606401602060405180830381600087803b151561067657600080fd5b6102c65a03f1151561068757600080fd5b50505060405180519050151561069c57600080fd5b6001016105c4565b83600160a060020a031633600160a060020a03167f21f9c9a1a1f9a311a50f15fec5c1faa9e21fc9edf964f0fdecba5bd490484c5e8760405190815260200160405180910390a3600254600160a060020a03166340c10f19858760006040516020015260405160e060020a63ffffffff8516028152600160a060020a0390921660048301526024820152604401602060405180830381600087803b151561074a57600080fd5b6102c65a03f1151561075b57600080fd5b50505060405180519350505060005b60055481101561084a57600580548290811061078257fe5b600091825260209091206002909102015460058054600160a060020a0390921691638043154d913391859081106107b557fe5b9060005260206000209060020201600101548560006040516020015260405160e060020a63ffffffff8616028152600160a060020a03909316600484015260248301919091526044820152606401602060405180830381600087803b151561081c57600080fd5b6102c65a03f1151561082d57600080fd5b50505060405180519050151561084257600080fd5b60010161076a565b505092915050565b600160a060020a03331660009081526020819052604081206001015460e060020a90810281161461088257600080fd5b7f6d696e7452657075746174696f6e00000000000000000000000000000000000060005b6005548110156109865760058054829081106108be57fe5b600091825260209091206002909102015460058054600160a060020a039092169163c1786ab2913391859081106108f157fe5b9060005260206000209060020201600101548560006040516020015260405160e060020a63ffffffff8616028152600160a060020a03909316600484015260248301919091526044820152606401602060405180830381600087803b151561095857600080fd5b6102c65a03f1151561096957600080fd5b50505060405180519050151561097e57600080fd5b6001016108a6565b83600160a060020a031633600160a060020a03167fb6ced7e295ffd06d19f45bd872b3bd3fd172b1ba53b17ce0543c276d06f5a4228760405190815260200160405180910390a3600354600160a060020a031663fd9bf3aa858760006040516020015260405160e060020a63ffffffff8516028152600160a060020a0390921660048301526024820152604401602060405180830381600087803b1515610a2c57600080fd5b6102c65a03f11515610a3d57600080fd5b50505060405180519350505060005b60055481101561084a576005805482908110610a6457fe5b600091825260209091206002909102015460058054600160a060020a0390921691638043154d91339185908110610a9757fe5b9060005260206000209060020201600101548560006040516020015260405160e060020a63ffffffff8616028152600160a060020a03909316600484015260248301919091526044820152606401602060405180830381600087803b1515610afe57600080fd5b6102c65a03f11515610b0f57600080fd5b505050604051805190501515610b2457600080fd5b600101610a4c565b600160a060020a03331660009081526020819052604081206001015460e060020a908102811614610b5c57600080fd5b7f67656e65726963416374696f6e0000000000000000000000000000000000000060005b600554811015610c60576005805482908110610b9857fe5b600091825260209091206002909102015460058054600160a060020a039092169163c1786ab291339185908110610bcb57fe5b9060005260206000209060020201600101548560006040516020015260405160e060020a63ffffffff8616028152600160a060020a03909316600484015260248301919091526044820152606401602060405180830381600087803b1515610c3257600080fd5b6102c65a03f11515610c4357600080fd5b505050604051805190501515610c5857600080fd5b600101610b80565b33600160a060020a03167f8518530cc6bc186721ab2fc226031ca054c8484893d8b0c7faab65a58aac238d8560405160208082528190810183818151815260200191508051906020019060200280838360005b83811015610ccb578082015183820152602001610cb3565b505050509050019250505060405180910390a2600154600160a060020a0316636ce15a5433866000604051602001526040518363ffffffff1660e060020a0281526004018083600160a060020a0316600160a060020a0316815260200180602001828103825283818151815260200191508051906020019060200280838360005b83811015610d64578082015183820152602001610d4c565b505050509050019350505050602060405180830381600087803b1515610d8957600080fd5b6102c65a03f11515610d9a57600080fd5b50505060405180519350505060005b600554811015610e89576005805482908110610dc157fe5b600091825260209091206002909102015460058054600160a060020a0390921691638043154d91339185908110610df457fe5b9060005260206000209060020201600101548560006040516020015260405160e060020a63ffffffff8616028152600160a060020a03909316600484015260248301919091526044820152606401602060405180830381600087803b1515610e5b57600080fd5b6102c65a03f11515610e6c57600080fd5b505050604051805190501515610e8157600080fd5b600101610da9565b5050919050565b600454600160a060020a031681565b600160a060020a03331660009081526020819052604081206001015460e060020a027c040000000000000000000000000000000000000000000000000000000090811614610eec57600080fd5b600160a060020a03831660009081526006602052604090205460ff161515610fdc576005805460018101610f208382612cc4565b9160005260206000209060020201600060408051908101604052600160a060020a0387168152602081018690529190508151815473ffffffffffffffffffffffffffffffffffffffff1916600160a060020a039190911617815560208201516001909101555060409050805190810160409081526001825260055460001901602080840191909152600160a060020a03861660009081526006909152208151815460ff191690151517815560208201516001909101555061101c565b600160a060020a03831660009081526006602052604090206001015460058054849290811061100757fe5b60009182526020909120600160029092020101555b7f6f3ac186000a779fe66d0a5188f51993a6593d93c4ff052ec0453aa84f09dbcb8383604051600160a060020a03909216825260208201526040908101905180910390a150600192915050565b600160a060020a031660009081526020819052604090205490565b600061108e612cf5565b611096612cf5565b600160a060020a03331660009081526020819052604090206001015460e060020a027c0400000000000000000000000000000000000000000000000000000000908116146110e357600080fd5b600160a060020a03841660009081526006602052604090819020908051908101604052815460ff16151581526001909101546020820152915081511561128e5760055460001901602083015110156112005760058054600019810190811061114757fe5b9060005260206000209060020201604080519081016040528154600160a060020a0316815260019091015460208083019190915290915081906005908401518154811061119057fe5b90600052602060002090600202016000820151815473ffffffffffffffffffffffffffffffffffffffff1916600160a060020a03919091161781556020820151600190910155506020820151600660008351600160a060020a031681526020810191909152604001600020600101555b6005805490611213906000198301612cc4565b50600160a060020a03841660009081526006602090815260408220805460ff19168155600101919091557f6ceab662049113d466f7e28b69edbec7cf641bc175522623536b09785887982a908590840151604051600160a060020a03909216825260208201526040908101905180910390a160019250610e89565b5060009392505050565b600154600160a060020a031681565b6006602052600090815260409020805460019091015460ff9091169082565b600160a060020a03331660009081526020819052604081206001015460e060020a027c02000000000000000000000000000000000000000000000000000000009081161461131357600080fd5b7f756e7265676973746572536368656d650000000000000000000000000000000060005b60055481101561141757600580548290811061134f57fe5b600091825260209091206002909102015460058054600160a060020a039092169163c1786ab29133918590811061138257fe5b9060005260206000209060020201600101548560006040516020015260405160e060020a63ffffffff8616028152600160a060020a03909316600484015260248301919091526044820152606401602060405180830381600087803b15156113e957600080fd5b6102c65a03f115156113fa57600080fd5b50505060405180519050151561140f57600080fd5b600101611337565b600160a060020a03841660009081526020819052604090206001015460e060020a90810216151561144b5760009250611518565b33600160a060020a0390811660009081526020819052604080822060019081015493881683529120015460e060020a918202199102167c0f0000000000000000000000000000000000000000000000000000000016156114aa57600080fd5b83600160a060020a031633600160a060020a03167f10bb2cf04cb8b902a8e736d494f1a51003be6d4b16ef6fb95ce62c38445023bf60405160405180910390a3600160a060020a03841660009081526020819052604081209081556001908101805463ffffffff1916905592505b5060005b600554811015610e8957600580548290811061153457fe5b600091825260209091206002909102015460058054600160a060020a0390921691638043154d9133918590811061156757fe5b9060005260206000209060020201600101548560006040516020015260405160e060020a63ffffffff8616028152600160a060020a03909316600484015260248301919091526044820152606401602060405180830381600087803b15156115ce57600080fd5b6102c65a03f115156115df57600080fd5b5050506040518051905015156115f457600080fd5b60010161151c565b600580548290811061160a57fe5b600091825260209091206002909102018054600190910154600160a060020a03909116915082565b600061163d336116ab565b151561164b575060006116a8565b600160a060020a0333166000818152602081905260408082209182556001909101805463ffffffff1916905581907f10bb2cf04cb8b902a8e736d494f1a51003be6d4b16ef6fb95ce62c38445023bf905160405180910390a35060015b90565b600160a060020a031660009081526020819052604090206001015460e060020a90810216151590565b600354600160a060020a031681565b600160a060020a03331660009081526020819052604081206001015460e060020a90810281161461171357600080fd5b7f65787465726e616c546f6b656e496e637265617365417070726f76616c00000060005b60055481101561181757600580548290811061174f57fe5b600091825260209091206002909102015460058054600160a060020a039092169163c1786ab29133918590811061178257fe5b9060005260206000209060020201600101548560006040516020015260405160e060020a63ffffffff8616028152600160a060020a03909316600484015260248301919091526044820152606401602060405180830381600087803b15156117e957600080fd5b6102c65a03f115156117fa57600080fd5b50505060405180519050151561180f57600080fd5b600101611737565b85600160a060020a031633600160a060020a03167f2cee0640e7c161518a78fa901d8c0e4b2f51d42612532184a4f017a45b01ba288787604051600160a060020a03909216825260208201526040908101905180910390a3600154600160a060020a0316638cf1355c87878760006040516020015260405160e060020a63ffffffff8616028152600160a060020a0393841660048201529190921660248201526044810191909152606401602060405180830381600087803b15156118db57600080fd5b6102c65a03f115156118ec57600080fd5b50505060405180519350505060005b6005548110156119db57600580548290811061191357fe5b600091825260209091206002909102015460058054600160a060020a0390921691638043154d9133918590811061194657fe5b9060005260206000209060020201600101548560006040516020015260405160e060020a63ffffffff8616028152600160a060020a03909316600484015260248301919091526044820152606401602060405180830381600087803b15156119ad57600080fd5b6102c65a03f115156119be57600080fd5b5050506040518051905015156119d357600080fd5b6001016118fb565b50509392505050565b600160a060020a031660009081526020819052604090206001015460e060020a0290565b6000611a12612cf5565b600160a060020a03331660009081526020819052604090206001015460e060020a027c020000000000000000000000000000000000000000000000000000000090811614611a5f57600080fd5b7f7265676973746572536368656d6500000000000000000000000000000000000060005b600554811015611b63576005805482908110611a9b57fe5b600091825260209091206002909102015460058054600160a060020a039092169163c1786ab291339185908110611ace57fe5b9060005260206000209060020201600101548560006040516020015260405160e060020a63ffffffff8616028152600160a060020a03909316600484015260248301919091526044820152606401602060405180830381600087803b1515611b3557600080fd5b6102c65a03f11515611b4657600080fd5b505050604051805190501515611b5b57600080fd5b600101611a83565b600160a060020a03871660009081526020819052604090819020908051908101604090815282548252600192830154600160e060020a031960e060020a918202166020808501918252600160a060020a03331660009081529081905292832090940154929650909291021990518718167c0f000000000000000000000000000000000000000000000000000000001614611bfc57600080fd5b600160a060020a03331660009081526020818152604082206001015460e060020a021990850151167c0f000000000000000000000000000000000000000000000000000000001614611c4d57600080fd5b600160a060020a0387811660008181526020819052604090819020898155600101805463ffffffff191660e060020a8a81170417905590913316907f546816e99403df442acb68ef69562682a50762c20a3fb6b472f7af9923736cfc905160405180910390a3600193505060005b600554811015611d9b576005805482908110611cd357fe5b600091825260209091206002909102015460058054600160a060020a0390921691638043154d91339185908110611d0657fe5b9060005260206000209060020201600101548560006040516020015260405160e060020a63ffffffff8616028152600160a060020a03909316600484015260248301919091526044820152606401602060405180830381600087803b1515611d6d57600080fd5b6102c65a03f11515611d7e57600080fd5b505050604051805190501515611d9357600080fd5b600101611cbb565b5050509392505050565b600160a060020a03331660009081526020819052604081206001015460e060020a908102811614611dd557600080fd5b7f65787465726e616c546f6b656e5472616e7366657246726f6d0000000000000060005b600554811015611ed9576005805482908110611e1157fe5b600091825260209091206002909102015460058054600160a060020a039092169163c1786ab291339185908110611e4457fe5b9060005260206000209060020201600101548560006040516020015260405160e060020a63ffffffff8616028152600160a060020a03909316600484015260248301919091526044820152606401602060405180830381600087803b1515611eab57600080fd5b6102c65a03f11515611ebc57600080fd5b505050604051805190501515611ed157600080fd5b600101611df9565b86600160a060020a031633600160a060020a03167f283faba4b8dcfe263728666be500623fdf5ae89ac78e40952fe2493f918ed62c888888604051600160a060020a039384168152919092166020820152604080820192909252606001905180910390a3600154600160a060020a031663b756d5a28888888860006040516020015260405160e060020a63ffffffff8716028152600160a060020a0394851660048201529284166024840152921660448201526064810191909152608401602060405180830381600087803b1515611fb057600080fd5b6102c65a03f11515611fc157600080fd5b50505060405180519350505060005b6005548110156120b0576005805482908110611fe857fe5b600091825260209091206002909102015460058054600160a060020a0390921691638043154d9133918590811061201b57fe5b9060005260206000209060020201600101548560006040516020015260405160e060020a63ffffffff8616028152600160a060020a03909316600484015260248301919091526044820152606401602060405180830381600087803b151561208257600080fd5b6102c65a03f1151561209357600080fd5b5050506040518051905015156120a857600080fd5b600101611fd0565b5050949350505050565b600160a060020a03331660009081526020819052604081206001015460e060020a027c08000000000000000000000000000000000000000000000000000000009081161461210757600080fd5b600454600160a060020a03161561211d57600080fd5b600160a060020a038216151561213257600080fd5b6004805473ffffffffffffffffffffffffffffffffffffffff1916600160a060020a03848116919091179091556001541663f2fde38b8360405160e060020a63ffffffff8416028152600160a060020a039091166004820152602401600060405180830381600087803b15156121a757600080fd5b6102c65a03f115156121b857600080fd5b5050600254600160a060020a03308116925016638da5cb5b6000604051602001526040518163ffffffff1660e060020a028152600401602060405180830381600087803b151561220757600080fd5b6102c65a03f1151561221857600080fd5b50505060405180519050600160a060020a0316141561229657600254600160a060020a031663f2fde38b8360405160e060020a63ffffffff8416028152600160a060020a039091166004820152602401600060405180830381600087803b151561228157600080fd5b6102c65a03f1151561229257600080fd5b5050505b600354600160a060020a033081169116638da5cb5b6000604051602001526040518163ffffffff1660e060020a028152600401602060405180830381600087803b15156122e257600080fd5b6102c65a03f115156122f357600080fd5b50505060405180519050600160a060020a0316141561237157600354600160a060020a031663f2fde38b8360405160e060020a63ffffffff8416028152600160a060020a039091166004820152602401600060405180830381600087803b151561235c57600080fd5b6102c65a03f1151561236d57600080fd5b5050505b6004547fdb7cbacf8df312d794506c0cc9af07f64d29ca075796ea2e950a3832cc9a63dd903090600160a060020a0316604051600160a060020a039283168152911660208201526040908101905180910390a1506001919050565b600160a060020a03331660009081526020819052604081206001015460e060020a9081028116146123fc57600080fd5b7f73656e644574686572000000000000000000000000000000000000000000000060005b60055481101561250057600580548290811061243857fe5b600091825260209091206002909102015460058054600160a060020a039092169163c1786ab29133918590811061246b57fe5b9060005260206000209060020201600101548560006040516020015260405160e060020a63ffffffff8616028152600160a060020a03909316600484015260248301919091526044820152606401602060405180830381600087803b15156124d257600080fd5b6102c65a03f115156124e357600080fd5b5050506040518051905015156124f857600080fd5b600101612420565b83600160a060020a031633600160a060020a03167fda35e091786fbaaace32084910404a0e3a14f22a7645a4c3d0fec2c6731e3c348760405190815260200160405180910390a3600154600160a060020a031663cb16d4a2868660006040516020015260405160e060020a63ffffffff85160281526004810192909252600160a060020a03166024820152604401602060405180830381600087803b15156125a757600080fd5b6102c65a03f115156125b857600080fd5b50505060405180519350505060005b60055481101561084a5760058054829081106125df57fe5b600091825260209091206002909102015460058054600160a060020a0390921691638043154d9133918590811061261257fe5b9060005260206000209060020201600101548560006040516020015260405160e060020a63ffffffff8616028152600160a060020a03909316600484015260248301919091526044820152606401602060405180830381600087803b151561267957600080fd5b6102c65a03f1151561268a57600080fd5b50505060405180519050151561269f57600080fd5b6001016125c7565b600160a060020a03331660009081526020819052604081206001015460e060020a9081028116146126d757600080fd5b7f65787465726e616c546f6b656e4465637265617365417070726f76616c00000060005b6005548110156127db57600580548290811061271357fe5b600091825260209091206002909102015460058054600160a060020a039092169163c1786ab29133918590811061274657fe5b9060005260206000209060020201600101548560006040516020015260405160e060020a63ffffffff8616028152600160a060020a03909316600484015260248301919091526044820152606401602060405180830381600087803b15156127ad57600080fd5b6102c65a03f115156127be57600080fd5b5050506040518051905015156127d357600080fd5b6001016126fb565b85600160a060020a031633600160a060020a03167f56fc1f50d44108d3b715d77eb371d388bf2998c65b4eb5cf0ccd6c055be46d498787604051600160a060020a03909216825260208201526040908101905180910390a3600154600160a060020a031663d29ab9c487878760006040516020015260405160e060020a63ffffffff8616028152600160a060020a0393841660048201529190921660248201526044810191909152606401602060405180830381600087803b151561289f57600080fd5b6102c65a03f115156128b057600080fd5b50505060405180519350505060005b6005548110156119db5760058054829081106128d757fe5b600091825260209091206002909102015460058054600160a060020a0390921691638043154d9133918590811061290a57fe5b9060005260206000209060020201600101548560006040516020015260405160e060020a63ffffffff8616028152600160a060020a03909316600484015260248301919091526044820152606401602060405180830381600087803b151561297157600080fd5b6102c65a03f1151561298257600080fd5b50505060405180519050151561299757600080fd5b6001016128bf565b60055490565b600160a060020a03331660009081526020819052604081206001015460e060020a9081028116146129d557600080fd5b7f65787465726e616c546f6b656e5472616e73666572000000000000000000000060005b600554811015612ad9576005805482908110612a1157fe5b600091825260209091206002909102015460058054600160a060020a039092169163c1786ab291339185908110612a4457fe5b9060005260206000209060020201600101548560006040516020015260405160e060020a63ffffffff8616028152600160a060020a03909316600484015260248301919091526044820152606401602060405180830381600087803b1515612aab57600080fd5b6102c65a03f11515612abc57600080fd5b505050604051805190501515612ad157600080fd5b6001016129f9565b84600160a060020a031686600160a060020a031633600160a060020a03167fd4c08afec48fd2cbe49032dc89d3b388b7a4e4f0563a1fdccd73339beb025aa18760405190815260200160405180910390a4600154600160a060020a031663dab0efff87878760006040516020015260405160e060020a63ffffffff8616028152600160a060020a0393841660048201529190921660248201526044810191909152606401602060405180830381600087803b1515612b9657600080fd5b6102c65a03f11515612ba757600080fd5b50505060405180519350505060005b6005548110156119db576005805482908110612bce57fe5b600091825260209091206002909102015460058054600160a060020a0390921691638043154d91339185908110612c0157fe5b9060005260206000209060020201600101548560006040516020015260405160e060020a63ffffffff8616028152600160a060020a03909316600484015260248301919091526044820152606401602060405180830381600087803b1515612c6857600080fd5b6102c65a03f11515612c7957600080fd5b505050604051805190501515612c8e57600080fd5b600101612bb6565b6000602081905290815260409020805460019091015460e060020a0282565b600254600160a060020a031681565b815481835581811511612cf057600202816002028360005260206000209182019101612cf09190612d0c565b505050565b604080519081016040526000808252602082015290565b6116a891905b80821115612d4457805473ffffffffffffffffffffffffffffffffffffffff1916815560006001820155600201612d12565b50905600a165627a7a72305820dd116b5e90268296fdc2bc988612d105652e5b1711df18c0cebc2a012ff6d7680029",
  "source": "pragma solidity ^0.4.18;\r\n\r\nimport \"./Avatar.sol\";\r\nimport \"./Reputation.sol\";\r\nimport \"./DAOToken.sol\";\r\nimport \"../globalConstraints/GlobalConstraintInterface.sol\";\r\n\r\n\r\n/**\r\n * @title Controller contract\r\n * @dev A controller controls the organizations tokens,reputation and avatar.\r\n * It is subject to a set of schemes and constraints that determine its behavior.\r\n * Each scheme has it own parameters and operation permmisions.\r\n */\r\ncontract Controller {\r\n\r\n    struct Scheme {\r\n        bytes32 paramsHash;  // a hash \"configuration\" of the scheme\r\n        bytes4  permissions; // A bitwise flags of permissions,\r\n                             // All 0: Not registered,\r\n                             // 1st bit: Flag if the scheme is registered,\r\n                             // 2nd bit: Scheme can register other schemes\r\n                             // 3th bit: Scheme can add/remove global constraints\r\n                             // 4rd bit: Scheme can upgrade the controller\r\n    }\r\n\r\n    struct GlobalConstraint {\r\n        address gcAddress;\r\n        bytes32 params;\r\n    }\r\n\r\n    struct GlobalConstraintRegister {\r\n        bool register; //is register\r\n        uint index;    //index at globalConstraints\r\n    }\r\n\r\n    mapping(address=>Scheme) public schemes;\r\n\r\n    Avatar public avatar;\r\n    DAOToken public nativeToken;\r\n    Reputation public nativeReputation;\r\n  // newController will point to the new controller after the present controller is upgraded\r\n    address public newController;\r\n  // globalConstraints that determine pre- and post-conditions for all actions on the controller\r\n    GlobalConstraint[] public globalConstraints;\r\n  // globalConstraintsRegister indicate is a globalConstraints is register or not\r\n    mapping(address=>GlobalConstraintRegister) public globalConstraintsRegister;\r\n\r\n\r\n\r\n    event MintReputation (address indexed _sender, address indexed _beneficiary, int256 _amount);\r\n    event MintTokens (address indexed _sender, address indexed _beneficiary, uint256 _amount);\r\n    event RegisterScheme (address indexed _sender, address indexed _scheme);\r\n    event UnregisterScheme (address indexed _sender, address indexed _scheme);\r\n    event GenericAction (address indexed _sender, bytes32[] _params);\r\n    event SendEther (address indexed _sender, uint _amountInWei, address indexed _to);\r\n    event ExternalTokenTransfer (address indexed _sender, address indexed _externalToken, address indexed _to, uint _value);\r\n    event ExternalTokenTransferFrom (address indexed _sender, address indexed _externalToken, address _from, address _to, uint _value);\r\n    event ExternalTokenIncreaseApproval (address indexed _sender, StandardToken indexed _externalToken, address _spender, uint _value);\r\n    event ExternalTokenDecreaseApproval (address indexed _sender, StandardToken indexed _externalToken, address _spender, uint _value);\r\n    event AddGlobalConstraint(address _globalconstraint, bytes32 _params);\r\n    event RemoveGlobalConstraint(address _globalConstraint ,uint256 _index);\r\n    event UpgradeController(address _oldController,address _newController);\r\n\r\n    function Controller(\r\n        Avatar _avatar,\r\n        address[] _schemes,\r\n        bytes32[] _params,\r\n        bytes4[] _permissions\r\n    ) public\r\n    {\r\n        avatar = _avatar;\r\n        nativeToken = avatar.nativeToken();\r\n        nativeReputation = avatar.nativeReputation();\r\n\r\n    // Register the schemes:\r\n        for (uint i = 0; i < _schemes.length; i++) {\r\n            schemes[_schemes[i]] = Scheme({paramsHash: _params[i],permissions: _permissions[i]|bytes4(1)});\r\n            RegisterScheme(msg.sender, _schemes[i]);\r\n        }\r\n    }\r\n\r\n  // Do not allow mistaken calls:\r\n    function() public {\r\n        revert();\r\n    }\r\n\r\n  // Modifiers:\r\n    modifier onlyRegisteredScheme() {\r\n        require(schemes[msg.sender].permissions&bytes4(1) == bytes4(1));\r\n        _;\r\n    }\r\n\r\n    modifier onlyRegisteringSchemes() {\r\n        require(schemes[msg.sender].permissions&bytes4(2) == bytes4(2));\r\n        _;\r\n    }\r\n\r\n    modifier onlyGlobalConstraintsScheme() {\r\n        require(schemes[msg.sender].permissions&bytes4(4) == bytes4(4));\r\n        _;\r\n    }\r\n\r\n    modifier onlyUpgradingScheme() {\r\n        require(schemes[msg.sender].permissions&bytes4(8) == bytes4(8));\r\n        _;\r\n    }\r\n\r\n    modifier onlySubjectToConstraint(bytes32 func) {\r\n        uint index;\r\n        for (index = 0;index<globalConstraints.length;index++) {\r\n            require((GlobalConstraintInterface(globalConstraints[index].gcAddress)).pre(msg.sender, globalConstraints[index].params, func));\r\n        }\r\n        _;\r\n        for (index = 0;index<globalConstraints.length;index++) {\r\n            require((GlobalConstraintInterface(globalConstraints[index].gcAddress)).post(msg.sender, globalConstraints[index].params, func));\r\n        }\r\n    }\r\n\r\n    /**\r\n     * @dev mint reputation .\r\n     * @param  _amount amount of reputation to mint\r\n     * @param _beneficiary beneficiary address\r\n     * @return bool which represents a success\r\n     */\r\n    function mintReputation(int256 _amount, address _beneficiary)\r\n    public\r\n    onlyRegisteredScheme\r\n    onlySubjectToConstraint(\"mintReputation\")\r\n    returns(bool)\r\n    {\r\n        MintReputation(msg.sender, _beneficiary, _amount);\r\n        return nativeReputation.mint(_beneficiary, _amount);\r\n    }\r\n\r\n    /**\r\n     * @dev mint tokens .\r\n     * @param  _amount amount of token to mint\r\n     * @param _beneficiary beneficiary address\r\n     * @return bool which represents a success\r\n     */\r\n    function mintTokens(uint256 _amount, address _beneficiary)\r\n    public\r\n    onlyRegisteredScheme\r\n    onlySubjectToConstraint(\"mintTokens\")\r\n    returns(bool)\r\n    {\r\n        MintTokens(msg.sender, _beneficiary, _amount);\r\n        return nativeToken.mint(_beneficiary, _amount);\r\n    }\r\n\r\n  /**\r\n   * @dev register a scheme\r\n   * @param _scheme the address of the scheme\r\n   * @param _paramsHash a hashed configuration of the usage of the scheme\r\n   * @param _permissions the permissions the new scheme will have\r\n   * @return bool which represents a success\r\n   */\r\n    function registerScheme(address _scheme, bytes32 _paramsHash, bytes4 _permissions)\r\n    public\r\n    onlyRegisteringSchemes\r\n    onlySubjectToConstraint(\"registerScheme\")\r\n    returns(bool)\r\n    {\r\n\r\n        Scheme memory scheme = schemes[_scheme];\r\n\r\n    // Check scheme has at least the permissions it is changing, and at least the current permissions:\r\n    // Implementation is a bit messy. One must recall logic-circuits ^^\r\n\r\n    // produces non-zero if sender does not have all of the perms that are changing between old and new\r\n        require(bytes4(15)&(_permissions^scheme.permissions)&(~schemes[msg.sender].permissions) == bytes4(0));\r\n\r\n    // produces non-zero if sender does not have all of the perms in the old scheme\r\n        require(bytes4(15)&(scheme.permissions&(~schemes[msg.sender].permissions)) == bytes4(0));\r\n\r\n    // Add or change the scheme:\r\n        schemes[_scheme].paramsHash = _paramsHash;\r\n        schemes[_scheme].permissions = _permissions|bytes4(1);\r\n        RegisterScheme(msg.sender, _scheme);\r\n        return true;\r\n    }\r\n\r\n    /**\r\n     * @dev unregister a scheme\r\n     * @param _scheme the address of the scheme\r\n     * @return bool which represents a success\r\n     */\r\n    function unregisterScheme( address _scheme )\r\n    public\r\n    onlyRegisteringSchemes\r\n    onlySubjectToConstraint(\"unregisterScheme\")\r\n    returns(bool)\r\n    {\r\n    //check if the scheme is register\r\n        if (schemes[_scheme].permissions&bytes4(1) == bytes4(0)) {\r\n            return false;\r\n          }\r\n    // Check the unregistering scheme has enough permissions:\r\n        require(bytes4(15)&(schemes[_scheme].permissions&(~schemes[msg.sender].permissions)) == bytes4(0));\r\n\r\n    // Unregister:\r\n        UnregisterScheme(msg.sender, _scheme);\r\n        delete schemes[_scheme];\r\n        return true;\r\n    }\r\n\r\n    /**\r\n     * @dev unregister the caller's scheme\r\n     * @return bool which represents a success\r\n     */\r\n    function unregisterSelf() public returns(bool) {\r\n        if (isSchemeRegistered(msg.sender) == false) {\r\n            return false;\r\n        }\r\n        delete schemes[msg.sender];\r\n        UnregisterScheme(msg.sender, msg.sender);\r\n        return true;\r\n    }\r\n\r\n    function isSchemeRegistered(address _scheme) public constant returns(bool) {\r\n        return (schemes[_scheme].permissions&bytes4(1) != bytes4(0));\r\n    }\r\n\r\n    function getSchemeParameters(address _scheme) public constant returns(bytes32) {\r\n        return schemes[_scheme].paramsHash;\r\n    }\r\n\r\n    function getSchemePermissions(address _scheme) public constant returns(bytes4) {\r\n        return schemes[_scheme].permissions;\r\n    }\r\n\r\n  // Global Contraints:\r\n    function globalConstraintsCount() public constant returns(uint) {\r\n        return globalConstraints.length;\r\n    }\r\n\r\n    function isGlobalConstraintRegister(address _globalConstraint) public constant returns(bool) {\r\n        return globalConstraintsRegister[_globalConstraint].register;\r\n    }\r\n\r\n    /**\r\n     * @dev add or update Global Constraint\r\n     * @param _globalConstraint the address of the global constraint to be added.\r\n     * @param _params the constraint parameters hash.\r\n     * @return bool which represents a success\r\n     */\r\n    function addGlobalConstraint(address _globalConstraint, bytes32 _params)\r\n    public onlyGlobalConstraintsScheme returns(bool)\r\n    {\r\n        if (!globalConstraintsRegister[_globalConstraint].register) {\r\n            globalConstraints.push(GlobalConstraint(_globalConstraint,_params));\r\n            globalConstraintsRegister[_globalConstraint] = GlobalConstraintRegister(true,globalConstraints.length-1);\r\n        }else {\r\n            globalConstraints[globalConstraintsRegister[_globalConstraint].index].params = _params;\r\n        }\r\n        AddGlobalConstraint(_globalConstraint, _params);\r\n        return true;\r\n    }\r\n\r\n    /**\r\n     * @dev remove Global Constraint\r\n     * @param _globalConstraint the address of the global constraint to be remove.\r\n     * @return bool which represents a success\r\n     */\r\n    function removeGlobalConstraint (address _globalConstraint)\r\n    public onlyGlobalConstraintsScheme returns(bool)\r\n    {\r\n        GlobalConstraintRegister memory globalConstraintRegister = globalConstraintsRegister[_globalConstraint];\r\n\r\n        if (globalConstraintRegister.register) {\r\n            if (globalConstraintRegister.index < globalConstraints.length-1) {\r\n                GlobalConstraint memory globalConstraint = globalConstraints[globalConstraints.length-1];\r\n                globalConstraints[globalConstraintRegister.index] = globalConstraint;\r\n                globalConstraintsRegister[globalConstraint.gcAddress].index = globalConstraintRegister.index;\r\n            }\r\n            globalConstraints.length--;\r\n            delete globalConstraintsRegister[_globalConstraint];\r\n            RemoveGlobalConstraint(_globalConstraint,globalConstraintRegister.index);\r\n            return true;\r\n        }\r\n        return false;\r\n    }\r\n\r\n  /**\r\n    * @dev upgrade the Controller\r\n    *      The function will trigger an event 'UpgradeController'.\r\n    * @param  _newController the address of the new controller.\r\n    * @return bool which represents a success\r\n    */\r\n    function upgradeController(address _newController)\r\n    public onlyUpgradingScheme returns(bool)\r\n    {\r\n        require(newController == address(0));   // so the upgrade could be done once for a contract.\r\n        require(_newController != address(0));\r\n        newController = _newController;\r\n        avatar.transferOwnership(_newController);\r\n        if (nativeToken.owner() == address(this)) {\r\n            nativeToken.transferOwnership(_newController);\r\n        }\r\n        if (nativeReputation.owner() == address(this)) {\r\n            nativeReputation.transferOwnership(_newController);\r\n        }\r\n        UpgradeController(this,newController);\r\n        return true;\r\n    }\r\n\r\n    /**\r\n    * @dev do a generic deligate call to the contract which called us.\r\n    * This function use deligatecall and might expose the organization to security\r\n    * risk. Use this function only if you really knows what you are doing.\r\n    * @param _params the params for the call.\r\n    * @return bool which represents success\r\n    */\r\n    function genericAction(bytes32[] _params)\r\n    public\r\n    onlyRegisteredScheme\r\n    onlySubjectToConstraint(\"genericAction\")\r\n    returns(bool)\r\n    {\r\n        GenericAction(msg.sender, _params);\r\n        return avatar.genericAction(msg.sender, _params);\r\n    }\r\n\r\n  /**\r\n   * @dev send some ether\r\n   * @param _amountInWei the amount of ether (in Wei) to send\r\n   * @param _to address of the beneficary\r\n   * @return bool which represents a success\r\n   */\r\n    function sendEther(uint _amountInWei, address _to)\r\n    public\r\n    onlyRegisteredScheme\r\n    onlySubjectToConstraint(\"sendEther\")\r\n    returns(bool)\r\n    {\r\n        SendEther(msg.sender, _amountInWei, _to);\r\n        return avatar.sendEther(_amountInWei, _to);\r\n    }\r\n\r\n    /**\r\n    * @dev send some amount of arbitrary ERC20 Tokens\r\n    * @param _externalToken the address of the Token Contract\r\n    * @param _to address of the beneficary\r\n    * @param _value the amount of ether (in Wei) to send\r\n    * @return bool which represents a success\r\n    */\r\n    function externalTokenTransfer(StandardToken _externalToken, address _to, uint _value)\r\n    public\r\n    onlyRegisteredScheme\r\n    onlySubjectToConstraint(\"externalTokenTransfer\")\r\n    returns(bool)\r\n    {\r\n        ExternalTokenTransfer(msg.sender, _externalToken, _to, _value);\r\n        return avatar.externalTokenTransfer(_externalToken, _to, _value);\r\n    }\r\n\r\n    /**\r\n    * @dev transfer token \"from\" address \"to\" address\r\n    *      One must to approve the amount of tokens which can be spend from the\r\n    *      \"from\" account.This can be done using externalTokenApprove.\r\n    * @param _externalToken the address of the Token Contract\r\n    * @param _from address of the account to send from\r\n    * @param _to address of the beneficary\r\n    * @param _value the amount of ether (in Wei) to send\r\n    * @return bool which represents a success\r\n    */\r\n    function externalTokenTransferFrom(StandardToken _externalToken, address _from, address _to, uint _value)\r\n    public\r\n    onlyRegisteredScheme\r\n    onlySubjectToConstraint(\"externalTokenTransferFrom\")\r\n    returns(bool)\r\n    {\r\n        ExternalTokenTransferFrom(msg.sender, _externalToken, _from, _to, _value);\r\n        return avatar.externalTokenTransferFrom(_externalToken, _from, _to, _value);\r\n    }\r\n\r\n    /**\r\n    * @dev increase approval for the spender address to spend a specified amount of tokens\r\n    *      on behalf of msg.sender.\r\n    * @param _externalToken the address of the Token Contract\r\n    * @param _spender address\r\n    * @param _addedValue the amount of ether (in Wei) which the approval is refering to.\r\n    * @return bool which represents a success\r\n    */\r\n    function externalTokenIncreaseApproval(StandardToken _externalToken, address _spender, uint _addedValue)\r\n    public\r\n    onlyRegisteredScheme\r\n    onlySubjectToConstraint(\"externalTokenIncreaseApproval\")\r\n    returns(bool)\r\n    {\r\n        ExternalTokenIncreaseApproval(msg.sender,_externalToken,_spender,_addedValue);\r\n        return avatar.externalTokenIncreaseApproval(_externalToken, _spender, _addedValue);\r\n    }\r\n\r\n    /**\r\n    * @dev decrease approval for the spender address to spend a specified amount of tokens\r\n    *      on behalf of msg.sender.\r\n    * @param _externalToken the address of the Token Contract\r\n    * @param _spender address\r\n    * @param _subtractedValue the amount of ether (in Wei) which the approval is refering to.\r\n    * @return bool which represents a success\r\n    */\r\n    function externalTokenDecreaseApproval(StandardToken _externalToken, address _spender, uint _subtractedValue)\r\n    public\r\n    onlyRegisteredScheme\r\n    onlySubjectToConstraint(\"externalTokenDecreaseApproval\")\r\n    returns(bool)\r\n    {\r\n        ExternalTokenDecreaseApproval(msg.sender,_externalToken,_spender,_subtractedValue);\r\n        return avatar.externalTokenDecreaseApproval(_externalToken, _spender, _subtractedValue);\r\n    }\r\n\r\n}\r\n",
  "sourcePath": "C:\\users\\dkent\\documents\\projects\\GitHub\\DAOStack\\daostack\\contracts\\controller\\Controller.sol",
  "compiler": {
    "name": "solc",
    "version": "0.4.18+commit.9cf6e910.Emscripten.clang"
  },
  "schemaVersion": "1.0.1",
  "updatedAt": "2017-12-29T21:31:04.901Z"
}