{
  "contractName": "DAOToken",
  "abi": [
    {
      "constant": true,
      "inputs": [],
      "name": "mintingFinished",
      "outputs": [
        {
          "name": "",
          "type": "bool"
        }
      ],
      "payable": false,
      "stateMutability": "view",
      "type": "function"
    },
    {
      "constant": true,
      "inputs": [],
      "name": "name",
      "outputs": [
        {
          "name": "",
          "type": "string"
        }
      ],
      "payable": false,
      "stateMutability": "view",
      "type": "function"
    },
    {
      "constant": false,
      "inputs": [
        {
          "name": "_spender",
          "type": "address"
        },
        {
          "name": "_value",
          "type": "uint256"
        }
      ],
      "name": "approve",
      "outputs": [
        {
          "name": "",
          "type": "bool"
        }
      ],
      "payable": false,
      "stateMutability": "nonpayable",
      "type": "function"
    },
    {
      "constant": true,
      "inputs": [],
      "name": "totalSupply",
      "outputs": [
        {
          "name": "",
          "type": "uint256"
        }
      ],
      "payable": false,
      "stateMutability": "view",
      "type": "function"
    },
    {
      "constant": false,
      "inputs": [
        {
          "name": "_from",
          "type": "address"
        },
        {
          "name": "_to",
          "type": "address"
        },
        {
          "name": "_value",
          "type": "uint256"
        }
      ],
      "name": "transferFrom",
      "outputs": [
        {
          "name": "",
          "type": "bool"
        }
      ],
      "payable": false,
      "stateMutability": "nonpayable",
      "type": "function"
    },
    {
      "constant": false,
      "inputs": [
        {
          "name": "_to",
          "type": "address"
        },
        {
          "name": "_amount",
          "type": "uint256"
        }
      ],
      "name": "mint",
      "outputs": [
        {
          "name": "",
          "type": "bool"
        }
      ],
      "payable": false,
      "stateMutability": "nonpayable",
      "type": "function"
    },
    {
      "constant": false,
      "inputs": [
        {
          "name": "_value",
          "type": "uint256"
        }
      ],
      "name": "burn",
      "outputs": [],
      "payable": false,
      "stateMutability": "nonpayable",
      "type": "function"
    },
    {
      "constant": false,
      "inputs": [
        {
          "name": "_spender",
          "type": "address"
        },
        {
          "name": "_subtractedValue",
          "type": "uint256"
        }
      ],
      "name": "decreaseApproval",
      "outputs": [
        {
          "name": "",
          "type": "bool"
        }
      ],
      "payable": false,
      "stateMutability": "nonpayable",
      "type": "function"
    },
    {
      "constant": true,
      "inputs": [],
      "name": "DECIMAL",
      "outputs": [
        {
          "name": "",
          "type": "uint256"
        }
      ],
      "payable": false,
      "stateMutability": "view",
      "type": "function"
    },
    {
      "constant": true,
      "inputs": [
        {
          "name": "_owner",
          "type": "address"
        }
      ],
      "name": "balanceOf",
      "outputs": [
        {
          "name": "balance",
          "type": "uint256"
        }
      ],
      "payable": false,
      "stateMutability": "view",
      "type": "function"
    },
    {
      "constant": false,
      "inputs": [],
      "name": "finishMinting",
      "outputs": [
        {
          "name": "",
          "type": "bool"
        }
      ],
      "payable": false,
      "stateMutability": "nonpayable",
      "type": "function"
    },
    {
      "constant": false,
      "inputs": [],
      "name": "destroy",
      "outputs": [],
      "payable": false,
      "stateMutability": "nonpayable",
      "type": "function"
    },
    {
      "constant": true,
      "inputs": [],
      "name": "owner",
      "outputs": [
        {
          "name": "",
          "type": "address"
        }
      ],
      "payable": false,
      "stateMutability": "view",
      "type": "function"
    },
    {
      "constant": true,
      "inputs": [],
      "name": "symbol",
      "outputs": [
        {
          "name": "",
          "type": "string"
        }
      ],
      "payable": false,
      "stateMutability": "view",
      "type": "function"
    },
    {
      "constant": false,
      "inputs": [
        {
          "name": "_to",
          "type": "address"
        },
        {
          "name": "_value",
          "type": "uint256"
        }
      ],
      "name": "transfer",
      "outputs": [
        {
          "name": "",
          "type": "bool"
        }
      ],
      "payable": false,
      "stateMutability": "nonpayable",
      "type": "function"
    },
    {
      "constant": false,
      "inputs": [
        {
          "name": "_spender",
          "type": "address"
        },
        {
          "name": "_addedValue",
          "type": "uint256"
        }
      ],
      "name": "increaseApproval",
      "outputs": [
        {
          "name": "",
          "type": "bool"
        }
      ],
      "payable": false,
      "stateMutability": "nonpayable",
      "type": "function"
    },
    {
      "constant": true,
      "inputs": [
        {
          "name": "_owner",
          "type": "address"
        },
        {
          "name": "_spender",
          "type": "address"
        }
      ],
      "name": "allowance",
      "outputs": [
        {
          "name": "",
          "type": "uint256"
        }
      ],
      "payable": false,
      "stateMutability": "view",
      "type": "function"
    },
    {
      "constant": false,
      "inputs": [
        {
          "name": "newOwner",
          "type": "address"
        }
      ],
      "name": "transferOwnership",
      "outputs": [],
      "payable": false,
      "stateMutability": "nonpayable",
      "type": "function"
    },
    {
      "constant": false,
      "inputs": [
        {
          "name": "_recipient",
          "type": "address"
        }
      ],
      "name": "destroyAndSend",
      "outputs": [],
      "payable": false,
      "stateMutability": "nonpayable",
      "type": "function"
    },
    {
      "inputs": [
        {
          "name": "_name",
          "type": "string"
        },
        {
          "name": "_symbol",
          "type": "string"
        }
      ],
      "payable": false,
      "stateMutability": "nonpayable",
      "type": "constructor"
    },
    {
      "anonymous": false,
      "inputs": [
        {
          "indexed": true,
          "name": "burner",
          "type": "address"
        },
        {
          "indexed": false,
          "name": "value",
          "type": "uint256"
        }
      ],
      "name": "Burn",
      "type": "event"
    },
    {
      "anonymous": false,
      "inputs": [
        {
          "indexed": true,
          "name": "to",
          "type": "address"
        },
        {
          "indexed": false,
          "name": "amount",
          "type": "uint256"
        }
      ],
      "name": "Mint",
      "type": "event"
    },
    {
      "anonymous": false,
      "inputs": [],
      "name": "MintFinished",
      "type": "event"
    },
    {
      "anonymous": false,
      "inputs": [
        {
          "indexed": true,
          "name": "previousOwner",
          "type": "address"
        },
        {
          "indexed": true,
          "name": "newOwner",
          "type": "address"
        }
      ],
      "name": "OwnershipTransferred",
      "type": "event"
    },
    {
      "anonymous": false,
      "inputs": [
        {
          "indexed": true,
          "name": "owner",
          "type": "address"
        },
        {
          "indexed": true,
          "name": "spender",
          "type": "address"
        },
        {
          "indexed": false,
          "name": "value",
          "type": "uint256"
        }
      ],
      "name": "Approval",
      "type": "event"
    },
    {
      "anonymous": false,
      "inputs": [
        {
          "indexed": true,
          "name": "from",
          "type": "address"
        },
        {
          "indexed": true,
          "name": "to",
          "type": "address"
        },
        {
          "indexed": false,
          "name": "value",
          "type": "uint256"
        }
      ],
      "name": "Transfer",
      "type": "event"
    }
  ],
  "bytecode": "0x60606040526003805460a060020a60ff0219169055341561001f57600080fd5b604051610ea0380380610ea08339810160405280805182019190602001805160038054600160a060020a03191633600160a060020a0316179055919091019050600482805161007292916020019061008e565b50600581805161008692916020019061008e565b505050610129565b828054600181600116156101000203166002900490600052602060002090601f016020900481019282601f106100cf57805160ff19168380011785556100fc565b828001600101855582156100fc579182015b828111156100fc5782518255916020019190600101906100e1565b5061010892915061010c565b5090565b61012691905b808211156101085760008155600101610112565b90565b610d68806101386000396000f3006060604052600436106101065763ffffffff7c010000000000000000000000000000000000000000000000000000000060003504166305d2035b811461010b57806306fdde0314610132578063095ea7b3146101bc57806318160ddd146101de57806323b872dd1461020357806340c10f191461022b57806342966c681461024d57806366188463146102655780636ab55fd91461028757806370a082311461029a5780637d64bcb4146102b957806383197ef0146102cc5780638da5cb5b146102df57806395d89b411461030e578063a9059cbb14610321578063d73dd62314610343578063dd62ed3e14610365578063f2fde38b1461038a578063f5074f41146103a9575b600080fd5b341561011657600080fd5b61011e6103c8565b604051901515815260200160405180910390f35b341561013d57600080fd5b6101456103d8565b60405160208082528190810183818151815260200191508051906020019080838360005b83811015610181578082015183820152602001610169565b50505050905090810190601f1680156101ae5780820380516001836020036101000a031916815260200191505b509250505060405180910390f35b34156101c757600080fd5b61011e600160a060020a0360043516602435610476565b34156101e957600080fd5b6101f16104e2565b60405190815260200160405180910390f35b341561020e57600080fd5b61011e600160a060020a03600435811690602435166044356104e8565b341561023657600080fd5b61011e600160a060020a036004351660243561066a565b341561025857600080fd5b610263600435610777565b005b341561027057600080fd5b61011e600160a060020a0360043516602435610840565b341561029257600080fd5b6101f161093a565b34156102a557600080fd5b6101f1600160a060020a036004351661093f565b34156102c457600080fd5b61011e61095a565b34156102d757600080fd5b6102636109e5565b34156102ea57600080fd5b6102f2610a0e565b604051600160a060020a03909116815260200160405180910390f35b341561031957600080fd5b610145610a1d565b341561032c57600080fd5b61011e600160a060020a0360043516602435610a88565b341561034e57600080fd5b61011e600160a060020a0360043516602435610b83565b341561037057600080fd5b6101f1600160a060020a0360043581169060243516610c27565b341561039557600080fd5b610263600160a060020a0360043516610c52565b34156103b457600080fd5b610263600160a060020a0360043516610ced565b60035460a060020a900460ff1681565b60048054600181600116156101000203166002900480601f01602080910402602001604051908101604052809291908181526020018280546001816001161561010002031660029004801561046e5780601f106104435761010080835404028352916020019161046e565b820191906000526020600020905b81548152906001019060200180831161045157829003601f168201915b505050505081565b600160a060020a03338116600081815260026020908152604080832094871680845294909152808220859055909291907f8c5be1e5ebec7d5bd14f71427d1e84f3dd0314c0f7b2291e5b200ac8c7c3b9259085905190815260200160405180910390a350600192915050565b60005481565b6000600160a060020a03831615156104ff57600080fd5b600160a060020a03841660009081526001602052604090205482111561052457600080fd5b600160a060020a038085166000908152600260209081526040808320339094168352929052205482111561055757600080fd5b600160a060020a038416600090815260016020526040902054610580908363ffffffff610d1416565b600160a060020a0380861660009081526001602052604080822093909355908516815220546105b5908363ffffffff610d2616565b600160a060020a038085166000908152600160209081526040808320949094558783168252600281528382203390931682529190915220546105fd908363ffffffff610d1416565b600160a060020a03808616600081815260026020908152604080832033861684529091529081902093909355908516917fddf252ad1be2c89b69c2b068fc378daa952ba7f163c4a11628f55a4df523b3ef9085905190815260200160405180910390a35060019392505050565b60035460009033600160a060020a0390811691161461068857600080fd5b60035460a060020a900460ff161561069f57600080fd5b6000546106b2908363ffffffff610d2616565b6000908155600160a060020a0384168152600160205260409020546106dd908363ffffffff610d2616565b600160a060020a0384166000818152600160205260409081902092909255907f0f6798a560793a54c3bcfe86a93cde1e73087d944c0ea20544137d41213968859084905190815260200160405180910390a2600160a060020a03831660007fddf252ad1be2c89b69c2b068fc378daa952ba7f163c4a11628f55a4df523b3ef8460405190815260200160405180910390a350600192915050565b600080821161078557600080fd5b600160a060020a0333166000908152600160205260409020548211156107aa57600080fd5b5033600160a060020a0381166000908152600160205260409020546107cf9083610d14565b600160a060020a038216600090815260016020526040812091909155546107fc908363ffffffff610d1416565b600055600160a060020a0381167fcc16f5dbb4873280815c1ee09dbd06736cffcc184412cf7a71a0fdb75d397ca58360405190815260200160405180910390a25050565b600160a060020a0333811660009081526002602090815260408083209386168352929052908120548083111561089d57600160a060020a0333811660009081526002602090815260408083209388168352929052908120556108d4565b6108ad818463ffffffff610d1416565b600160a060020a033381166000908152600260209081526040808320938916835292905220555b600160a060020a0333811660008181526002602090815260408083209489168084529490915290819020547f8c5be1e5ebec7d5bd14f71427d1e84f3dd0314c0f7b2291e5b200ac8c7c3b925915190815260200160405180910390a35060019392505050565b601281565b600160a060020a031660009081526001602052604090205490565b60035460009033600160a060020a0390811691161461097857600080fd5b60035460a060020a900460ff161561098f57600080fd5b6003805474ff0000000000000000000000000000000000000000191660a060020a1790557fae5184fba832cb2b1f702aca6117b8d265eaf03ad33eb133f19dde0f5920fa0860405160405180910390a150600190565b60035433600160a060020a03908116911614610a0057600080fd5b600354600160a060020a0316ff5b600354600160a060020a031681565b60058054600181600116156101000203166002900480601f01602080910402602001604051908101604052809291908181526020018280546001816001161561010002031660029004801561046e5780601f106104435761010080835404028352916020019161046e565b6000600160a060020a0383161515610a9f57600080fd5b600160a060020a033316600090815260016020526040902054821115610ac457600080fd5b600160a060020a033316600090815260016020526040902054610aed908363ffffffff610d1416565b600160a060020a033381166000908152600160205260408082209390935590851681522054610b22908363ffffffff610d2616565b600160a060020a0380851660008181526001602052604090819020939093559133909116907fddf252ad1be2c89b69c2b068fc378daa952ba7f163c4a11628f55a4df523b3ef9085905190815260200160405180910390a350600192915050565b600160a060020a033381166000908152600260209081526040808320938616835292905290812054610bbb908363ffffffff610d2616565b600160a060020a0333811660008181526002602090815260408083209489168084529490915290819020849055919290917f8c5be1e5ebec7d5bd14f71427d1e84f3dd0314c0f7b2291e5b200ac8c7c3b92591905190815260200160405180910390a350600192915050565b600160a060020a03918216600090815260026020908152604080832093909416825291909152205490565b60035433600160a060020a03908116911614610c6d57600080fd5b600160a060020a0381161515610c8257600080fd5b600354600160a060020a0380831691167f8be0079c531659141344cd1fd0a4f28419497f9722a3daafe3b4186f6b6457e060405160405180910390a36003805473ffffffffffffffffffffffffffffffffffffffff1916600160a060020a0392909216919091179055565b60035433600160a060020a03908116911614610d0857600080fd5b80600160a060020a0316ff5b600082821115610d2057fe5b50900390565b600082820183811015610d3557fe5b93925050505600a165627a7a723058204a7d9c4865d4eee425b7d9b9c524bd388f6747f0922f7bd20706d92b6a86e5410029",
  "source": "pragma solidity ^0.4.18;\r\n\r\nimport \"zeppelin-solidity/contracts/token/MintableToken.sol\";\r\nimport \"zeppelin-solidity/contracts/token/BurnableToken.sol\";\r\nimport \"zeppelin-solidity/contracts/lifecycle/Destructible.sol\";\r\n\r\n\r\n\r\n/**\r\n * @title DAOToken, base on zeppelin contract.\r\n * @dev ERC20 comptible token. It is a mintable, destructable, burnable token.\r\n */\r\n\r\ncontract DAOToken is MintableToken,Destructible,BurnableToken {\r\n\r\n    string public name;\r\n    string public symbol;\r\n    uint public constant DECIMAL = 18;\r\n\r\n    /**\r\n     * @dev the constructor takes a token name and a symbol\r\n     */\r\n    function DAOToken(string _name, string _symbol) public {\r\n        name = _name;\r\n        symbol = _symbol;\r\n    }\r\n}\r\n",
  "sourcePath": "C:\\Users\\dkent\\Documents\\Projects\\GitHub\\DAOStack\\daostack\\contracts\\controller\\DAOToken.sol",
  "compiler": {
    "name": "solc",
    "version": "0.4.18+commit.9cf6e910.Emscripten.clang"
  },
  "schemaVersion": "1.0.1",
  "updatedAt": "2017-12-16T16:01:30.006Z"
}