{
  "contractName": "DAOToken",
  "abi": [
    {
      "constant": true,
      "inputs": [],
      "name": "mintingFinished",
      "outputs": [
        {
          "name": "",
          "type": "bool"
        }
      ],
      "payable": false,
      "stateMutability": "view",
      "type": "function"
    },
    {
      "constant": true,
      "inputs": [],
      "name": "name",
      "outputs": [
        {
          "name": "",
          "type": "string"
        }
      ],
      "payable": false,
      "stateMutability": "view",
      "type": "function"
    },
    {
      "constant": false,
      "inputs": [
        {
          "name": "_spender",
          "type": "address"
        },
        {
          "name": "_value",
          "type": "uint256"
        }
      ],
      "name": "approve",
      "outputs": [
        {
          "name": "",
          "type": "bool"
        }
      ],
      "payable": false,
      "stateMutability": "nonpayable",
      "type": "function"
    },
    {
      "constant": false,
      "inputs": [
        {
          "name": "_value",
          "type": "uint256"
        },
        {
          "name": "_releaseBlock",
          "type": "uint256"
        }
      ],
      "name": "lock",
      "outputs": [],
      "payable": false,
      "stateMutability": "nonpayable",
      "type": "function"
    },
    {
      "constant": true,
      "inputs": [],
      "name": "totalSupply",
      "outputs": [
        {
          "name": "",
          "type": "uint256"
        }
      ],
      "payable": false,
      "stateMutability": "view",
      "type": "function"
    },
    {
      "constant": false,
      "inputs": [
        {
          "name": "_from",
          "type": "address"
        },
        {
          "name": "_to",
          "type": "address"
        },
        {
          "name": "_value",
          "type": "uint256"
        }
      ],
      "name": "transferFrom",
      "outputs": [
        {
          "name": "res",
          "type": "bool"
        }
      ],
      "payable": false,
      "stateMutability": "nonpayable",
      "type": "function"
    },
    {
      "constant": true,
      "inputs": [],
      "name": "decimals",
      "outputs": [
        {
          "name": "",
          "type": "uint256"
        }
      ],
      "payable": false,
      "stateMutability": "view",
      "type": "function"
    },
    {
      "constant": false,
      "inputs": [
        {
          "name": "_to",
          "type": "address"
        },
        {
          "name": "_amount",
          "type": "uint256"
        }
      ],
      "name": "mint",
      "outputs": [
        {
          "name": "",
          "type": "bool"
        }
      ],
      "payable": false,
      "stateMutability": "nonpayable",
      "type": "function"
    },
    {
      "constant": false,
      "inputs": [
        {
          "name": "_spender",
          "type": "address"
        },
        {
          "name": "_subtractedValue",
          "type": "uint256"
        }
      ],
      "name": "decreaseApproval",
      "outputs": [
        {
          "name": "",
          "type": "bool"
        }
      ],
      "payable": false,
      "stateMutability": "nonpayable",
      "type": "function"
    },
    {
      "constant": true,
      "inputs": [
        {
          "name": "_owner",
          "type": "address"
        }
      ],
      "name": "balanceOf",
      "outputs": [
        {
          "name": "balance",
          "type": "uint256"
        }
      ],
      "payable": false,
      "stateMutability": "view",
      "type": "function"
    },
    {
      "constant": false,
      "inputs": [],
      "name": "finishMinting",
      "outputs": [
        {
          "name": "",
          "type": "bool"
        }
      ],
      "payable": false,
      "stateMutability": "nonpayable",
      "type": "function"
    },
    {
      "constant": false,
      "inputs": [],
      "name": "destroy",
      "outputs": [],
      "payable": false,
      "stateMutability": "nonpayable",
      "type": "function"
    },
    {
      "constant": false,
      "inputs": [
        {
          "name": "_to",
          "type": "address"
        },
        {
          "name": "_amount",
          "type": "uint256"
        },
        {
          "name": "_releaseBlock",
          "type": "uint256"
        }
      ],
      "name": "mintLocked",
      "outputs": [
        {
          "name": "res",
          "type": "bool"
        }
      ],
      "payable": false,
      "stateMutability": "nonpayable",
      "type": "function"
    },
    {
      "constant": false,
      "inputs": [],
      "name": "burnContractTokens",
      "outputs": [],
      "payable": false,
      "stateMutability": "nonpayable",
      "type": "function"
    },
    {
      "constant": true,
      "inputs": [],
      "name": "owner",
      "outputs": [
        {
          "name": "",
          "type": "address"
        }
      ],
      "payable": false,
      "stateMutability": "view",
      "type": "function"
    },
    {
      "constant": true,
      "inputs": [],
      "name": "symbol",
      "outputs": [
        {
          "name": "",
          "type": "string"
        }
      ],
      "payable": false,
      "stateMutability": "view",
      "type": "function"
    },
    {
      "constant": false,
      "inputs": [
        {
          "name": "_to",
          "type": "address"
        },
        {
          "name": "_value",
          "type": "uint256"
        }
      ],
      "name": "transfer",
      "outputs": [
        {
          "name": "res",
          "type": "bool"
        }
      ],
      "payable": false,
      "stateMutability": "nonpayable",
      "type": "function"
    },
    {
      "constant": false,
      "inputs": [
        {
          "name": "_spender",
          "type": "address"
        },
        {
          "name": "_addedValue",
          "type": "uint256"
        }
      ],
      "name": "increaseApproval",
      "outputs": [
        {
          "name": "",
          "type": "bool"
        }
      ],
      "payable": false,
      "stateMutability": "nonpayable",
      "type": "function"
    },
    {
      "constant": true,
      "inputs": [
        {
          "name": "_owner",
          "type": "address"
        },
        {
          "name": "_spender",
          "type": "address"
        }
      ],
      "name": "allowance",
      "outputs": [
        {
          "name": "",
          "type": "uint256"
        }
      ],
      "payable": false,
      "stateMutability": "view",
      "type": "function"
    },
    {
      "constant": false,
      "inputs": [
        {
          "name": "newOwner",
          "type": "address"
        }
      ],
      "name": "transferOwnership",
      "outputs": [],
      "payable": false,
      "stateMutability": "nonpayable",
      "type": "function"
    },
    {
      "constant": false,
      "inputs": [
        {
          "name": "_recipient",
          "type": "address"
        }
      ],
      "name": "destroyAndSend",
      "outputs": [],
      "payable": false,
      "stateMutability": "nonpayable",
      "type": "function"
    },
    {
      "inputs": [
        {
          "name": "_name",
          "type": "string"
        },
        {
          "name": "_symbol",
          "type": "string"
        }
      ],
      "payable": false,
      "stateMutability": "nonpayable",
      "type": "constructor"
    },
    {
      "anonymous": false,
      "inputs": [
        {
          "indexed": true,
          "name": "user",
          "type": "address"
        },
        {
          "indexed": false,
          "name": "value",
          "type": "uint256"
        }
      ],
      "name": "TokenLock",
      "type": "event"
    },
    {
      "anonymous": false,
      "inputs": [
        {
          "indexed": false,
          "name": "value",
          "type": "uint256"
        }
      ],
      "name": "Burn",
      "type": "event"
    },
    {
      "anonymous": false,
      "inputs": [
        {
          "indexed": true,
          "name": "to",
          "type": "address"
        },
        {
          "indexed": false,
          "name": "amount",
          "type": "uint256"
        }
      ],
      "name": "Mint",
      "type": "event"
    },
    {
      "anonymous": false,
      "inputs": [],
      "name": "MintFinished",
      "type": "event"
    },
    {
      "anonymous": false,
      "inputs": [
        {
          "indexed": true,
          "name": "previousOwner",
          "type": "address"
        },
        {
          "indexed": true,
          "name": "newOwner",
          "type": "address"
        }
      ],
      "name": "OwnershipTransferred",
      "type": "event"
    },
    {
      "anonymous": false,
      "inputs": [
        {
          "indexed": true,
          "name": "owner",
          "type": "address"
        },
        {
          "indexed": true,
          "name": "spender",
          "type": "address"
        },
        {
          "indexed": false,
          "name": "value",
          "type": "uint256"
        }
      ],
      "name": "Approval",
      "type": "event"
    },
    {
      "anonymous": false,
      "inputs": [
        {
          "indexed": true,
          "name": "from",
          "type": "address"
        },
        {
          "indexed": true,
          "name": "to",
          "type": "address"
        },
        {
          "indexed": false,
          "name": "value",
          "type": "uint256"
        }
      ],
      "name": "Transfer",
      "type": "event"
    }
  ],
  "bytecode": "0x60606040526003805460a060020a60ff0219169055601260065534156200002557600080fd5b60405162001108380380620011088339810160405280805182019190602001805160038054600160a060020a03191633600160a060020a031617905591909101905060048280516200007c9291602001906200009b565b506005818051620000929291602001906200009b565b50505062000140565b828054600181600116156101000203166002900490600052602060002090601f016020900481019282601f10620000de57805160ff19168380011785556200010e565b828001600101855582156200010e579182015b828111156200010e578251825591602001919060010190620000f1565b506200011c92915062000120565b5090565b6200013d91905b808211156200011c576000815560010162000127565b90565b610fb880620001506000396000f30060606040526004361061011c5763ffffffff7c010000000000000000000000000000000000000000000000000000000060003504166305d2035b811461012157806306fdde0314610148578063095ea7b3146101d25780631338736f146101f457806318160ddd1461020f57806323b872dd14610234578063313ce5671461025c57806340c10f191461026f578063661884631461029157806370a08231146102b35780637d64bcb4146102d257806383197ef0146102e55780638778f590146102f85780638b96dca31461031d5780638da5cb5b1461033057806395d89b411461035f578063a9059cbb14610372578063d73dd62314610394578063dd62ed3e146103b6578063f2fde38b146103db578063f5074f41146103fa575b600080fd5b341561012c57600080fd5b610134610419565b604051901515815260200160405180910390f35b341561015357600080fd5b61015b610429565b60405160208082528190810183818151815260200191508051906020019080838360005b8381101561019757808201518382015260200161017f565b50505050905090810190601f1680156101c45780820380516001836020036101000a031916815260200191505b509250505060405180910390f35b34156101dd57600080fd5b610134600160a060020a03600435166024356104c7565b34156101ff57600080fd5b61020d600435602435610534565b005b341561021a57600080fd5b610222610543565b60405190815260200160405180910390f35b341561023f57600080fd5b610134600160a060020a0360043581169060243516604435610549565b341561026757600080fd5b6102226105e3565b341561027a57600080fd5b610134600160a060020a03600435166024356105e9565b341561029c57600080fd5b610134600160a060020a03600435166024356106f6565b34156102be57600080fd5b610222600160a060020a03600435166107f0565b34156102dd57600080fd5b61013461080b565b34156102f057600080fd5b61020d610896565b341561030357600080fd5b610134600160a060020a03600435166024356044356108bf565b341561032857600080fd5b61020d6108d8565b341561033b57600080fd5b610343610954565b604051600160a060020a03909116815260200160405180910390f35b341561036a57600080fd5b61015b610963565b341561037d57600080fd5b610134600160a060020a03600435166024356109ce565b341561039f57600080fd5b610134600160a060020a0360043516602435610a60565b34156103c157600080fd5b610222600160a060020a0360043581169060243516610b04565b34156103e657600080fd5b61020d600160a060020a0360043516610b2f565b341561040557600080fd5b61020d600160a060020a0360043516610bca565b60035460a060020a900460ff1681565b60048054600181600116156101000203166002900480601f0160208091040260200160405190810160405280929190818152602001828054600181600116156101000203166002900480156104bf5780601f10610494576101008083540402835291602001916104bf565b820191906000526020600020905b8154815290600101906020018083116104a257829003601f168201915b505050505081565b600160a060020a03338116600081815260026020908152604080832094871680845294909152808220859055909291907f8c5be1e5ebec7d5bd14f71427d1e84f3dd0314c0f7b2291e5b200ac8c7c3b9259085905190815260200160405180910390a35060015b92915050565b61053f338383610bf1565b5050565b60005481565b600160a060020a038316600090815260076020526040812060010154439011156105ad57600160a060020a0384166000908152600760209081526040808320546001909252909120546105a2908463ffffffff610cee16565b10156105ad57600080fd5b6105b8848484610d00565b905030600160a060020a031683600160a060020a031614156105dc576105dc6108d8565b9392505050565b60065481565b60035460009033600160a060020a0390811691161461060757600080fd5b60035460a060020a900460ff161561061e57600080fd5b600054610631908363ffffffff610e8216565b6000908155600160a060020a03841681526001602052604090205461065c908363ffffffff610e8216565b600160a060020a0384166000818152600160205260409081902092909255907f0f6798a560793a54c3bcfe86a93cde1e73087d944c0ea20544137d41213968859084905190815260200160405180910390a2600160a060020a03831660007fddf252ad1be2c89b69c2b068fc378daa952ba7f163c4a11628f55a4df523b3ef8460405190815260200160405180910390a350600192915050565b600160a060020a0333811660009081526002602090815260408083209386168352929052908120548083111561075357600160a060020a03338116600090815260026020908152604080832093881683529290529081205561078a565b610763818463ffffffff610cee16565b600160a060020a033381166000908152600260209081526040808320938916835292905220555b600160a060020a0333811660008181526002602090815260408083209489168084529490915290819020547f8c5be1e5ebec7d5bd14f71427d1e84f3dd0314c0f7b2291e5b200ac8c7c3b925915190815260200160405180910390a35060019392505050565b600160a060020a031660009081526001602052604090205490565b60035460009033600160a060020a0390811691161461082957600080fd5b60035460a060020a900460ff161561084057600080fd5b6003805474ff0000000000000000000000000000000000000000191660a060020a1790557fae5184fba832cb2b1f702aca6117b8d265eaf03ad33eb133f19dde0f5920fa0860405160405180910390a150600190565b60035433600160a060020a039081169116146108b157600080fd5b600354600160a060020a0316ff5b60006108cb84846105e9565b90506105dc848484610bf1565b600160a060020a03301660009081526001602052604081205490546109029163ffffffff610cee16565b6000908155600160a060020a0330168152600160205260408082208290557fb90306ad06b2a6ff86ddc9327db583062895ef6540e62dc50add009db5b356eb91905190815260200160405180910390a1565b600354600160a060020a031681565b60058054600181600116156101000203166002900480601f0160208091040260200160405190810160405280929190818152602001828054600181600116156101000203166002900480156104bf5780601f10610494576101008083540402835291602001916104bf565b600160a060020a03331660009081526007602052604081206001015443901115610a3257600160a060020a033316600090815260076020908152604080832054600190925290912054610a27908463ffffffff610cee16565b1015610a3257600080fd5b610a3c8383610e91565b905030600160a060020a031683600160a060020a0316141561052e5761052e6108d8565b600160a060020a033381166000908152600260209081526040808320938616835292905290812054610a98908363ffffffff610e8216565b600160a060020a0333811660008181526002602090815260408083209489168084529490915290819020849055919290917f8c5be1e5ebec7d5bd14f71427d1e84f3dd0314c0f7b2291e5b200ac8c7c3b92591905190815260200160405180910390a350600192915050565b600160a060020a03918216600090815260026020908152604080832093909416825291909152205490565b60035433600160a060020a03908116911614610b4a57600080fd5b600160a060020a0381161515610b5f57600080fd5b600354600160a060020a0380831691167f8be0079c531659141344cd1fd0a4f28419497f9722a3daafe3b4186f6b6457e060405160405180910390a36003805473ffffffffffffffffffffffffffffffffffffffff1916600160a060020a0392909216919091179055565b60035433600160a060020a03908116911614610be557600080fd5b80600160a060020a0316ff5b811515610bfd57600080fd5b600160a060020a038316600090815260016020526040902054821115610c2257600080fd5b600160a060020a03831660009081526007602052604090206001015443901115610c9357600160a060020a038316600090815260076020526040902054821015610c6b57600080fd5b600160a060020a038316600090815260076020526040902060010154811015610c9357600080fd5b600160a060020a038316600081815260076020526040908190208481556001018390557fb28c000ac15ab34ecd2967bf80e42da8695d031d8ab47459e5b4f747607d63f69084905190815260200160405180910390a2505050565b600082821115610cfa57fe5b50900390565b6000600160a060020a0383161515610d1757600080fd5b600160a060020a038416600090815260016020526040902054821115610d3c57600080fd5b600160a060020a0380851660009081526002602090815260408083203390941683529290522054821115610d6f57600080fd5b600160a060020a038416600090815260016020526040902054610d98908363ffffffff610cee16565b600160a060020a038086166000908152600160205260408082209390935590851681522054610dcd908363ffffffff610e8216565b600160a060020a03808516600090815260016020908152604080832094909455878316825260028152838220339093168252919091522054610e15908363ffffffff610cee16565b600160a060020a03808616600081815260026020908152604080832033861684529091529081902093909355908516917fddf252ad1be2c89b69c2b068fc378daa952ba7f163c4a11628f55a4df523b3ef9085905190815260200160405180910390a35060019392505050565b6000828201838110156105dc57fe5b6000600160a060020a0383161515610ea857600080fd5b600160a060020a033316600090815260016020526040902054821115610ecd57600080fd5b600160a060020a033316600090815260016020526040902054610ef6908363ffffffff610cee16565b600160a060020a033381166000908152600160205260408082209390935590851681522054610f2b908363ffffffff610e8216565b600160a060020a0380851660008181526001602052604090819020939093559133909116907fddf252ad1be2c89b69c2b068fc378daa952ba7f163c4a11628f55a4df523b3ef9085905190815260200160405180910390a3506001929150505600a165627a7a72305820a7510a1a74480556b5cddad9adf17bc10bf3a712be8be5c2a8ffb132791dd86d0029",
  "source": "pragma solidity ^0.4.18;\r\n\r\nimport \"zeppelin-solidity/contracts/token/MintableToken.sol\";\r\nimport \"zeppelin-solidity/contracts/lifecycle/Destructible.sol\";\r\nimport \"zeppelin-solidity/contracts/math/SafeMath.sol\";\r\n\r\n\r\n/**\r\n * @title DAOToken, base on zeppelin contract.\r\n * @dev ERC20 comptible token. It is a mintable, lockable, burnable token.\r\n */\r\n\r\ncontract DAOToken is MintableToken, Destructible {\r\n    using SafeMath for uint;\r\n\r\n    event TokenLock(address indexed user, uint value);\r\n    event Burn(uint value);\r\n\r\n    struct Lock {\r\n        uint lockedAmount;\r\n        uint releaseBlock;\r\n    }\r\n\r\n    string public name;\r\n    string public symbol;\r\n    uint public decimals = 18;\r\n\r\n    /**\r\n     * @dev the constructor takes a token name and a symbol\r\n     */\r\n    function DAOToken(string _name, string _symbol) public {\r\n        name = _name;\r\n        symbol = _symbol;\r\n    }\r\n\r\n    // Locking mapping:\r\n    mapping(address => Lock) lockBalances;\r\n\r\n    function lock(uint _value, uint _releaseBlock) public {\r\n        lockInternal(msg.sender, _value, _releaseBlock);\r\n    }\r\n\r\n    function mintLocked(address _to, uint _amount, uint _releaseBlock) public returns(bool res) {\r\n        res = (super.mint(_to, _amount));\r\n        lockInternal(_to, _amount, _releaseBlock);\r\n    }\r\n\r\n    // Rewriting the function to check for locking and burn tokens of the contract itself:\r\n    function transfer(address _to, uint _value) public returns(bool res) {\r\n        // Check for locking:\r\n        if (lockBalances[msg.sender].releaseBlock > block.number)\r\n            require(balances[msg.sender].sub(_value) >= lockBalances[msg.sender].lockedAmount);\r\n\r\n        res = (super.transfer(_to, _value));\r\n\r\n        if (_to == address(this))\r\n            burnContractTokens();\r\n    }\r\n\r\n    // Rewriting the function to check for locking and burn tokens of the contract itself:\r\n    function transferFrom(address _from, address _to, uint _value) public returns(bool res) {\r\n        // Check for locking:\r\n        if (lockBalances[_from].releaseBlock > block.number)\r\n            require(balances[_from].sub(_value) >= lockBalances[_from].lockedAmount);\r\n\r\n        res = (super.transferFrom(_from, _to, _value));\r\n\r\n        if (_to == address(this)) {\r\n            burnContractTokens();\r\n        }\r\n    }\r\n\r\n    // The token contract should not hold its own tokens, allow anyont to burn its balance:\r\n    function burnContractTokens() public {\r\n        totalSupply = totalSupply.sub(balances[this]);\r\n        balances[this] = 0;\r\n        Burn(balances[this]);\r\n    }\r\n\r\n    function lockInternal(address agent, uint _value, uint _releaseBlock) internal {\r\n        // Sanity check:\r\n        require(_value != 0);\r\n        require(_value <= balances[agent]);\r\n\r\n        // Check if user has locked funds, and verify the change is legit:\r\n        if (lockBalances[agent].releaseBlock > block.number) {\r\n            require(_value >= lockBalances[agent].lockedAmount);\r\n            require(_releaseBlock >= lockBalances[agent].releaseBlock);\r\n        }\r\n\r\n        lockBalances[agent].lockedAmount = _value;\r\n        lockBalances[agent].releaseBlock = _releaseBlock;\r\n        TokenLock(agent, _value);\r\n    }\r\n}\r\n",
  "sourcePath": "C:\\Users\\dkent\\Documents\\Projects\\GitHub\\DAOStack\\daostack\\contracts\\controller\\DAOToken.sol",
  "compiler": {
    "name": "solc",
    "version": "0.4.18+commit.9cf6e910.Emscripten.clang"
  },
  "schemaVersion": "1.0.1",
  "updatedAt": "2017-12-12T19:22:25.430Z"
}