{
  "contractName": "EmergentICO",
  "abi": [
    {
      "constant": false,
      "inputs": [],
      "name": "haltICO",
      "outputs": [],
      "payable": false,
      "stateMutability": "nonpayable",
      "type": "function"
    },
    {
      "constant": true,
      "inputs": [],
      "name": "minDonation",
      "outputs": [
        {
          "name": "",
          "type": "uint256"
        }
      ],
      "payable": false,
      "stateMutability": "view",
      "type": "function"
    },
    {
      "constant": true,
      "inputs": [],
      "name": "isActive",
      "outputs": [
        {
          "name": "",
          "type": "bool"
        }
      ],
      "payable": false,
      "stateMutability": "view",
      "type": "function"
    },
    {
      "constant": true,
      "inputs": [
        {
          "name": "_periodId",
          "type": "uint256"
        }
      ],
      "name": "getIsPeriodInitialized",
      "outputs": [
        {
          "name": "",
          "type": "bool"
        }
      ],
      "payable": false,
      "stateMutability": "view",
      "type": "function"
    },
    {
      "constant": true,
      "inputs": [],
      "name": "beneficiary",
      "outputs": [
        {
          "name": "",
          "type": "address"
        }
      ],
      "payable": false,
      "stateMutability": "view",
      "type": "function"
    },
    {
      "constant": true,
      "inputs": [],
      "name": "donationCounter",
      "outputs": [
        {
          "name": "",
          "type": "uint256"
        }
      ],
      "payable": false,
      "stateMutability": "view",
      "type": "function"
    },
    {
      "constant": true,
      "inputs": [
        {
          "name": "_batch",
          "type": "uint256"
        }
      ],
      "name": "rateInWei",
      "outputs": [
        {
          "name": "",
          "type": "uint256"
        }
      ],
      "payable": false,
      "stateMutability": "view",
      "type": "function"
    },
    {
      "constant": true,
      "inputs": [],
      "name": "startBlock",
      "outputs": [
        {
          "name": "",
          "type": "uint256"
        }
      ],
      "payable": false,
      "stateMutability": "view",
      "type": "function"
    },
    {
      "constant": false,
      "inputs": [
        {
          "name": "_periodId",
          "type": "uint256"
        },
        {
          "name": "_iterations",
          "type": "uint256"
        }
      ],
      "name": "computeAverage",
      "outputs": [],
      "payable": false,
      "stateMutability": "nonpayable",
      "type": "function"
    },
    {
      "constant": false,
      "inputs": [
        {
          "name": "_periodId",
          "type": "uint256"
        },
        {
          "name": "_hintTotalDonatedInThisPeriod",
          "type": "uint256"
        },
        {
          "name": "_iterations",
          "type": "uint256"
        }
      ],
      "name": "initAverageComputation",
      "outputs": [],
      "payable": false,
      "stateMutability": "nonpayable",
      "type": "function"
    },
    {
      "constant": true,
      "inputs": [],
      "name": "rateFractionDenominator",
      "outputs": [
        {
          "name": "",
          "type": "uint256"
        }
      ],
      "payable": false,
      "stateMutability": "view",
      "type": "function"
    },
    {
      "constant": false,
      "inputs": [
        {
          "name": "_donationIds",
          "type": "uint256[]"
        }
      ],
      "name": "collectMulti",
      "outputs": [],
      "payable": false,
      "stateMutability": "nonpayable",
      "type": "function"
    },
    {
      "constant": false,
      "inputs": [
        {
          "name": "_donationId",
          "type": "uint256"
        }
      ],
      "name": "collectMyTokens",
      "outputs": [],
      "payable": false,
      "stateMutability": "nonpayable",
      "type": "function"
    },
    {
      "constant": true,
      "inputs": [
        {
          "name": "",
          "type": "address"
        }
      ],
      "name": "averageComputators",
      "outputs": [
        {
          "name": "periodId",
          "type": "uint256"
        },
        {
          "name": "donationsCounted",
          "type": "uint256"
        },
        {
          "name": "hintRate",
          "type": "uint256"
        },
        {
          "name": "hintTotalDonatedInThisPeriod",
          "type": "uint256"
        },
        {
          "name": "donationsWithMinRateEqualToRate",
          "type": "uint256"
        },
        {
          "name": "donationsWithMinRateLowerThanRate",
          "type": "uint256"
        }
      ],
      "payable": false,
      "stateMutability": "view",
      "type": "function"
    },
    {
      "constant": true,
      "inputs": [],
      "name": "currentPeriodId",
      "outputs": [
        {
          "name": "",
          "type": "uint256"
        }
      ],
      "payable": false,
      "stateMutability": "view",
      "type": "function"
    },
    {
      "constant": false,
      "inputs": [],
      "name": "resumeICO",
      "outputs": [],
      "payable": false,
      "stateMutability": "nonpayable",
      "type": "function"
    },
    {
      "constant": true,
      "inputs": [],
      "name": "initialRate",
      "outputs": [
        {
          "name": "",
          "type": "uint256"
        }
      ],
      "payable": false,
      "stateMutability": "view",
      "type": "function"
    },
    {
      "constant": true,
      "inputs": [],
      "name": "totalReceived",
      "outputs": [
        {
          "name": "",
          "type": "uint256"
        }
      ],
      "payable": false,
      "stateMutability": "view",
      "type": "function"
    },
    {
      "constant": true,
      "inputs": [],
      "name": "periodDuration",
      "outputs": [
        {
          "name": "",
          "type": "uint256"
        }
      ],
      "payable": false,
      "stateMutability": "view",
      "type": "function"
    },
    {
      "constant": true,
      "inputs": [
        {
          "name": "_start",
          "type": "uint256"
        },
        {
          "name": "_end",
          "type": "uint256"
        }
      ],
      "name": "averageRateInWei",
      "outputs": [
        {
          "name": "",
          "type": "uint256"
        }
      ],
      "payable": false,
      "stateMutability": "view",
      "type": "function"
    },
    {
      "constant": true,
      "inputs": [],
      "name": "isHalted",
      "outputs": [
        {
          "name": "",
          "type": "bool"
        }
      ],
      "payable": false,
      "stateMutability": "view",
      "type": "function"
    },
    {
      "constant": true,
      "inputs": [],
      "name": "rateFractionNumerator",
      "outputs": [
        {
          "name": "",
          "type": "uint256"
        }
      ],
      "payable": false,
      "stateMutability": "view",
      "type": "function"
    },
    {
      "constant": false,
      "inputs": [
        {
          "name": "_beneficiary",
          "type": "address"
        },
        {
          "name": "_minRate",
          "type": "uint256"
        }
      ],
      "name": "donate",
      "outputs": [],
      "payable": true,
      "stateMutability": "payable",
      "type": "function"
    },
    {
      "constant": true,
      "inputs": [
        {
          "name": "",
          "type": "uint256"
        }
      ],
      "name": "periods",
      "outputs": [
        {
          "name": "donationsCounterInPeriod",
          "type": "uint256"
        },
        {
          "name": "raisedUpToPeriod",
          "type": "uint256"
        },
        {
          "name": "averageRate",
          "type": "uint256"
        },
        {
          "name": "donationsWithMinRateEqualToZero",
          "type": "uint256"
        },
        {
          "name": "donationsWithMinRateEqualToRate",
          "type": "uint256"
        },
        {
          "name": "donationsWithMinRateEqualToRateToInclude",
          "type": "uint256"
        },
        {
          "name": "isInitialized",
          "type": "bool"
        },
        {
          "name": "isAverageRateComputed",
          "type": "bool"
        }
      ],
      "payable": false,
      "stateMutability": "view",
      "type": "function"
    },
    {
      "constant": true,
      "inputs": [],
      "name": "batchSize",
      "outputs": [
        {
          "name": "",
          "type": "uint256"
        }
      ],
      "payable": false,
      "stateMutability": "view",
      "type": "function"
    },
    {
      "constant": true,
      "inputs": [],
      "name": "controller",
      "outputs": [
        {
          "name": "",
          "type": "address"
        }
      ],
      "payable": false,
      "stateMutability": "view",
      "type": "function"
    },
    {
      "constant": true,
      "inputs": [],
      "name": "admin",
      "outputs": [
        {
          "name": "",
          "type": "address"
        }
      ],
      "payable": false,
      "stateMutability": "view",
      "type": "function"
    },
    {
      "constant": true,
      "inputs": [
        {
          "name": "",
          "type": "uint256"
        }
      ],
      "name": "donations",
      "outputs": [
        {
          "name": "donor",
          "type": "address"
        },
        {
          "name": "beneficiary",
          "type": "address"
        },
        {
          "name": "periodId",
          "type": "uint256"
        },
        {
          "name": "value",
          "type": "uint256"
        },
        {
          "name": "minRate",
          "type": "uint256"
        },
        {
          "name": "isCollected",
          "type": "bool"
        }
      ],
      "payable": false,
      "stateMutability": "view",
      "type": "function"
    },
    {
      "inputs": [
        {
          "name": "_controller",
          "type": "address"
        },
        {
          "name": "_admin",
          "type": "address"
        },
        {
          "name": "_beneficiary",
          "type": "address"
        },
        {
          "name": "_startBlock",
          "type": "uint256"
        },
        {
          "name": "_periodDuration",
          "type": "uint256"
        },
        {
          "name": "_minDonation",
          "type": "uint256"
        },
        {
          "name": "_initialRate",
          "type": "uint256"
        },
        {
          "name": "_rateFractionNumerator",
          "type": "uint256"
        },
        {
          "name": "_rateFractionDenominator",
          "type": "uint256"
        },
        {
          "name": "_batchSize",
          "type": "uint256"
        }
      ],
      "payable": false,
      "stateMutability": "nonpayable",
      "type": "constructor"
    },
    {
      "payable": true,
      "stateMutability": "payable",
      "type": "fallback"
    },
    {
      "anonymous": false,
      "inputs": [
        {
          "indexed": true,
          "name": "_donationId",
          "type": "uint256"
        },
        {
          "indexed": true,
          "name": "_donor",
          "type": "address"
        },
        {
          "indexed": true,
          "name": "_beneficiary",
          "type": "address"
        },
        {
          "indexed": false,
          "name": "_periodId",
          "type": "uint256"
        },
        {
          "indexed": false,
          "name": "_value",
          "type": "uint256"
        },
        {
          "indexed": false,
          "name": "_minRate",
          "type": "uint256"
        }
      ],
      "name": "LogDonationReceived",
      "type": "event"
    },
    {
      "anonymous": false,
      "inputs": [
        {
          "indexed": false,
          "name": "_periodId",
          "type": "uint256"
        }
      ],
      "name": "LogPeriodAverageComputed",
      "type": "event"
    },
    {
      "anonymous": false,
      "inputs": [
        {
          "indexed": false,
          "name": "_donation",
          "type": "uint256"
        },
        {
          "indexed": false,
          "name": "_tokens",
          "type": "uint256"
        },
        {
          "indexed": false,
          "name": "_ether",
          "type": "uint256"
        }
      ],
      "name": "LogCollect",
      "type": "event"
    },
    {
      "anonymous": false,
      "inputs": [
        {
          "indexed": false,
          "name": "_msg",
          "type": "address"
        }
      ],
      "name": "LogAddress",
      "type": "event"
    },
    {
      "anonymous": false,
      "inputs": [
        {
          "indexed": false,
          "name": "_msg",
          "type": "int256"
        }
      ],
      "name": "LogInt",
      "type": "event"
    },
    {
      "anonymous": false,
      "inputs": [
        {
          "indexed": false,
          "name": "_msg",
          "type": "string"
        }
      ],
      "name": "LogString",
      "type": "event"
    },
    {
      "anonymous": false,
      "inputs": [
        {
          "indexed": false,
          "name": "_msg",
          "type": "uint256"
        }
      ],
      "name": "LogUint",
      "type": "event"
    },
    {
      "anonymous": false,
      "inputs": [
        {
          "indexed": false,
          "name": "_msg",
          "type": "bytes"
        }
      ],
      "name": "LogBytes",
      "type": "event"
    },
    {
      "anonymous": false,
      "inputs": [
        {
          "indexed": false,
          "name": "_msg",
          "type": "bytes32"
        }
      ],
      "name": "LogBytes32",
      "type": "event"
    },
    {
      "anonymous": false,
      "inputs": [
        {
          "indexed": false,
          "name": "_msg",
          "type": "bool"
        }
      ],
      "name": "LogBool",
      "type": "event"
    }
  ],
  "bytecode": "0x6060604052341561000f57600080fd5b604051610140806115a48339810160405280805191906020018051919060200180519190602001805191906020018051919060200180519190602001805191906020018051919060200180519190602001805160038054600160a060020a039d8e16600160a060020a031991821617909155600480549c8e169c82169c909c17909b55600580549a909c1699909a1698909817909955600695909555600793909355600891909155600955600a55600b5550600c555060008052600160208190527fa6eef7e35abe7026729641147f7915573c7e97b47efa546f5f6e3230263bcb4f805460ff191690911790556114998061010b6000396000f3006060604052600436106101695763ffffffff7c0100000000000000000000000000000000000000000000000000000000600035041663129caa1881146101765780631c0e02251461018957806322f3e2d4146101ae578063295e0c01146101d557806338af3eed146101eb57806338d187dd1461021a57806344d57d1c1461022d57806348cd4cb11461024357806357e05158146102565780635e33493c1461026f5780635ef67f231461028b5780637cb08a401461029e5780637d1a7efb146102ed5780637ee6a43e14610303578063988e65951461035b5780639cbd7da51461036e5780639e51051f14610381578063a3c2c46214610394578063b470aade146103a7578063b540be69146103ba578063c7ff1584146103d3578063ddaf88b1146103e6578063e69d849d146103f9578063ea4a110414610410578063f4daaba11461046f578063f77c479114610482578063f851a44014610495578063f8626af8146104a8575b610174336000610500565b005b341561018157600080fd5b610174610782565b341561019457600080fd5b61019c6107ac565b60405190815260200160405180910390f35b34156101b957600080fd5b6101c16107b2565b604051901515815260200160405180910390f35b34156101e057600080fd5b6101c16004356107e1565b34156101f657600080fd5b6101fe6107f9565b604051600160a060020a03909116815260200160405180910390f35b341561022557600080fd5b61019c610808565b341561023857600080fd5b61019c60043561080e565b341561024e57600080fd5b61019c610848565b341561026157600080fd5b61017460043560243561084e565b341561027a57600080fd5b610174600435602435604435610bb6565b341561029657600080fd5b61019c610cb3565b34156102a957600080fd5b6101746004602481358181019083013580602081810201604051908101604052809392919081815260200183836020028082843750949650610cb995505050505050565b34156102f857600080fd5b610174600435610d0e565b341561030e57600080fd5b610322600160a060020a0360043516610d41565b60405180878152602001868152602001858152602001848152602001838152602001828152602001965050505050505060405180910390f35b341561036657600080fd5b61019c610d78565b341561037957600080fd5b610174610da1565b341561038c57600080fd5b61019c610dc8565b341561039f57600080fd5b61019c610dce565b34156103b257600080fd5b61019c610dd4565b34156103c557600080fd5b61019c600435602435610dda565b34156103de57600080fd5b6101c1610f7f565b34156103f157600080fd5b61019c610f88565b610174600160a060020a0360043516602435610500565b341561041b57600080fd5b610426600435610f8e565b60405197885260208801969096526040808801959095526060870193909352608086019190915260a0850152151560c084015290151560e0830152610100909101905180910390f35b341561047a57600080fd5b61019c610fd6565b341561048d57600080fd5b6101fe610fdc565b34156104a057600080fd5b6101fe610feb565b34156104b357600080fd5b6104be600435610ffa565b604051600160a060020a0396871681529490951660208501526040808501939093526060840191909152608083015291151560a082015260c001905180910390f35b60008061050b6107b2565b151561051657600080fd5b60085434101561052557600080fd5b61052d610d78565b6000818152600160208190526040909120805490910181559092509050821561057a57600781018054600181016105648382611426565b5060009182526020909120600e54910155610595565b600381015461058f903463ffffffff61103f16565b60038201555b60c06040519081016040908152600160a060020a033381168352861660208084019190915281830185905234606084015260808301869052600060a08401819052600e54815290819052208151815473ffffffffffffffffffffffffffffffffffffffff1916600160a060020a0391909116178155602082015160018201805473ffffffffffffffffffffffffffffffffffffffff1916600160a060020a039290921691909117905560408201518160020155606082015181600301556080820151816004015560a0820151600591909101805460ff191691151591909117905550600e80546001019055600d5461068d903461103f565b600d558215156106cb57600554600160a060020a03163480156108fc0290604051600060405180830381858888f1935050505015156106cb57600080fd5b82158015906106de5750600681015460ff165b15610714576001810154600382015484916107099161070490829063ffffffff61103f16565b610dda565b101561071457600080fd5b83600160a060020a031633600160a060020a03166001600e54037f082b71b5780b36931baba6f3cf86f2ca4756adc3900c908b17a5dbcb3dce41ca610757610d78565b348860405180848152602001838152602001828152602001935050505060405180910390a450505050565b60045433600160a060020a0390811691161461079d57600080fd5b600f805460ff19166001179055565b60085481565b600f5460009060ff16156107c8575060006107de565b6006544310156107da575060006107de565b5060015b90565b60009081526001602052604090206006015460ff1690565b600554600160a060020a031681565b600e5481565b600081600b540a61083883600a540a600954670de0b6b3a76400000261105990919063ffffffff16565b81151561084157fe5b0492915050565b60065481565b6000806000808561085d610d78565b811061086857600080fd5b600087815260016020526040902060060154879060ff16151561088a57600080fd5b6000888152600160209081526040808320600160a060020a033316845260029092529091208054919750955088146108c157600080fd5b600093505b868410156109b45760078601546001860154106108e2576109b4565b8560070185600101548154811015156108f757fe5b9060005260206000209001549250846002015460008085815260200190815260200160002060040154101561095657600083815260208190526040902060030154600586015461094c9163ffffffff61103f16565b600586015561099f565b6002850154600084815260208190526040902060040154141561099f5760008381526020819052604090206003015460048601546109999163ffffffff61103f16565b60048601555b600180860180548201905593909301926108c6565b600786015460018601541415610bac57846003015485600501541115610ac6577fa95e6e2a182411e7a6f9ed114a85c3761d87f9b8f453d842c71235aa64fff99f60405160208082526054908201527f43616c63756c6174696f6e206661696c65643a20646f6e6174696f6e735769746040808301919091527f684d696e526174654c6f7765725468616e52617465203e2068696e74546f746160608301527f6c446f6e61746564496e54686973506572696f64000000000000000000000000608083015260a0909101905180910390a1600160a060020a0333166000908152600260208190526040822082815560018101839055908101829055600381018290556004810182905560050155610bac565b60068601805461ff00191661010017905560028086015490870155600480860154908701556005808601546003870180549190910391880191909155546001870154610b179163ffffffff61103f16565b6001898101600090815260208281526040808320808501959095556006909401805460ff191684179055600160a060020a0333168252600290819052838220828155928301829055820181905560038201819055600482018190556005909101557fd72555d1dfe224ea443aa19b32efcb6161a7a87c0578c48a34e56b505c1ac9859089905190815260200160405180910390a15b5050505050505050565b600083610bc1610d78565b8110610bcc57600080fd5b600085815260016020526040902060060154859060ff161515610bee57600080fd5b60008681526001602081905260409091200154610c1590610704818863ffffffff61103f16565b925060c06040519081016040908152878252600060208084018290528284018790526060840189905260808401829052898252600181528282206003015460a0850152600160a060020a03331682526002905220815181556020820151816001015560408201518160020155606082015181600301556080820151816004015560a082015160059091015550610cab868561084e565b505050505050565b600b5481565b60045460009033600160a060020a03908116911614610cd757600080fd5b5060005b8151811015610d0a57610d02828281518110610cf357fe5b90602001906020020151611084565b600101610cdb565b5050565b60008181526020819052604090205433600160a060020a03908116911614610d3557600080fd5b610d3e81611084565b50565b6002602081905260009182526040909120805460018201549282015460038301546004840154600590940154929493919290919086565b6000600754610d92600654436113fd90919063ffffffff16565b811515610d9b57fe5b04905090565b60045433600160a060020a03908116911614610dbc57600080fd5b600f805460ff19169055565b60095481565b600d5481565b60075481565b600080808080808088881015610dec57fe5b600c5489811515610df957fe5b049550600c5488811515610e0957fe5b049450610e2d600c548a811515610e1c57fe5b600c5491900663ffffffff6113fd16565b9350600c5488811515610e3c57fe5b069250610e4f858763ffffffff6113fd16565b9150811515610e6857610e618661080e565b9650610f73565b8160011415610ec657888803610eb5610e90610e838861080e565b869063ffffffff61105916565b610ea9610e9c8a61080e565b889063ffffffff61105916565b9063ffffffff61103f16565b811515610ebe57fe5b049650610f73565b6001821115610f7357600a54600b54610ee49163ffffffff6113fd16565b610f2c600b54610f20610f11610ef98a61080e565b610f058c60010161080e565b9063ffffffff6113fd16565b600c549063ffffffff61105916565b9063ffffffff61105916565b811515610f3557fe5b049050888803610eb5610f4a610e838861080e565b610ea9610f66610f598b61080e565b899063ffffffff61105916565b859063ffffffff61103f16565b50505050505092915050565b600f5460ff1681565b600a5481565b60016020819052600091825260409091208054918101546002820154600383015460048401546005850154600690950154939492939192909160ff8082169161010090041688565b600c5481565b600354600160a060020a031681565b600454600160a060020a031681565b600060208190529081526040902080546001820154600283015460038401546004850154600590950154600160a060020a039485169593909416939192909160ff1686565b60008282018381101561104e57fe5b8091505b5092915050565b60008083151561106c5760009150611052565b5082820282848281151561107c57fe5b041461104e57fe5b6000818152602081815260408083206002810154845260019092528220909180806110ad610d78565b6002860154106110bc57600080fd5b6006840154610100900460ff1615156110d457600080fd5b600585015460ff16156110e657610cab565b50505060058201805460ff19166001179055600482015460009081908190151561113f57670de0b6b3a764000061112e8660030154866002015461105990919063ffffffff16565b81151561113757fe5b0492506111f7565b836002015485600401541015611174575060038401546002840154670de0b6b3a76400009061112e908363ffffffff61105916565b8360020154856004015414156111ef576111b384600401546111a78660050154886003015461105990919063ffffffff16565b9063ffffffff61140f16565b9050670de0b6b3a76400006111d582866002015461105990919063ffffffff16565b8115156111de57fe5b0492508085600301540391506111f7565b846003015491505b600083111561129f576003546001860154600160a060020a03918216916310c5b328918691166000604051602001526040517c010000000000000000000000000000000000000000000000000000000063ffffffff85160281526004810192909252600160a060020a03166024820152604401602060405180830381600087803b151561128357600080fd5b6102c65a03f1151561129457600080fd5b505050604051805150505b60008211156112da578454600160a060020a031682156108fc0283604051600060405180830381858888f1935050505015156112da57600080fd5b600081111561131657600554600160a060020a031681156108fc0282604051600060405180830381858888f19350505050151561131657600080fd5b7fa95e6e2a182411e7a6f9ed114a85c3761d87f9b8f453d842c71235aa64fff99f60405160208082526012908201527f657468546f5370656e644f6e546f6b656e7300000000000000000000000000006040808301919091526060909101905180910390a17f0ac68d08c5119b8cdb4058edbf0d4168f208ec3935d26a8f1f0d92eb9d4de8bf8160405190815260200160405180910390a17f0e77276e0d82dad55a243dd33c5897e15b080ddb78f0e5eaba00f3cb47f9b4c986848460405180848152602001838152602001828152602001935050505060405180910390a1505050505050565b60008282111561140957fe5b50900390565b600080828481151561141d57fe5b04949350505050565b81548183558181151161144a5760008381526020902061144a91810190830161144f565b505050565b6107de91905b808211156114695760008155600101611455565b50905600a165627a7a72305820bca822fc02755019fa79eaea66660a5c3f11bd0bb20bb91de92500dac5e40d7a0029",
  "source": "pragma solidity ^0.4.18;\r\n\r\nimport \"../controller/Controller.sol\";\r\nimport \"zeppelin-solidity/contracts/math/SafeMath.sol\";\r\nimport \"../test/Debug.sol\";\r\n\r\n\r\n/**\r\n * @title EmergentICO\r\n * @dev An ICO model that is trying to be fair for all sides.\r\n * The ICO is divided into \"Periods\" in which a fixed number of tokens is available\r\n * - each period has the same duration (set by periodDuration)\r\n * - within a period, all donors get the same rate (rate=tokens per 1 ether).\r\n * - within a period, each donor gets an amount of tokens that are proportional to her donation\r\n * - the rate decreases exponentially, with each batch\r\n * - a batch is an amount (in Wei) of eth donated\r\n * - at the end of each period an average of the exponential rate is computed, and all donors get their tokens for that price\r\n * - donators can specify a minimum rate (i.e. a maximum price) of their donation\r\n * - if the average rate of the period is lower than the minimum pointed by donor, donor will be refunded.\r\n */\r\n\r\ncontract EmergentICO is Debug {\r\n    using SafeMath for uint;\r\n\r\n    event LogDonationReceived\r\n    (\r\n        uint indexed _donationId,\r\n        address indexed _donor,\r\n        address indexed _beneficiary,\r\n        uint _periodId,\r\n        uint _value,\r\n        uint _minRate\r\n    );\r\n    event LogPeriodAverageComputed(uint _periodId);\r\n    event LogCollect(uint _donation, uint _tokens, uint _ether);\r\n\r\n    // The data saved for each donation:\r\n    struct Donation {\r\n        address donor;\r\n        address beneficiary; // The tokens will be alocated to this address.\r\n        uint periodId; // Donation's period.\r\n        uint value; // Value of the donation in wei.\r\n        uint minRate; // If the rate is lower than this, the funds will be returned.\r\n        bool isCollected; // A flag to check if tokens/funds were already collected.\r\n    }\r\n\r\n    // Data for each period:\r\n    struct Period {\r\n        uint donationsCounterInPeriod;\r\n        uint raisedUpToPeriod; // How much was raised up to this period.\r\n        uint averageRate; // The calculated average rate of the period.\r\n        uint donationsWithMinRateEqualToZero;\r\n        uint donationsWithMinRateEqualToRate;\r\n        uint donationsWithMinRateEqualToRateToInclude;\r\n        bool isInitialized; // A flag to indicate that the previous period was calculated and so raisedUpToPeriod is set.\r\n        bool isAverageRateComputed; // A flag to indicate that the average for this period was computed.\r\n        uint[] donationsIdsWithLimit; // An array for the donations that use the limit feature.\r\n    }\r\n\r\n    // Data for every attempt for computing an average for a period.\r\n    struct AverageComputator {\r\n        uint periodId; // The period for which the computation is done.\r\n        uint donationsCounted; // A counter used in the validation of the computation.\r\n        uint hintRate; //\r\n        uint hintTotalDonatedInThisPeriod; // [cf doc for initAverageComputation]\r\n        uint donationsWithMinRateEqualToRate;\r\n        uint donationsWithMinRateLowerThanRate;\r\n    }\r\n\r\n    // Mapping from donation ID to the donation. IDs are sequential 0,1,2..\r\n    mapping (uint=>Donation) public donations;\r\n    // Mapping from period ID to the period. IDs are sequential 0,1,2..\r\n    mapping (uint=>Period) public periods;\r\n    // Mapping from address of an agent, to the data of the computation he suggested.\r\n    mapping (address=>AverageComputator) public averageComputators;\r\n\r\n    // Parameters:\r\n    Controller public controller; // The conroller is responsible to mint tokens.\r\n    address public admin; // Admin can halt and resume the ICO, and also clear batches for everyone.\r\n    address public beneficiary; // The funds will be transfered here.\r\n    uint public startBlock; // ICO starting block.\r\n    uint public periodDuration; // The length of each clearance period in blocks.\r\n    uint public minDonation; // The minimum allowed donation in wei.\r\n    // Rate function is initialRate*(rateFractionNumerator/rateFractionDenominator)^n.\r\n    uint public initialRate;\r\n    uint public rateFractionNumerator;\r\n    uint public rateFractionDenominator;\r\n\r\n    uint public batchSize; //\r\n\r\n    // Variables:\r\n    uint public totalReceived; // Total of funds received in the contract, including the returned change.\r\n    uint public donationCounter;\r\n    bool public isHalted; // Flag to indicate ICO is halted.\r\n\r\n    /**\r\n    * @dev Modifier, Allow only an admin to access:\r\n    */\r\n    modifier onlyAdmin() {\r\n        require(msg.sender == admin);\r\n        _;\r\n    }\r\n\r\n    /**\r\n    * @dev Modifier, Check if a given period is finished:\r\n    * @param _periodId the period checked.\r\n    */\r\n    modifier isPeriodOver(uint _periodId) {\r\n        require(_periodId < currentPeriodId());\r\n        _;\r\n    }\r\n\r\n    /**\r\n    * @dev Modifier, Check if a given period is initialized for average computations:\r\n    * @param _periodId the period checked.\r\n    */\r\n    modifier isPeriodInitialized(uint _periodId) {\r\n        require(periods[_periodId].isInitialized);\r\n        _;\r\n    }\r\n\r\n    /**\r\n    * @dev Constructor, setting all the parameters:\r\n    * @param _controller The address of an Organization\r\n    * @param _beneficiary The beneficiary of the ICO (who gets the funds)\r\n    * @param _admin The administrator of the ICO\r\n    * @param _startBlock The blocknumber at which the ico starts\r\n    * @param _periodDuration The length of each period\r\n    * @param _minDonation The minimal donation\r\n    * @param _initialRate The price of tokens in the first block (in tokens/ETH)\r\n    */\r\n    function EmergentICO(\r\n        Controller _controller,\r\n        address _admin,\r\n        address _beneficiary,\r\n        uint _startBlock,\r\n        uint _periodDuration,\r\n        uint _minDonation,\r\n        uint _initialRate,\r\n        uint _rateFractionNumerator,\r\n        uint _rateFractionDenominator,\r\n        uint _batchSize\r\n    ) public\r\n    {\r\n        // Set parameters:\r\n        controller = _controller;\r\n        admin = _admin;\r\n        beneficiary = _beneficiary;\r\n        startBlock = _startBlock; // [cf doc for initAverageComputation]\r\n        periodDuration = _periodDuration;\r\n        minDonation = _minDonation;\r\n        initialRate = _initialRate;\r\n        rateFractionNumerator = _rateFractionNumerator;\r\n        rateFractionDenominator = _rateFractionDenominator;\r\n        batchSize = _batchSize;\r\n\r\n        // Initialize:\r\n        periods[0].isInitialized = true;\r\n    }\r\n\r\n    /**\r\n    * @dev Fallback function.\r\n    * upon receivng funds, treat it as donation with default parameters, minRate=0.\r\n    */\r\n    function () public payable {\r\n        donate(msg.sender, 0);\r\n    }\r\n\r\n    /**\r\n    * @dev Pausing ICO, using onlyAdmin modifier:\r\n    */\r\n    function haltICO() public onlyAdmin {\r\n        isHalted = true;\r\n    }\r\n\r\n    /**\r\n    * @dev Resuming ICO, using onlyAdmin modifier:\r\n    */\r\n    function resumeICO() public onlyAdmin {\r\n        isHalted = false;\r\n    }\r\n\r\n    /**\r\n    * @dev Modifier, Check if a given period is initialized for average computations:\r\n    * @param _periodId the period checked.\r\n    */\r\n    function getIsPeriodInitialized(uint _periodId) public constant returns(bool) {\r\n        return(periods[_periodId].isInitialized);\r\n    }\r\n\r\n    /**\r\n    * @dev Constant boolean function, checking if the ICO is active:\r\n    */\r\n    function isActive() public constant returns(bool) {\r\n        if (isHalted) {\r\n            return false;\r\n        }\r\n        if (block.number < startBlock) {\r\n            return false;\r\n        }\r\n        return true;\r\n    }\r\n\r\n    /**\r\n    * @dev Constant function, returns the periodId of the current block:\r\n    */\r\n    function currentPeriodId() public constant returns(uint) {\r\n        return ((block.number.sub(startBlock))/periodDuration);\r\n    }\r\n\r\n    /**\r\n    * @dev Constant function, computes the rate for a given batch:\r\n    * @param _batch the (index of) the batch for which the computation is done.\r\n    */\r\n    function rateInWei(uint _batch) public constant returns(uint) {\r\n        return (((10**18)*initialRate).mul(rateFractionNumerator**_batch)/rateFractionDenominator**_batch);\r\n    }\r\n\r\n    /**\r\n    * @dev Constant function, computes the average rate between two points.\r\n    * @param _start the starting point for the computation - expressed in  Wei donated\r\n    * @param _end the end point for the computation, expressed in Wei donated.\r\n    */\r\n    function averageRateInWei(uint _start, uint _end) public constant returns(uint) {\r\n        assert(_end >= _start);\r\n        uint batchStart = _start/batchSize;\r\n        uint batchEnd = _end/batchSize;\r\n        uint partOfStartBatch = batchSize.sub(_start%batchSize);\r\n        uint partOfEndBatch = _end%batchSize;\r\n        uint delta = batchEnd.sub(batchStart);\r\n\r\n        if (delta == 0) {\r\n            return rateInWei(batchStart);\r\n        }\r\n        if (delta == 1) {\r\n            return ((partOfStartBatch.mul(rateInWei(batchStart))).add(partOfEndBatch.mul(rateInWei(batchEnd))))/(_end-_start);\r\n        }\r\n        if (delta > 1) {\r\n            uint geomSeries = (batchSize.mul(rateInWei(batchStart+1).sub(rateInWei(batchEnd)))).mul(rateFractionDenominator)/(rateFractionDenominator.sub(rateFractionNumerator));\r\n            return ((geomSeries.add(partOfStartBatch.mul(rateInWei(batchStart)))).add(partOfEndBatch.mul(rateInWei(batchEnd))))/(_end-_start);\r\n        }\r\n    }\r\n\r\n    /**\r\n    * @dev The actual donation function.\r\n    * @param _beneficiary The address that will receive the tokens.\r\n    * @param _minRate the minimum rate the donor is willing to participate in.\r\n    */\r\n    function donate(address _beneficiary, uint _minRate) public payable {\r\n        // Check ICO is open:\r\n        require(isActive());\r\n\r\n        // Check minimum donation:\r\n        require(msg.value >= minDonation);\r\n\r\n        // Update period data:\r\n        uint currentPeriod = currentPeriodId();\r\n        Period storage period = periods[currentPeriod];\r\n        period.donationsCounterInPeriod++;\r\n        if (_minRate != 0) {\r\n            period.donationsIdsWithLimit.push(donationCounter);\r\n        } else {\r\n            period.donationsWithMinRateEqualToZero = period.donationsWithMinRateEqualToZero.add(msg.value);\r\n        }\r\n\r\n        // Update donation data:\r\n        donations[donationCounter] = Donation({\r\n            donor: msg.sender,\r\n            beneficiary: _beneficiary,\r\n            periodId: currentPeriod,\r\n            value: msg.value,\r\n            minRate: _minRate,\r\n            isCollected: false\r\n        });\r\n        donationCounter++;\r\n        totalReceived = totalReceived.add(msg.value);\r\n\r\n        // If minimum rate is 0 move funds to beneficiary now:\r\n        if (_minRate == 0) {\r\n            beneficiary.transfer(msg.value);\r\n        }\r\n\r\n        // If we can determine that the donation will not go through, revert:\r\n        if (_minRate != 0 && period.isInitialized) {\r\n            if (averageRateInWei(period.raisedUpToPeriod, period.raisedUpToPeriod.add(period.donationsWithMinRateEqualToZero)) < _minRate) {\r\n                revert();\r\n            }\r\n        }\r\n\r\n        // Event:\r\n        LogDonationReceived(\r\n            donationCounter-1,\r\n            msg.sender,\r\n            _beneficiary,\r\n            currentPeriodId(),\r\n            msg.value,\r\n            _minRate\r\n        );\r\n    }\r\n\r\n    /**\r\n    * @dev an agent can set what he thinks is the correct average for a period and start the test.\r\n    * @param _periodId the period for which average is computed.\r\n    * @param _iterations number of iterations to check from the array donationsIdsWithLimit.\r\n    */\r\n    function initAverageComputation(\r\n        uint _periodId,\r\n        uint _hintTotalDonatedInThisPeriod,\r\n        uint _iterations\r\n    )\r\n        public\r\n        isPeriodOver(_periodId)\r\n        isPeriodInitialized(_periodId)\r\n    {\r\n        uint hintRate = averageRateInWei(periods[_periodId].raisedUpToPeriod, periods[_periodId].raisedUpToPeriod.add(_hintTotalDonatedInThisPeriod));\r\n        averageComputators[msg.sender] = AverageComputator({\r\n            periodId: _periodId,\r\n            donationsCounted: 0,\r\n            hintRate: hintRate,\r\n            hintTotalDonatedInThisPeriod: _hintTotalDonatedInThisPeriod,\r\n            donationsWithMinRateEqualToRate: 0,\r\n            donationsWithMinRateLowerThanRate: periods[_periodId].donationsWithMinRateEqualToZero\r\n        });\r\n        computeAverage(_periodId, _iterations);\r\n    }\r\n\r\n    /**\r\n    * @dev compute the statistics (average payout, eth raised, eth to be refunded) for a given period\r\n    * because the computation can be very long, the function takes a parameter \"_iterations\" that limits\r\n    * the computation. \"_iterations\" is bounded by period.donationsIdsWithLimit.\r\n    *  some configuration, and intermediate results, are stored in AverageComputators[msg.sender]\r\n    * @param _periodId the period for which average is computed.\r\n    * @param _iterations number of iterations to check from the array donationsIdsWithLimit.\r\n    */\r\n    function computeAverage(uint _periodId, uint _iterations)\r\n        public\r\n        isPeriodOver(_periodId)\r\n        isPeriodInitialized(_periodId)\r\n    {\r\n        Period storage period = periods[_periodId];\r\n        AverageComputator storage avgComp = averageComputators[msg.sender];\r\n        // TODO: the next statement is superfluous - either just not provide the _periodId argument\r\n        // or (better) have different avgComp objects for each _periodd\r\n        require(avgComp.periodId == _periodId);\r\n\r\n        // Run over the array of donors with a minRate and keep track of those with lower, or equal, minRate\r\n        for (uint cnt = 0; cnt < _iterations; cnt++) {\r\n            if (avgComp.donationsCounted >= period.donationsIdsWithLimit.length) {\r\n                // we have counted all donors in this period and can move on to the payout\r\n                break;\r\n            }\r\n            // get the next donation with a minRate that we need to process\r\n            uint donationId = period.donationsIdsWithLimit[avgComp.donationsCounted];\r\n\r\n            if (donations[donationId].minRate < avgComp.hintRate ) {\r\n                // a donation that has a minRate that is lower than the expected rate is included\r\n                avgComp.donationsWithMinRateLowerThanRate = avgComp.donationsWithMinRateLowerThanRate.add(donations[donationId].value);\r\n            } else if (donations[donationId].minRate == avgComp.hintRate) {\r\n                // a donation with a minRate equal to the expected rate:\r\n                // we keep track of these donations  and calculate the amount to return later on\r\n                avgComp.donationsWithMinRateEqualToRate = avgComp.donationsWithMinRateEqualToRate.add(donations[donationId].value);\r\n            }\r\n            avgComp.donationsCounted++;\r\n        }\r\n\r\n        // if we have checked all donations, we are ready to check if the result is as hinted\r\n        if (avgComp.donationsCounted == period.donationsIdsWithLimit.length) {\r\n\r\n            // check correctness of the calculation\r\n            if (avgComp.donationsWithMinRateLowerThanRate > avgComp.hintTotalDonatedInThisPeriod) {\r\n                LogString(\"Calculation failed: donationsWithMinRateLowerThanRate > hintTotalDonatedInThisPeriod\");\r\n                delete averageComputators[msg.sender];\r\n                return;\r\n            }\r\n            /*if (avgComp.donationsWithMinRateLowerThanRate + avgComp.donationsWithMinRateEqualToRate < avgComp.hintTotalDonatedInThisPeriod){\r\n            LogString('Calculation failed: davgComp.donationsWithMinRateLowerThanRate + avgComp.donationsWithMinRateEqualToRate < avgComp.hintTotalDonatedInThisPeriod');\r\n            delete averageComputators[msg.sender];\r\n            return;\r\n            }*/\r\n\r\n            period.isAverageRateComputed = true;\r\n            period.averageRate = avgComp.hintRate;\r\n            period.donationsWithMinRateEqualToRate = avgComp.donationsWithMinRateEqualToRate;\r\n            period.donationsWithMinRateEqualToRateToInclude = avgComp.hintTotalDonatedInThisPeriod - avgComp.donationsWithMinRateLowerThanRate;\r\n\r\n            periods[_periodId+1].raisedUpToPeriod = period.raisedUpToPeriod.add(avgComp.hintTotalDonatedInThisPeriod);\r\n            periods[_periodId+1].isInitialized = true;\r\n            delete averageComputators[msg.sender];\r\n            LogPeriodAverageComputed(_periodId);\r\n        }\r\n    }\r\n\r\n    /**\r\n    * @dev Collecting donor own tokens.\r\n    * Although not really necessary, only the donor (or the admin) can clear his own donation.\r\n    * @param _donationId The donation to be cleared.\r\n    */\r\n    function collectMyTokens(uint _donationId) public {\r\n        // Check sender is indeed the donor:\r\n        require(msg.sender == donations[_donationId].donor);\r\n        // Collect:\r\n        collectTokens(_donationId);\r\n    }\r\n\r\n    /**\r\n    * @dev OnlyAdmin function, can clear donations for everyone.\r\n    * Although not really necessary, only the doner (or the admin) can clear his own donation.\r\n    * @param _donationIds array of donations to be cleared.\r\n    */\r\n    function collectMulti(uint[] _donationIds) public onlyAdmin {\r\n        for (uint cnt = 0; cnt<_donationIds.length; cnt++) {\r\n            collectTokens(_donationIds[cnt]);\r\n        }\r\n    }\r\n\r\n    /**\r\n    * @dev Internal function, clearing donation, either minting tokens or refunding.\r\n    * @param _donationId The donation to be cleared.\r\n    */\r\n    function collectTokens(uint _donationId) internal {\r\n        Donation storage donation = donations[_donationId];\r\n        Period storage period = periods[donation.periodId];\r\n\r\n        // Check collection is possible:\r\n        require(donation.periodId < currentPeriodId());\r\n        require(period.isAverageRateComputed);\r\n\r\n        if (donation.isCollected) {\r\n            return;\r\n        }\r\n\r\n        // Mark donation as collected:\r\n        donation.isCollected = true;\r\n\r\n        // Check the donation minimum rate is valid, if so mint tokens, else, return funds:\r\n        uint tokensToMint = 0;\r\n        uint ethToReturn = 0;\r\n        uint ethToSpendOnTokens = 0;\r\n\r\n        if (donation.minRate == 0) {\r\n            tokensToMint = period.averageRate.mul(donation.value)/(10**18);\r\n          // we do not set ethToSpendOnTokens, because the transfer has already taken place in donation()\r\n        } else if (donation.minRate < period.averageRate) {\r\n            ethToSpendOnTokens = donation.value;\r\n            tokensToMint = period.averageRate.mul(ethToSpendOnTokens)/(10**18);\r\n        } else if (donation.minRate == period.averageRate) {\r\n            ethToSpendOnTokens = donation.value.mul(period.donationsWithMinRateEqualToRateToInclude).div(period.donationsWithMinRateEqualToRate);\r\n            tokensToMint = period.averageRate.mul(ethToSpendOnTokens)/(10**18);\r\n            ethToReturn = donation.value - ethToSpendOnTokens;\r\n        } else {\r\n            ethToReturn = donation.value;\r\n        }\r\n        if (tokensToMint > 0) {\r\n            controller.mintTokens(tokensToMint, donation.beneficiary);\r\n        }\r\n        if (ethToReturn > 0) {\r\n            donation.donor.transfer(ethToReturn);\r\n        }\r\n\r\n        if (ethToSpendOnTokens > 0) {\r\n            beneficiary.transfer(ethToSpendOnTokens);\r\n        }\r\n        LogString(\"ethToSpendOnTokens\");\r\n        LogUint(ethToSpendOnTokens);\r\n        LogCollect(_donationId, tokensToMint, ethToReturn);\r\n    }\r\n}\r\n",
  "sourcePath": "C:\\users\\dkent\\documents\\projects\\GitHub\\DAOStack\\daostack\\contracts\\schemes\\EmergentICO.sol",
  "compiler": {
    "name": "solc",
    "version": "0.4.18+commit.9cf6e910.Emscripten.clang"
  },
  "schemaVersion": "1.0.1",
  "updatedAt": "2017-12-12T06:13:10.556Z"
}