{
  "contractName": "EmergentVoteScheme",
  "abi": [
    {
      "constant": true,
      "inputs": [
        {
          "name": "",
          "type": "bytes32"
        }
      ],
      "name": "organizationsParameters",
      "outputs": [
        {
          "name": "reputationSystem",
          "type": "address"
        },
        {
          "name": "boostToken",
          "type": "address"
        },
        {
          "name": "beneficiary",
          "type": "address"
        },
        {
          "name": "attentionBandwidth",
          "type": "uint256"
        },
        {
          "name": "minBoostTimeFrame",
          "type": "uint256"
        },
        {
          "name": "maxBoostTimeFrame",
          "type": "uint256"
        },
        {
          "name": "minBoost",
          "type": "uint256"
        },
        {
          "name": "allowOwner",
          "type": "bool"
        }
      ],
      "payable": false,
      "stateMutability": "view",
      "type": "function"
    },
    {
      "constant": true,
      "inputs": [
        {
          "name": "_idsArray",
          "type": "bytes32[]"
        }
      ],
      "name": "findMinScore",
      "outputs": [
        {
          "name": "index",
          "type": "uint256"
        },
        {
          "name": "min",
          "type": "uint256"
        }
      ],
      "payable": false,
      "stateMutability": "view",
      "type": "function"
    },
    {
      "constant": true,
      "inputs": [
        {
          "name": "_proposalId",
          "type": "bytes32"
        },
        {
          "name": "_voter",
          "type": "address"
        }
      ],
      "name": "voteInfo",
      "outputs": [
        {
          "name": "",
          "type": "uint256[2]"
        }
      ],
      "payable": false,
      "stateMutability": "view",
      "type": "function"
    },
    {
      "constant": false,
      "inputs": [
        {
          "name": "_avatar",
          "type": "address"
        }
      ],
      "name": "moveTopAwaitingBoostMode",
      "outputs": [],
      "payable": false,
      "stateMutability": "nonpayable",
      "type": "function"
    },
    {
      "constant": true,
      "inputs": [
        {
          "name": "_idsArray",
          "type": "bytes32[]"
        }
      ],
      "name": "findMaxScore",
      "outputs": [
        {
          "name": "index",
          "type": "uint256"
        },
        {
          "name": "max",
          "type": "uint256"
        }
      ],
      "payable": false,
      "stateMutability": "view",
      "type": "function"
    },
    {
      "constant": true,
      "inputs": [
        {
          "name": "",
          "type": "bytes32"
        }
      ],
      "name": "proposals",
      "outputs": [
        {
          "name": "owner",
          "type": "address"
        },
        {
          "name": "avatar",
          "type": "address"
        },
        {
          "name": "numOfChoices",
          "type": "uint256"
        },
        {
          "name": "executable",
          "type": "address"
        },
        {
          "name": "paramsHash",
          "type": "bytes32"
        },
        {
          "name": "totalVotes",
          "type": "uint256"
        },
        {
          "name": "opened",
          "type": "bool"
        },
        {
          "name": "isBoostModeActive",
          "type": "bool"
        },
        {
          "name": "isAwaitingBoost",
          "type": "bool"
        },
        {
          "name": "closingTime",
          "type": "uint256"
        },
        {
          "name": "boostedFunds",
          "type": "uint256"
        }
      ],
      "payable": false,
      "stateMutability": "view",
      "type": "function"
    },
    {
      "constant": false,
      "inputs": [
        {
          "name": "_proposalId",
          "type": "bytes32"
        },
        {
          "name": "_vote",
          "type": "uint256"
        },
        {
          "name": "_voter",
          "type": "address"
        }
      ],
      "name": "ownerVote",
      "outputs": [
        {
          "name": "",
          "type": "bool"
        }
      ],
      "payable": false,
      "stateMutability": "nonpayable",
      "type": "function"
    },
    {
      "constant": false,
      "inputs": [
        {
          "name": "_proposalId",
          "type": "bytes32"
        }
      ],
      "name": "cancelProposal",
      "outputs": [
        {
          "name": "",
          "type": "bool"
        }
      ],
      "payable": false,
      "stateMutability": "nonpayable",
      "type": "function"
    },
    {
      "constant": true,
      "inputs": [
        {
          "name": "_proposalId",
          "type": "bytes32"
        }
      ],
      "name": "proposalScore",
      "outputs": [
        {
          "name": "",
          "type": "uint256"
        }
      ],
      "payable": false,
      "stateMutability": "view",
      "type": "function"
    },
    {
      "constant": true,
      "inputs": [],
      "name": "beneficiary",
      "outputs": [
        {
          "name": "",
          "type": "address"
        }
      ],
      "payable": false,
      "stateMutability": "view",
      "type": "function"
    },
    {
      "constant": false,
      "inputs": [
        {
          "name": "_nativeToken",
          "type": "address"
        },
        {
          "name": "_fee",
          "type": "uint256"
        },
        {
          "name": "_beneficiary",
          "type": "address"
        },
        {
          "name": "_hashedParameters",
          "type": "bytes32"
        }
      ],
      "name": "updateParameters",
      "outputs": [],
      "payable": false,
      "stateMutability": "nonpayable",
      "type": "function"
    },
    {
      "constant": false,
      "inputs": [
        {
          "name": "_reputationSystem",
          "type": "address"
        },
        {
          "name": "_boostToken",
          "type": "address"
        },
        {
          "name": "_beneficiary",
          "type": "address"
        },
        {
          "name": "_attentionBandwidth",
          "type": "uint256"
        },
        {
          "name": "_minBoostTimeFrame",
          "type": "uint256"
        },
        {
          "name": "_maxBoostTimeFrame",
          "type": "uint256"
        },
        {
          "name": "_minBoost",
          "type": "uint256"
        },
        {
          "name": "_allowOwner",
          "type": "bool"
        }
      ],
      "name": "setOrgParameters",
      "outputs": [
        {
          "name": "",
          "type": "bytes32"
        }
      ],
      "payable": false,
      "stateMutability": "nonpayable",
      "type": "function"
    },
    {
      "constant": true,
      "inputs": [
        {
          "name": "",
          "type": "bytes32"
        }
      ],
      "name": "proposalsParameters",
      "outputs": [
        {
          "name": "precReq",
          "type": "uint256"
        },
        {
          "name": "quorum",
          "type": "uint256"
        },
        {
          "name": "boostTimeFrame",
          "type": "uint256"
        }
      ],
      "payable": false,
      "stateMutability": "view",
      "type": "function"
    },
    {
      "constant": true,
      "inputs": [
        {
          "name": "",
          "type": "address"
        }
      ],
      "name": "organizations",
      "outputs": [
        {
          "name": "isRegistered",
          "type": "bool"
        },
        {
          "name": "boostedProposals",
          "type": "uint256"
        }
      ],
      "payable": false,
      "stateMutability": "view",
      "type": "function"
    },
    {
      "constant": true,
      "inputs": [
        {
          "name": "_proposalId",
          "type": "bytes32"
        }
      ],
      "name": "proposalStatus",
      "outputs": [
        {
          "name": "",
          "type": "uint256[13]"
        }
      ],
      "payable": false,
      "stateMutability": "view",
      "type": "function"
    },
    {
      "constant": false,
      "inputs": [
        {
          "name": "_numOfChoices",
          "type": "uint256"
        },
        {
          "name": "_paramsHash",
          "type": "bytes32"
        },
        {
          "name": "_avatar",
          "type": "address"
        },
        {
          "name": "_executable",
          "type": "address"
        }
      ],
      "name": "propose",
      "outputs": [
        {
          "name": "",
          "type": "bytes32"
        }
      ],
      "payable": false,
      "stateMutability": "nonpayable",
      "type": "function"
    },
    {
      "constant": true,
      "inputs": [],
      "name": "MAX_NUM_OF_CHOICES",
      "outputs": [
        {
          "name": "",
          "type": "uint256"
        }
      ],
      "payable": false,
      "stateMutability": "view",
      "type": "function"
    },
    {
      "constant": true,
      "inputs": [],
      "name": "owner",
      "outputs": [
        {
          "name": "",
          "type": "address"
        }
      ],
      "payable": false,
      "stateMutability": "view",
      "type": "function"
    },
    {
      "constant": false,
      "inputs": [
        {
          "name": "_avatar",
          "type": "address"
        }
      ],
      "name": "registerOrganization",
      "outputs": [],
      "payable": false,
      "stateMutability": "nonpayable",
      "type": "function"
    },
    {
      "constant": false,
      "inputs": [
        {
          "name": "_proposalId",
          "type": "bytes32"
        }
      ],
      "name": "cancelVote",
      "outputs": [],
      "payable": false,
      "stateMutability": "nonpayable",
      "type": "function"
    },
    {
      "constant": false,
      "inputs": [
        {
          "name": "_proposalId",
          "type": "bytes32"
        },
        {
          "name": "_vote",
          "type": "uint256"
        }
      ],
      "name": "vote",
      "outputs": [
        {
          "name": "",
          "type": "bool"
        }
      ],
      "payable": false,
      "stateMutability": "nonpayable",
      "type": "function"
    },
    {
      "constant": true,
      "inputs": [
        {
          "name": "_proposalId",
          "type": "bytes32"
        }
      ],
      "name": "getNumberOfChoices",
      "outputs": [
        {
          "name": "",
          "type": "uint256"
        }
      ],
      "payable": false,
      "stateMutability": "view",
      "type": "function"
    },
    {
      "constant": false,
      "inputs": [
        {
          "name": "_proposalId",
          "type": "bytes32"
        },
        {
          "name": "_vote",
          "type": "uint256"
        },
        {
          "name": "_rep",
          "type": "uint256"
        },
        {
          "name": "",
          "type": "uint256"
        }
      ],
      "name": "voteWithSpecifiedAmounts",
      "outputs": [
        {
          "name": "",
          "type": "bool"
        }
      ],
      "payable": false,
      "stateMutability": "nonpayable",
      "type": "function"
    },
    {
      "constant": true,
      "inputs": [
        {
          "name": "_reputationSystem",
          "type": "address"
        },
        {
          "name": "_boostToken",
          "type": "address"
        },
        {
          "name": "_beneficiary",
          "type": "address"
        },
        {
          "name": "_attentionBandwidth",
          "type": "uint256"
        },
        {
          "name": "_minBoostTimeFrame",
          "type": "uint256"
        },
        {
          "name": "_maxBoostTimeFrame",
          "type": "uint256"
        },
        {
          "name": "_minBoost",
          "type": "uint256"
        },
        {
          "name": "_allowOwner",
          "type": "bool"
        }
      ],
      "name": "getOrgParametersHash",
      "outputs": [
        {
          "name": "",
          "type": "bytes32"
        }
      ],
      "payable": false,
      "stateMutability": "pure",
      "type": "function"
    },
    {
      "constant": true,
      "inputs": [
        {
          "name": "_proposalId",
          "type": "bytes32"
        }
      ],
      "name": "isVotable",
      "outputs": [
        {
          "name": "",
          "type": "bool"
        }
      ],
      "payable": false,
      "stateMutability": "view",
      "type": "function"
    },
    {
      "constant": true,
      "inputs": [
        {
          "name": "_avatar",
          "type": "address"
        }
      ],
      "name": "isRegistered",
      "outputs": [
        {
          "name": "",
          "type": "bool"
        }
      ],
      "payable": false,
      "stateMutability": "view",
      "type": "function"
    },
    {
      "constant": true,
      "inputs": [
        {
          "name": "_precReq",
          "type": "uint256"
        },
        {
          "name": "_quorum",
          "type": "uint256"
        },
        {
          "name": "_boostTimeFrame",
          "type": "uint256"
        }
      ],
      "name": "getProposalParametersHash",
      "outputs": [
        {
          "name": "",
          "type": "bytes32"
        }
      ],
      "payable": false,
      "stateMutability": "pure",
      "type": "function"
    },
    {
      "constant": false,
      "inputs": [
        {
          "name": "_precReq",
          "type": "uint256"
        },
        {
          "name": "_quorum",
          "type": "uint256"
        },
        {
          "name": "_boostTimeFrame",
          "type": "uint256"
        }
      ],
      "name": "setProposalParameters",
      "outputs": [
        {
          "name": "",
          "type": "bytes32"
        }
      ],
      "payable": false,
      "stateMutability": "nonpayable",
      "type": "function"
    },
    {
      "constant": true,
      "inputs": [],
      "name": "fee",
      "outputs": [
        {
          "name": "",
          "type": "uint256"
        }
      ],
      "payable": false,
      "stateMutability": "view",
      "type": "function"
    },
    {
      "constant": true,
      "inputs": [],
      "name": "nativeToken",
      "outputs": [
        {
          "name": "",
          "type": "address"
        }
      ],
      "payable": false,
      "stateMutability": "view",
      "type": "function"
    },
    {
      "constant": false,
      "inputs": [
        {
          "name": "_proposalId",
          "type": "bytes32"
        }
      ],
      "name": "execute",
      "outputs": [
        {
          "name": "",
          "type": "bool"
        }
      ],
      "payable": false,
      "stateMutability": "nonpayable",
      "type": "function"
    },
    {
      "constant": true,
      "inputs": [
        {
          "name": "_idsArray",
          "type": "bytes32[]"
        },
        {
          "name": "_id",
          "type": "bytes32"
        }
      ],
      "name": "findInArray",
      "outputs": [
        {
          "name": "isFound",
          "type": "bool"
        },
        {
          "name": "index",
          "type": "uint256"
        }
      ],
      "payable": false,
      "stateMutability": "pure",
      "type": "function"
    },
    {
      "constant": false,
      "inputs": [
        {
          "name": "newOwner",
          "type": "address"
        }
      ],
      "name": "transferOwnership",
      "outputs": [],
      "payable": false,
      "stateMutability": "nonpayable",
      "type": "function"
    },
    {
      "constant": true,
      "inputs": [],
      "name": "hashedParameters",
      "outputs": [
        {
          "name": "",
          "type": "bytes32"
        }
      ],
      "payable": false,
      "stateMutability": "view",
      "type": "function"
    },
    {
      "constant": false,
      "inputs": [
        {
          "name": "_proposalId",
          "type": "bytes32"
        },
        {
          "name": "_boostValue",
          "type": "uint256"
        }
      ],
      "name": "boostProposal",
      "outputs": [],
      "payable": false,
      "stateMutability": "nonpayable",
      "type": "function"
    },
    {
      "inputs": [
        {
          "name": "_nativeToken",
          "type": "address"
        },
        {
          "name": "_fee",
          "type": "uint256"
        },
        {
          "name": "_beneficiary",
          "type": "address"
        }
      ],
      "payable": false,
      "stateMutability": "nonpayable",
      "type": "constructor"
    },
    {
      "anonymous": false,
      "inputs": [
        {
          "indexed": true,
          "name": "_proposalId",
          "type": "bytes32"
        },
        {
          "indexed": false,
          "name": "_proposer",
          "type": "address"
        },
        {
          "indexed": false,
          "name": "_paramsHash",
          "type": "bytes32"
        }
      ],
      "name": "LogNewProposal",
      "type": "event"
    },
    {
      "anonymous": false,
      "inputs": [
        {
          "indexed": true,
          "name": "_proposalId",
          "type": "bytes32"
        }
      ],
      "name": "LogCancelProposal",
      "type": "event"
    },
    {
      "anonymous": false,
      "inputs": [
        {
          "indexed": true,
          "name": "_proposalId",
          "type": "bytes32"
        },
        {
          "indexed": false,
          "name": "_decision",
          "type": "uint256"
        }
      ],
      "name": "LogExecuteProposal",
      "type": "event"
    },
    {
      "anonymous": false,
      "inputs": [
        {
          "indexed": true,
          "name": "_proposalId",
          "type": "bytes32"
        },
        {
          "indexed": true,
          "name": "_voter",
          "type": "address"
        },
        {
          "indexed": false,
          "name": "_vote",
          "type": "uint256"
        },
        {
          "indexed": false,
          "name": "_reputation",
          "type": "uint256"
        },
        {
          "indexed": false,
          "name": "_isOwnerVote",
          "type": "bool"
        }
      ],
      "name": "LogVoteProposal",
      "type": "event"
    },
    {
      "anonymous": false,
      "inputs": [
        {
          "indexed": true,
          "name": "_proposalId",
          "type": "bytes32"
        },
        {
          "indexed": true,
          "name": "_voter",
          "type": "address"
        }
      ],
      "name": "LogCancelVoting",
      "type": "event"
    },
    {
      "anonymous": false,
      "inputs": [
        {
          "indexed": false,
          "name": "_avatar",
          "type": "address"
        }
      ],
      "name": "OrganizationRegistered",
      "type": "event"
    },
    {
      "anonymous": false,
      "inputs": [
        {
          "indexed": false,
          "name": "proposalId",
          "type": "bytes32"
        }
      ],
      "name": "LogNewProposal",
      "type": "event"
    },
    {
      "anonymous": false,
      "inputs": [
        {
          "indexed": true,
          "name": "previousOwner",
          "type": "address"
        },
        {
          "indexed": true,
          "name": "newOwner",
          "type": "address"
        }
      ],
      "name": "OwnershipTransferred",
      "type": "event"
    }
  ],
  "bytecode": "0x606060405234156200001057600080fd5b6040516060806200289e83398101604052808051919060200180519190602001805160008054600160a060020a03191633600160a060020a031617815590925062000070915084908490849064010000000062000079810262000f041704565b505050620000cd565b60005433600160a060020a039081169116146200009557600080fd5b60018054600160a060020a0319908116600160a060020a03968716179091556002939093556003805490931691909316179055600455565b6127c180620000dd6000396000f30060606040526004361061019d5763ffffffff60e060020a600035041663069af5ee81146101a25780630a6c81a61461020d578063119ce91b1461027457806319bbc495146102ce5780631fa085ea146102ef57806332ed5b121461033e578063339e23d1146103c257806337376ca8146103fb5780633741e7ee1461041157806338af3eed146104395780634345a6101461046857806347686c8914610494578063504c9317146104d05780635a1f74061461050a57806379a1c1f61461054357806388737b5e146105745780638d22651e1461059f5780638da5cb5b146105b257806390be003c146105c55780639525c0cc146105e45780639ef1204c146105fa578063a003651d14610613578063ac5d874514610629578063aff6058a14610648578063c083510614610684578063c3c5a5471461069a578063dc268955146106b9578063dcec6c34146106d5578063ddca3f43146106f1578063e1758bd814610704578063e751f27114610717578063ec44deaf1461072d578063f2fde38b1461077e578063f98e87ba1461079d578063fcbb9cc7146107b0575b600080fd5b34156101ad57600080fd5b6101b86004356107c9565b604051600160a060020a0398891681529688166020880152949096166040808701919091526060860193909352608085019190915260a084015260c0830193909352151560e082015261010001905180910390f35b341561021857600080fd5b61025c600460248135818101908301358060208181020160405190810160405280939291908181526020018383602002808284375094965061082095505050505050565b60405191825260208201526040908101905180910390f35b341561027f57600080fd5b610296600435600160a060020a0360243516610876565b6040518082604080838360005b838110156102bb5780820151838201526020016102a3565b5050505090500191505060405180910390f35b34156102d957600080fd5b6102ed600160a060020a03600435166108ea565b005b34156102fa57600080fd5b61025c6004602481358181019083013580602081810201604051908101604052809392919081815260200183836020028082843750949650610ac895505050505050565b341561034957600080fd5b610354600435610b09565b604051600160a060020a039b8c168152998b1660208b01526040808b0199909952969099166060890152608088019490945260a0870192909252151560c0860152151560e0850152151561010084015261012083019390935261014082019290925261016001905180910390f35b34156103cd57600080fd5b6103e7600435602435600160a060020a0360443516610b7a565b604051901515815260200160405180910390f35b341561040657600080fd5b6103e7600435610c29565b341561041c57600080fd5b610427600435610e20565b60405190815260200160405180910390f35b341561044457600080fd5b61044c610ef5565b604051600160a060020a03909116815260200160405180910390f35b341561047357600080fd5b6102ed600160a060020a036004358116906024359060443516606435610f04565b341561049f57600080fd5b610427600160a060020a036004358116906024358116906044351660643560843560a43560c43560e4351515610f57565b34156104db57600080fd5b6104e6600435611084565b60405180848152602001838152602001828152602001935050505060405180910390f35b341561051557600080fd5b610529600160a060020a03600435166110a5565b604051911515825260208201526040908101905180910390f35b341561054e57600080fd5b6105596004356110c4565b60405180826101a080838360008151838201526020016102a3565b341561057f57600080fd5b610427600435602435600160a060020a036044358116906064351661114e565b34156105aa57600080fd5b610427611383565b34156105bd57600080fd5b61044c611388565b34156105d057600080fd5b6102ed600160a060020a0360043516611397565b34156105ef57600080fd5b6102ed6004356114c0565b341561060557600080fd5b6103e76004356024356114f0565b341561061e57600080fd5b610427600435611527565b341561063457600080fd5b6103e760043560243560443560643561153c565b341561065357600080fd5b610427600160a060020a036004358116906024358116906044351660643560843560a43560c43560e4351515611574565b341561068f57600080fd5b6103e7600435611614565b34156106a557600080fd5b6103e7600160a060020a036004351661162c565b34156106c457600080fd5b61042760043560243560443561164a565b34156106e057600080fd5b61042760043560243560443561167b565b34156106fc57600080fd5b61042761170f565b341561070f57600080fd5b61044c611715565b341561072257600080fd5b6103e7600435611724565b341561073857600080fd5b61052960046024813581810190830135806020818102016040519081016040528093929190818152602001838360200280828437509496505093359350611bd892505050565b341561078957600080fd5b6102ed600160a060020a0360043516611c1f565b34156107a857600080fd5b610427611cad565b34156107bb57600080fd5b6102ed600435602435611cb3565b600760208190526000918252604090912080546001820154600283015460038401546004850154600586015460068701549690970154600160a060020a039586169794861696939095169491939092909160ff1688565b600080805b8351811015610870578161084d85838151811061083e57fe5b90602001906020020151610e20565b10156108685780925061086584828151811061083e57fe5b91505b600101610825565b50915091565b61087e612653565b610886612679565b6000848152600960209081526040808320600160a060020a03871684526007019091529081902090805190810160409081528254825260019092015460208201529150805190810160405280825181526020018260200151905291505b5092915050565b60006108f4612690565b6000808080600160a060020a038716151561090e57600080fd5b61091787611e85565b60008181526007602052604090819020919750610100905190810160409081528254600160a060020a03908116835260018401548116602080850191909152600285015482168385015260038501546060850190815260048601546080860152600586015460a086015260068087015460c087015260079096015460ff16151560e0860152918c16600090815294905292209096509450516001850154106109be57610abf565b600284015415156109ce57610abf565b600180850180549091019055600284018054610a379190602080820201604051908101604052809291908181526020018280548015610a2d57602002820191906000526020600020905b81548152600190910190602001808311610a18575b5050505050610ac8565b5080935050600960008560020185815481101515610a5157fe5b6000918252602080832090910154835282810193909352604091820181206008808201805462ff00001961ff0019909116610100171690556004820154835290935220600201549092509050610aad438263ffffffff611f6216565b6009830155610abf6002850184611f71565b50505050505050565b600080805b83518110156108705781610ae685838151811061083e57fe5b1115610b0157809250610afe84828151811061083e57fe5b91505b600101610acd565b6009602081905260009182526040909120805460018201546002830154600384015460048501546005860154600887015497870154600a90970154600160a060020a0396871698958716979496909316949193909260ff80841693610100810482169362010000909104909116918b565b6000838152600960205260408120548190859033600160a060020a03908116911614610ba557600080fd5b600086815260096020526040902060080154869060ff161515610bc757600080fd5b600087815260096020526040902060010154610beb90600160a060020a0316611e85565b6000818152600760208190526040909120015490935060ff161515610c0f57610c1f565b610c1c8787876000611fe4565b93505b5050509392505050565b6000818152600960205260408120548190819081908190869033600160a060020a03908116911614610c5a57600080fd5b600087815260096020526040902060080154879060ff161515610c7c57600080fd5b600088815260096020526040902060010154600160a060020a03169550610ca286611e85565b6000818152600760208190526040909120015490955060ff161515610cca5760009650610e15565b610d4b6006600088600160a060020a0316600160a060020a03168152602001908152602001600020600201805480602002602001604051908101604052809291908181526020018280548015610d4057602002820191906000526020600020905b81548152600190910190602001808311610d2b575b505050505089611bd8565b90945092508315610d7b57600160a060020a0386166000908152600660205260409020610d7b9060020184611f71565b60008881526009602081905260408083208054600160a060020a0319908116825560018201805482169055600282018590556003820180549091169055600481018490556005810184905560088101805462ffffff19169055918201839055600a9091019190915588907fd06f0966987a6526e0c1291838668e5dbcaf062ae68baadf345ff3edd792e8b5905160405180910390a2600196505b505050505050919050565b6000610e2a6126d4565b6000838152600960205260409081902090610160905190810160409081528254600160a060020a039081168352600184015481166020840152600284015491830191909152600383015416606082015260048201546080820152600582015460a08201908152600883015460ff808216151560c08501526101008083048216151560e086015262010000909204161515908301526009830154610120830152600a909201546101408201529150610eee90518261014001519063ffffffff6122b116565b9392505050565b600354600160a060020a031681565b60005433600160a060020a03908116911614610f1f57600080fd5b60018054600160a060020a0319908116600160a060020a03968716179091556002939093556003805490931691909316179055600455565b600080610f6a8a8a8a8a8a8a8a8a611574565b90506101006040519081016040908152600160a060020a03808d1683528b8116602080850191909152908b1682840152606083018a90526080830189905260a0830188905260c0830187905285151560e0840152600084815260079091522081518154600160a060020a031916600160a060020a03919091161781556020820151600182018054600160a060020a031916600160a060020a03929092169190911790556040820151600282018054600160a060020a031916600160a060020a0392909216919091179055606082015181600301556080820151816004015560a0820151816005015560c0820151816006015560e0820151600791909101805460ff1916911515919091179055509998505050505050505050565b60086020526000908152604090208054600182015460029092015490919083565b6006602052600090815260409020805460019091015460ff9091169082565b6110cc612730565b6000806110d7612730565b6000858152600960205260408120600881015490945060ff166110fb5760006110fe565b60015b60ff1692508282600c60200201525060005b600284015481116111455760008181526006850160205260409020548282600d811061113857fe5b6020020152600101611110565b50949350505050565b6000806111596126d4565b60008711801561116a5750600a8711155b151561117557600080fd5b600160a060020a03851660009081526006602052604090205460ff16151561119c57600080fd5b60008681526008602052604090205415156111b657600080fd5b30600a54604051600160a060020a03929092166c010000000000000000000000000282526014820152603401604051908190039020600a805460019081019091556080830188905260408084018a9052600160a060020a03808916602080870191909152888216606087015233909116855260c0850192909252600083815260099092529020909250819081518154600160a060020a031916600160a060020a03919091161781556020820151600182018054600160a060020a031916600160a060020a0392909216919091179055604082015181600201556060820151600382018054600160a060020a031916600160a060020a03929092169190911790556080820151600482015560a0820151816005015560c082015160088201805460ff191691151591909117905560e082015160088201805461ff0019166101009215158302179055820151600882018054911515620100000262ff0000199092169190911790556101208201518160090155610140820151600a9091015550817f5ac801aedcab27182da435c3657c99a0ca1942beac48b9ae9a9a3f3033ef78dd3388604051600160a060020a03909216825260208201526040908101905180910390a25095945050505050565b600a81565b600054600160a060020a031681565b60006002541180156113c25750600160a060020a03811660009081526005602052604090205460ff16155b1561145b57600154600354600254600160a060020a03928316926323b872dd92859291169060006040516020015260405160e060020a63ffffffff8616028152600160a060020a0393841660048201529190921660248201526044810191909152606401602060405180830381600087803b151561143f57600080fd5b6102c65a03f1151561145057600080fd5b505050604051805150505b600160a060020a03811660009081526005602052604090819020805460ff191660011790557f2178e9c576507a4c15d3deab489af3f699a3dedbff9a7ef27c43a017027710e590829051600160a060020a03909116815260200160405180910390a150565b600081815260096020526040902060080154819060ff1615156114e257600080fd5b6114ec82336122dc565b5050565b600082815260096020526040812060080154839060ff16151561151257600080fd5b61151f8484336000611fe4565b949350505050565b60009081526009602052604090206002015490565b600084815260096020526040812060080154859060ff16151561155e57600080fd5b61156a86863387611fe4565b9695505050505050565b6000808989898989898989604051600160a060020a039889166c01000000000000000000000000908102825297891688026014820152959097169095026028850152603c840192909252605c830152607c820152609c8101919091529015157f01000000000000000000000000000000000000000000000000000000000000000260bc82015260bd016040519081900390209a9950505050505050505050565b60009081526009602052604090206008015460ff1690565b600160a060020a031660009081526005602052604090205460ff1690565b6000838383604051808481526020018381526020018281526020019350505050604051809103902090509392505050565b6000806064851115801561168f5750600085115b151561169a57600080fd5b606484111580156116ab5750600084115b15156116b657600080fd5b6116c185858561164a565b90506060604051908101604090815286825260208083018790528183018690526000848152600890915220815181556020820151816001015560408201516002909101555090509392505050565b60025481565b600154600160a060020a031681565b60008060008060006117346126d4565b60008781526009602052604081206008015481908190819081908c9060ff16151561175e57600080fd5b60008d81526009602052604090206001810154909b5061178690600160a060020a0316611e85565b60008181526007602052604080822054929c50600160a060020a03909216916318160ddd919051602001526040518163ffffffff1660e060020a028152600401602060405180830381600087803b15156117df57600080fd5b6102c65a03f115156117f057600080fd5b505050604051805160048d01546000908152600860205260409081902054919b509099508c9150610160905190810160409081528254600160a060020a039081168352600184015481166020840152600284015491830191909152600383015416606082015260048201546080820152600582015460a082015260088083015460ff808216151560c08501526101008083048216151560e08601526201000090920481161515828501526009850154610120850152600a90940154610140840152908e015491995090041680156118cb57508a600901544310155b15611a7f5760048b015460009081526008602052604090206001015460058c015490965086908a908115156118fc57fe5b0410611a7f57600192505b60028b0154831161194f57600083815260068c0160205260409020548590111561194457600083815260068c016020526040902054945091925082915b600190920191611907565b60008d81526009602081905260408083208054600160a060020a0319908116825560018201805482169055600282018590556003820180549091169055600481018490556005810184905560088101805462ffffff19169055918201839055600a909101919091558d907f81be7b59f2640007c1101f52199758a7ea91009239bc8a7a2449472c02d221cc9086905190815260200160405180910390a28660600151600160a060020a031663310ce4e28e89602001518760006040516020015260405160e060020a63ffffffff86160281526004810193909352600160a060020a0390911660248301526044820152606401602060405180830381600087803b1515611a5a57600080fd5b6102c65a03f11515611a6b57600080fd5b505050604051805190505060019b50611bc8565b600091505b60028b01548211611bc357600082815260068c0160205260409020546064898b0204901115611bb85760008d81526009602081905260408083208054600160a060020a0319908116825560018201805482169055600282018590556003820180549091169055600481018490556005810184905560088101805462ffffff19169055918201839055600a909101919091558d907f81be7b59f2640007c1101f52199758a7ea91009239bc8a7a2449472c02d221cc9085905190815260200160405180910390a28660600151600160a060020a031663310ce4e28e89602001518560006040516020015260405160e060020a63ffffffff86160281526004810193909352600160a060020a0390911660248301526044820152606401602060405180830381600087803b1515611a5a57600080fd5b600190910190611a84565b60009b505b5050505050505050505050919050565b600080805b8451811015611c175783858281518110611bf357fe5b906020019060200201511415611c0f5760018192509250611c17565b600101611bdd565b509250929050565b60005433600160a060020a03908116911614611c3a57600080fd5b600160a060020a0381161515611c4f57600080fd5b600054600160a060020a0380831691167f8be0079c531659141344cd1fd0a4f28419497f9722a3daafe3b4186f6b6457e060405160405180910390a360008054600160a060020a031916600160a060020a0392909216919091179055565b60045481565b600080611cbe612690565b600085815260096020526040902060080154610100900460ff1615611ce257611e7e565b600085815260096020526040902060010154600160a060020a03169250821515611d0b57600080fd5b611d1483611e85565b60008181526007602052604090819020919350610100905190810160409081528254600160a060020a039081168352600184015481166020840152600284015416908201526003820154606082015260048201546080820152600582015460a0820152600682015460c0820190815260079092015460ff16151560e08201529150518411611d9e57fe5b8060200151600160a060020a03166323b872dd3383604001518760006040516020015260405160e060020a63ffffffff8616028152600160a060020a0393841660048201529190921660248201526044810191909152606401602060405180830381600087803b1515611e1057600080fd5b6102c65a03f11515611e2157600080fd5b505050604051805150506000858152600960205260409020600a0154611e4d908563ffffffff611f6216565b6000868152600960205260409020600a8101919091556008015462010000900460ff1615611e7e57611e7e856123e8565b5050505050565b60008082600160a060020a0316638da5cb5b6000604051602001526040518163ffffffff1660e060020a028152600401602060405180830381600087803b1515611ece57600080fd5b6102c65a03f11515611edf57600080fd5b5050506040518051915050600160a060020a0381166346e361b73060006040516020015260405160e060020a63ffffffff8416028152600160a060020a039091166004820152602401602060405180830381600087803b1515611f4157600080fd5b6102c65a03f11515611f5257600080fd5b5050506040518051949350505050565b600082820183811015610eee57fe5b8154600090829011611f7f57fe5b50805b825460001901811015611fce578281600101815481101515611fa057fe5b9060005260206000209001548382815481101515611fba57fe5b600091825260209091200155600101611f82565b8254611fde84600019830161274b565b50505050565b6000806000611ff1612690565b60008881526009602052604081206001810154909450819061201b90600160a060020a0316611e85565b60008181526007602052604090819020919550610100905190810160409081528254600160a060020a039081168352600184015481166020840152600284015416908201526003820154606082015260048201546080820152600582015460a0820152600682015460c082015260079091015460ff908116151560e083015260088701549194506101009091041680156120b9575084600901544310155b156120ce576120c78a611724565b95506122a4565b60028501548911156120df57600080fd5b8251600160a060020a031663db89c0448960006040516020015260405160e060020a63ffffffff8416028152600160a060020a039091166004820152602401602060405180830381600087803b151561213757600080fd5b6102c65a03f1151561214857600080fd5b50505060405180519250508682101561216057600080fd5b86151561216b578196505b600160a060020a038816600090815260078601602052604090206001015415612198576121988a896122dc565b60008981526006860160205260409020546121ba90889063ffffffff611f6216565b60008a815260068701602052604090205560058501546121e190889063ffffffff611f6216565b60058601556040805190810160409081528a825260208083018a9052600160a060020a038b1660009081526007890190915220815181556020820151816001015590505033600160a060020a031688600160a060020a0316141515612244575060015b600160a060020a0388168a7f98919cf2e7177b2b2794b7596166eb688e15f8422b46387aab412d792035c0128b8585604051928352602083019190915215156040808301919091526060909101905180910390a36122a18a611724565b95505b5050505050949350505050565b6000808315156122c457600091506108e3565b508282028284828115156122d457fe5b0414610eee57fe5b60006122e6612679565b6000848152600960209081526040808320600160a060020a0387168452600781019092529182902090935090805190810160405281548152600190910154602082019081529091506123589051600684016000845181526020019081526020016000205461264190919063ffffffff16565b600683016000835181526020019081526020016000208190555061238b816020015160058401549063ffffffff61264116565b6005830155600160a060020a03831660008181526007840160205260408082208281556001019190915585907f694e00fc5266ab4e93df364ff0161f5d7e3a035126b13d918755bfed6d8ab299905160405180910390a350505050565b6000806123f3612690565b600084815260096020526040812060010154600160a060020a0316935080808086151561241f57600080fd5b61242887611e85565b60008181526007602052604090819020919750610100905190810160409081528254600160a060020a0390811683526001840154811660208085019190915260028501548216838501526003850154606085015260048501546080850152600585015460a085015260068086015460c086015260079095015460ff908116151560e0860152918c1660009081529481528285208d865260099091529190932060080154919750955062010000900416156124e157612637565b84606001516002858101549102935083901015612540576002840180546001810161250c838261274b565b5060009182526020808320919091018a90558982526009905260409020600801805462ff0000191662010000179055612637565b61259c8460020180548060200260200160405190810160405280929190818152602001828054801561259257602002820191906000526020600020905b8154815260019091019060200180831161257d575b5050505050610820565b9092509050816125ab89610e20565b11156126375760006009600086600201858154811015156125c857fe5b600091825260208083209091015483528281019390935260409182018120600890810180549515156201000090810262ff000019978816179091558d835260099094529190200180549092161790556002840180548991908490811061262a57fe5b6000918252602090912001555b5050505050505050565b60008282111561264d57fe5b50900390565b604080519081016040526002815b60008152602001906001900390816126615790505090565b604080519081016040526000808252602082015290565b6101006040519081016040908152600080835260208301819052908201819052606082018190526080820181905260a0820181905260c0820181905260e082015290565b6101606040519081016040908152600080835260208301819052908201819052606082018190526080820181905260a0820181905260c0820181905260e082018190526101008201819052610120820181905261014082015290565b6101a060405190810160405260008152600c60208201612661565b81548183558181151161276f5760008381526020902061276f918101908301612774565b505050565b61279291905b8082111561278e576000815560010161277a565b5090565b905600a165627a7a72305820586b8eda348ec257bffafee67b76cca0e7d8dc7b9d8954ea56343820384a87e80029",
  "source": "pragma solidity ^0.4.18;\r\n\r\nimport \"../controller/Reputation.sol\";\r\nimport \"./IntVoteInterface.sol\";\r\nimport \"../universalSchemes/UniversalScheme.sol\";\r\n\r\n\r\n// ToDo: Write tests!\r\n\r\ncontract EmergentVoteScheme is IntVoteInterface, UniversalScheme {\r\n    using SafeMath for uint;\r\n\r\n    struct Organization {\r\n        bool isRegistered;\r\n        uint boostedProposals; // Currently amount of boosted proposals\r\n        bytes32[] awaitingBoostProposals; // Array that contains a waiting list of proposals to be boosted\r\n    }\r\n\r\n    struct OrgParameters {\r\n        Reputation reputationSystem; // the reputation system that is being used\r\n        StandardToken boostToken; // The token that will be used in order to boost proposals\r\n        address beneficiary; // The tokens that has been spent for boosting proposals will be transfered to this address\r\n        uint attentionBandwidth; // Limit the amount of boosted proposals\r\n        uint minBoostTimeFrame; // The boost time can not be less than that time frame\r\n        uint maxBoostTimeFrame; // The boost time can not be more than that time frame\r\n        uint minBoost; // Minimum amount of token can be paid for boosting proposals\r\n        bool allowOwner; // does this proposal has a owner who has owner rights?\r\n    }\r\n\r\n    struct ProposalParameters {\r\n        uint precReq; // how many percentages are required for the porpsal to be passed\r\n        uint quorum; // Qurum that will be rellevant only if the proposal will get boosted\r\n        uint boostTimeFrame; // The time frame that the porpoal will be boosted\r\n    }\r\n\r\n    struct Voter {\r\n        uint vote; // 0 - 'abstain'\r\n        uint reputation; // amount of voter's reputation\r\n    }\r\n\r\n    struct Proposal {\r\n        address owner; // the proposal's owner\r\n        address avatar; // the avatar of the organization that owns the proposal\r\n        uint numOfChoices; // Number of choices in the proposal\r\n        ExecutableInterface executable; // will be executed if the perposal will pass\r\n        bytes32 paramsHash; // the hash of the parameters of the proposal\r\n        uint totalVotes; // Totals proposal's votes\r\n        mapping(uint=>uint) votes;\r\n        mapping(address=>Voter) voters;\r\n        bool opened; // voting opened flag\r\n        bool isBoostModeActive; // Is the proposal boosted?\r\n        bool isAwaitingBoost; // Is in the waiting list for being boosted\r\n        uint closingTime; // Will be setted only if the proposal is boosted, will determine the closing time of the proposal\r\n        uint boostedFunds; // amount of funds that has been invested in this proposal\r\n    }\r\n\r\n    event LogNewProposal(bytes32 indexed _proposalId, address _proposer, bytes32 _paramsHash);\r\n    event LogCancelProposal(bytes32 indexed _proposalId);\r\n    event LogExecuteProposal(bytes32 indexed _proposalId, uint _decision);\r\n    event LogVoteProposal(bytes32 indexed _proposalId, address indexed _voter, uint _vote, uint _reputation, bool _isOwnerVote);\r\n    event LogCancelVoting(bytes32 indexed _proposalId, address indexed _voter);\r\n\r\n    mapping(address=>Organization) public organizations;\r\n    mapping(bytes32=>OrgParameters) public organizationsParameters;\r\n    mapping(bytes32=>ProposalParameters) public proposalsParameters;  // A mapping from hashes to parameters\r\n    mapping(bytes32=>Proposal) public proposals; // Mapping from the ID of the proposal to the proposal itself.\r\n\r\n    uint constant public MAX_NUM_OF_CHOICES = 10;\r\n    uint proposalsCnt; // Total amount of proposals\r\n\r\n    /**\r\n    * @dev Check that there is owner for the proposal and he sent the transaction\r\n    */\r\n    modifier onlyProposalOwner(bytes32 _proposalId) {\r\n        require(msg.sender == proposals[_proposalId].owner);\r\n        _;\r\n    }\r\n\r\n    /**\r\n    * @dev Check that the proposal is votable (opened and not executed yet)\r\n    */\r\n    modifier votable(bytes32 _proposalId) {\r\n        require(proposals[_proposalId].opened);\r\n        _;\r\n    }\r\n\r\n    function EmergentVoteScheme(StandardToken _nativeToken, uint _fee, address _beneficiary) public {\r\n        updateParameters(\r\n            _nativeToken,\r\n            _fee, _beneficiary,\r\n            bytes32(0));\r\n    }\r\n\r\n    /**\r\n    * @dev hash the parameters, save them if necessary, and return the hash value\r\n    */\r\n    function setOrgParameters(\r\n        Reputation _reputationSystem,\r\n        StandardToken _boostToken,\r\n        address _beneficiary,\r\n        uint _attentionBandwidth,\r\n        uint _minBoostTimeFrame,\r\n        uint _maxBoostTimeFrame,\r\n        uint _minBoost,\r\n        bool _allowOwner\r\n    ) public returns(bytes32)\r\n    {\r\n        bytes32 paramsHash = getOrgParametersHash(\r\n            _reputationSystem,\r\n            _boostToken,\r\n            _beneficiary,\r\n            _attentionBandwidth,\r\n            _minBoostTimeFrame,\r\n            _maxBoostTimeFrame,\r\n            _minBoost,\r\n            _allowOwner\r\n        );\r\n        organizationsParameters[paramsHash] = OrgParameters({\r\n            reputationSystem: _reputationSystem,\r\n            boostToken: _boostToken,\r\n            beneficiary: _beneficiary,\r\n            attentionBandwidth: _attentionBandwidth,\r\n            minBoostTimeFrame: _minBoostTimeFrame,\r\n            maxBoostTimeFrame: _maxBoostTimeFrame,\r\n            minBoost: _minBoost,\r\n            allowOwner: _allowOwner\r\n        });\r\n        return paramsHash;\r\n    }\r\n\r\n    function getOrgParametersHash(\r\n        Reputation _reputationSystem,\r\n        StandardToken _boostToken,\r\n        address _beneficiary,\r\n        uint _attentionBandwidth,\r\n        uint _minBoostTimeFrame,\r\n        uint _maxBoostTimeFrame,\r\n        uint _minBoost,\r\n        bool _allowOwner\r\n    ) public pure returns(bytes32)\r\n    {\r\n        bytes32 paramsHash = keccak256(\r\n            _reputationSystem,\r\n            _boostToken,\r\n            _beneficiary,\r\n            _attentionBandwidth,\r\n            _minBoostTimeFrame,\r\n            _maxBoostTimeFrame,\r\n            _minBoost,\r\n            _allowOwner\r\n        );\r\n        return paramsHash;\r\n    }\r\n\r\n    /**\r\n    * @dev Set proposals parameters\r\n    * @param _precReq the percentage that are required for the proposal to be executed\r\n    * @param _quorum the 'quorum' percentages that are required for the winning choice (will be rellevant only if boosted)\r\n    * @param _boostTimeFrame the time frame of the proposal after being boosted, after the time passed, a decision will be made\r\n    * @return bytes32 the hashed parameters\r\n    */\r\n    function setProposalParameters(uint _precReq, uint _quorum, uint _boostTimeFrame) public returns(bytes32) {\r\n        require(_precReq <= 100 && _precReq > 0);\r\n        require(_quorum <= 100 && _quorum > 0);\r\n        bytes32 hashedParameters = getProposalParametersHash(_precReq, _quorum, _boostTimeFrame);\r\n        proposalsParameters[hashedParameters] = ProposalParameters({\r\n            precReq: _precReq,\r\n            quorum: _quorum,\r\n            boostTimeFrame: _boostTimeFrame\r\n        });\r\n        return hashedParameters;\r\n    }\r\n\r\n    /**\r\n    * @dev hashParameters returns a hash of the given parameters\r\n    */\r\n    function getProposalParametersHash(uint _precReq, uint _quorum, uint _boostTimeFrame) public pure returns(bytes32) {\r\n        return keccak256(_precReq, _quorum, _boostTimeFrame);\r\n    }\r\n\r\n    /**\r\n    * @dev register a new proposal with the given parameters. Every proposal has a unique ID which is being\r\n    * generated by calculating keccak256 of a incremented counter.\r\n    * @param _numOfChoices the number of choices inthe proposal\r\n    * @param _paramsHash defined the parameters of the voting machine used for this proposal\r\n    * @param _avatar an address to be sent as the payload to the _executable contract.\r\n    * @param _executable This contract will be executed when vote is over.\r\n    * @return bytes32 proposalId the ID of the proposal\r\n    */\r\n    function propose(\r\n        uint _numOfChoices,\r\n        bytes32 _paramsHash,\r\n        address _avatar,\r\n        ExecutableInterface _executable\r\n    ) public returns(bytes32)\r\n    {\r\n        // ToDo: check parameters are OK:\r\n        require(_numOfChoices > 0 && _numOfChoices <= MAX_NUM_OF_CHOICES);\r\n\r\n        // Check org is registered:\r\n        require(organizations[_avatar].isRegistered);\r\n\r\n        // Check params exist:\r\n        require(proposalsParameters[_paramsHash].precReq != 0);\r\n\r\n        // Generate a unique ID:\r\n        bytes32 proposalId = keccak256(this, proposalsCnt);\r\n        proposalsCnt++;\r\n\r\n        // Open proposal:\r\n        Proposal memory proposal;\r\n        proposal.paramsHash = _paramsHash;\r\n        proposal.numOfChoices = _numOfChoices;\r\n        proposal.avatar = _avatar;\r\n        proposal.executable = _executable;\r\n        proposal.owner = msg.sender;\r\n        proposal.opened = true;\r\n        proposals[proposalId] = proposal;\r\n        LogNewProposal(proposalId, msg.sender, _paramsHash);\r\n        return proposalId;\r\n    }\r\n\r\n    /**\r\n    * @dev Cancel a proposal, only the owner can call this function and only if allowOwner flag is true.\r\n    * @param _proposalId the proposal ID\r\n    * @return bool True if the proposal is canceled and False if it wasn't\r\n    */\r\n    function cancelProposal(bytes32 _proposalId) public onlyProposalOwner(_proposalId) votable(_proposalId) returns(bool) {\r\n        address avatar = proposals[_proposalId].avatar;\r\n        bytes32 paramsHash = getParametersFromController(Avatar(avatar));\r\n        if (! organizationsParameters[paramsHash].allowOwner) {\r\n            return false;\r\n        }\r\n\r\n        // Check if on the awaiting list, if so, delete it:\r\n        bool isFound;\r\n        uint index;\r\n        (isFound, index) = findInArray(organizations[avatar].awaitingBoostProposals, _proposalId);\r\n        if (isFound) {\r\n            deleteFromArray(organizations[avatar].awaitingBoostProposals, index);\r\n        }\r\n\r\n        delete proposals[_proposalId];\r\n        LogCancelProposal(_proposalId);\r\n        return true;\r\n    }\r\n\r\n    /**\r\n    * @dev Get the score of a specific proposal\r\n    * The score is evaluated by multiplying the number of votes with the funds that are invested\r\n    * @param _proposalId the proposal ID\r\n    * @return uint Proposal's score\r\n    */\r\n    function proposalScore(bytes32 _proposalId) public constant returns(uint) {\r\n        Proposal memory proposal = proposals[_proposalId];\r\n        return (proposal.boostedFunds.mul(proposal.totalVotes));\r\n    }\r\n\r\n    /**\r\n    * @dev Get the minimum score of a given list proposal ids\r\n    * @param _idsArray the proposal ids that will be checked\r\n    * @return uint index the index of the proposal containing the smallest score in the list\r\n    * @return uint min the minimum score in the list\r\n    */\r\n    function findMinScore(bytes32[] _idsArray) public constant returns(uint index, uint min) {\r\n        for (uint cnt = 0; cnt<_idsArray.length; cnt++) {\r\n            if (proposalScore(_idsArray[cnt]) < min) {\r\n                index = cnt;\r\n                min = proposalScore(_idsArray[cnt]);\r\n            }\r\n        }\r\n    }\r\n\r\n    /**\r\n    * @dev Get the maximum score of a given list proposal ids\r\n    * @param _idsArray the proposal ids that will be checked\r\n    * @return uint index the index of the proposal containing the highest score in the list\r\n    * @return uint max the maximum score in the list\r\n    */\r\n    function findMaxScore(bytes32[] _idsArray) public constant returns(uint index, uint max) {\r\n        for (uint cnt = 0; cnt<_idsArray.length; cnt++) {\r\n            if (proposalScore(_idsArray[cnt]) > max) {\r\n                index = cnt;\r\n                max = proposalScore(_idsArray[cnt]);\r\n            }\r\n        }\r\n    }\r\n\r\n    /**\r\n    * @dev Helper function to find an ID in a given array\r\n    * @param _idsArray an array of id's\r\n    * @param _id the id we want ot find in the array\r\n    * @return bool isFound that indicated if the id has been found in the array\r\n    * @return uint index the index of the id in the array\r\n    */\r\n    function findInArray(bytes32[] _idsArray, bytes32 _id) public pure returns(bool isFound, uint index) {\r\n        for (uint cnt = 0; cnt<_idsArray.length; cnt++) {\r\n            if (_idsArray[cnt] == _id) {\r\n                return(true, cnt);\r\n            }\r\n        }\r\n    }\r\n\r\n    /**\r\n    * @dev Internal function to boost a proposal\r\n    * @param _proposalId the id of the proposal that is being checked\r\n    * @param _boostValue amount of tokens to use for boosting, must be greater then minBoost\r\n    */\r\n    function boostProposal(bytes32 _proposalId, uint _boostValue) public {\r\n\r\n        // Check proposal is not already in boost mode:\r\n        if (proposals[_proposalId].isBoostModeActive) {\r\n            return;\r\n        }\r\n\r\n        // Retrieve org and parameters hash:\r\n        address avatar = proposals[_proposalId].avatar;\r\n        require(avatar != address(0)); // Check propsal exists\r\n        bytes32 orgParamsHash = getParametersFromController(Avatar(avatar));\r\n        OrgParameters memory orgParams = organizationsParameters[orgParamsHash];\r\n\r\n        // Collect boosting fee and add value to boosted funds:\r\n        assert(_boostValue > orgParams.minBoost);\r\n        orgParams.boostToken.transferFrom(msg.sender, orgParams.beneficiary, _boostValue); // ToDo: Move to end?\r\n        proposals[_proposalId].boostedFunds = proposals[_proposalId].boostedFunds.add(_boostValue);\r\n\r\n        // If proposal is not in awaiting list, try to add:\r\n        if (proposals[_proposalId].isAwaitingBoost) {\r\n            tryAwaitingBoostProposals(_proposalId);\r\n        }\r\n    }\r\n\r\n    /**\r\n    * @dev Move the top proposal form the waiting list to the boosted proposals\r\n    * @param _avatar avatar of the organization\r\n    */\r\n    // [TODO] event\r\n    function moveTopAwaitingBoostMode(address _avatar) public {\r\n        // Retrieve org and parameters hash:\r\n        require(_avatar != address(0)); // Check propsal exists\r\n        bytes32 orgParamsHash = getParametersFromController(Avatar(_avatar));\r\n        OrgParameters memory orgParams = organizationsParameters[orgParamsHash];\r\n        Organization storage org = organizations[_avatar];\r\n\r\n        // Check we have free bandwidth:\r\n        if (org.boostedProposals >= orgParams.attentionBandwidth) {\r\n            return;\r\n        }\r\n\r\n        // Check awaiting list is not empty:\r\n        if (org.awaitingBoostProposals.length == 0) {\r\n            return;\r\n        }\r\n\r\n        // Find maximum and add it:\r\n        org.boostedProposals++;\r\n        uint maxIndex;\r\n        (maxIndex, ) = findMaxScore(org.awaitingBoostProposals);\r\n        Proposal storage proposal = proposals[org.awaitingBoostProposals[maxIndex]];\r\n        proposal.isBoostModeActive = true;\r\n        proposal.isAwaitingBoost = false;\r\n        uint timeFrame = proposalsParameters[proposal.paramsHash].boostTimeFrame;\r\n        proposal.closingTime = block.number.add(timeFrame);\r\n\r\n        // Shift array:\r\n        deleteFromArray(org.awaitingBoostProposals, maxIndex);\r\n    }\r\n\r\n    /**\r\n    * @dev voting function\r\n    * @param _proposalId id of the proposal\r\n    * @param _vote yes (1) / no (-1) / abstain (0)\r\n    */\r\n    function vote(bytes32 _proposalId, uint _vote) public votable(_proposalId) returns(bool) {\r\n        return internalVote(_proposalId, _vote, msg.sender, 0);\r\n    }\r\n\r\n    function voteWithSpecifiedAmounts(bytes32 _proposalId, uint _vote, uint _rep, uint) public votable(_proposalId) returns(bool) {\r\n        return internalVote(_proposalId, _vote, msg.sender, _rep);\r\n    }\r\n\r\n    /**\r\n    * @dev voting function with owner functionality (can vote on behalf of someone else)\r\n    * @param _proposalId id of the proposal\r\n    * @param _vote yes (1) / no (-1) / abstain (0)\r\n    * @param _voter will be voted with that voter's address\r\n    */\r\n    function ownerVote(bytes32 _proposalId, uint _vote, address _voter) public onlyProposalOwner(_proposalId) votable(_proposalId) returns(bool) {\r\n        bytes32 paramsHash = getParametersFromController(Avatar(proposals[_proposalId].avatar));\r\n        if (! organizationsParameters[paramsHash].allowOwner) {\r\n            return;\r\n        }\r\n\r\n        return internalVote(_proposalId, _vote, _voter, 0);\r\n    }\r\n\r\n    /**\r\n    * @dev Cancel the vote of the msg.sender: subtract the reputation amount from the votes\r\n    * and delete the voter from the proposal struct\r\n    * @param _proposalId id of the proposal\r\n    */\r\n    function cancelVote(bytes32 _proposalId) public votable(_proposalId) {\r\n        cancelVoteInternal(_proposalId, msg.sender);\r\n    }\r\n\r\n    /**\r\n    * @dev check if the proposal has been decided, and if so, execute the proposal\r\n    * @param _proposalId the id of the proposal\r\n    * @return bool is the proposal has been executed or not?\r\n    */\r\n    // TODO: do we want to delete the vote from the proposals mapping?\r\n    // TODO: add to the event if this proposal was bossted or not\r\n    function execute(bytes32 _proposalId) public votable(_proposalId) returns(bool) {\r\n        Proposal storage proposal = proposals[_proposalId];\r\n\r\n        bytes32 orgParamsHash = getParametersFromController(Avatar(proposal.avatar));\r\n        uint totalReputation = organizationsParameters[orgParamsHash].reputationSystem.totalSupply();\r\n        uint precReq = proposalsParameters[proposal.paramsHash].precReq;\r\n        Proposal memory tmpProposal = proposal;\r\n\r\n        // Check boosted propsals:\r\n        if (proposal.isBoostModeActive && block.number >= proposal.closingTime) {\r\n            uint quorum = proposalsParameters[proposal.paramsHash].quorum;\r\n\r\n            // Check if quorum has been reached\r\n            if (proposal.totalVotes/totalReputation >= quorum) {\r\n                uint max;\r\n                uint maxInd;\r\n\r\n                // Count which choice is the winning choice\r\n                for (uint cnt = 1; cnt<=proposal.numOfChoices; cnt++) {\r\n                    if (proposal.votes[cnt] > max) {\r\n                        max = proposal.votes[cnt];\r\n                        maxInd = cnt;\r\n                    }\r\n                }\r\n                delete proposals[_proposalId];\r\n                LogExecuteProposal(_proposalId, maxInd);\r\n                (tmpProposal.executable).execute(_proposalId, tmpProposal.avatar, int(maxInd));\r\n                return true;\r\n            }\r\n        }\r\n\r\n        // Check if someone crossed the bar:\r\n        for (uint cnt2 = 0; cnt2<=proposal.numOfChoices; cnt2++) {\r\n            if (proposal.votes[cnt2] > totalReputation*precReq/100) {\r\n                delete proposals[_proposalId];\r\n                LogExecuteProposal(_proposalId, cnt);\r\n                (tmpProposal.executable).execute(_proposalId, tmpProposal.avatar, int(cnt2));\r\n                return true;\r\n            }\r\n        }\r\n        return false;\r\n    }\r\n\r\n    function getNumberOfChoices(bytes32 _proposalId) public constant returns(uint) {\r\n        return (proposals[_proposalId].numOfChoices);\r\n    }\r\n\r\n    /**\r\n    * @dev voteInfo returns the vote and the amount of reputation of the user committed to this proposal\r\n    * @param _proposalId the ID of the proposal\r\n    * @param _voter the address of the voter\r\n    * @return uint[2] array that contains the vote's info:\r\n    * amount of reputation committed by _voter to _proposalId, and the voters vote (1/-1/-0)\r\n    */\r\n    function voteInfo(bytes32 _proposalId, address _voter) public constant returns(uint[2]) {\r\n        Voter memory voter = proposals[_proposalId].voters[_voter];\r\n        return [voter.vote, voter.reputation];\r\n    }\r\n\r\n    /**\r\n    * @dev proposalStatus returns the number of yes, no, and abstain and if the proposal is ended of a given proposal id\r\n    * @param _proposalId the ID of the proposal\r\n    * @return int[10] array that contains the proposal's info:\r\n    * number of yes, no, and abstain, and if the voting for the proposal has ended\r\n    */\r\n    function proposalStatus(bytes32 _proposalId) public constant returns(uint[13]) {\r\n        Proposal storage proposal = proposals[_proposalId];\r\n        uint opened = proposal.opened ? 1 : 0;\r\n        uint[13] memory returnedArray;\r\n        returnedArray[12] = opened;\r\n        for (uint cnt = 0; cnt<=proposal.numOfChoices; cnt++) {\r\n            returnedArray[cnt] = proposal.votes[cnt];\r\n        }\r\n        return returnedArray;\r\n    }\r\n\r\n    /**\r\n    * @dev isVotable check if the proposal is open\r\n    * @param _proposalId the ID of the proposal\r\n    * @return bool true or false\r\n    */\r\n    function isVotable(bytes32 _proposalId) public constant returns(bool) {\r\n        return proposals[_proposalId].opened;\r\n    }\r\n\r\n    /**\r\n    * @dev Will try to insert a proposal to the waiting list (if there is place in the waiting list)\r\n    * This function will be called only from boostProposal function\r\n    * @param _proposalId the id of the proposal that is being checked\r\n    */\r\n    // [TODO] event\r\n    function tryAwaitingBoostProposals(bytes32 _proposalId) internal {\r\n\r\n        // Retrieve org and parameters hash:\r\n        address avatar = proposals[_proposalId].avatar;\r\n        require(avatar != address(0)); // Check propsal exists\r\n        bytes32 orgParamsHash = getParametersFromController(Avatar(avatar));\r\n        OrgParameters memory orgParams = organizationsParameters[orgParamsHash];\r\n        Organization storage org = organizations[avatar];\r\n\r\n        // If proposal already awaiting, return:\r\n        if (proposals[_proposalId].isAwaitingBoost) {\r\n            return;\r\n        }\r\n\r\n        // If there is room just add proposal:\r\n        // The Waiting list is twice the attentionBandwidth\r\n        uint maxAwaitingList = 2*orgParams.attentionBandwidth;\r\n        if (org.awaitingBoostProposals.length < maxAwaitingList) {\r\n            org.awaitingBoostProposals.push(_proposalId);\r\n            proposals[_proposalId].isAwaitingBoost = true;\r\n            return;\r\n        }\r\n\r\n        // Find minimum, if lower than current, replace:\r\n        uint minIndex;\r\n        uint minScore;\r\n        (minIndex, minScore) = findMinScore(org.awaitingBoostProposals);\r\n        if (proposalScore(_proposalId) > minIndex) {\r\n            proposals[org.awaitingBoostProposals[minIndex]].isAwaitingBoost = false;\r\n            proposals[_proposalId].isAwaitingBoost = true;\r\n            org.awaitingBoostProposals[minIndex] = _proposalId;\r\n        }\r\n    }\r\n\r\n    /**\r\n    * @dev Internal function that actually cancel the vote and delete it from storage\r\n    * @param _proposalId id of the proposal\r\n    * @param _voter the address of the voter we want to cancel his vote\r\n    */\r\n    function cancelVoteInternal(bytes32 _proposalId, address _voter) internal {\r\n        Proposal storage proposal = proposals[_proposalId];\r\n        Voter memory voter = proposal.voters[_voter];\r\n\r\n        proposal.votes[voter.vote] = (proposal.votes[voter.vote]).sub(voter.reputation);\r\n        proposal.totalVotes = (proposal.totalVotes).sub(voter.reputation);\r\n\r\n        delete proposal.voters[_voter];\r\n        LogCancelVoting(_proposalId, _voter);\r\n    }\r\n\r\n    /**\r\n    * @dev Delete an index from an array which in the storage\r\n    * @param _idsArray the pointer for the array\r\n    * @param _index the index we want to delete\r\n    */\r\n    function deleteFromArray(bytes32[] storage _idsArray, uint _index) internal {\r\n        assert(_idsArray.length > _index);\r\n        for (uint cnt = _index; cnt<_idsArray.length-1; cnt++) {\r\n            _idsArray[cnt] = _idsArray[cnt+1];\r\n        }\r\n        _idsArray.length--;\r\n    }\r\n\r\n    /**\r\n    * @dev Vote for a proposal, if the voter already voted, cancel the last vote and set a new one instead\r\n    * @param _proposalId id of the proposal\r\n    * @param _vote yes (1) / no (-1) / abstain (0)\r\n    * @param _voter used in case the vote is cast for someone else\r\n    * @return true in case of success\r\n    * throws if proposal is not opened or if it is executed\r\n    * NB: executes the proposal if a decision has been reached\r\n    */\r\n    function internalVote(bytes32 _proposalId, uint _vote, address _voter, uint _rep) private returns(bool) {\r\n        Proposal storage proposal = proposals[_proposalId];\r\n        bytes32 paramsHash = getParametersFromController(Avatar(proposal.avatar));\r\n        OrgParameters memory orgParams = organizationsParameters[paramsHash];\r\n\r\n        // If boosted proposal and ended, exectute:\r\n        if (proposal.isBoostModeActive && block.number >= proposal.closingTime) {\r\n            return execute(_proposalId);\r\n        }\r\n\r\n        // Check valid vote:\r\n        require(_vote <= proposal.numOfChoices);\r\n\r\n        // Check voter has enough reputation:\r\n        uint reputation = orgParams.reputationSystem.reputationOf(_voter);\r\n        require(reputation >= _rep);\r\n        if (_rep == 0) {\r\n            _rep = reputation;\r\n        }\r\n\r\n        // If this voter has already voted, first cancel the vote:\r\n        if (proposal.voters[_voter].reputation != 0) {\r\n            cancelVoteInternal(_proposalId, _voter);\r\n        }\r\n\r\n        // The voting itself:\r\n        proposal.votes[_vote] = _rep.add(proposal.votes[_vote]);\r\n        proposal.totalVotes = _rep.add(proposal.totalVotes);\r\n        proposal.voters[_voter] = Voter({\r\n            reputation: _rep,\r\n            vote: _vote\r\n        });\r\n\r\n        // Check if ownerVote:\r\n        bool isOwnerVote;\r\n        if (_voter != msg.sender) {\r\n            isOwnerVote = true;\r\n        }\r\n\r\n        // Event:\r\n        LogVoteProposal(\r\n            _proposalId,\r\n            _voter,\r\n            _vote,\r\n            reputation,\r\n            isOwnerVote\r\n        );\r\n\r\n        // execute the proposal if this vote was decisive:\r\n        return execute(_proposalId);\r\n    }\r\n\r\n}\r\n",
  "sourcePath": "C:\\users\\dkent\\documents\\projects\\GitHub\\DAOStack\\daostack\\contracts\\VotingMachines\\EmergentVoteScheme.sol",
  "compiler": {
    "name": "solc",
    "version": "0.4.18+commit.9cf6e910.Emscripten.clang"
  },
  "schemaVersion": "1.0.1",
  "updatedAt": "2017-12-29T21:23:16.968Z"
}