{
  "contractName": "ExecutableTest",
  "abi": [
    {
      "constant": false,
      "inputs": [
        {
          "name": "_proposalId",
          "type": "bytes32"
        },
        {
          "name": "_avatar",
          "type": "address"
        },
        {
          "name": "_param",
          "type": "int256"
        }
      ],
      "name": "execute",
      "outputs": [
        {
          "name": "",
          "type": "bool"
        }
      ],
      "payable": false,
      "stateMutability": "nonpayable",
      "type": "function"
    },
    {
      "anonymous": false,
      "inputs": [
        {
          "indexed": false,
          "name": "_msg",
          "type": "address"
        }
      ],
      "name": "LogAddress",
      "type": "event"
    },
    {
      "anonymous": false,
      "inputs": [
        {
          "indexed": false,
          "name": "_msg",
          "type": "int256"
        }
      ],
      "name": "LogInt",
      "type": "event"
    },
    {
      "anonymous": false,
      "inputs": [
        {
          "indexed": false,
          "name": "_msg",
          "type": "string"
        }
      ],
      "name": "LogString",
      "type": "event"
    },
    {
      "anonymous": false,
      "inputs": [
        {
          "indexed": false,
          "name": "_msg",
          "type": "uint256"
        }
      ],
      "name": "LogUint",
      "type": "event"
    },
    {
      "anonymous": false,
      "inputs": [
        {
          "indexed": false,
          "name": "_msg",
          "type": "bytes"
        }
      ],
      "name": "LogBytes",
      "type": "event"
    },
    {
      "anonymous": false,
      "inputs": [
        {
          "indexed": false,
          "name": "_msg",
          "type": "bytes32"
        }
      ],
      "name": "LogBytes32",
      "type": "event"
    },
    {
      "anonymous": false,
      "inputs": [
        {
          "indexed": false,
          "name": "_msg",
          "type": "bool"
        }
      ],
      "name": "LogBool",
      "type": "event"
    }
  ],
  "bytecode": "0x6060604052341561000f57600080fd5b6101728061001e6000396000f3006060604052600436106100405763ffffffff7c0100000000000000000000000000000000000000000000000000000000600035041663310ce4e28114610045575b600080fd5b341561005057600080fd5b61007760043573ffffffffffffffffffffffffffffffffffffffff6024351660443561008b565b604051901515815260200160405180910390f35b60007e9fd52f05c0ded31d6fb0ee580b923f85e99cf1a5a1da342f25e73c45829c838460405190815260200160405180910390a17fb123f68b8ba02b447d91a6629e121111b7dd6061ff418a60139c8bf00522a2848360405173ffffffffffffffffffffffffffffffffffffffff909116815260200160405180910390a17f1aa4309bfd99af8afa7454590e1bdaa5a9b3b63e5baa109ae9afa3ecd0c67f398260405190815260200160405180910390a150600193925050505600a165627a7a723058206be18ea59d5e47de015ddfd4aa625b81c6ddada1421dc0f5d77b1740da91d2850029",
  "source": "pragma solidity ^0.4.18;\r\n\r\nimport \"./Debug.sol\";\r\nimport \"../universalSchemes/ExecutableInterface.sol\";\r\n\r\n\r\ncontract ExecutableTest is ExecutableInterface, Debug {\r\n\r\n    function execute(bytes32 _proposalId, address _avatar, int _param) public returns(bool) {\r\n        LogBytes32(_proposalId);\r\n        LogAddress(_avatar);\r\n        LogInt(_param);\r\n        return true;\r\n    }\r\n}\r\n",
  "sourcePath": "C:\\users\\dkent\\documents\\projects\\GitHub\\DAOStack\\daostack\\contracts\\test\\ExecutableTest.sol",
  "compiler": {
    "name": "solc",
    "version": "0.4.18+commit.9cf6e910.Emscripten.clang"
  },
  "schemaVersion": "1.0.1",
  "updatedAt": "2017-12-29T21:23:16.859Z"
}