{
  "contractName": "GenesisScheme",
  "abi": [
    {
      "constant": false,
      "inputs": [
        {
          "name": "_orgName",
          "type": "bytes32"
        },
        {
          "name": "_tokenName",
          "type": "string"
        },
        {
          "name": "_tokenSymbol",
          "type": "string"
        },
        {
          "name": "_founders",
          "type": "address[]"
        },
        {
          "name": "_foundersTokenAmount",
          "type": "uint256[]"
        },
        {
          "name": "_foundersReputationAmount",
          "type": "int256[]"
        }
      ],
      "name": "forgeOrg",
      "outputs": [
        {
          "name": "",
          "type": "address"
        }
      ],
      "payable": false,
      "stateMutability": "nonpayable",
      "type": "function"
    },
    {
      "constant": false,
      "inputs": [
        {
          "name": "_avatar",
          "type": "address"
        },
        {
          "name": "_schemes",
          "type": "address[]"
        },
        {
          "name": "_params",
          "type": "bytes32[]"
        },
        {
          "name": "_token",
          "type": "address[]"
        },
        {
          "name": "_fee",
          "type": "uint256[]"
        },
        {
          "name": "_permissions",
          "type": "bytes4[]"
        }
      ],
      "name": "setInitialSchemes",
      "outputs": [],
      "payable": false,
      "stateMutability": "nonpayable",
      "type": "function"
    },
    {
      "inputs": [],
      "payable": false,
      "stateMutability": "nonpayable",
      "type": "constructor"
    },
    {
      "anonymous": false,
      "inputs": [
        {
          "indexed": false,
          "name": "_avatar",
          "type": "address"
        }
      ],
      "name": "NewOrg",
      "type": "event"
    },
    {
      "anonymous": false,
      "inputs": [
        {
          "indexed": false,
          "name": "_avatar",
          "type": "address"
        }
      ],
      "name": "InitialSchemesSet",
      "type": "event"
    }
  ],
  "bytecode": "0x6060604052341561000f57600080fd5b600480546001810161002183826100ee565b5060009182526020909120018054600160a060020a03191630600160a060020a0316179055600580546001810161005883826100ee565b50600091825260208220015560068054600181016100768382610117565b9160005260206000209060089182820401919006600402600f7c010000000000000000000000000000000000000000000000000000000002909190916101000a81548163ffffffff02191690837c01000000000000000000000000000000000000000000000000000000009004021790555050610168565b81548183558181151161011257600083815260209020610112918101908301610147565b505050565b81548183558181151161011257600701600890048160070160089004836000526020600020918201910161011291905b61016591905b80821115610161576000815560010161014d565b5090565b90565b61581780620001786000396000f3006060604052600436106100325763ffffffff60e060020a6000350416638bcd1c348114610037578063ebd424ec146101ab575b600080fd5b341561004257600080fd5b61018f600480359060446024803590810190830135806020601f8201819004810201604051908101604052818152929190602084018383808284378201915050505050509190803590602001908201803590602001908080601f01602080910402602001604051908101604052818152929190602084018383808284378201915050505050509190803590602001908201803590602001908080602002602001604051908101604052809392919081815260200183836020028082843782019150505050505091908035906020019082018035906020019080806020026020016040519081016040528093929190818152602001838360200280828437820191505050505050919080359060200190820180359060200190808060200260200160405190810160405280939291908181526020018383602002808284375094965061030a95505050505050565b604051600160a060020a03909116815260200160405180910390f35b34156101b657600080fd5b61030860048035600160a060020a0316906044602480359081019083013580602080820201604051908101604052809392919081815260200183836020028082843782019150505050505091908035906020019082018035906020019080806020026020016040519081016040528093929190818152602001838360200280828437820191505050505050919080359060200190820180359060200190808060200260200160405190810160405280939291908181526020018383602002808284378201915050505050509190803590602001908201803590602001908080602002602001604051908101604052809392919081815260200183836020028082843782019150505050505091908035906020019082018035906020019080806020026020016040519081016040528093929190818152602001838360200280828437509496506109a095505050505050565b005b60008060008787610319610cf9565b808060200180602001838103835285818151815260200191508051906020019080838360005b8381101561035757808201518382015260200161033f565b50505050905090810190601f1680156103845780820380516001836020036101000a031916815260200191505b50838103825284818151815260200191508051906020019080838360005b838110156103ba5780820151838201526020016103a2565b50505050905090810190601f1680156103e75780820380516001836020036101000a031916815260200191505b50945050505050604051809103906000f080151561040457600080fd5b6000805473ffffffffffffffffffffffffffffffffffffffff1916600160a060020a0392909216919091179055610439610d09565b604051809103906000f080151561044f57600080fd5b6001805473ffffffffffffffffffffffffffffffffffffffff1916600160a060020a0392831617908190556000548b92908116911661048c610d19565b928352600160a060020a0391821660208401521660408083019190915260609091019051809103906000f08015156104c357600080fd5b6002805473ffffffffffffffffffffffffffffffffffffffff1916600160a060020a03928316179081905560005460015491831692908116911660046005600661050b610d29565b600160a060020a03808816825286811660208301528516604082015260c060608201818152855491830182905290608083019060a084019060e08501908890801561057f57602002820191906000526020600020905b8154600160a060020a03168152600190910190602001808311610561575b505084810383528681815481526020019150805480156105bf57602002820191906000526020600020905b815481526001909101906020018083116105aa575b5050848103825285818154815260200191508054801561064357602002820191906000526020600020906000905b82829054906101000a900460e060020a027bffffffffffffffffffffffffffffffffffffffffffffffffffffffff1916815260200190600401906020826003010492830192600103820291508084116105ed5790505b50509950505050505050505050604051809103906000f080151561066657600080fd5b600254909250600160a060020a031663f2fde38b8360405160e060020a63ffffffff8416028152600160a060020a039091166004820152602401600060405180830381600087803b15156106b957600080fd5b6102c65a03f115156106ca57600080fd5b5050600054600160a060020a0316905063f2fde38b8360405160e060020a63ffffffff8416028152600160a060020a039091166004820152602401600060405180830381600087803b151561071e57600080fd5b6102c65a03f1151561072f57600080fd5b5050600154600160a060020a0316905063f2fde38b8360405160e060020a63ffffffff8416028152600160a060020a039091166004820152602401600060405180830381600087803b151561078357600080fd5b6102c65a03f1151561079457600080fd5b505050600090505b85518110156109095781600160a060020a03166310c5b3288683815181106107c057fe5b906020019060200201518884815181106107d657fe5b9060200190602002015160006040516020015260405160e060020a63ffffffff85160281526004810192909252600160a060020a03166024820152604401602060405180830381600087803b151561082d57600080fd5b6102c65a03f1151561083e57600080fd5b50505060405180519050151561085357600080fd5b81600160a060020a03166318e236e485838151811061086e57fe5b9060200190602002015188848151811061088457fe5b9060200190602002015160006040516020015260405160e060020a63ffffffff85160281526004810192909252600160a060020a03166024820152604401602060405180830381600087803b15156108db57600080fd5b6102c65a03f115156108ec57600080fd5b50505060405180519050151561090157600080fd5b60010161079c565b60028054600160a060020a0390811660009081526003602052604090819020805473ffffffffffffffffffffffffffffffffffffffff191633841617905591547f244496352f5e67e59ce96b4a53ef9ea7cb88b7db33eb13dc5e771bd04385a60e9291169051600160a060020a03909116815260200160405180910390a15050600254600160a060020a0316979650505050505050565b600160a060020a03868116600090815260036020526040812054909182913382169116146109cd57600080fd5b87600160a060020a0316638da5cb5b6000604051602001526040518163ffffffff1660e060020a028152600401602060405180830381600087803b1515610a1357600080fd5b6102c65a03f11515610a2457600080fd5b5050506040518051925060009150505b8651811015610c0757838181518110610a4957fe5b9060200190602002015115610b1d5781600160a060020a0316638cf1355c868381518110610a7357fe5b90602001906020020151898481518110610a8957fe5b90602001906020020151878581518110610a9f57fe5b9060200190602002015160006040516020015260405160e060020a63ffffffff8616028152600160a060020a0393841660048201529190921660248201526044810191909152606401602060405180830381600087803b1515610b0157600080fd5b6102c65a03f11515610b1257600080fd5b505050604051805150505b81600160a060020a031663a34abaa8888381518110610b3857fe5b90602001906020020151888481518110610b4e57fe5b90602001906020020151868581518110610b6457fe5b9060200190602002015160006040516020015260405160e060020a63ffffffff8616028152600160a060020a03909316600484015260248301919091527fffffffff00000000000000000000000000000000000000000000000000000000166044820152606401602060405180830381600087803b1515610be457600080fd5b6102c65a03f11515610bf557600080fd5b50505060405180515050600101610a34565b81600160a060020a031663653915e53060006040516020015260405160e060020a63ffffffff8416028152600160a060020a039091166004820152602401602060405180830381600087803b1515610c5e57600080fd5b6102c65a03f11515610c6f57600080fd5b50505060405180515050600160a060020a0380891660009081526003602052604090819020805473ffffffffffffffffffffffffffffffffffffffff191690556002547f9007c9042f12be953f7dbe3909f56c3f088e9fe294dbebbef4a67afa63462b6a92169051600160a060020a03909116815260200160405180910390a15050505050505050565b604051610ea080610d3a83390190565b6040516104ab80611bda83390190565b6040516109d58061208583390190565b604051612d9280612a5a83390190560060606040526003805460a060020a60ff0219169055341561001f57600080fd5b604051610ea0380380610ea08339810160405280805182019190602001805160038054600160a060020a03191633600160a060020a0316179055919091019050600482805161007292916020019061008e565b50600581805161008692916020019061008e565b505050610129565b828054600181600116156101000203166002900490600052602060002090601f016020900481019282601f106100cf57805160ff19168380011785556100fc565b828001600101855582156100fc579182015b828111156100fc5782518255916020019190600101906100e1565b5061010892915061010c565b5090565b61012691905b808211156101085760008155600101610112565b90565b610d68806101386000396000f3006060604052600436106101065763ffffffff7c010000000000000000000000000000000000000000000000000000000060003504166305d2035b811461010b57806306fdde0314610132578063095ea7b3146101bc57806318160ddd146101de57806323b872dd1461020357806340c10f191461022b57806342966c681461024d57806366188463146102655780636ab55fd91461028757806370a082311461029a5780637d64bcb4146102b957806383197ef0146102cc5780638da5cb5b146102df57806395d89b411461030e578063a9059cbb14610321578063d73dd62314610343578063dd62ed3e14610365578063f2fde38b1461038a578063f5074f41146103a9575b600080fd5b341561011657600080fd5b61011e6103c8565b604051901515815260200160405180910390f35b341561013d57600080fd5b6101456103d8565b60405160208082528190810183818151815260200191508051906020019080838360005b83811015610181578082015183820152602001610169565b50505050905090810190601f1680156101ae5780820380516001836020036101000a031916815260200191505b509250505060405180910390f35b34156101c757600080fd5b61011e600160a060020a0360043516602435610476565b34156101e957600080fd5b6101f16104e2565b60405190815260200160405180910390f35b341561020e57600080fd5b61011e600160a060020a03600435811690602435166044356104e8565b341561023657600080fd5b61011e600160a060020a036004351660243561066a565b341561025857600080fd5b610263600435610777565b005b341561027057600080fd5b61011e600160a060020a0360043516602435610840565b341561029257600080fd5b6101f161093a565b34156102a557600080fd5b6101f1600160a060020a036004351661093f565b34156102c457600080fd5b61011e61095a565b34156102d757600080fd5b6102636109e5565b34156102ea57600080fd5b6102f2610a0e565b604051600160a060020a03909116815260200160405180910390f35b341561031957600080fd5b610145610a1d565b341561032c57600080fd5b61011e600160a060020a0360043516602435610a88565b341561034e57600080fd5b61011e600160a060020a0360043516602435610b83565b341561037057600080fd5b6101f1600160a060020a0360043581169060243516610c27565b341561039557600080fd5b610263600160a060020a0360043516610c52565b34156103b457600080fd5b610263600160a060020a0360043516610ced565b60035460a060020a900460ff1681565b60048054600181600116156101000203166002900480601f01602080910402602001604051908101604052809291908181526020018280546001816001161561010002031660029004801561046e5780601f106104435761010080835404028352916020019161046e565b820191906000526020600020905b81548152906001019060200180831161045157829003601f168201915b505050505081565b600160a060020a03338116600081815260026020908152604080832094871680845294909152808220859055909291907f8c5be1e5ebec7d5bd14f71427d1e84f3dd0314c0f7b2291e5b200ac8c7c3b9259085905190815260200160405180910390a350600192915050565b60005481565b6000600160a060020a03831615156104ff57600080fd5b600160a060020a03841660009081526001602052604090205482111561052457600080fd5b600160a060020a038085166000908152600260209081526040808320339094168352929052205482111561055757600080fd5b600160a060020a038416600090815260016020526040902054610580908363ffffffff610d1416565b600160a060020a0380861660009081526001602052604080822093909355908516815220546105b5908363ffffffff610d2616565b600160a060020a038085166000908152600160209081526040808320949094558783168252600281528382203390931682529190915220546105fd908363ffffffff610d1416565b600160a060020a03808616600081815260026020908152604080832033861684529091529081902093909355908516917fddf252ad1be2c89b69c2b068fc378daa952ba7f163c4a11628f55a4df523b3ef9085905190815260200160405180910390a35060019392505050565b60035460009033600160a060020a0390811691161461068857600080fd5b60035460a060020a900460ff161561069f57600080fd5b6000546106b2908363ffffffff610d2616565b6000908155600160a060020a0384168152600160205260409020546106dd908363ffffffff610d2616565b600160a060020a0384166000818152600160205260409081902092909255907f0f6798a560793a54c3bcfe86a93cde1e73087d944c0ea20544137d41213968859084905190815260200160405180910390a2600160a060020a03831660007fddf252ad1be2c89b69c2b068fc378daa952ba7f163c4a11628f55a4df523b3ef8460405190815260200160405180910390a350600192915050565b600080821161078557600080fd5b600160a060020a0333166000908152600160205260409020548211156107aa57600080fd5b5033600160a060020a0381166000908152600160205260409020546107cf9083610d14565b600160a060020a038216600090815260016020526040812091909155546107fc908363ffffffff610d1416565b600055600160a060020a0381167fcc16f5dbb4873280815c1ee09dbd06736cffcc184412cf7a71a0fdb75d397ca58360405190815260200160405180910390a25050565b600160a060020a0333811660009081526002602090815260408083209386168352929052908120548083111561089d57600160a060020a0333811660009081526002602090815260408083209388168352929052908120556108d4565b6108ad818463ffffffff610d1416565b600160a060020a033381166000908152600260209081526040808320938916835292905220555b600160a060020a0333811660008181526002602090815260408083209489168084529490915290819020547f8c5be1e5ebec7d5bd14f71427d1e84f3dd0314c0f7b2291e5b200ac8c7c3b925915190815260200160405180910390a35060019392505050565b601281565b600160a060020a031660009081526001602052604090205490565b60035460009033600160a060020a0390811691161461097857600080fd5b60035460a060020a900460ff161561098f57600080fd5b6003805474ff0000000000000000000000000000000000000000191660a060020a1790557fae5184fba832cb2b1f702aca6117b8d265eaf03ad33eb133f19dde0f5920fa0860405160405180910390a150600190565b60035433600160a060020a03908116911614610a0057600080fd5b600354600160a060020a0316ff5b600354600160a060020a031681565b60058054600181600116156101000203166002900480601f01602080910402602001604051908101604052809291908181526020018280546001816001161561010002031660029004801561046e5780601f106104435761010080835404028352916020019161046e565b6000600160a060020a0383161515610a9f57600080fd5b600160a060020a033316600090815260016020526040902054821115610ac457600080fd5b600160a060020a033316600090815260016020526040902054610aed908363ffffffff610d1416565b600160a060020a033381166000908152600160205260408082209390935590851681522054610b22908363ffffffff610d2616565b600160a060020a0380851660008181526001602052604090819020939093559133909116907fddf252ad1be2c89b69c2b068fc378daa952ba7f163c4a11628f55a4df523b3ef9085905190815260200160405180910390a350600192915050565b600160a060020a033381166000908152600260209081526040808320938616835292905290812054610bbb908363ffffffff610d2616565b600160a060020a0333811660008181526002602090815260408083209489168084529490915290819020849055919290917f8c5be1e5ebec7d5bd14f71427d1e84f3dd0314c0f7b2291e5b200ac8c7c3b92591905190815260200160405180910390a350600192915050565b600160a060020a03918216600090815260026020908152604080832093909416825291909152205490565b60035433600160a060020a03908116911614610c6d57600080fd5b600160a060020a0381161515610c8257600080fd5b600354600160a060020a0380831691167f8be0079c531659141344cd1fd0a4f28419497f9722a3daafe3b4186f6b6457e060405160405180910390a36003805473ffffffffffffffffffffffffffffffffffffffff1916600160a060020a0392909216919091179055565b60035433600160a060020a03908116911614610d0857600080fd5b80600160a060020a0316ff5b600082821115610d2057fe5b50900390565b600082820183811015610d3557fe5b93925050505600a165627a7a723058204a7d9c4865d4eee425b7d9b9c524bd388f6747f0922f7bd20706d92b6a86e541002960606040526012600355341561001457600080fd5b60008054600160a060020a033316600160a060020a0319909116811782558152600160205260408120819055600255610459806100526000396000f3006060604052600436106100825763ffffffff7c010000000000000000000000000000000000000000000000000000000060003504166318160ddd8114610087578063313ce567146100ac5780638da5cb5b146100bf578063b120c16a146100ee578063db89c04414610124578063f2fde38b14610143578063fd9bf3aa14610164575b600080fd5b341561009257600080fd5b61009a610186565b60405190815260200160405180910390f35b34156100b757600080fd5b61009a61018c565b34156100ca57600080fd5b6100d2610192565b604051600160a060020a03909116815260200160405180910390f35b34156100f957600080fd5b610110600160a060020a03600435166024356101a1565b604051901515815260200160405180910390f35b341561012f57600080fd5b61009a600160a060020a0360043516610222565b341561014e57600080fd5b610162600160a060020a036004351661023d565b005b341561016f57600080fd5b610110600160a060020a03600435166024356102d8565b60025481565b60035481565b600054600160a060020a031681565b6000805433600160a060020a039081169116146101bd57600080fd5b600160a060020a0383166000908152600160205260409020546002546101fa9184916101ee9163ffffffff61040516565b9063ffffffff61041716565b60025550600160a060020a038216600090815260016020819052604090912082905592915050565b600160a060020a031660009081526001602052604090205490565b60005433600160a060020a0390811691161461025857600080fd5b600160a060020a038116151561026d57600080fd5b600054600160a060020a0380831691167f8be0079c531659141344cd1fd0a4f28419497f9722a3daafe3b4186f6b6457e060405160405180910390a36000805473ffffffffffffffffffffffffffffffffffffffff1916600160a060020a0392909216919091179055565b60008054819033600160a060020a039081169116146102f657600080fd5b6000831261035e57506002548290610314908263ffffffff61041716565b600255600160a060020a038416600090815260016020526040902054610340908263ffffffff61041716565b600160a060020a0385166000908152600160205260409020556103be565b50600254600019830290610378908263ffffffff61040516565b600255600160a060020a0384166000908152600160205260409020546103a4908263ffffffff61040516565b600160a060020a0385166000908152600160205260409020555b83600160a060020a03167f6f734b566c5e1cb976d9c7fba184b96a698a18931dd345168b16db217f8df0dd8460405190815260200160405180910390a25060019392505050565b60008282111561041157fe5b50900390565b60008282018381101561042657fe5b93925050505600a165627a7a723058205fb2a19f53b9d790f73423e0b09ad7e7b57c679577d9878283840a9cf06ad3c700296060604052341561000f57600080fd5b6040516060806109d583398101604052808051919060200180519190602001805160008054600160a060020a03338116600160a060020a031992831617909255600196909655600280549582169587169590951790945560038054949091169390941692909217909255505061094b8061008a6000396000f3006060604052600436106100955763ffffffff60e060020a6000350416631386dc2d81146100d45780636ce15a54146100f957806389ae1c901461016a5780638cf1355c146101995780638da5cb5b146101c1578063b756d5a2146101d4578063cb16d4a214610202578063d29ab9c414610224578063dab0efff1461024c578063e1758bd814610274578063f2fde38b14610287575b33600160a060020a03167ff32a9f77675fd5917534c7746608fd3e309eac68fbdcbf5925e24ca97a7043963460405190815260200160405180910390a2005b34156100df57600080fd5b6100e76102a8565b60405190815260200160405180910390f35b341561010457600080fd5b61015660048035600160a060020a03169060446024803590810190830135806020808202016040519081016040528093929190818152602001838360200280828437509496506102ae95505050505050565b604051901515815260200160405180910390f35b341561017557600080fd5b61017d610400565b604051600160a060020a03909116815260200160405180910390f35b34156101a457600080fd5b610156600160a060020a036004358116906024351660443561040f565b34156101cc57600080fd5b61017d6104fb565b34156101df57600080fd5b610156600160a060020a036004358116906024358116906044351660643561050a565b341561020d57600080fd5b610156600435600160a060020a0360243516610610565b341561022f57600080fd5b610156600160a060020a03600435811690602435166044356106a3565b341561025757600080fd5b610156600160a060020a036004358116906024351660443561078f565b341561027f57600080fd5b61017d610875565b341561029257600080fd5b6102a6600160a060020a0360043516610884565b005b60015481565b6000805433600160a060020a039081169116146102ca57600080fd5b82600160a060020a03167f8518530cc6bc186721ab2fc226031ca054c8484893d8b0c7faab65a58aac238d8360405160208082528190810183818151815260200191508051906020019060200280838360005b8381101561033557808201518382015260200161031d565b505050509050019250505060405180910390a282600160a060020a03166040517f616374696f6e28627974657333325b5d290000000000000000000000000000008152601101604051809103902060e060020a900460208451856040518463ffffffff1660e060020a02815260040180848152602001838152602001828051906020019060200280838360005b838110156103da5780820151838201526020016103c2565b5050505090500193505050506000604051808303818661646e5a03f49695505050505050565b600354600160a060020a031681565b6000805433600160a060020a0390811691161461042b57600080fd5b83600160a060020a031663d73dd623848460006040516020015260405160e060020a63ffffffff8516028152600160a060020a0390921660048301526024820152604401602060405180830381600087803b151561048857600080fd5b6102c65a03f1151561049957600080fd5b50505060405180515050600160a060020a0384167fbe7df27d98bd0614ae920a695c2c2be09c164d8456083da020a98538692c465f8484604051600160a060020a03909216825260208201526040908101905180910390a25060019392505050565b600054600160a060020a031681565b6000805433600160a060020a0390811691161461052657600080fd5b84600160a060020a03166323b872dd85858560006040516020015260405160e060020a63ffffffff8616028152600160a060020a0393841660048201529190921660248201526044810191909152606401602060405180830381600087803b151561059057600080fd5b6102c65a03f115156105a157600080fd5b50505060405180515050600160a060020a0385167f179c15de44aa7ab84896301974328eb40b5b40fe01cfe0fee2924ea712c3e843858585604051600160a060020a039384168152919092166020820152604080820192909252606001905180910390a2506001949350505050565b6000805433600160a060020a0390811691161461062c57600080fd5b600160a060020a03821683156108fc0284604051600060405180830381858888f19350505050151561065d57600080fd5b81600160a060020a03167f22fca66666089f39bc900dd6605b489df4aae6260cc8ea8257594cfb8c84926c8460405190815260200160405180910390a250600192915050565b6000805433600160a060020a039081169116146106bf57600080fd5b83600160a060020a03166366188463848460006040516020015260405160e060020a63ffffffff8516028152600160a060020a0390921660048301526024820152604401602060405180830381600087803b151561071c57600080fd5b6102c65a03f1151561072d57600080fd5b50505060405180515050600160a060020a0384167f495e426dd61227fe840d969dfba17620c573364af8c37748ea71f96f744ae3348484604051600160a060020a03909216825260208201526040908101905180910390a25060019392505050565b6000805433600160a060020a039081169116146107ab57600080fd5b83600160a060020a031663a9059cbb848460006040516020015260405160e060020a63ffffffff8516028152600160a060020a0390921660048301526024820152604401602060405180830381600087803b151561080857600080fd5b6102c65a03f1151561081957600080fd5b505050604051805190505082600160a060020a031684600160a060020a03167f49dc2a60d2599a7b6932d78fb694c30dfc596fe4e0282b5d0fd184b52472c04d8460405190815260200160405180910390a35060019392505050565b600254600160a060020a031681565b60005433600160a060020a0390811691161461089f57600080fd5b600160a060020a03811615156108b457600080fd5b600054600160a060020a0380831691167f8be0079c531659141344cd1fd0a4f28419497f9722a3daafe3b4186f6b6457e060405160405180910390a36000805473ffffffffffffffffffffffffffffffffffffffff1916600160a060020a03929092169190911790555600a165627a7a723058205c1b53408d873e456b6e38ef81caa9c82b15d0a6743dcc95148f9ea75b462adb0029606060405234156200001057600080fd5b60405162002d9238038062002d928339810160405280805191906020018051919060200180519190602001805182019190602001805182019190602001805160018054600160a060020a03808b16600160a060020a031992831617909255600280548a84169083161790556003805492891692909116919091179055909101905060005b8351811015620001f1576040805190810160405280848381518110620000b657fe5b9060200190602002015181526020017c0100000000000000000000000000000000000000000000000000000000848481518110620000f057fe5b90602001906020020151177fffffffff000000000000000000000000000000000000000000000000000000001690526000808684815181106200012f57fe5b90602001906020020151600160a060020a031681526020810191909152604001600020815181556020820151600191909101805463ffffffff19167c0100000000000000000000000000000000000000000000000000000000909204919091179055508381815181106200019f57fe5b90602001906020020151600160a060020a031633600160a060020a03167f546816e99403df442acb68ef69562682a50762c20a3fb6b472f7af9923736cfc60405160405180910390a360010162000094565b50505050505050612b8a80620002086000396000f3006060604052600436106101245763ffffffff60e060020a60003504166310c5b328811461013457806318e236e41461016a578063277d811e1461018c5780633a02263c146101db57806346a4869c1461020a57806346e361b71461022c578063488b38141461025d5780635aef7de61461027c578063653915e51461028f57806365ab1ae8146102ae5780636bafaa59146102e657806381d064c4146102f957806389ae1c90146103185780638cf1355c1461032b5780639fe0272614610353578063a34abaa81461038f578063b756d5a2146103be578063b9c2ee82146103ec578063cb16d4a21461040b578063d29ab9c41461042d578063d5210f6014610455578063dab0efff14610468578063db6149ce14610490578063e1758bd8146104d1575b341561012f57600080fd5b600080fd5b341561013f57600080fd5b610156600435600160a060020a03602435166104e4565b604051901515815260200160405180910390f35b341561017557600080fd5b610156600435600160a060020a03602435166107c6565b341561019757600080fd5b6101566004602481358181019083013580602081810201604051908101604052809392919081815260200183836020028082843750949650610aa095505050505050565b34156101e657600080fd5b6101ee610e04565b604051600160a060020a03909116815260200160405180910390f35b341561021557600080fd5b610156600160a060020a0360043516602435610e13565b341561023757600080fd5b61024b600160a060020a0360043516610f25565b60405190815260200160405180910390f35b341561026857600080fd5b610156600160a060020a0360043516610f40565b341561028757600080fd5b6101ee6110cd565b341561029a57600080fd5b610156600160a060020a03600435166110dc565b34156102b957600080fd5b6102c4600435611412565b604051600160a060020a03909216825260208201526040908101905180910390f35b34156102f157600080fd5b610156611448565b341561030457600080fd5b610156600160a060020a03600435166114c1565b341561032357600080fd5b6101ee6114ea565b341561033657600080fd5b610156600160a060020a03600435811690602435166044356114f9565b341561035e57600080fd5b610372600160a060020a03600435166117fa565b604051600160e060020a0319909116815260200160405180910390f35b341561039a57600080fd5b610156600160a060020a0360043516602435600160e060020a03196044351661181e565b34156103c957600080fd5b610156600160a060020a0360043581169060243581169060443516606435611bbb565b34156103f757600080fd5b610156600160a060020a0360043516611ed0565b341561041657600080fd5b610156600435600160a060020a03602435166121e2565b341561043857600080fd5b610156600160a060020a03600435811690602435166044356124bd565b341561046057600080fd5b61024b6127b5565b341561047357600080fd5b610156600160a060020a03600435811690602435166044356127bb565b341561049b57600080fd5b6104af600160a060020a0360043516612aac565b604051918252600160e060020a03191660208201526040908101905180910390f35b34156104dc57600080fd5b6101ee612acb565b600160a060020a03331660009081526020819052604081206001015460e060020a90810281161461051457600080fd5b7f6d696e74546f6b656e730000000000000000000000000000000000000000000060005b60055481101561061857600580548290811061055057fe5b600091825260209091206002909102015460058054600160a060020a039092169163c1786ab29133918590811061058357fe5b9060005260206000209060020201600101548560006040516020015260405160e060020a63ffffffff8616028152600160a060020a03909316600484015260248301919091526044820152606401602060405180830381600087803b15156105ea57600080fd5b6102c65a03f115156105fb57600080fd5b50505060405180519050151561061057600080fd5b600101610538565b83600160a060020a031633600160a060020a03167f21f9c9a1a1f9a311a50f15fec5c1faa9e21fc9edf964f0fdecba5bd490484c5e8760405190815260200160405180910390a3600254600160a060020a03166340c10f19858760006040516020015260405160e060020a63ffffffff8516028152600160a060020a0390921660048301526024820152604401602060405180830381600087803b15156106be57600080fd5b6102c65a03f115156106cf57600080fd5b50505060405180519350505060005b6005548110156107be5760058054829081106106f657fe5b600091825260209091206002909102015460058054600160a060020a0390921691638043154d9133918590811061072957fe5b9060005260206000209060020201600101548560006040516020015260405160e060020a63ffffffff8616028152600160a060020a03909316600484015260248301919091526044820152606401602060405180830381600087803b151561079057600080fd5b6102c65a03f115156107a157600080fd5b5050506040518051905015156107b657600080fd5b6001016106de565b505092915050565b600160a060020a03331660009081526020819052604081206001015460e060020a9081028116146107f657600080fd5b7f6d696e7452657075746174696f6e00000000000000000000000000000000000060005b6005548110156108fa57600580548290811061083257fe5b600091825260209091206002909102015460058054600160a060020a039092169163c1786ab29133918590811061086557fe5b9060005260206000209060020201600101548560006040516020015260405160e060020a63ffffffff8616028152600160a060020a03909316600484015260248301919091526044820152606401602060405180830381600087803b15156108cc57600080fd5b6102c65a03f115156108dd57600080fd5b5050506040518051905015156108f257600080fd5b60010161081a565b83600160a060020a031633600160a060020a03167fb6ced7e295ffd06d19f45bd872b3bd3fd172b1ba53b17ce0543c276d06f5a4228760405190815260200160405180910390a3600354600160a060020a031663fd9bf3aa858760006040516020015260405160e060020a63ffffffff8516028152600160a060020a0390921660048301526024820152604401602060405180830381600087803b15156109a057600080fd5b6102c65a03f115156109b157600080fd5b50505060405180519350505060005b6005548110156107be5760058054829081106109d857fe5b600091825260209091206002909102015460058054600160a060020a0390921691638043154d91339185908110610a0b57fe5b9060005260206000209060020201600101548560006040516020015260405160e060020a63ffffffff8616028152600160a060020a03909316600484015260248301919091526044820152606401602060405180830381600087803b1515610a7257600080fd5b6102c65a03f11515610a8357600080fd5b505050604051805190501515610a9857600080fd5b6001016109c0565b600160a060020a03331660009081526020819052604081206001015460e060020a908102811614610ad057600080fd5b7f67656e65726963416374696f6e0000000000000000000000000000000000000060005b600554811015610bd4576005805482908110610b0c57fe5b600091825260209091206002909102015460058054600160a060020a039092169163c1786ab291339185908110610b3f57fe5b9060005260206000209060020201600101548560006040516020015260405160e060020a63ffffffff8616028152600160a060020a03909316600484015260248301919091526044820152606401602060405180830381600087803b1515610ba657600080fd5b6102c65a03f11515610bb757600080fd5b505050604051805190501515610bcc57600080fd5b600101610af4565b33600160a060020a03167f8518530cc6bc186721ab2fc226031ca054c8484893d8b0c7faab65a58aac238d8560405160208082528190810183818151815260200191508051906020019060200280838360005b83811015610c3f578082015183820152602001610c27565b505050509050019250505060405180910390a2600154600160a060020a0316636ce15a5433866000604051602001526040518363ffffffff1660e060020a0281526004018083600160a060020a0316600160a060020a0316815260200180602001828103825283818151815260200191508051906020019060200280838360005b83811015610cd8578082015183820152602001610cc0565b505050509050019350505050602060405180830381600087803b1515610cfd57600080fd5b6102c65a03f11515610d0e57600080fd5b50505060405180519350505060005b600554811015610dfd576005805482908110610d3557fe5b600091825260209091206002909102015460058054600160a060020a0390921691638043154d91339185908110610d6857fe5b9060005260206000209060020201600101548560006040516020015260405160e060020a63ffffffff8616028152600160a060020a03909316600484015260248301919091526044820152606401602060405180830381600087803b1515610dcf57600080fd5b6102c65a03f11515610de057600080fd5b505050604051805190501515610df557600080fd5b600101610d1d565b5050919050565b600454600160a060020a031681565b6000610e1d612ada565b600160a060020a03331660009081526020819052604090206001015460e060020a027c040000000000000000000000000000000000000000000000000000000090811614610e6a57600080fd5b600160a060020a0384168152602081018390526005805460018101610e8f8382612af1565b600092835260209092208391600202018151815473ffffffffffffffffffffffffffffffffffffffff1916600160a060020a03919091161781556020820151600190910155507f6f3ac186000a779fe66d0a5188f51993a6593d93c4ff052ec0453aa84f09dbcb90508484604051600160a060020a03909216825260208201526040908101905180910390a15060019392505050565b600160a060020a031660009081526020819052604090205490565b600160a060020a033316600090815260208190526040812060010154819060e060020a027c040000000000000000000000000000000000000000000000000000000090811614610f8f57600080fd5b5060005b6005548110156110c25782600160a060020a0316600582815481101515610fb657fe5b6000918252602090912060029091020154600160a060020a031614156110ba576005546000190181101561105957600580546000198101908110610ff657fe5b906000526020600020906002020160058281548110151561101357fe5b600091825260209091208254600290920201805473ffffffffffffffffffffffffffffffffffffffff1916600160a060020a039092169190911781556001918201549101555b600580549061106c906000198301612af1565b507f6ceab662049113d466f7e28b69edbec7cf641bc175522623536b09785887982a8382604051600160a060020a03909216825260208201526040908101905180910390a1600191506110c7565b600101610f93565b600091505b50919050565b600154600160a060020a031681565b600160a060020a03331660009081526020819052604081206001015460e060020a027c02000000000000000000000000000000000000000000000000000000009081161461112957600080fd5b7f756e7265676973746572536368656d650000000000000000000000000000000060005b60055481101561122d57600580548290811061116557fe5b600091825260209091206002909102015460058054600160a060020a039092169163c1786ab29133918590811061119857fe5b9060005260206000209060020201600101548560006040516020015260405160e060020a63ffffffff8616028152600160a060020a03909316600484015260248301919091526044820152606401602060405180830381600087803b15156111ff57600080fd5b6102c65a03f1151561121057600080fd5b50505060405180519050151561122557600080fd5b60010161114d565b600160a060020a03841660009081526020819052604090206001015460e060020a908102161515611261576000925061132e565b33600160a060020a0390811660009081526020819052604080822060019081015493881683529120015460e060020a918202199102167c0f0000000000000000000000000000000000000000000000000000000016156112c057600080fd5b83600160a060020a031633600160a060020a03167f10bb2cf04cb8b902a8e736d494f1a51003be6d4b16ef6fb95ce62c38445023bf60405160405180910390a3600160a060020a03841660009081526020819052604081209081556001908101805463ffffffff1916905592505b5060005b600554811015610dfd57600580548290811061134a57fe5b600091825260209091206002909102015460058054600160a060020a0390921691638043154d9133918590811061137d57fe5b9060005260206000209060020201600101548560006040516020015260405160e060020a63ffffffff8616028152600160a060020a03909316600484015260248301919091526044820152606401602060405180830381600087803b15156113e457600080fd5b6102c65a03f115156113f557600080fd5b50505060405180519050151561140a57600080fd5b600101611332565b600580548290811061142057fe5b600091825260209091206002909102018054600190910154600160a060020a03909116915082565b6000611453336114c1565b1515611461575060006114be565b600160a060020a0333166000818152602081905260408082209182556001909101805463ffffffff1916905581907f10bb2cf04cb8b902a8e736d494f1a51003be6d4b16ef6fb95ce62c38445023bf905160405180910390a35060015b90565b600160a060020a031660009081526020819052604090206001015460e060020a90810216151590565b600354600160a060020a031681565b600160a060020a03331660009081526020819052604081206001015460e060020a90810281161461152957600080fd5b7f65787465726e616c546f6b656e496e637265617365417070726f76616c00000060005b60055481101561162d57600580548290811061156557fe5b600091825260209091206002909102015460058054600160a060020a039092169163c1786ab29133918590811061159857fe5b9060005260206000209060020201600101548560006040516020015260405160e060020a63ffffffff8616028152600160a060020a03909316600484015260248301919091526044820152606401602060405180830381600087803b15156115ff57600080fd5b6102c65a03f1151561161057600080fd5b50505060405180519050151561162557600080fd5b60010161154d565b85600160a060020a031633600160a060020a03167f2cee0640e7c161518a78fa901d8c0e4b2f51d42612532184a4f017a45b01ba288787604051600160a060020a03909216825260208201526040908101905180910390a3600154600160a060020a0316638cf1355c87878760006040516020015260405160e060020a63ffffffff8616028152600160a060020a0393841660048201529190921660248201526044810191909152606401602060405180830381600087803b15156116f157600080fd5b6102c65a03f1151561170257600080fd5b50505060405180519350505060005b6005548110156117f157600580548290811061172957fe5b600091825260209091206002909102015460058054600160a060020a0390921691638043154d9133918590811061175c57fe5b9060005260206000209060020201600101548560006040516020015260405160e060020a63ffffffff8616028152600160a060020a03909316600484015260248301919091526044820152606401602060405180830381600087803b15156117c357600080fd5b6102c65a03f115156117d457600080fd5b5050506040518051905015156117e957600080fd5b600101611711565b50509392505050565b600160a060020a031660009081526020819052604090206001015460e060020a0290565b6000611828612ada565b600160a060020a03331660009081526020819052604090206001015460e060020a027c02000000000000000000000000000000000000000000000000000000009081161461187557600080fd5b7f7265676973746572536368656d6500000000000000000000000000000000000060005b6005548110156119795760058054829081106118b157fe5b600091825260209091206002909102015460058054600160a060020a039092169163c1786ab2913391859081106118e457fe5b9060005260206000209060020201600101548560006040516020015260405160e060020a63ffffffff8616028152600160a060020a03909316600484015260248301919091526044820152606401602060405180830381600087803b151561194b57600080fd5b6102c65a03f1151561195c57600080fd5b50505060405180519050151561197157600080fd5b600101611899565b600160a060020a03871660009081526020819052604090819020908051908101604090815282548252600192830154600160e060020a031960e060020a918202166020808501918252600160a060020a03331660009081529081905292832090940154929650909291021990518718167c0f000000000000000000000000000000000000000000000000000000001614611a1257600080fd5b600160a060020a03331660009081526020818152604082206001015460e060020a021990850151167c0f000000000000000000000000000000000000000000000000000000001614611a6357600080fd5b600160a060020a0387811660008181526020819052604090819020898155600101805463ffffffff191660e060020a8a81170417905590913316907f546816e99403df442acb68ef69562682a50762c20a3fb6b472f7af9923736cfc905160405180910390a3600193505060005b600554811015611bb1576005805482908110611ae957fe5b600091825260209091206002909102015460058054600160a060020a0390921691638043154d91339185908110611b1c57fe5b9060005260206000209060020201600101548560006040516020015260405160e060020a63ffffffff8616028152600160a060020a03909316600484015260248301919091526044820152606401602060405180830381600087803b1515611b8357600080fd5b6102c65a03f11515611b9457600080fd5b505050604051805190501515611ba957600080fd5b600101611ad1565b5050509392505050565b600160a060020a03331660009081526020819052604081206001015460e060020a908102811614611beb57600080fd5b7f65787465726e616c546f6b656e5472616e7366657246726f6d0000000000000060005b600554811015611cef576005805482908110611c2757fe5b600091825260209091206002909102015460058054600160a060020a039092169163c1786ab291339185908110611c5a57fe5b9060005260206000209060020201600101548560006040516020015260405160e060020a63ffffffff8616028152600160a060020a03909316600484015260248301919091526044820152606401602060405180830381600087803b1515611cc157600080fd5b6102c65a03f11515611cd257600080fd5b505050604051805190501515611ce757600080fd5b600101611c0f565b86600160a060020a031633600160a060020a03167f283faba4b8dcfe263728666be500623fdf5ae89ac78e40952fe2493f918ed62c888888604051600160a060020a039384168152919092166020820152604080820192909252606001905180910390a3600154600160a060020a031663b756d5a28888888860006040516020015260405160e060020a63ffffffff8716028152600160a060020a0394851660048201529284166024840152921660448201526064810191909152608401602060405180830381600087803b1515611dc657600080fd5b6102c65a03f11515611dd757600080fd5b50505060405180519350505060005b600554811015611ec6576005805482908110611dfe57fe5b600091825260209091206002909102015460058054600160a060020a0390921691638043154d91339185908110611e3157fe5b9060005260206000209060020201600101548560006040516020015260405160e060020a63ffffffff8616028152600160a060020a03909316600484015260248301919091526044820152606401602060405180830381600087803b1515611e9857600080fd5b6102c65a03f11515611ea957600080fd5b505050604051805190501515611ebe57600080fd5b600101611de6565b5050949350505050565b600160a060020a03331660009081526020819052604081206001015460e060020a027c080000000000000000000000000000000000000000000000000000000090811614611f1d57600080fd5b600454600160a060020a031615611f3357600080fd5b600160a060020a0382161515611f4857600080fd5b6004805473ffffffffffffffffffffffffffffffffffffffff1916600160a060020a03848116919091179091556001541663f2fde38b8360405160e060020a63ffffffff8416028152600160a060020a039091166004820152602401600060405180830381600087803b1515611fbd57600080fd5b6102c65a03f11515611fce57600080fd5b5050600254600160a060020a03308116925016638da5cb5b6000604051602001526040518163ffffffff1660e060020a028152600401602060405180830381600087803b151561201d57600080fd5b6102c65a03f1151561202e57600080fd5b50505060405180519050600160a060020a031614156120ac57600254600160a060020a031663f2fde38b8360405160e060020a63ffffffff8416028152600160a060020a039091166004820152602401600060405180830381600087803b151561209757600080fd5b6102c65a03f115156120a857600080fd5b5050505b600354600160a060020a033081169116638da5cb5b6000604051602001526040518163ffffffff1660e060020a028152600401602060405180830381600087803b15156120f857600080fd5b6102c65a03f1151561210957600080fd5b50505060405180519050600160a060020a0316141561218757600354600160a060020a031663f2fde38b8360405160e060020a63ffffffff8416028152600160a060020a039091166004820152602401600060405180830381600087803b151561217257600080fd5b6102c65a03f1151561218357600080fd5b5050505b6004547fdb7cbacf8df312d794506c0cc9af07f64d29ca075796ea2e950a3832cc9a63dd903090600160a060020a0316604051600160a060020a039283168152911660208201526040908101905180910390a1506001919050565b600160a060020a03331660009081526020819052604081206001015460e060020a90810281161461221257600080fd5b7f73656e644574686572000000000000000000000000000000000000000000000060005b60055481101561231657600580548290811061224e57fe5b600091825260209091206002909102015460058054600160a060020a039092169163c1786ab29133918590811061228157fe5b9060005260206000209060020201600101548560006040516020015260405160e060020a63ffffffff8616028152600160a060020a03909316600484015260248301919091526044820152606401602060405180830381600087803b15156122e857600080fd5b6102c65a03f115156122f957600080fd5b50505060405180519050151561230e57600080fd5b600101612236565b83600160a060020a031633600160a060020a03167fda35e091786fbaaace32084910404a0e3a14f22a7645a4c3d0fec2c6731e3c348760405190815260200160405180910390a3600154600160a060020a031663cb16d4a2868660006040516020015260405160e060020a63ffffffff85160281526004810192909252600160a060020a03166024820152604401602060405180830381600087803b15156123bd57600080fd5b6102c65a03f115156123ce57600080fd5b50505060405180519350505060005b6005548110156107be5760058054829081106123f557fe5b600091825260209091206002909102015460058054600160a060020a0390921691638043154d9133918590811061242857fe5b9060005260206000209060020201600101548560006040516020015260405160e060020a63ffffffff8616028152600160a060020a03909316600484015260248301919091526044820152606401602060405180830381600087803b151561248f57600080fd5b6102c65a03f115156124a057600080fd5b5050506040518051905015156124b557600080fd5b6001016123dd565b600160a060020a03331660009081526020819052604081206001015460e060020a9081028116146124ed57600080fd5b7f65787465726e616c546f6b656e4465637265617365417070726f76616c00000060005b6005548110156125f157600580548290811061252957fe5b600091825260209091206002909102015460058054600160a060020a039092169163c1786ab29133918590811061255c57fe5b9060005260206000209060020201600101548560006040516020015260405160e060020a63ffffffff8616028152600160a060020a03909316600484015260248301919091526044820152606401602060405180830381600087803b15156125c357600080fd5b6102c65a03f115156125d457600080fd5b5050506040518051905015156125e957600080fd5b600101612511565b85600160a060020a031633600160a060020a03167f56fc1f50d44108d3b715d77eb371d388bf2998c65b4eb5cf0ccd6c055be46d498787604051600160a060020a03909216825260208201526040908101905180910390a3600154600160a060020a031663d29ab9c487878760006040516020015260405160e060020a63ffffffff8616028152600160a060020a0393841660048201529190921660248201526044810191909152606401602060405180830381600087803b15156126b557600080fd5b6102c65a03f115156126c657600080fd5b50505060405180519350505060005b6005548110156117f15760058054829081106126ed57fe5b600091825260209091206002909102015460058054600160a060020a0390921691638043154d9133918590811061272057fe5b9060005260206000209060020201600101548560006040516020015260405160e060020a63ffffffff8616028152600160a060020a03909316600484015260248301919091526044820152606401602060405180830381600087803b151561278757600080fd5b6102c65a03f1151561279857600080fd5b5050506040518051905015156127ad57600080fd5b6001016126d5565b60055490565b600160a060020a03331660009081526020819052604081206001015460e060020a9081028116146127eb57600080fd5b7f65787465726e616c546f6b656e5472616e73666572000000000000000000000060005b6005548110156128ef57600580548290811061282757fe5b600091825260209091206002909102015460058054600160a060020a039092169163c1786ab29133918590811061285a57fe5b9060005260206000209060020201600101548560006040516020015260405160e060020a63ffffffff8616028152600160a060020a03909316600484015260248301919091526044820152606401602060405180830381600087803b15156128c157600080fd5b6102c65a03f115156128d257600080fd5b5050506040518051905015156128e757600080fd5b60010161280f565b84600160a060020a031686600160a060020a031633600160a060020a03167fd4c08afec48fd2cbe49032dc89d3b388b7a4e4f0563a1fdccd73339beb025aa18760405190815260200160405180910390a4600154600160a060020a031663dab0efff87878760006040516020015260405160e060020a63ffffffff8616028152600160a060020a0393841660048201529190921660248201526044810191909152606401602060405180830381600087803b15156129ac57600080fd5b6102c65a03f115156129bd57600080fd5b50505060405180519350505060005b6005548110156117f15760058054829081106129e457fe5b600091825260209091206002909102015460058054600160a060020a0390921691638043154d91339185908110612a1757fe5b9060005260206000209060020201600101548560006040516020015260405160e060020a63ffffffff8616028152600160a060020a03909316600484015260248301919091526044820152606401602060405180830381600087803b1515612a7e57600080fd5b6102c65a03f11515612a8f57600080fd5b505050604051805190501515612aa457600080fd5b6001016129cc565b6000602081905290815260409020805460019091015460e060020a0282565b600254600160a060020a031681565b604080519081016040526000808252602082015290565b815481835581811511612b1d57600202816002028360005260206000209182019101612b1d9190612b22565b505050565b6114be91905b80821115612b5a57805473ffffffffffffffffffffffffffffffffffffffff1916815560006001820155600201612b28565b50905600a165627a7a723058200f21ee5ab9aa048368e4ab8bd5581fd2b5289152b7fb81d8646d1db44f3f59190029a165627a7a72305820d051a051e4c082910db9e0ac602ba0fba8b8ddc964f094ab1469cddb116f2fae0029",
  "source": "pragma solidity ^0.4.18;\r\n\r\nimport \"../controller/Avatar.sol\";\r\nimport \"../controller/Controller.sol\";\r\nimport \"../controller/DAOToken.sol\";\r\nimport \"../controller/Reputation.sol\";\r\n\r\n\r\n/**\r\n * @title Genesis Scheme that creates organizations\r\n */\r\n\r\ncontract GenesisScheme {\r\n    DAOToken nativeToken;\r\n    Reputation nativeReputation;\r\n    Avatar avatar;\r\n\r\n    mapping(address=>address) locks;\r\n\r\n    event NewOrg (address _avatar);\r\n    event InitialSchemesSet (address _avatar);\r\n\r\n    address[] addressArray;\r\n    bytes32[] bytes32Array;\r\n    bytes4[] bytes4Array;\r\n\r\n    function GenesisScheme() public {\r\n        addressArray.push(address(this));\r\n        bytes32Array.push(bytes32(0));\r\n        bytes4Array.push(bytes4(0xF));\r\n    }\r\n\r\n    /**\r\n     * @dev Create a new organization\r\n     * @param _orgName The name of the new organization\r\n     * @param _tokenName The name of the token associated with the organization\r\n     * @param _tokenSymbol The symbol of the token\r\n     * @param _founders An array with the addresses of the founders of the organization\r\n     * @param _foundersTokenAmount An array of amount of tokens that the founders\r\n     *  receive in the new organization\r\n     * @param _foundersReputationAmount An array of amount of reputation that the\r\n     *   founders receive in the new organization\r\n     *\r\n     * @return The address of the avatar of the controller\r\n     */\r\n    function forgeOrg (\r\n        bytes32 _orgName,\r\n        string _tokenName,\r\n        string _tokenSymbol,\r\n        address[] _founders,\r\n        uint[] _foundersTokenAmount,\r\n        int[] _foundersReputationAmount\r\n    ) public returns(address)\r\n    {\r\n        // Create Token, Reputation and Avatar:\r\n        nativeToken = new DAOToken(_tokenName, _tokenSymbol);\r\n        nativeReputation = new Reputation();\r\n        avatar = new Avatar(_orgName, nativeToken, nativeReputation);\r\n\r\n        // Create Controller:\r\n        Controller controller = new Controller(avatar, nativeToken, nativeReputation, addressArray, bytes32Array, bytes4Array);\r\n        // Transfer ownership:\r\n        avatar.transferOwnership(controller);\r\n        nativeToken.transferOwnership(controller);\r\n        nativeReputation.transferOwnership(controller);\r\n\r\n        // Mint token and reputation for founders:\r\n        for (uint i = 0 ; i < _founders.length ; i++ ) {\r\n            if (!controller.mintTokens(_foundersTokenAmount[i], _founders[i])) {\r\n                revert();\r\n            }\r\n            if (!controller.mintReputation(_foundersReputationAmount[i], _founders[i])) {\r\n                revert();\r\n            }\r\n        }\r\n\r\n        locks[avatar] = msg.sender;\r\n\r\n        NewOrg (address(avatar));\r\n        return (address(avatar));\r\n    }\r\n\r\n    /**\r\n     * @dev  register some initial schemes\r\n     */\r\n    function setInitialSchemes (\r\n        Avatar _avatar,\r\n        address[] _schemes,\r\n        bytes32[] _params,\r\n        StandardToken[] _token,\r\n        uint[] _fee,\r\n        bytes4[] _permissions\r\n    )\r\n        public\r\n    {\r\n        // this action can only be executed by the account that holds the lock\r\n        // for this controller\r\n        require(locks[address(_avatar)] == msg.sender);\r\n\r\n        // register initial schemes:\r\n        Controller controller = Controller(_avatar.owner());\r\n        for ( uint i = 0 ; i < _schemes.length ; i++ ) {\r\n            // TODO: the approval here is for paying the fee for that scheme later (with registerOrganization())\r\n            // TODO: (continued)  why not have that separate? And why not ask the scheme for its fee, then, instead of passing it here?\r\n            if (_fee[i] != 0) {\r\n                controller.externalTokenIncreaseApproval(_token[i], _schemes[i], _fee[i]);\r\n            }\r\n            controller.registerScheme(_schemes[i], _params[i], _permissions[i]);\r\n        }\r\n\r\n        // Unregister self:\r\n        controller.unregisterScheme(this);\r\n\r\n        // Remove lock:\r\n        delete locks[_avatar];\r\n\r\n        InitialSchemesSet(address(avatar));\r\n    }\r\n}\r\n",
  "sourcePath": "C:\\Users\\dkent\\Documents\\Projects\\GitHub\\DAOStack\\daostack\\contracts\\universalSchemes\\GenesisScheme.sol",
  "compiler": {
    "name": "solc",
    "version": "0.4.18+commit.9cf6e910.Emscripten.clang"
  },
  "schemaVersion": "1.0.1",
  "updatedAt": "2017-12-18T23:28:10.168Z"
}