{
  "contractName": "GenesisScheme",
  "abi": [
    {
      "constant": false,
      "inputs": [
        {
          "name": "_orgName",
          "type": "bytes32"
        },
        {
          "name": "_tokenName",
          "type": "string"
        },
        {
          "name": "_tokenSymbol",
          "type": "string"
        },
        {
          "name": "_founders",
          "type": "address[]"
        },
        {
          "name": "_foundersTokenAmount",
          "type": "uint256[]"
        },
        {
          "name": "_foundersReputationAmount",
          "type": "int256[]"
        }
      ],
      "name": "forgeOrg",
      "outputs": [
        {
          "name": "",
          "type": "address"
        }
      ],
      "payable": false,
      "stateMutability": "nonpayable",
      "type": "function"
    },
    {
      "constant": false,
      "inputs": [
        {
          "name": "_avatar",
          "type": "address"
        },
        {
          "name": "_schemes",
          "type": "address[]"
        },
        {
          "name": "_params",
          "type": "bytes32[]"
        },
        {
          "name": "_token",
          "type": "address[]"
        },
        {
          "name": "_fee",
          "type": "uint256[]"
        },
        {
          "name": "_permissions",
          "type": "bytes4[]"
        }
      ],
      "name": "setInitialSchemes",
      "outputs": [],
      "payable": false,
      "stateMutability": "nonpayable",
      "type": "function"
    },
    {
      "inputs": [],
      "payable": false,
      "stateMutability": "nonpayable",
      "type": "constructor"
    },
    {
      "anonymous": false,
      "inputs": [
        {
          "indexed": false,
          "name": "_avatar",
          "type": "address"
        }
      ],
      "name": "NewOrg",
      "type": "event"
    },
    {
      "anonymous": false,
      "inputs": [
        {
          "indexed": false,
          "name": "_avatar",
          "type": "address"
        }
      ],
      "name": "InitialSchemesSet",
      "type": "event"
    }
  ],
  "bytecode": "0x6060604052341561000f57600080fd5b600480546001810161002183826100ee565b5060009182526020909120018054600160a060020a03191630600160a060020a0316179055600580546001810161005883826100ee565b50600091825260208220015560068054600181016100768382610117565b9160005260206000209060089182820401919006600402600f7c010000000000000000000000000000000000000000000000000000000002909190916101000a81548163ffffffff02191690837c01000000000000000000000000000000000000000000000000000000009004021790555050610168565b81548183558181151161011257600083815260209020610112918101908301610147565b505050565b81548183558181151161011257600701600890048160070160089004836000526020600020918201910161011291905b61016591905b80821115610161576000815560010161014d565b5090565b90565b61573b80620001786000396000f3006060604052600436106100325763ffffffff60e060020a6000350416638bcd1c348114610037578063ebd424ec146101ab575b600080fd5b341561004257600080fd5b61018f600480359060446024803590810190830135806020601f8201819004810201604051908101604052818152929190602084018383808284378201915050505050509190803590602001908201803590602001908080601f01602080910402602001604051908101604052818152929190602084018383808284378201915050505050509190803590602001908201803590602001908080602002602001604051908101604052809392919081815260200183836020028082843782019150505050505091908035906020019082018035906020019080806020026020016040519081016040528093929190818152602001838360200280828437820191505050505050919080359060200190820180359060200190808060200260200160405190810160405280939291908181526020018383602002808284375094965061030a95505050505050565b604051600160a060020a03909116815260200160405180910390f35b34156101b657600080fd5b61030860048035600160a060020a0316906044602480359081019083013580602080820201604051908101604052809392919081815260200183836020028082843782019150505050505091908035906020019082018035906020019080806020026020016040519081016040528093929190818152602001838360200280828437820191505050505050919080359060200190820180359060200190808060200260200160405190810160405280939291908181526020018383602002808284378201915050505050509190803590602001908201803590602001908080602002602001604051908101604052809392919081815260200183836020028082843782019150505050505091908035906020019082018035906020019080806020026020016040519081016040528093929190818152602001838360200280828437509496506109a095505050505050565b005b60008060008787610319610cdd565b808060200180602001838103835285818151815260200191508051906020019080838360005b8381101561035757808201518382015260200161033f565b50505050905090810190601f1680156103845780820380516001836020036101000a031916815260200191505b50838103825284818151815260200191508051906020019080838360005b838110156103ba5780820151838201526020016103a2565b50505050905090810190601f1680156103e75780820380516001836020036101000a031916815260200191505b50945050505050604051809103906000f080151561040457600080fd5b6000805473ffffffffffffffffffffffffffffffffffffffff1916600160a060020a0392909216919091179055610439610ced565b604051809103906000f080151561044f57600080fd5b6001805473ffffffffffffffffffffffffffffffffffffffff1916600160a060020a0392831617908190556000548b92908116911661048c610cfd565b928352600160a060020a0391821660208401521660408083019190915260609091019051809103906000f08015156104c357600080fd5b6002805473ffffffffffffffffffffffffffffffffffffffff1916600160a060020a03928316179081905560005460015491831692908116911660046005600661050b610d0d565b600160a060020a03808816825286811660208301528516604082015260c060608201818152855491830182905290608083019060a084019060e08501908890801561057f57602002820191906000526020600020905b8154600160a060020a03168152600190910190602001808311610561575b505084810383528681815481526020019150805480156105bf57602002820191906000526020600020905b815481526001909101906020018083116105aa575b5050848103825285818154815260200191508054801561064357602002820191906000526020600020906000905b82829054906101000a900460e060020a027bffffffffffffffffffffffffffffffffffffffffffffffffffffffff1916815260200190600401906020826003010492830192600103820291508084116105ed5790505b50509950505050505050505050604051809103906000f080151561066657600080fd5b600254909250600160a060020a031663f2fde38b8360405160e060020a63ffffffff8416028152600160a060020a039091166004820152602401600060405180830381600087803b15156106b957600080fd5b6102c65a03f115156106ca57600080fd5b5050600054600160a060020a0316905063f2fde38b8360405160e060020a63ffffffff8416028152600160a060020a039091166004820152602401600060405180830381600087803b151561071e57600080fd5b6102c65a03f1151561072f57600080fd5b5050600154600160a060020a0316905063f2fde38b8360405160e060020a63ffffffff8416028152600160a060020a039091166004820152602401600060405180830381600087803b151561078357600080fd5b6102c65a03f1151561079457600080fd5b505050600090505b85518110156109095781600160a060020a03166310c5b3288683815181106107c057fe5b906020019060200201518884815181106107d657fe5b9060200190602002015160006040516020015260405160e060020a63ffffffff85160281526004810192909252600160a060020a03166024820152604401602060405180830381600087803b151561082d57600080fd5b6102c65a03f1151561083e57600080fd5b50505060405180519050151561085357600080fd5b81600160a060020a03166318e236e485838151811061086e57fe5b9060200190602002015188848151811061088457fe5b9060200190602002015160006040516020015260405160e060020a63ffffffff85160281526004810192909252600160a060020a03166024820152604401602060405180830381600087803b15156108db57600080fd5b6102c65a03f115156108ec57600080fd5b50505060405180519050151561090157600080fd5b60010161079c565b60028054600160a060020a0390811660009081526003602052604090819020805473ffffffffffffffffffffffffffffffffffffffff191633841617905591547f244496352f5e67e59ce96b4a53ef9ea7cb88b7db33eb13dc5e771bd04385a60e9291169051600160a060020a03909116815260200160405180910390a15050600254600160a060020a0316979650505050505050565b600160a060020a03868116600090815260036020526040812054909182913382169116146109cd57600080fd5b87600160a060020a0316638da5cb5b6000604051602001526040518163ffffffff1660e060020a028152600401602060405180830381600087803b1515610a1357600080fd5b6102c65a03f11515610a2457600080fd5b5050506040518051925060009150505b8651811015610beb5781600160a060020a03166379c6ad9e868381518110610a5857fe5b90602001906020020151898481518110610a6e57fe5b90602001906020020151878581518110610a8457fe5b9060200190602002015160006040516020015260405160e060020a63ffffffff8616028152600160a060020a0393841660048201529190921660248201526044810191909152606401602060405180830381600087803b1515610ae657600080fd5b6102c65a03f11515610af757600080fd5b50505060405180515050600160a060020a03821663a34abaa8888381518110610b1c57fe5b90602001906020020151888481518110610b3257fe5b90602001906020020151868581518110610b4857fe5b9060200190602002015160006040516020015260405160e060020a63ffffffff8616028152600160a060020a03909316600484015260248301919091527fffffffff00000000000000000000000000000000000000000000000000000000166044820152606401602060405180830381600087803b1515610bc857600080fd5b6102c65a03f11515610bd957600080fd5b50505060405180515050600101610a34565b81600160a060020a031663653915e53060006040516020015260405160e060020a63ffffffff8416028152600160a060020a039091166004820152602401602060405180830381600087803b1515610c4257600080fd5b6102c65a03f11515610c5357600080fd5b50505060405180515050600160a060020a0380891660009081526003602052604090819020805473ffffffffffffffffffffffffffffffffffffffff191690556002547f9007c9042f12be953f7dbe3909f56c3f088e9fe294dbebbef4a67afa63462b6a92169051600160a060020a03909116815260200160405180910390a15050505050505050565b60405161110880610d1e83390190565b6040516104ab80611e2683390190565b6040516109c0806122d183390190565b604051612a7f80612c9183390190560060606040526003805460a060020a60ff0219169055601260065534156200002557600080fd5b60405162001108380380620011088339810160405280805182019190602001805160038054600160a060020a03191633600160a060020a031617905591909101905060048280516200007c9291602001906200009b565b506005818051620000929291602001906200009b565b50505062000140565b828054600181600116156101000203166002900490600052602060002090601f016020900481019282601f10620000de57805160ff19168380011785556200010e565b828001600101855582156200010e579182015b828111156200010e578251825591602001919060010190620000f1565b506200011c92915062000120565b5090565b6200013d91905b808211156200011c576000815560010162000127565b90565b610fb880620001506000396000f30060606040526004361061011c5763ffffffff7c010000000000000000000000000000000000000000000000000000000060003504166305d2035b811461012157806306fdde0314610148578063095ea7b3146101d25780631338736f146101f457806318160ddd1461020f57806323b872dd14610234578063313ce5671461025c57806340c10f191461026f578063661884631461029157806370a08231146102b35780637d64bcb4146102d257806383197ef0146102e55780638778f590146102f85780638b96dca31461031d5780638da5cb5b1461033057806395d89b411461035f578063a9059cbb14610372578063d73dd62314610394578063dd62ed3e146103b6578063f2fde38b146103db578063f5074f41146103fa575b600080fd5b341561012c57600080fd5b610134610419565b604051901515815260200160405180910390f35b341561015357600080fd5b61015b610429565b60405160208082528190810183818151815260200191508051906020019080838360005b8381101561019757808201518382015260200161017f565b50505050905090810190601f1680156101c45780820380516001836020036101000a031916815260200191505b509250505060405180910390f35b34156101dd57600080fd5b610134600160a060020a03600435166024356104c7565b34156101ff57600080fd5b61020d600435602435610534565b005b341561021a57600080fd5b610222610543565b60405190815260200160405180910390f35b341561023f57600080fd5b610134600160a060020a0360043581169060243516604435610549565b341561026757600080fd5b6102226105e3565b341561027a57600080fd5b610134600160a060020a03600435166024356105e9565b341561029c57600080fd5b610134600160a060020a03600435166024356106f6565b34156102be57600080fd5b610222600160a060020a03600435166107f0565b34156102dd57600080fd5b61013461080b565b34156102f057600080fd5b61020d610896565b341561030357600080fd5b610134600160a060020a03600435166024356044356108bf565b341561032857600080fd5b61020d6108d8565b341561033b57600080fd5b610343610954565b604051600160a060020a03909116815260200160405180910390f35b341561036a57600080fd5b61015b610963565b341561037d57600080fd5b610134600160a060020a03600435166024356109ce565b341561039f57600080fd5b610134600160a060020a0360043516602435610a60565b34156103c157600080fd5b610222600160a060020a0360043581169060243516610b04565b34156103e657600080fd5b61020d600160a060020a0360043516610b2f565b341561040557600080fd5b61020d600160a060020a0360043516610bca565b60035460a060020a900460ff1681565b60048054600181600116156101000203166002900480601f0160208091040260200160405190810160405280929190818152602001828054600181600116156101000203166002900480156104bf5780601f10610494576101008083540402835291602001916104bf565b820191906000526020600020905b8154815290600101906020018083116104a257829003601f168201915b505050505081565b600160a060020a03338116600081815260026020908152604080832094871680845294909152808220859055909291907f8c5be1e5ebec7d5bd14f71427d1e84f3dd0314c0f7b2291e5b200ac8c7c3b9259085905190815260200160405180910390a35060015b92915050565b61053f338383610bf1565b5050565b60005481565b600160a060020a038316600090815260076020526040812060010154439011156105ad57600160a060020a0384166000908152600760209081526040808320546001909252909120546105a2908463ffffffff610cee16565b10156105ad57600080fd5b6105b8848484610d00565b905030600160a060020a031683600160a060020a031614156105dc576105dc6108d8565b9392505050565b60065481565b60035460009033600160a060020a0390811691161461060757600080fd5b60035460a060020a900460ff161561061e57600080fd5b600054610631908363ffffffff610e8216565b6000908155600160a060020a03841681526001602052604090205461065c908363ffffffff610e8216565b600160a060020a0384166000818152600160205260409081902092909255907f0f6798a560793a54c3bcfe86a93cde1e73087d944c0ea20544137d41213968859084905190815260200160405180910390a2600160a060020a03831660007fddf252ad1be2c89b69c2b068fc378daa952ba7f163c4a11628f55a4df523b3ef8460405190815260200160405180910390a350600192915050565b600160a060020a0333811660009081526002602090815260408083209386168352929052908120548083111561075357600160a060020a03338116600090815260026020908152604080832093881683529290529081205561078a565b610763818463ffffffff610cee16565b600160a060020a033381166000908152600260209081526040808320938916835292905220555b600160a060020a0333811660008181526002602090815260408083209489168084529490915290819020547f8c5be1e5ebec7d5bd14f71427d1e84f3dd0314c0f7b2291e5b200ac8c7c3b925915190815260200160405180910390a35060019392505050565b600160a060020a031660009081526001602052604090205490565b60035460009033600160a060020a0390811691161461082957600080fd5b60035460a060020a900460ff161561084057600080fd5b6003805474ff0000000000000000000000000000000000000000191660a060020a1790557fae5184fba832cb2b1f702aca6117b8d265eaf03ad33eb133f19dde0f5920fa0860405160405180910390a150600190565b60035433600160a060020a039081169116146108b157600080fd5b600354600160a060020a0316ff5b60006108cb84846105e9565b90506105dc848484610bf1565b600160a060020a03301660009081526001602052604081205490546109029163ffffffff610cee16565b6000908155600160a060020a0330168152600160205260408082208290557fb90306ad06b2a6ff86ddc9327db583062895ef6540e62dc50add009db5b356eb91905190815260200160405180910390a1565b600354600160a060020a031681565b60058054600181600116156101000203166002900480601f0160208091040260200160405190810160405280929190818152602001828054600181600116156101000203166002900480156104bf5780601f10610494576101008083540402835291602001916104bf565b600160a060020a03331660009081526007602052604081206001015443901115610a3257600160a060020a033316600090815260076020908152604080832054600190925290912054610a27908463ffffffff610cee16565b1015610a3257600080fd5b610a3c8383610e91565b905030600160a060020a031683600160a060020a0316141561052e5761052e6108d8565b600160a060020a033381166000908152600260209081526040808320938616835292905290812054610a98908363ffffffff610e8216565b600160a060020a0333811660008181526002602090815260408083209489168084529490915290819020849055919290917f8c5be1e5ebec7d5bd14f71427d1e84f3dd0314c0f7b2291e5b200ac8c7c3b92591905190815260200160405180910390a350600192915050565b600160a060020a03918216600090815260026020908152604080832093909416825291909152205490565b60035433600160a060020a03908116911614610b4a57600080fd5b600160a060020a0381161515610b5f57600080fd5b600354600160a060020a0380831691167f8be0079c531659141344cd1fd0a4f28419497f9722a3daafe3b4186f6b6457e060405160405180910390a36003805473ffffffffffffffffffffffffffffffffffffffff1916600160a060020a0392909216919091179055565b60035433600160a060020a03908116911614610be557600080fd5b80600160a060020a0316ff5b811515610bfd57600080fd5b600160a060020a038316600090815260016020526040902054821115610c2257600080fd5b600160a060020a03831660009081526007602052604090206001015443901115610c9357600160a060020a038316600090815260076020526040902054821015610c6b57600080fd5b600160a060020a038316600090815260076020526040902060010154811015610c9357600080fd5b600160a060020a038316600081815260076020526040908190208481556001018390557fb28c000ac15ab34ecd2967bf80e42da8695d031d8ab47459e5b4f747607d63f69084905190815260200160405180910390a2505050565b600082821115610cfa57fe5b50900390565b6000600160a060020a0383161515610d1757600080fd5b600160a060020a038416600090815260016020526040902054821115610d3c57600080fd5b600160a060020a0380851660009081526002602090815260408083203390941683529290522054821115610d6f57600080fd5b600160a060020a038416600090815260016020526040902054610d98908363ffffffff610cee16565b600160a060020a038086166000908152600160205260408082209390935590851681522054610dcd908363ffffffff610e8216565b600160a060020a03808516600090815260016020908152604080832094909455878316825260028152838220339093168252919091522054610e15908363ffffffff610cee16565b600160a060020a03808616600081815260026020908152604080832033861684529091529081902093909355908516917fddf252ad1be2c89b69c2b068fc378daa952ba7f163c4a11628f55a4df523b3ef9085905190815260200160405180910390a35060019392505050565b6000828201838110156105dc57fe5b6000600160a060020a0383161515610ea857600080fd5b600160a060020a033316600090815260016020526040902054821115610ecd57600080fd5b600160a060020a033316600090815260016020526040902054610ef6908363ffffffff610cee16565b600160a060020a033381166000908152600160205260408082209390935590851681522054610f2b908363ffffffff610e8216565b600160a060020a0380851660008181526001602052604090819020939093559133909116907fddf252ad1be2c89b69c2b068fc378daa952ba7f163c4a11628f55a4df523b3ef9085905190815260200160405180910390a3506001929150505600a165627a7a72305820a7510a1a74480556b5cddad9adf17bc10bf3a712be8be5c2a8ffb132791dd86d002960606040526012600355341561001457600080fd5b60008054600160a060020a033316600160a060020a0319909116811782558152600160205260408120819055600255610459806100526000396000f3006060604052600436106100825763ffffffff7c010000000000000000000000000000000000000000000000000000000060003504166318160ddd8114610087578063313ce567146100ac5780638da5cb5b146100bf578063b120c16a146100ee578063db89c04414610124578063f2fde38b14610143578063fd9bf3aa14610164575b600080fd5b341561009257600080fd5b61009a610186565b60405190815260200160405180910390f35b34156100b757600080fd5b61009a61018c565b34156100ca57600080fd5b6100d2610192565b604051600160a060020a03909116815260200160405180910390f35b34156100f957600080fd5b610110600160a060020a03600435166024356101a1565b604051901515815260200160405180910390f35b341561012f57600080fd5b61009a600160a060020a0360043516610222565b341561014e57600080fd5b610162600160a060020a036004351661023d565b005b341561016f57600080fd5b610110600160a060020a03600435166024356102d8565b60025481565b60035481565b600054600160a060020a031681565b6000805433600160a060020a039081169116146101bd57600080fd5b600160a060020a0383166000908152600160205260409020546002546101fa9184916101ee9163ffffffff61040516565b9063ffffffff61041716565b60025550600160a060020a038216600090815260016020819052604090912082905592915050565b600160a060020a031660009081526001602052604090205490565b60005433600160a060020a0390811691161461025857600080fd5b600160a060020a038116151561026d57600080fd5b600054600160a060020a0380831691167f8be0079c531659141344cd1fd0a4f28419497f9722a3daafe3b4186f6b6457e060405160405180910390a36000805473ffffffffffffffffffffffffffffffffffffffff1916600160a060020a0392909216919091179055565b60008054819033600160a060020a039081169116146102f657600080fd5b6000831261035e57506002548290610314908263ffffffff61041716565b600255600160a060020a038416600090815260016020526040902054610340908263ffffffff61041716565b600160a060020a0385166000908152600160205260409020556103be565b50600254600019830290610378908263ffffffff61040516565b600255600160a060020a0384166000908152600160205260409020546103a4908263ffffffff61040516565b600160a060020a0385166000908152600160205260409020555b83600160a060020a03167f6f734b566c5e1cb976d9c7fba184b96a698a18931dd345168b16db217f8df0dd8460405190815260200160405180910390a25060019392505050565b60008282111561041157fe5b50900390565b60008282018381101561042657fe5b93925050505600a165627a7a723058205fb2a19f53b9d790f73423e0b09ad7e7b57c679577d9878283840a9cf06ad3c700296060604052341561000f57600080fd5b6040516060806109c083398101604052808051919060200180519190602001805160008054600160a060020a03338116600160a060020a03199283161790925560019690965560028054958216958716959095179094556003805494909116939094169290921790925550506109368061008a6000396000f3006060604052600436106100955763ffffffff60e060020a6000350416631386dc2d81146100d45780633df4062e146100f95780636ce15a541461012f57806379c6ad9e1461018c57806389ae1c90146101b45780638da5cb5b146101e3578063b756d5a2146101f6578063cb16d4a214610224578063dab0efff14610246578063e1758bd81461026e578063f2fde38b14610281575b33600160a060020a03167ff32a9f77675fd5917534c7746608fd3e309eac68fbdcbf5925e24ca97a7043963460405190815260200160405180910390a2005b34156100df57600080fd5b6100e76102a2565b60405190815260200160405180910390f35b341561010457600080fd5b61011b600160a060020a03600435166024356102a8565b604051901515815260200160405180910390f35b341561013a57600080fd5b61011b60048035600160a060020a031690604460248035908101908301358060208082020160405190810160405280939291908181526020018383602002808284375094965061039795505050505050565b341561019757600080fd5b61011b600160a060020a03600435811690602435166044356104d7565b34156101bf57600080fd5b6101c76105c3565b604051600160a060020a03909116815260200160405180910390f35b34156101ee57600080fd5b6101c76105d2565b341561020157600080fd5b61011b600160a060020a03600435811690602435811690604435166064356105e1565b341561022f57600080fd5b61011b600435600160a060020a03602435166106e7565b341561025157600080fd5b61011b600160a060020a036004358116906024351660443561077a565b341561027957600080fd5b6101c7610860565b341561028c57600080fd5b6102a0600160a060020a036004351661086f565b005b60015481565b6000805433600160a060020a039081169116146102c457600080fd5b82600160a060020a03166323b872dd33338560006040516020015260405160e060020a63ffffffff8616028152600160a060020a0393841660048201529190921660248201526044810191909152606401602060405180830381600087803b151561032e57600080fd5b6102c65a03f1151561033f57600080fd5b50505060405180519050507fd23e88ecf1a38ccd3a7b62b200c5f7975695cab040e26939826be9dc15f573198383604051600160a060020a03909216825260208201526040908101905180910390a150600192915050565b6000805433600160a060020a039081169116146103b357600080fd5b82600160a060020a03167f8518530cc6bc186721ab2fc226031ca054c8484893d8b0c7faab65a58aac238d8360405160208082528190810183818151815260200191508051906020019060200280838360005b8381101561041e578082015183820152602001610406565b505050509050019250505060405180910390a282600160a060020a03166040517f616374696f6e2875696e743235365b5d290000000000000000000000000000008152601101604051809103902060e060020a9004836040518263ffffffff1660e060020a02815260040180828051906020019060200280838360005b838110156104b357808201518382015260200161049b565b505050509050019150506000604051808303818661646e5a03f49695505050505050565b6000805433600160a060020a039081169116146104f357600080fd5b83600160a060020a031663095ea7b3848460006040516020015260405160e060020a63ffffffff8516028152600160a060020a0390921660048301526024820152604401602060405180830381600087803b151561055057600080fd5b6102c65a03f1151561056157600080fd5b50505060405180515050600160a060020a0384167f15027ced8d0b6b382affbb51de0e1f48bb24ac55be01ca51537a5f9c4aeb35aa8484604051600160a060020a03909216825260208201526040908101905180910390a25060019392505050565b600354600160a060020a031681565b600054600160a060020a031681565b6000805433600160a060020a039081169116146105fd57600080fd5b84600160a060020a03166323b872dd85858560006040516020015260405160e060020a63ffffffff8616028152600160a060020a0393841660048201529190921660248201526044810191909152606401602060405180830381600087803b151561066757600080fd5b6102c65a03f1151561067857600080fd5b50505060405180515050600160a060020a0385167f179c15de44aa7ab84896301974328eb40b5b40fe01cfe0fee2924ea712c3e843858585604051600160a060020a039384168152919092166020820152604080820192909252606001905180910390a2506001949350505050565b6000805433600160a060020a0390811691161461070357600080fd5b600160a060020a03821683156108fc0284604051600060405180830381858888f19350505050151561073457600080fd5b81600160a060020a03167f22fca66666089f39bc900dd6605b489df4aae6260cc8ea8257594cfb8c84926c8460405190815260200160405180910390a250600192915050565b6000805433600160a060020a0390811691161461079657600080fd5b83600160a060020a031663a9059cbb848460006040516020015260405160e060020a63ffffffff8516028152600160a060020a0390921660048301526024820152604401602060405180830381600087803b15156107f357600080fd5b6102c65a03f1151561080457600080fd5b505050604051805190505082600160a060020a031684600160a060020a03167f49dc2a60d2599a7b6932d78fb694c30dfc596fe4e0282b5d0fd184b52472c04d8460405190815260200160405180910390a35060019392505050565b600254600160a060020a031681565b60005433600160a060020a0390811691161461088a57600080fd5b600160a060020a038116151561089f57600080fd5b600054600160a060020a0380831691167f8be0079c531659141344cd1fd0a4f28419497f9722a3daafe3b4186f6b6457e060405160405180910390a36000805473ffffffffffffffffffffffffffffffffffffffff1916600160a060020a03929092169190911790555600a165627a7a723058206bab15fc7399f52c11514c83b0fd80f64f293c50f401a61a66106adbe98de2590029606060405234156200001057600080fd5b60405162002a7f38038062002a7f8339810160405280805191906020018051919060200180519190602001805182019190602001805182019190602001805160018054600160a060020a03808b16600160a060020a031992831617909255600280548a84169083161790556003805492891692909116919091179055909101905060005b8351811015620001f1576040805190810160405280848381518110620000b657fe5b9060200190602002015181526020017c0100000000000000000000000000000000000000000000000000000000848481518110620000f057fe5b90602001906020020151177fffffffff000000000000000000000000000000000000000000000000000000001690526000808684815181106200012f57fe5b90602001906020020151600160a060020a031681526020810191909152604001600020815181556020820151600191909101805463ffffffff19167c0100000000000000000000000000000000000000000000000000000000909204919091179055508381815181106200019f57fe5b90602001906020020151600160a060020a031633600160a060020a03167f546816e99403df442acb68ef69562682a50762c20a3fb6b472f7af9923736cfc60405160405180910390a360010162000094565b5050505050505061287780620002086000396000f3006060604052600436106101195763ffffffff60e060020a60003504166310c5b328811461012957806318e236e41461015f5780633a02263c1461018157806346a4869c146101b057806346e361b7146101d2578063488b3814146102035780635aef7de614610222578063653915e51461023557806365ab1ae8146102545780636bafaa591461028c5780636ce15a541461029f57806379c6ad9e146102fc57806381d064c41461032457806389ae1c90146103435780639fe0272614610356578063a34abaa814610392578063b756d5a2146103c1578063b9c2ee82146103ef578063cb16d4a21461040e578063d5210f6014610430578063dab0efff14610443578063db6149ce1461046b578063e1758bd8146104ac575b341561012457600080fd5b600080fd5b341561013457600080fd5b61014b600435600160a060020a03602435166104bf565b604051901515815260200160405180910390f35b341561016a57600080fd5b61014b600435600160a060020a03602435166107a1565b341561018c57600080fd5b610194610a7b565b604051600160a060020a03909116815260200160405180910390f35b34156101bb57600080fd5b61014b600160a060020a0360043516602435610a8a565b34156101dd57600080fd5b6101f1600160a060020a0360043516610b9c565b60405190815260200160405180910390f35b341561020e57600080fd5b61014b600160a060020a0360043516610bb7565b341561022d57600080fd5b610194610d44565b341561024057600080fd5b61014b600160a060020a0360043516610d53565b341561025f57600080fd5b61026a600435611090565b604051600160a060020a03909216825260208201526040908101905180910390f35b341561029757600080fd5b61014b6110c6565b34156102aa57600080fd5b61014b60048035600160a060020a031690604460248035908101908301358060208082020160405190810160405280939291908181526020018383602002808284375094965061113f95505050505050565b341561030757600080fd5b61014b600160a060020a03600435811690602435166044356114a6565b341561032f57600080fd5b61014b600160a060020a03600435166117a7565b341561034e57600080fd5b6101946117d0565b341561036157600080fd5b610375600160a060020a03600435166117df565b604051600160e060020a0319909116815260200160405180910390f35b341561039d57600080fd5b61014b600160a060020a0360043516602435600160e060020a031960443516611803565b34156103cc57600080fd5b61014b600160a060020a0360043581169060243581169060443516606435611ba0565b34156103fa57600080fd5b61014b600160a060020a0360043516611eb5565b341561041957600080fd5b61014b600435600160a060020a03602435166121c7565b341561043b57600080fd5b6101f16124a2565b341561044e57600080fd5b61014b600160a060020a03600435811690602435166044356124a8565b341561047657600080fd5b61048a600160a060020a0360043516612799565b604051918252600160e060020a03191660208201526040908101905180910390f35b34156104b757600080fd5b6101946127b8565b600160a060020a03331660009081526020819052604081206001015460e060020a9081028116146104ef57600080fd5b7f6d696e74546f6b656e730000000000000000000000000000000000000000000060005b6005548110156105f357600580548290811061052b57fe5b600091825260209091206002909102015460058054600160a060020a039092169163c1786ab29133918590811061055e57fe5b9060005260206000209060020201600101548560006040516020015260405160e060020a63ffffffff8616028152600160a060020a03909316600484015260248301919091526044820152606401602060405180830381600087803b15156105c557600080fd5b6102c65a03f115156105d657600080fd5b5050506040518051905015156105eb57600080fd5b600101610513565b83600160a060020a031633600160a060020a03167f21f9c9a1a1f9a311a50f15fec5c1faa9e21fc9edf964f0fdecba5bd490484c5e8760405190815260200160405180910390a3600254600160a060020a03166340c10f19858760006040516020015260405160e060020a63ffffffff8516028152600160a060020a0390921660048301526024820152604401602060405180830381600087803b151561069957600080fd5b6102c65a03f115156106aa57600080fd5b50505060405180519350505060005b6005548110156107995760058054829081106106d157fe5b600091825260209091206002909102015460058054600160a060020a0390921691638043154d9133918590811061070457fe5b9060005260206000209060020201600101548560006040516020015260405160e060020a63ffffffff8616028152600160a060020a03909316600484015260248301919091526044820152606401602060405180830381600087803b151561076b57600080fd5b6102c65a03f1151561077c57600080fd5b50505060405180519050151561079157600080fd5b6001016106b9565b505092915050565b600160a060020a03331660009081526020819052604081206001015460e060020a9081028116146107d157600080fd5b7f6d696e7452657075746174696f6e00000000000000000000000000000000000060005b6005548110156108d557600580548290811061080d57fe5b600091825260209091206002909102015460058054600160a060020a039092169163c1786ab29133918590811061084057fe5b9060005260206000209060020201600101548560006040516020015260405160e060020a63ffffffff8616028152600160a060020a03909316600484015260248301919091526044820152606401602060405180830381600087803b15156108a757600080fd5b6102c65a03f115156108b857600080fd5b5050506040518051905015156108cd57600080fd5b6001016107f5565b83600160a060020a031633600160a060020a03167fb6ced7e295ffd06d19f45bd872b3bd3fd172b1ba53b17ce0543c276d06f5a4228760405190815260200160405180910390a3600354600160a060020a031663fd9bf3aa858760006040516020015260405160e060020a63ffffffff8516028152600160a060020a0390921660048301526024820152604401602060405180830381600087803b151561097b57600080fd5b6102c65a03f1151561098c57600080fd5b50505060405180519350505060005b6005548110156107995760058054829081106109b357fe5b600091825260209091206002909102015460058054600160a060020a0390921691638043154d913391859081106109e657fe5b9060005260206000209060020201600101548560006040516020015260405160e060020a63ffffffff8616028152600160a060020a03909316600484015260248301919091526044820152606401602060405180830381600087803b1515610a4d57600080fd5b6102c65a03f11515610a5e57600080fd5b505050604051805190501515610a7357600080fd5b60010161099b565b600454600160a060020a031681565b6000610a946127c7565b600160a060020a03331660009081526020819052604090206001015460e060020a027c040000000000000000000000000000000000000000000000000000000090811614610ae157600080fd5b600160a060020a0384168152602081018390526005805460018101610b0683826127de565b600092835260209092208391600202018151815473ffffffffffffffffffffffffffffffffffffffff1916600160a060020a03919091161781556020820151600190910155507f6f3ac186000a779fe66d0a5188f51993a6593d93c4ff052ec0453aa84f09dbcb90508484604051600160a060020a03909216825260208201526040908101905180910390a15060019392505050565b600160a060020a031660009081526020819052604090205490565b600160a060020a033316600090815260208190526040812060010154819060e060020a027c040000000000000000000000000000000000000000000000000000000090811614610c0657600080fd5b5060005b600554811015610d395782600160a060020a0316600582815481101515610c2d57fe5b6000918252602090912060029091020154600160a060020a03161415610d315760055460001901811015610cd057600580546000198101908110610c6d57fe5b9060005260206000209060020201600582815481101515610c8a57fe5b600091825260209091208254600290920201805473ffffffffffffffffffffffffffffffffffffffff1916600160a060020a039092169190911781556001918201549101555b6005805490610ce39060001983016127de565b507f6ceab662049113d466f7e28b69edbec7cf641bc175522623536b09785887982a8382604051600160a060020a03909216825260208201526040908101905180910390a160019150610d3e565b600101610c0a565b600091505b50919050565b600154600160a060020a031681565b600160a060020a03331660009081526020819052604081206001015460e060020a027c020000000000000000000000000000000000000000000000000000000090811614610da057600080fd5b7f756e7265676973746572536368656d650000000000000000000000000000000060005b600554811015610ea4576005805482908110610ddc57fe5b600091825260209091206002909102015460058054600160a060020a039092169163c1786ab291339185908110610e0f57fe5b9060005260206000209060020201600101548560006040516020015260405160e060020a63ffffffff8616028152600160a060020a03909316600484015260248301919091526044820152606401602060405180830381600087803b1515610e7657600080fd5b6102c65a03f11515610e8757600080fd5b505050604051805190501515610e9c57600080fd5b600101610dc4565b600160a060020a03841660009081526020819052604090206001015460e060020a908102161515610ed85760009250610fa5565b33600160a060020a0390811660009081526020819052604080822060019081015493881683529120015460e060020a918202199102167c0f000000000000000000000000000000000000000000000000000000001615610f3757600080fd5b83600160a060020a031633600160a060020a03167f10bb2cf04cb8b902a8e736d494f1a51003be6d4b16ef6fb95ce62c38445023bf60405160405180910390a3600160a060020a03841660009081526020819052604081209081556001908101805463ffffffff1916905592505b5060005b600554811015611089576005805482908110610fc157fe5b600091825260209091206002909102015460058054600160a060020a0390921691638043154d91339185908110610ff457fe5b9060005260206000209060020201600101548560006040516020015260405160e060020a63ffffffff8616028152600160a060020a03909316600484015260248301919091526044820152606401602060405180830381600087803b151561105b57600080fd5b6102c65a03f1151561106c57600080fd5b50505060405180519050151561108157600080fd5b600101610fa9565b5050919050565b600580548290811061109e57fe5b600091825260209091206002909102018054600190910154600160a060020a03909116915082565b60006110d1336117a7565b15156110df5750600061113c565b600160a060020a0333166000818152602081905260408082209182556001909101805463ffffffff1916905581907f10bb2cf04cb8b902a8e736d494f1a51003be6d4b16ef6fb95ce62c38445023bf905160405180910390a35060015b90565b600160a060020a03331660009081526020819052604081206001015460e060020a90810281161461116f57600080fd5b7f67656e65726963416374696f6e0000000000000000000000000000000000000060005b6005548110156112735760058054829081106111ab57fe5b600091825260209091206002909102015460058054600160a060020a039092169163c1786ab2913391859081106111de57fe5b9060005260206000209060020201600101548560006040516020015260405160e060020a63ffffffff8616028152600160a060020a03909316600484015260248301919091526044820152606401602060405180830381600087803b151561124557600080fd5b6102c65a03f1151561125657600080fd5b50505060405180519050151561126b57600080fd5b600101611193565b84600160a060020a031633600160a060020a03167fa780f470f73c5b728f451407660985d55be1b49386ec1a65a0b20d09f12d32468660405160208082528190810183818151815260200191508051906020019060200280838360005b838110156112e85780820151838201526020016112d0565b505050509050019250505060405180910390a3600154600160a060020a0316636ce15a5486866000604051602001526040518363ffffffff1660e060020a0281526004018083600160a060020a0316600160a060020a0316815260200180602001828103825283818151815260200191508051906020019060200280838360005b83811015611381578082015183820152602001611369565b505050509050019350505050602060405180830381600087803b15156113a657600080fd5b6102c65a03f115156113b757600080fd5b50505060405180519350505060005b6005548110156107995760058054829081106113de57fe5b600091825260209091206002909102015460058054600160a060020a0390921691638043154d9133918590811061141157fe5b9060005260206000209060020201600101548560006040516020015260405160e060020a63ffffffff8616028152600160a060020a03909316600484015260248301919091526044820152606401602060405180830381600087803b151561147857600080fd5b6102c65a03f1151561148957600080fd5b50505060405180519050151561149e57600080fd5b6001016113c6565b600160a060020a03331660009081526020819052604081206001015460e060020a9081028116146114d657600080fd5b7f65787465726e616c546f6b656e417070726f766500000000000000000000000060005b6005548110156115da57600580548290811061151257fe5b600091825260209091206002909102015460058054600160a060020a039092169163c1786ab29133918590811061154557fe5b9060005260206000209060020201600101548560006040516020015260405160e060020a63ffffffff8616028152600160a060020a03909316600484015260248301919091526044820152606401602060405180830381600087803b15156115ac57600080fd5b6102c65a03f115156115bd57600080fd5b5050506040518051905015156115d257600080fd5b6001016114fa565b85600160a060020a031633600160a060020a03167f5cda63dee3dca234a7ff99530838d4375718e5a398a4879f89119d92921fc6938787604051600160a060020a03909216825260208201526040908101905180910390a3600154600160a060020a03166379c6ad9e87878760006040516020015260405160e060020a63ffffffff8616028152600160a060020a0393841660048201529190921660248201526044810191909152606401602060405180830381600087803b151561169e57600080fd5b6102c65a03f115156116af57600080fd5b50505060405180519350505060005b60055481101561179e5760058054829081106116d657fe5b600091825260209091206002909102015460058054600160a060020a0390921691638043154d9133918590811061170957fe5b9060005260206000209060020201600101548560006040516020015260405160e060020a63ffffffff8616028152600160a060020a03909316600484015260248301919091526044820152606401602060405180830381600087803b151561177057600080fd5b6102c65a03f1151561178157600080fd5b50505060405180519050151561179657600080fd5b6001016116be565b50509392505050565b600160a060020a031660009081526020819052604090206001015460e060020a90810216151590565b600354600160a060020a031681565b600160a060020a031660009081526020819052604090206001015460e060020a0290565b600061180d6127c7565b600160a060020a03331660009081526020819052604090206001015460e060020a027c02000000000000000000000000000000000000000000000000000000009081161461185a57600080fd5b7f7265676973746572536368656d6500000000000000000000000000000000000060005b60055481101561195e57600580548290811061189657fe5b600091825260209091206002909102015460058054600160a060020a039092169163c1786ab2913391859081106118c957fe5b9060005260206000209060020201600101548560006040516020015260405160e060020a63ffffffff8616028152600160a060020a03909316600484015260248301919091526044820152606401602060405180830381600087803b151561193057600080fd5b6102c65a03f1151561194157600080fd5b50505060405180519050151561195657600080fd5b60010161187e565b600160a060020a03871660009081526020819052604090819020908051908101604090815282548252600192830154600160e060020a031960e060020a918202166020808501918252600160a060020a03331660009081529081905292832090940154929650909291021990518718167c0f0000000000000000000000000000000000000000000000000000000016146119f757600080fd5b600160a060020a03331660009081526020818152604082206001015460e060020a021990850151167c0f000000000000000000000000000000000000000000000000000000001614611a4857600080fd5b600160a060020a0387811660008181526020819052604090819020898155600101805463ffffffff191660e060020a8a81170417905590913316907f546816e99403df442acb68ef69562682a50762c20a3fb6b472f7af9923736cfc905160405180910390a3600193505060005b600554811015611b96576005805482908110611ace57fe5b600091825260209091206002909102015460058054600160a060020a0390921691638043154d91339185908110611b0157fe5b9060005260206000209060020201600101548560006040516020015260405160e060020a63ffffffff8616028152600160a060020a03909316600484015260248301919091526044820152606401602060405180830381600087803b1515611b6857600080fd5b6102c65a03f11515611b7957600080fd5b505050604051805190501515611b8e57600080fd5b600101611ab6565b5050509392505050565b600160a060020a03331660009081526020819052604081206001015460e060020a908102811614611bd057600080fd5b7f65787465726e616c546f6b656e5472616e7366657246726f6d0000000000000060005b600554811015611cd4576005805482908110611c0c57fe5b600091825260209091206002909102015460058054600160a060020a039092169163c1786ab291339185908110611c3f57fe5b9060005260206000209060020201600101548560006040516020015260405160e060020a63ffffffff8616028152600160a060020a03909316600484015260248301919091526044820152606401602060405180830381600087803b1515611ca657600080fd5b6102c65a03f11515611cb757600080fd5b505050604051805190501515611ccc57600080fd5b600101611bf4565b86600160a060020a031633600160a060020a03167f283faba4b8dcfe263728666be500623fdf5ae89ac78e40952fe2493f918ed62c888888604051600160a060020a039384168152919092166020820152604080820192909252606001905180910390a3600154600160a060020a031663b756d5a28888888860006040516020015260405160e060020a63ffffffff8716028152600160a060020a0394851660048201529284166024840152921660448201526064810191909152608401602060405180830381600087803b1515611dab57600080fd5b6102c65a03f11515611dbc57600080fd5b50505060405180519350505060005b600554811015611eab576005805482908110611de357fe5b600091825260209091206002909102015460058054600160a060020a0390921691638043154d91339185908110611e1657fe5b9060005260206000209060020201600101548560006040516020015260405160e060020a63ffffffff8616028152600160a060020a03909316600484015260248301919091526044820152606401602060405180830381600087803b1515611e7d57600080fd5b6102c65a03f11515611e8e57600080fd5b505050604051805190501515611ea357600080fd5b600101611dcb565b5050949350505050565b600160a060020a03331660009081526020819052604081206001015460e060020a027c080000000000000000000000000000000000000000000000000000000090811614611f0257600080fd5b600454600160a060020a031615611f1857600080fd5b600160a060020a0382161515611f2d57600080fd5b6004805473ffffffffffffffffffffffffffffffffffffffff1916600160a060020a03848116919091179091556001541663f2fde38b8360405160e060020a63ffffffff8416028152600160a060020a039091166004820152602401600060405180830381600087803b1515611fa257600080fd5b6102c65a03f11515611fb357600080fd5b5050600254600160a060020a03308116925016638da5cb5b6000604051602001526040518163ffffffff1660e060020a028152600401602060405180830381600087803b151561200257600080fd5b6102c65a03f1151561201357600080fd5b50505060405180519050600160a060020a0316141561209157600254600160a060020a031663f2fde38b8360405160e060020a63ffffffff8416028152600160a060020a039091166004820152602401600060405180830381600087803b151561207c57600080fd5b6102c65a03f1151561208d57600080fd5b5050505b600354600160a060020a033081169116638da5cb5b6000604051602001526040518163ffffffff1660e060020a028152600401602060405180830381600087803b15156120dd57600080fd5b6102c65a03f115156120ee57600080fd5b50505060405180519050600160a060020a0316141561216c57600354600160a060020a031663f2fde38b8360405160e060020a63ffffffff8416028152600160a060020a039091166004820152602401600060405180830381600087803b151561215757600080fd5b6102c65a03f1151561216857600080fd5b5050505b6004547fdb7cbacf8df312d794506c0cc9af07f64d29ca075796ea2e950a3832cc9a63dd903090600160a060020a0316604051600160a060020a039283168152911660208201526040908101905180910390a1506001919050565b600160a060020a03331660009081526020819052604081206001015460e060020a9081028116146121f757600080fd5b7f73656e644574686572000000000000000000000000000000000000000000000060005b6005548110156122fb57600580548290811061223357fe5b600091825260209091206002909102015460058054600160a060020a039092169163c1786ab29133918590811061226657fe5b9060005260206000209060020201600101548560006040516020015260405160e060020a63ffffffff8616028152600160a060020a03909316600484015260248301919091526044820152606401602060405180830381600087803b15156122cd57600080fd5b6102c65a03f115156122de57600080fd5b5050506040518051905015156122f357600080fd5b60010161221b565b83600160a060020a031633600160a060020a03167fda35e091786fbaaace32084910404a0e3a14f22a7645a4c3d0fec2c6731e3c348760405190815260200160405180910390a3600154600160a060020a031663cb16d4a2868660006040516020015260405160e060020a63ffffffff85160281526004810192909252600160a060020a03166024820152604401602060405180830381600087803b15156123a257600080fd5b6102c65a03f115156123b357600080fd5b50505060405180519350505060005b6005548110156107995760058054829081106123da57fe5b600091825260209091206002909102015460058054600160a060020a0390921691638043154d9133918590811061240d57fe5b9060005260206000209060020201600101548560006040516020015260405160e060020a63ffffffff8616028152600160a060020a03909316600484015260248301919091526044820152606401602060405180830381600087803b151561247457600080fd5b6102c65a03f1151561248557600080fd5b50505060405180519050151561249a57600080fd5b6001016123c2565b60055490565b600160a060020a03331660009081526020819052604081206001015460e060020a9081028116146124d857600080fd5b7f65787465726e616c546f6b656e5472616e73666572000000000000000000000060005b6005548110156125dc57600580548290811061251457fe5b600091825260209091206002909102015460058054600160a060020a039092169163c1786ab29133918590811061254757fe5b9060005260206000209060020201600101548560006040516020015260405160e060020a63ffffffff8616028152600160a060020a03909316600484015260248301919091526044820152606401602060405180830381600087803b15156125ae57600080fd5b6102c65a03f115156125bf57600080fd5b5050506040518051905015156125d457600080fd5b6001016124fc565b84600160a060020a031686600160a060020a031633600160a060020a03167fd4c08afec48fd2cbe49032dc89d3b388b7a4e4f0563a1fdccd73339beb025aa18760405190815260200160405180910390a4600154600160a060020a031663dab0efff87878760006040516020015260405160e060020a63ffffffff8616028152600160a060020a0393841660048201529190921660248201526044810191909152606401602060405180830381600087803b151561269957600080fd5b6102c65a03f115156126aa57600080fd5b50505060405180519350505060005b60055481101561179e5760058054829081106126d157fe5b600091825260209091206002909102015460058054600160a060020a0390921691638043154d9133918590811061270457fe5b9060005260206000209060020201600101548560006040516020015260405160e060020a63ffffffff8616028152600160a060020a03909316600484015260248301919091526044820152606401602060405180830381600087803b151561276b57600080fd5b6102c65a03f1151561277c57600080fd5b50505060405180519050151561279157600080fd5b6001016126b9565b6000602081905290815260409020805460019091015460e060020a0282565b600254600160a060020a031681565b604080519081016040526000808252602082015290565b81548183558181151161280a5760020281600202836000526020600020918201910161280a919061280f565b505050565b61113c91905b8082111561284757805473ffffffffffffffffffffffffffffffffffffffff1916815560006001820155600201612815565b50905600a165627a7a72305820421ba58f6b9fdcd7d89c170b5e047d01b87b33a4674c55257548b589e70c32280029a165627a7a7230582091f93aa98cf311fc42984b70b4e7595429ea44d6cbd0d9ed6d19ea8b718e96910029",
  "source": "pragma solidity ^0.4.18;\r\n\r\nimport \"../controller/Avatar.sol\";\r\nimport \"../controller/Controller.sol\";\r\nimport \"../controller/DAOToken.sol\";\r\nimport \"../controller/Reputation.sol\";\r\n\r\n\r\n/**\r\n * @title Genesis Scheme that creates organizations\r\n */\r\n\r\ncontract GenesisScheme {\r\n    DAOToken nativeToken;\r\n    Reputation nativeReputation;\r\n    Avatar avatar;\r\n\r\n    mapping(address=>address) locks;\r\n\r\n    event NewOrg (address _avatar);\r\n    event InitialSchemesSet (address _avatar);\r\n\r\n    address[] addressArray;\r\n    bytes32[] bytes32Array;\r\n    bytes4[] bytes4Array;\r\n\r\n    function GenesisScheme() public {\r\n        addressArray.push(address(this));\r\n        bytes32Array.push(bytes32(0));\r\n        bytes4Array.push(bytes4(0xF));\r\n    }\r\n\r\n    /**\r\n     * @dev Create a new organization\r\n     * @param _orgName The name of the new organization\r\n     * @param _tokenName The name of the token associated with the organization\r\n     * @param _tokenSymbol The symbol of the token\r\n     * @param _founders An array with the addresses of the founders of the organization\r\n     * @param _foundersTokenAmount An array of amount of tokens that the founders\r\n     *  receive in the new organization\r\n     * @param _foundersReputationAmount An array of amount of reputation that the\r\n     *   founders receive in the new organization\r\n     *\r\n     * @return The address of the avatar of the controller\r\n     */\r\n    function forgeOrg (\r\n        bytes32 _orgName,\r\n        string _tokenName,\r\n        string _tokenSymbol,\r\n        address[] _founders,\r\n        uint[] _foundersTokenAmount,\r\n        int[] _foundersReputationAmount\r\n    ) public returns(address)\r\n    {\r\n        // Create Token, Reputation and Avatar:\r\n        nativeToken = new DAOToken(_tokenName, _tokenSymbol);\r\n        nativeReputation = new Reputation();\r\n        avatar = new Avatar(_orgName, nativeToken, nativeReputation);\r\n\r\n        // Create Controller:\r\n        Controller controller = new Controller(avatar, nativeToken, nativeReputation, addressArray, bytes32Array, bytes4Array);\r\n        // Transfer ownership:\r\n        avatar.transferOwnership(controller);\r\n        nativeToken.transferOwnership(controller);\r\n        nativeReputation.transferOwnership(controller);\r\n\r\n        // Mint token and reputation for founders:\r\n        for (uint i = 0 ; i < _founders.length ; i++ ) {\r\n            if (!controller.mintTokens(_foundersTokenAmount[i], _founders[i])) {\r\n                revert();\r\n            }\r\n            if (!controller.mintReputation(_foundersReputationAmount[i], _founders[i])) {\r\n                revert();\r\n            }\r\n        }\r\n\r\n        locks[avatar] = msg.sender;\r\n\r\n        NewOrg (address(avatar));\r\n        return (address(avatar));\r\n    }\r\n\r\n    /**\r\n     * @dev  register some initial schemes\r\n     */\r\n    function setInitialSchemes (\r\n        Avatar _avatar,\r\n        address[] _schemes,\r\n        bytes32[] _params,\r\n        StandardToken[] _token,\r\n        uint[] _fee,\r\n        bytes4[] _permissions\r\n    )\r\n        public\r\n    {\r\n        // this action can only be executed by the account that holds the lock\r\n        // for this controller\r\n        require(locks[address(_avatar)] == msg.sender);\r\n\r\n        // register initial schemes:\r\n        Controller controller = Controller(_avatar.owner());\r\n        for ( uint i = 0 ; i < _schemes.length ; i++ ) {\r\n            // TODO: the approval here is for paying the fee for that scheme later (with registerOrganization())\r\n            // TODO: (continued)  why not have that separate? And why not ask the scheme for its fee, then, instead of passing it here?\r\n            controller.externalTokenApprove(_token[i], _schemes[i], _fee[i]);\r\n            controller.registerScheme(_schemes[i], _params[i], _permissions[i]);\r\n        }\r\n\r\n        // Unregister self:\r\n        controller.unregisterScheme(this);\r\n\r\n        // Remove lock:\r\n        delete locks[_avatar];\r\n\r\n        InitialSchemesSet(address(avatar));\r\n    }\r\n}\r\n",
  "sourcePath": "C:\\Users\\dkent\\Documents\\Projects\\GitHub\\DAOStack\\daostack\\contracts\\universalSchemes\\GenesisScheme.sol",
  "compiler": {
    "name": "solc",
    "version": "0.4.18+commit.9cf6e910.Emscripten.clang"
  },
  "schemaVersion": "1.0.1",
  "updatedAt": "2017-12-13T01:19:43.647Z"
}