{
  "contractName": "GlobalConstraintMock",
  "abi": [
    {
      "constant": true,
      "inputs": [
        {
          "name": "",
          "type": "address"
        },
        {
          "name": "",
          "type": "bytes32"
        },
        {
          "name": "method",
          "type": "bytes"
        }
      ],
      "name": "post",
      "outputs": [
        {
          "name": "",
          "type": "bool"
        }
      ],
      "payable": false,
      "stateMutability": "view",
      "type": "function"
    },
    {
      "constant": true,
      "inputs": [
        {
          "name": "",
          "type": "address"
        },
        {
          "name": "",
          "type": "bytes32"
        },
        {
          "name": "method",
          "type": "bytes"
        }
      ],
      "name": "pre",
      "outputs": [
        {
          "name": "",
          "type": "bool"
        }
      ],
      "payable": false,
      "stateMutability": "view",
      "type": "function"
    },
    {
      "constant": false,
      "inputs": [
        {
          "name": "method",
          "type": "bytes"
        },
        {
          "name": "pre",
          "type": "bool"
        },
        {
          "name": "post",
          "type": "bool"
        }
      ],
      "name": "setConstraint",
      "outputs": [
        {
          "name": "",
          "type": "bool"
        }
      ],
      "payable": false,
      "stateMutability": "nonpayable",
      "type": "function"
    }
  ],
  "bytecode": "0x6060604052341561000f57600080fd5b6103c28061001e6000396000f3006060604052600436106100565763ffffffff7c01000000000000000000000000000000000000000000000000000000006000350416631ab9b33a811461005b57806389eaee6a146100e1578063bcbbdf9814610153575b600080fd5b341561006657600080fd5b6100cd6004803573ffffffffffffffffffffffffffffffffffffffff169060248035919060649060443590810190830135806020601f820181900481020160405190810160405281815292919060208401838380828437509496506101af95505050505050565b604051901515815260200160405180910390f35b34156100ec57600080fd5b6100cd6004803573ffffffffffffffffffffffffffffffffffffffff169060248035919060649060443590810190830135806020601f8201819004810201604051908101604052818152929190602084018383808284375094965061022795505050505050565b341561015e57600080fd5b6100cd60046024813581810190830135806020601f820181900481020160405190810160405281815292919060208401838380828437509496505050508235151592602001351515915061029a9050565b600080826040518082805190602001908083835b602083106101e25780518252601f1990920191602091820191016101c3565b6001836020036101000a03801982511681845116808217855250505050505090500191505090815260200160405190819003902054610100900460ff16949350505050565b600080826040518082805190602001908083835b6020831061025a5780518252601f19909201916020918201910161023b565b6001836020036101000a0380198251168184511680821785525050505050509050019150509081526020016040519081900390205460ff16949350505050565b6000826000856040518082805190602001908083835b602083106102cf5780518252601f1990920191602091820191016102b0565b6001836020036101000a038019825116818451168082178552505050505050905001915050908152602001604051908190039020805460ff1916911515919091179055816000856040518082805190602001908083835b602083106103455780518252601f199092019160209182019101610326565b6001836020036101000a03801982511681845116808217855250505050505090500191505090815260200160405190819003902080549115156101000261ff001990921691909117905593925050505600a165627a7a723058201d827e84880c3edd0c5604134daeeecca5e3bd1597a4cc56c09a03c51d8a58a50029",
  "source": "pragma solidity ^0.4.18;\r\n\r\n\r\n\r\ncontract GlobalConstraintMock {\r\n\r\n    struct TestParam {\r\n        bool pre;\r\n        bool post;\r\n    }\r\n    mapping (bytes=>TestParam) testParams;\r\n\r\n    function setConstraint(bytes method,bool pre,bool post) public returns(bool) {\r\n        testParams[method].pre = pre;\r\n        testParams[method].post = post;\r\n    }\r\n\r\n    function pre(address, bytes32, bytes method) public view returns(bool) {\r\n        return testParams[method].pre;\r\n    }\r\n\r\n    function post(address, bytes32 , bytes method) public view returns(bool) {\r\n        return testParams[method].post;\r\n    }\r\n}\r\n",
  "sourcePath": "C:\\Users\\dkent\\Documents\\Projects\\GitHub\\DAOStack\\daostack\\contracts\\test\\GlobalConstraintMock.sol",
  "compiler": {
    "name": "solc",
    "version": "0.4.18+commit.9cf6e910.Emscripten.clang"
  },
  "schemaVersion": "1.0.1",
  "updatedAt": "2017-12-16T16:01:25.635Z"
}