{
  "contractName": "MirrorContractICO",
  "abi": [
    {
      "constant": true,
      "inputs": [],
      "name": "simpleICO",
      "outputs": [
        {
          "name": "",
          "type": "address"
        }
      ],
      "payable": false,
      "stateMutability": "view",
      "type": "function"
    },
    {
      "constant": true,
      "inputs": [],
      "name": "organization",
      "outputs": [
        {
          "name": "",
          "type": "address"
        }
      ],
      "payable": false,
      "stateMutability": "view",
      "type": "function"
    },
    {
      "constant": false,
      "inputs": [],
      "name": "destroy",
      "outputs": [],
      "payable": false,
      "stateMutability": "nonpayable",
      "type": "function"
    },
    {
      "constant": true,
      "inputs": [],
      "name": "owner",
      "outputs": [
        {
          "name": "",
          "type": "address"
        }
      ],
      "payable": false,
      "stateMutability": "view",
      "type": "function"
    },
    {
      "constant": false,
      "inputs": [
        {
          "name": "newOwner",
          "type": "address"
        }
      ],
      "name": "transferOwnership",
      "outputs": [],
      "payable": false,
      "stateMutability": "nonpayable",
      "type": "function"
    },
    {
      "constant": false,
      "inputs": [
        {
          "name": "_recipient",
          "type": "address"
        }
      ],
      "name": "destroyAndSend",
      "outputs": [],
      "payable": false,
      "stateMutability": "nonpayable",
      "type": "function"
    },
    {
      "inputs": [
        {
          "name": "_organization",
          "type": "address"
        },
        {
          "name": "_simpleICO",
          "type": "address"
        }
      ],
      "payable": false,
      "stateMutability": "nonpayable",
      "type": "constructor"
    },
    {
      "payable": true,
      "stateMutability": "payable",
      "type": "fallback"
    },
    {
      "anonymous": false,
      "inputs": [
        {
          "indexed": true,
          "name": "previousOwner",
          "type": "address"
        },
        {
          "indexed": true,
          "name": "newOwner",
          "type": "address"
        }
      ],
      "name": "OwnershipTransferred",
      "type": "event"
    }
  ],
  "bytecode": "0x6060604052341561000f57600080fd5b604051604080610393833981016040528080519190602001805160008054600160a060020a03338116600160a060020a0319928316179092556001805496831696821696909617909555600280549190921694169390931790925550506103188061007b6000396000f3006060604052600436106100775763ffffffff7c01000000000000000000000000000000000000000000000000000000006000350416631ebbede2811461012e57806323bd4d7a1461015d57806383197ef0146101705780638da5cb5b14610183578063f2fde38b14610196578063f5074f41146101b5575b34151561008357600080fd5b600254600154600160a060020a03918216916321bea7cc91349116336000604051602001526040517c010000000000000000000000000000000000000000000000000000000063ffffffff8616028152600160a060020a039283166004820152911660248201526044016020604051808303818588803b151561010557600080fd5b6125ee5a03f1151561011657600080fd5b5050505060405180511515905061012c57600080fd5b005b341561013957600080fd5b6101416101d4565b604051600160a060020a03909116815260200160405180910390f35b341561016857600080fd5b6101416101e3565b341561017b57600080fd5b61012c6101f2565b341561018e57600080fd5b61014161021b565b34156101a157600080fd5b61012c600160a060020a036004351661022a565b34156101c057600080fd5b61012c600160a060020a03600435166102c5565b600254600160a060020a031681565b600154600160a060020a031681565b60005433600160a060020a0390811691161461020d57600080fd5b600054600160a060020a0316ff5b600054600160a060020a031681565b60005433600160a060020a0390811691161461024557600080fd5b600160a060020a038116151561025a57600080fd5b600054600160a060020a0380831691167f8be0079c531659141344cd1fd0a4f28419497f9722a3daafe3b4186f6b6457e060405160405180910390a36000805473ffffffffffffffffffffffffffffffffffffffff1916600160a060020a0392909216919091179055565b60005433600160a060020a039081169116146102e057600080fd5b80600160a060020a0316ff00a165627a7a723058204fede3769812a381c34da3fade008533db09606e992a0f560f8aa471b78676c30029",
  "source": "pragma solidity ^0.4.18;\r\n\r\nimport \"./UniversalScheme.sol\";\r\nimport \"zeppelin-solidity/contracts/ownership/Ownable.sol\";\r\nimport \"zeppelin-solidity/contracts/math/SafeMath.sol\";\r\nimport \"zeppelin-solidity/contracts/lifecycle/Destructible.sol\";\r\n\r\n\r\n/**\r\n * @title An avatar contract for ICO.\r\n * @dev Allow people to donate by simply sending ether to an address.\r\n */\r\ncontract MirrorContractICO is Destructible {\r\n    Avatar public organization; // The organization address (the avatar)\r\n    SimpleICO public simpleICO;  // The ICO contract address\r\n    /**\r\n    * @dev Constructor, setting the organization and ICO scheme.\r\n    * @param _organization The organization's avatar.\r\n    * @param _simpleICO The ICO Scheme.\r\n    */\r\n    function MirrorContractICO(Avatar _organization, SimpleICO _simpleICO) public {\r\n        organization = _organization;\r\n        simpleICO = _simpleICO;\r\n    }\r\n\r\n    /**\r\n    * @dev Fallback function, when ether is sent it will donate to the ICO.\r\n    * The ether will be returned if the donation is failed.\r\n    */\r\n    function () public payable {\r\n        // Not to waste gas, if no value.\r\n        require(msg.value != 0);\r\n\r\n        // Return ether if couln't donate.\r\n        if (simpleICO.donate.value(msg.value)(organization, msg.sender) == 0) {\r\n            revert();\r\n        }\r\n    }\r\n}\r\n\r\n\r\n/**\r\n * @title SimpleICO scheme.\r\n * @dev A universal scheme to allow organizations to open a simple ICO and get donations.\r\n */\r\ncontract SimpleICO is UniversalScheme {\r\n    using SafeMath for uint;\r\n\r\n    // Struct holding the data for each organization\r\n    struct Organization {\r\n        bytes32 paramsHash; // Save the parameters approved by the org to open the ICO, so reules of ICO will not change.\r\n        address avatarContractICO; // Avatar is a contract for users that want to send eth without calling a funciton.\r\n        uint totalEthRaised;\r\n        bool isHalted; // The admin of the ICO can halt the ICO at any time, and also resume it.\r\n    }\r\n\r\n    // A mapping from hashes to parameters (use to store a particular configuration on the controller)\r\n    struct Parameters {\r\n        uint cap; // Cap in Eth\r\n        uint price; // Price represents Tokens per 1 Eth\r\n        uint startBlock;\r\n        uint endBlock;\r\n        address beneficiary; // all funds received will be transffered to this address.\r\n        address admin; // The admin can halt or resume ICO.\r\n    }\r\n\r\n    // A mapping from the organization (Avatar) address to the saved data of the organization:\r\n    mapping(address=>Organization) public organizationsICOInfo;\r\n\r\n    mapping(bytes32=>Parameters) public parameters;\r\n\r\n    event DonationReceived(address indexed organization, address indexed _beneficiary, uint _incomingEther, uint indexed _tokensAmount);\r\n\r\n    /**\r\n     * @dev Constructor, Updating the initial prarmeters\r\n     * @param _nativeToken The native token of the ICO\r\n     * @param _fee The fee for intiating the ICO\r\n     * @param _beneficiary The address that will receive the ethers\r\n     */\r\n    function SimpleICO(StandardToken _nativeToken, uint _fee, address _beneficiary) public {\r\n        updateParameters(_nativeToken, _fee, _beneficiary, bytes32(0));\r\n    }\r\n\r\n    /**\r\n    * @dev Hash the parameters, save them if necessary, and return the hash value\r\n    * @param _cap the ico cap\r\n    * @param _price  represents Tokens per 1 Eth\r\n    * @param _startBlock  ico start block\r\n    * @param _endBlock ico end\r\n    * @param _beneficiary the ico ether beneficiary\r\n    * @param _admin the address of the ico admin which can hald and resume the ICO.\r\n    * @return bytes32 -the params hash\r\n    */\r\n    function setParameters(\r\n        uint _cap,\r\n        uint _price,\r\n        uint _startBlock,\r\n        uint _endBlock,\r\n        address _beneficiary,\r\n        address _admin\r\n    )\r\n        public\r\n        returns(bytes32)\r\n    {\r\n        bytes32 paramsHash = getParametersHash(\r\n            _cap,\r\n            _price,\r\n            _startBlock,\r\n            _endBlock,\r\n            _beneficiary,\r\n            _admin\r\n        );\r\n        if (parameters[paramsHash].cap == 0) {\r\n            parameters[paramsHash] = Parameters({\r\n                cap: _cap,\r\n                price: _price,\r\n                startBlock: _startBlock,\r\n                endBlock:_endBlock,\r\n                beneficiary:_beneficiary,\r\n                admin:_admin\r\n            });\r\n        }\r\n        return paramsHash;\r\n    }\r\n\r\n    /**\r\n    * @dev Hash the parameters and return the hash value\r\n    * @param _cap the ico cap\r\n    * @param _price  represents Tokens per 1 Eth\r\n    * @param _startBlock  ico start block\r\n    * @param _endBlock ico end\r\n    * @param _beneficiary the ico ether beneficiary\r\n    * @param _admin the address of the ico admin which can hald and resume the ICO.\r\n    * @return bytes32 -the params hash\r\n    */\r\n    function getParametersHash(\r\n        uint _cap,\r\n        uint _price,\r\n        uint _startBlock,\r\n        uint _endBlock,\r\n        address _beneficiary,\r\n        address _admin\r\n    )\r\n        public\r\n        pure\r\n        returns(bytes32)\r\n   {\r\n        return (keccak256(\r\n            _cap,\r\n            _price,\r\n            _startBlock,\r\n            _endBlock,\r\n            _beneficiary,\r\n            _admin\r\n        ));\r\n    }\r\n\r\n    /**\r\n     * @dev start an ICO\r\n     * @param _avatar The Avatar's of the organization\r\n     */\r\n    function start(Avatar _avatar) public {\r\n        require(!isActive(_avatar));\r\n        Organization memory org;\r\n        org.paramsHash = getParametersFromController(_avatar);\r\n        require(parameters[org.paramsHash].cap != 0);\r\n        org.avatarContractICO = new MirrorContractICO(_avatar, this);\r\n        organizationsICOInfo[_avatar] = org;\r\n    }\r\n\r\n    /**\r\n     * @dev Allowing admin to halt an ICO.\r\n     * @param _avatar The Avatar's of the organization\r\n     */\r\n    function haltICO(address _avatar) public {\r\n        require(msg.sender == parameters[organizationsICOInfo[_avatar].paramsHash].admin);\r\n        organizationsICOInfo[_avatar].isHalted = true;\r\n    }\r\n\r\n    /**\r\n     * @dev Allowing admin to reopen an ICO.\r\n     * @param _avatar The Avatar's of the organization\r\n     */\r\n    function resumeICO(address _avatar) public {\r\n        require(msg.sender == parameters[organizationsICOInfo[_avatar].paramsHash].admin);\r\n        organizationsICOInfo[_avatar].isHalted = false;\r\n    }\r\n\r\n    /**\r\n     * @dev Check is an ICO is active (halted is still considered active). Active ICO:\r\n     * 1. The organization is registered.\r\n     * 2. The ICO didn't reach it's cap yet.\r\n     * 3. The current block isn't bigger than the \"endBlock\" & Smaller then the \"startBlock\"\r\n     * @param _avatar The Avatar's of the organization\r\n     * @return bool which represents a successful of the function\r\n     */\r\n    function isActive(address _avatar) public constant returns(bool) {\r\n        Organization memory org = organizationsICOInfo[_avatar];\r\n        Parameters memory params = parameters[org.paramsHash];\r\n        if (! organizations[_avatar]) {\r\n            return false;\r\n        }\r\n        if (org.totalEthRaised >= params.cap) {\r\n            return false;\r\n        }\r\n        if (block.number >= params.endBlock) {\r\n            return false;\r\n        }\r\n        if (block.number <= params.startBlock) {\r\n            return false;\r\n        }\r\n        return true;\r\n    }\r\n\r\n    /**\r\n     * @dev Donating ethers to get tokens.\r\n     * If the donation is higher than the remaining ethers in the \"cap\",\r\n     * The donator will get the change in ethers.\r\n     * @param _avatar The Avatar's of the organization.\r\n     * @param _beneficiary The donator's address - which will receive the ICO's tokens.\r\n     * @return bool which represents a successful of the function\r\n     */\r\n    function donate(Avatar _avatar, address _beneficiary) public payable returns(uint) {\r\n        Organization memory org = organizationsICOInfo[_avatar];\r\n        Parameters memory params = parameters[org.paramsHash];\r\n\r\n        // Check ICO is active:\r\n        require(isActive(_avatar));\r\n\r\n        // Check ICO is not halted:\r\n        require(!org.isHalted);\r\n\r\n\r\n        uint incomingEther;\r\n        uint change;\r\n\r\n        // Compute how much tokens to buy:\r\n        if ( msg.value > (params.cap).sub(org.totalEthRaised) ) {\r\n            incomingEther = (params.cap).sub(org.totalEthRaised);\r\n            change = (msg.value).sub(incomingEther);\r\n        } else {\r\n            incomingEther = msg.value;\r\n        }\r\n        uint tokens = incomingEther.mul(params.price);\r\n        // Send ether to the defined address, mint, and send change to beneficiary:\r\n        params.beneficiary.transfer(incomingEther);\r\n\r\n        Controller controller = Controller(_avatar.owner());\r\n        if (!controller.mintTokens(tokens, _beneficiary)) {\r\n            revert();\r\n        }\r\n        if (change != 0) {\r\n            _beneficiary.transfer(change);\r\n        }\r\n        // Update total raised, call event and return amount of tokens bought:\r\n        organizationsICOInfo[_avatar].totalEthRaised += incomingEther;\r\n        DonationReceived(_avatar, _beneficiary, incomingEther, tokens);\r\n        return tokens;\r\n    }\r\n}\r\n",
  "sourcePath": "C:\\Users\\dkent\\Documents\\Projects\\GitHub\\DAOStack\\daostack\\contracts\\universalSchemes\\SimpleICO.sol",
  "compiler": {
    "name": "solc",
    "version": "0.4.18+commit.9cf6e910.Emscripten.clang"
  },
  "schemaVersion": "1.0.1",
  "updatedAt": "2017-12-29T14:00:20.651Z"
}