{
  "contractName": "Reputation",
  "abi": [
    {
      "constant": true,
      "inputs": [],
      "name": "totalSupply",
      "outputs": [
        {
          "name": "",
          "type": "uint256"
        }
      ],
      "payable": false,
      "stateMutability": "view",
      "type": "function"
    },
    {
      "constant": true,
      "inputs": [],
      "name": "decimals",
      "outputs": [
        {
          "name": "",
          "type": "uint256"
        }
      ],
      "payable": false,
      "stateMutability": "view",
      "type": "function"
    },
    {
      "constant": true,
      "inputs": [],
      "name": "owner",
      "outputs": [
        {
          "name": "",
          "type": "address"
        }
      ],
      "payable": false,
      "stateMutability": "view",
      "type": "function"
    },
    {
      "constant": false,
      "inputs": [
        {
          "name": "_to",
          "type": "address"
        },
        {
          "name": "_amount",
          "type": "uint256"
        }
      ],
      "name": "setReputation",
      "outputs": [
        {
          "name": "",
          "type": "bool"
        }
      ],
      "payable": false,
      "stateMutability": "nonpayable",
      "type": "function"
    },
    {
      "constant": true,
      "inputs": [
        {
          "name": "_owner",
          "type": "address"
        }
      ],
      "name": "reputationOf",
      "outputs": [
        {
          "name": "balance",
          "type": "uint256"
        }
      ],
      "payable": false,
      "stateMutability": "view",
      "type": "function"
    },
    {
      "constant": false,
      "inputs": [
        {
          "name": "newOwner",
          "type": "address"
        }
      ],
      "name": "transferOwnership",
      "outputs": [],
      "payable": false,
      "stateMutability": "nonpayable",
      "type": "function"
    },
    {
      "constant": false,
      "inputs": [
        {
          "name": "_to",
          "type": "address"
        },
        {
          "name": "_amount",
          "type": "int256"
        }
      ],
      "name": "mint",
      "outputs": [
        {
          "name": "",
          "type": "bool"
        }
      ],
      "payable": false,
      "stateMutability": "nonpayable",
      "type": "function"
    },
    {
      "inputs": [],
      "payable": false,
      "stateMutability": "nonpayable",
      "type": "constructor"
    },
    {
      "anonymous": false,
      "inputs": [
        {
          "indexed": true,
          "name": "to",
          "type": "address"
        },
        {
          "indexed": false,
          "name": "amount",
          "type": "int256"
        }
      ],
      "name": "Mint",
      "type": "event"
    },
    {
      "anonymous": false,
      "inputs": [
        {
          "indexed": true,
          "name": "previousOwner",
          "type": "address"
        },
        {
          "indexed": true,
          "name": "newOwner",
          "type": "address"
        }
      ],
      "name": "OwnershipTransferred",
      "type": "event"
    }
  ],
  "bytecode": "0x60606040526012600355341561001457600080fd5b60008054600160a060020a033316600160a060020a0319909116811782558152600160205260408120819055600255610459806100526000396000f3006060604052600436106100825763ffffffff7c010000000000000000000000000000000000000000000000000000000060003504166318160ddd8114610087578063313ce567146100ac5780638da5cb5b146100bf578063b120c16a146100ee578063db89c04414610124578063f2fde38b14610143578063fd9bf3aa14610164575b600080fd5b341561009257600080fd5b61009a610186565b60405190815260200160405180910390f35b34156100b757600080fd5b61009a61018c565b34156100ca57600080fd5b6100d2610192565b604051600160a060020a03909116815260200160405180910390f35b34156100f957600080fd5b610110600160a060020a03600435166024356101a1565b604051901515815260200160405180910390f35b341561012f57600080fd5b61009a600160a060020a0360043516610222565b341561014e57600080fd5b610162600160a060020a036004351661023d565b005b341561016f57600080fd5b610110600160a060020a03600435166024356102d8565b60025481565b60035481565b600054600160a060020a031681565b6000805433600160a060020a039081169116146101bd57600080fd5b600160a060020a0383166000908152600160205260409020546002546101fa9184916101ee9163ffffffff61040516565b9063ffffffff61041716565b60025550600160a060020a038216600090815260016020819052604090912082905592915050565b600160a060020a031660009081526001602052604090205490565b60005433600160a060020a0390811691161461025857600080fd5b600160a060020a038116151561026d57600080fd5b600054600160a060020a0380831691167f8be0079c531659141344cd1fd0a4f28419497f9722a3daafe3b4186f6b6457e060405160405180910390a36000805473ffffffffffffffffffffffffffffffffffffffff1916600160a060020a0392909216919091179055565b60008054819033600160a060020a039081169116146102f657600080fd5b6000831261035e57506002548290610314908263ffffffff61041716565b600255600160a060020a038416600090815260016020526040902054610340908263ffffffff61041716565b600160a060020a0385166000908152600160205260409020556103be565b50600254600019830290610378908263ffffffff61040516565b600255600160a060020a0384166000908152600160205260409020546103a4908263ffffffff61040516565b600160a060020a0385166000908152600160205260409020555b83600160a060020a03167f6f734b566c5e1cb976d9c7fba184b96a698a18931dd345168b16db217f8df0dd8460405190815260200160405180910390a25060019392505050565b60008282111561041157fe5b50900390565b60008282018381101561042657fe5b93925050505600a165627a7a723058205fb2a19f53b9d790f73423e0b09ad7e7b57c679577d9878283840a9cf06ad3c70029",
  "source": "pragma solidity ^0.4.18;\r\n\r\nimport \"zeppelin-solidity/contracts/ownership/Ownable.sol\";\r\nimport \"zeppelin-solidity/contracts/math/SafeMath.sol\";\r\n\r\n\r\n/**\r\n * @title Simple static reputation storage\r\n * @dev The reputation is represented by the owner of the contract\r\n * which is usually the controller's address\r\n */\r\n\r\ncontract Reputation is Ownable {\r\n    using SafeMath for uint;\r\n\r\n    mapping (address => uint256) balances;\r\n    uint256 public totalSupply;\r\n    uint public decimals = 18;\r\n\r\n    event Mint(address indexed to, int256 amount);\r\n\r\n    /**\r\n    * @dev the constructor initiate a reputation system with no supply at all\r\n    */\r\n    function Reputation() public {\r\n        balances[msg.sender] = 0;\r\n        totalSupply = 0;\r\n    }\r\n\r\n    /**\r\n    * @dev return the reputation amount of a given owner\r\n    * @param _owner an address of the owner which we want to get his reputation\r\n    */\r\n    function reputationOf(address _owner) public constant returns (uint256 balance) {\r\n        return balances[_owner];\r\n    }\r\n\r\n    /**\r\n    * @dev adding/reducing reputation of a given address, updating the total supply,\r\n    * and triggering an event of the operation\r\n    * @param _to the address which we gives/takes reputation amount\r\n    * @param _amount the reputation amount to be added/reduced\r\n    * @return bool which represents a successful of the function\r\n    */\r\n    function mint(address _to, int256 _amount) public onlyOwner returns (bool) {\r\n        // create new tokens and add them to the given account\r\n        uint absAmount; // allow to reduce reputation also for non owner\r\n        if ( _amount >= 0 ) {\r\n            absAmount = uint(_amount);\r\n            totalSupply = totalSupply.add(absAmount);\r\n            balances[_to] = balances[_to].add(absAmount);\r\n        } else {\r\n            absAmount = uint((-1)*_amount);\r\n            totalSupply = totalSupply.sub(absAmount);\r\n            balances[_to] = balances[_to].sub(absAmount);\r\n        }\r\n        Mint(_to, _amount);\r\n        return true;\r\n    }\r\n\r\n    /**\r\n    * @dev setting reputation amount for a given address, updating the total supply as well\r\n    * @param _to the address which we set it's reputation amount\r\n    * @param _amount the new reputation amount to be setted\r\n    * @return bool which represents a success\r\n    */\r\n    function setReputation(address _to, uint256 _amount) public onlyOwner returns (bool) {\r\n        // set the balance of _to to _amount\r\n        totalSupply = (totalSupply.sub(balances[_to])).add(_amount);\r\n        balances[_to] = _amount;\r\n        return true;\r\n    }\r\n}\r\n",
  "sourcePath": "C:\\Users\\dkent\\Documents\\Projects\\GitHub\\DAOStack\\daostack\\contracts\\controller\\Reputation.sol",
  "compiler": {
    "name": "solc",
    "version": "0.4.18+commit.9cf6e910.Emscripten.clang"
  },
  "schemaVersion": "1.0.1",
  "updatedAt": "2017-12-13T19:15:29.655Z"
}