{
  "contractName": "SaftTokenSale",
  "abi": [
    {
      "constant": true,
      "inputs": [],
      "name": "rate",
      "outputs": [
        {
          "name": "",
          "type": "uint256"
        }
      ],
      "payable": false,
      "stateMutability": "view",
      "type": "function"
    },
    {
      "constant": true,
      "inputs": [],
      "name": "endTime",
      "outputs": [
        {
          "name": "",
          "type": "uint256"
        }
      ],
      "payable": false,
      "stateMutability": "view",
      "type": "function"
    },
    {
      "constant": true,
      "inputs": [],
      "name": "cap",
      "outputs": [
        {
          "name": "",
          "type": "uint256"
        }
      ],
      "payable": false,
      "stateMutability": "view",
      "type": "function"
    },
    {
      "constant": true,
      "inputs": [],
      "name": "weiRaised",
      "outputs": [
        {
          "name": "",
          "type": "uint256"
        }
      ],
      "payable": false,
      "stateMutability": "view",
      "type": "function"
    },
    {
      "constant": true,
      "inputs": [],
      "name": "wallet",
      "outputs": [
        {
          "name": "",
          "type": "address"
        }
      ],
      "payable": false,
      "stateMutability": "view",
      "type": "function"
    },
    {
      "constant": true,
      "inputs": [],
      "name": "startTime",
      "outputs": [
        {
          "name": "",
          "type": "uint256"
        }
      ],
      "payable": false,
      "stateMutability": "view",
      "type": "function"
    },
    {
      "constant": false,
      "inputs": [
        {
          "name": "beneficiary",
          "type": "address"
        }
      ],
      "name": "buyTokens",
      "outputs": [],
      "payable": true,
      "stateMutability": "payable",
      "type": "function"
    },
    {
      "constant": true,
      "inputs": [],
      "name": "hasEnded",
      "outputs": [
        {
          "name": "",
          "type": "bool"
        }
      ],
      "payable": false,
      "stateMutability": "view",
      "type": "function"
    },
    {
      "constant": true,
      "inputs": [],
      "name": "token",
      "outputs": [
        {
          "name": "",
          "type": "address"
        }
      ],
      "payable": false,
      "stateMutability": "view",
      "type": "function"
    },
    {
      "inputs": [
        {
          "name": "_startTime",
          "type": "uint256"
        },
        {
          "name": "_endTime",
          "type": "uint256"
        },
        {
          "name": "_rate",
          "type": "uint256"
        },
        {
          "name": "_cap",
          "type": "uint256"
        },
        {
          "name": "_wallet",
          "type": "address"
        }
      ],
      "payable": false,
      "stateMutability": "nonpayable",
      "type": "constructor"
    },
    {
      "payable": true,
      "stateMutability": "payable",
      "type": "fallback"
    },
    {
      "anonymous": false,
      "inputs": [
        {
          "indexed": true,
          "name": "purchaser",
          "type": "address"
        },
        {
          "indexed": true,
          "name": "beneficiary",
          "type": "address"
        },
        {
          "indexed": false,
          "name": "value",
          "type": "uint256"
        },
        {
          "indexed": false,
          "name": "amount",
          "type": "uint256"
        }
      ],
      "name": "TokenPurchase",
      "type": "event"
    }
  ],
  "bytecode": "0x6060604052341561000f57600080fd5b60405160a080611cd383398101604052808051919060200180519190602001805191906020018051919060200180519150829050858585844284101561005457600080fd5b8383101561006157600080fd5b6000821161006e57600080fd5b600160a060020a038116151561008357600080fd5b6100986401000000006104226100ee82021704565b60008054600160a060020a0319908116600160a060020a039384161782556001969096556002949094556004929092556003805490941691161790915581116100e057600080fd5b600655506101239350505050565b60006100f8610113565b604051809103906000f080151561010e57600080fd5b905090565b604051610b8f8061114483390190565b611012806101326000396000f3006060604052600436106100985763ffffffff7c01000000000000000000000000000000000000000000000000000000006000350416632c4e722e81146100a35780633197cbb6146100c8578063355274ea146100db5780634042b66f146100ee578063521eb2731461010157806378e9792514610130578063ec8ac4d814610143578063ecb70fb714610157578063fc0c546a1461017e575b6100a133610191565b005b34156100ae57600080fd5b6100b66102de565b60405190815260200160405180910390f35b34156100d357600080fd5b6100b66102e4565b34156100e657600080fd5b6100b66102ea565b34156100f957600080fd5b6100b66102f0565b341561010c57600080fd5b6101146102f6565b604051600160a060020a03909116815260200160405180910390f35b341561013b57600080fd5b6100b6610305565b6100a1600160a060020a0360043516610191565b341561016257600080fd5b61016a61030b565b604051901515815260200160405180910390f35b341561018957600080fd5b61011461032d565b600080600160a060020a03831615156101a957600080fd5b6101b161033c565b15156101bc57600080fd5b6004543492506101d390839063ffffffff61036f16565b6005549091506101e9908363ffffffff6103a516565b60055560008054600160a060020a0316906340c10f199085908490604051602001526040517c010000000000000000000000000000000000000000000000000000000063ffffffff8516028152600160a060020a0390921660048301526024820152604401602060405180830381600087803b151561026757600080fd5b6102c65a03f1151561027857600080fd5b505050604051805190505082600160a060020a031633600160a060020a03167f623b3804fa71d67900d064613da8f94b9617215ee90799290593e1745087ad18848460405191825260208201526040908101905180910390a36102d96103b4565b505050565b60045481565b60025481565b60065481565b60055481565b600354600160a060020a031681565b60015481565b60065460055460009190101561031f6103ea565b806103275750805b91505090565b600054600160a060020a031681565b600080600654610357346005546103a590919063ffffffff16565b111590506103636103f2565b80156103275750919050565b600080831515610382576000915061039e565b5082820282848281151561039257fe5b041461039a57fe5b8091505b5092915050565b60008282018381101561039a57fe5b600354600160a060020a03163480156108fc0290604051600060405180830381858888f1935050505015156103e857600080fd5b565b600254421190565b6000806000600154421015801561040b57506002544211155b91505034151581801561041b5750805b9250505090565b600061042c610447565b604051809103906000f080151561044257600080fd5b905090565b604051610b8f80610458833901905600606060405260038054600160a860020a03191633600160a060020a0316179055610b618061002e6000396000f3006060604052600436106100e55763ffffffff7c010000000000000000000000000000000000000000000000000000000060003504166305d2035b81146100ea57806306fdde0314610111578063095ea7b31461019b57806318160ddd146101bd57806323b872dd146101e2578063313ce5671461020a57806340c10f1914610233578063661884631461025557806370a08231146102775780637d64bcb4146102965780638da5cb5b146102a957806395d89b41146102d8578063a9059cbb146102eb578063d73dd6231461030d578063dd62ed3e1461032f578063f2fde38b14610354575b600080fd5b34156100f557600080fd5b6100fd610375565b604051901515815260200160405180910390f35b341561011c57600080fd5b610124610385565b60405160208082528190810183818151815260200191508051906020019080838360005b83811015610160578082015183820152602001610148565b50505050905090810190601f16801561018d5780820380516001836020036101000a031916815260200191505b509250505060405180910390f35b34156101a657600080fd5b6100fd600160a060020a03600435166024356103bc565b34156101c857600080fd5b6101d0610428565b60405190815260200160405180910390f35b34156101ed57600080fd5b6100fd600160a060020a036004358116906024351660443561042e565b341561021557600080fd5b61021d6105b0565b60405160ff909116815260200160405180910390f35b341561023e57600080fd5b6100fd600160a060020a03600435166024356105b5565b341561026057600080fd5b6100fd600160a060020a03600435166024356106c2565b341561028257600080fd5b6101d0600160a060020a03600435166107bc565b34156102a157600080fd5b6100fd6107d7565b34156102b457600080fd5b6102bc610862565b604051600160a060020a03909116815260200160405180910390f35b34156102e357600080fd5b610124610871565b34156102f657600080fd5b6100fd600160a060020a03600435166024356108a8565b341561031857600080fd5b6100fd600160a060020a03600435166024356109a3565b341561033a57600080fd5b6101d0600160a060020a0360043581169060243516610a47565b341561035f57600080fd5b610373600160a060020a0360043516610a72565b005b60035460a060020a900460ff1681565b60408051908101604052601381527f44414f537461636b205361667420546f6b656e00000000000000000000000000602082015281565b600160a060020a03338116600081815260026020908152604080832094871680845294909152808220859055909291907f8c5be1e5ebec7d5bd14f71427d1e84f3dd0314c0f7b2291e5b200ac8c7c3b9259085905190815260200160405180910390a350600192915050565b60005481565b6000600160a060020a038316151561044557600080fd5b600160a060020a03841660009081526001602052604090205482111561046a57600080fd5b600160a060020a038085166000908152600260209081526040808320339094168352929052205482111561049d57600080fd5b600160a060020a0384166000908152600160205260409020546104c6908363ffffffff610b0d16565b600160a060020a0380861660009081526001602052604080822093909355908516815220546104fb908363ffffffff610b1f16565b600160a060020a03808516600090815260016020908152604080832094909455878316825260028152838220339093168252919091522054610543908363ffffffff610b0d16565b600160a060020a03808616600081815260026020908152604080832033861684529091529081902093909355908516917fddf252ad1be2c89b69c2b068fc378daa952ba7f163c4a11628f55a4df523b3ef9085905190815260200160405180910390a35060019392505050565b601281565b60035460009033600160a060020a039081169116146105d357600080fd5b60035460a060020a900460ff16156105ea57600080fd5b6000546105fd908363ffffffff610b1f16565b6000908155600160a060020a038416815260016020526040902054610628908363ffffffff610b1f16565b600160a060020a0384166000818152600160205260409081902092909255907f0f6798a560793a54c3bcfe86a93cde1e73087d944c0ea20544137d41213968859084905190815260200160405180910390a2600160a060020a03831660007fddf252ad1be2c89b69c2b068fc378daa952ba7f163c4a11628f55a4df523b3ef8460405190815260200160405180910390a350600192915050565b600160a060020a0333811660009081526002602090815260408083209386168352929052908120548083111561071f57600160a060020a033381166000908152600260209081526040808320938816835292905290812055610756565b61072f818463ffffffff610b0d16565b600160a060020a033381166000908152600260209081526040808320938916835292905220555b600160a060020a0333811660008181526002602090815260408083209489168084529490915290819020547f8c5be1e5ebec7d5bd14f71427d1e84f3dd0314c0f7b2291e5b200ac8c7c3b925915190815260200160405180910390a35060019392505050565b600160a060020a031660009081526001602052604090205490565b60035460009033600160a060020a039081169116146107f557600080fd5b60035460a060020a900460ff161561080c57600080fd5b6003805474ff0000000000000000000000000000000000000000191660a060020a1790557fae5184fba832cb2b1f702aca6117b8d265eaf03ad33eb133f19dde0f5920fa0860405160405180910390a150600190565b600354600160a060020a031681565b60408051908101604052600381527f4453540000000000000000000000000000000000000000000000000000000000602082015281565b6000600160a060020a03831615156108bf57600080fd5b600160a060020a0333166000908152600160205260409020548211156108e457600080fd5b600160a060020a03331660009081526001602052604090205461090d908363ffffffff610b0d16565b600160a060020a033381166000908152600160205260408082209390935590851681522054610942908363ffffffff610b1f16565b600160a060020a0380851660008181526001602052604090819020939093559133909116907fddf252ad1be2c89b69c2b068fc378daa952ba7f163c4a11628f55a4df523b3ef9085905190815260200160405180910390a350600192915050565b600160a060020a0333811660009081526002602090815260408083209386168352929052908120546109db908363ffffffff610b1f16565b600160a060020a0333811660008181526002602090815260408083209489168084529490915290819020849055919290917f8c5be1e5ebec7d5bd14f71427d1e84f3dd0314c0f7b2291e5b200ac8c7c3b92591905190815260200160405180910390a350600192915050565b600160a060020a03918216600090815260026020908152604080832093909416825291909152205490565b60035433600160a060020a03908116911614610a8d57600080fd5b600160a060020a0381161515610aa257600080fd5b600354600160a060020a0380831691167f8be0079c531659141344cd1fd0a4f28419497f9722a3daafe3b4186f6b6457e060405160405180910390a36003805473ffffffffffffffffffffffffffffffffffffffff1916600160a060020a0392909216919091179055565b600082821115610b1957fe5b50900390565b600082820183811015610b2e57fe5b93925050505600a165627a7a72305820883970cb8e5533cfb09415a4f038da7a6311707d0e7dd08d635c092ce872f1290029a165627a7a72305820a075b44077253f1e8feb8ddb2179864e6f149befd0dab473067bc8a964dbcb560029606060405260038054600160a860020a03191633600160a060020a0316179055610b618061002e6000396000f3006060604052600436106100e55763ffffffff7c010000000000000000000000000000000000000000000000000000000060003504166305d2035b81146100ea57806306fdde0314610111578063095ea7b31461019b57806318160ddd146101bd57806323b872dd146101e2578063313ce5671461020a57806340c10f1914610233578063661884631461025557806370a08231146102775780637d64bcb4146102965780638da5cb5b146102a957806395d89b41146102d8578063a9059cbb146102eb578063d73dd6231461030d578063dd62ed3e1461032f578063f2fde38b14610354575b600080fd5b34156100f557600080fd5b6100fd610375565b604051901515815260200160405180910390f35b341561011c57600080fd5b610124610385565b60405160208082528190810183818151815260200191508051906020019080838360005b83811015610160578082015183820152602001610148565b50505050905090810190601f16801561018d5780820380516001836020036101000a031916815260200191505b509250505060405180910390f35b34156101a657600080fd5b6100fd600160a060020a03600435166024356103bc565b34156101c857600080fd5b6101d0610428565b60405190815260200160405180910390f35b34156101ed57600080fd5b6100fd600160a060020a036004358116906024351660443561042e565b341561021557600080fd5b61021d6105b0565b60405160ff909116815260200160405180910390f35b341561023e57600080fd5b6100fd600160a060020a03600435166024356105b5565b341561026057600080fd5b6100fd600160a060020a03600435166024356106c2565b341561028257600080fd5b6101d0600160a060020a03600435166107bc565b34156102a157600080fd5b6100fd6107d7565b34156102b457600080fd5b6102bc610862565b604051600160a060020a03909116815260200160405180910390f35b34156102e357600080fd5b610124610871565b34156102f657600080fd5b6100fd600160a060020a03600435166024356108a8565b341561031857600080fd5b6100fd600160a060020a03600435166024356109a3565b341561033a57600080fd5b6101d0600160a060020a0360043581169060243516610a47565b341561035f57600080fd5b610373600160a060020a0360043516610a72565b005b60035460a060020a900460ff1681565b60408051908101604052601381527f44414f537461636b205361667420546f6b656e00000000000000000000000000602082015281565b600160a060020a03338116600081815260026020908152604080832094871680845294909152808220859055909291907f8c5be1e5ebec7d5bd14f71427d1e84f3dd0314c0f7b2291e5b200ac8c7c3b9259085905190815260200160405180910390a350600192915050565b60005481565b6000600160a060020a038316151561044557600080fd5b600160a060020a03841660009081526001602052604090205482111561046a57600080fd5b600160a060020a038085166000908152600260209081526040808320339094168352929052205482111561049d57600080fd5b600160a060020a0384166000908152600160205260409020546104c6908363ffffffff610b0d16565b600160a060020a0380861660009081526001602052604080822093909355908516815220546104fb908363ffffffff610b1f16565b600160a060020a03808516600090815260016020908152604080832094909455878316825260028152838220339093168252919091522054610543908363ffffffff610b0d16565b600160a060020a03808616600081815260026020908152604080832033861684529091529081902093909355908516917fddf252ad1be2c89b69c2b068fc378daa952ba7f163c4a11628f55a4df523b3ef9085905190815260200160405180910390a35060019392505050565b601281565b60035460009033600160a060020a039081169116146105d357600080fd5b60035460a060020a900460ff16156105ea57600080fd5b6000546105fd908363ffffffff610b1f16565b6000908155600160a060020a038416815260016020526040902054610628908363ffffffff610b1f16565b600160a060020a0384166000818152600160205260409081902092909255907f0f6798a560793a54c3bcfe86a93cde1e73087d944c0ea20544137d41213968859084905190815260200160405180910390a2600160a060020a03831660007fddf252ad1be2c89b69c2b068fc378daa952ba7f163c4a11628f55a4df523b3ef8460405190815260200160405180910390a350600192915050565b600160a060020a0333811660009081526002602090815260408083209386168352929052908120548083111561071f57600160a060020a033381166000908152600260209081526040808320938816835292905290812055610756565b61072f818463ffffffff610b0d16565b600160a060020a033381166000908152600260209081526040808320938916835292905220555b600160a060020a0333811660008181526002602090815260408083209489168084529490915290819020547f8c5be1e5ebec7d5bd14f71427d1e84f3dd0314c0f7b2291e5b200ac8c7c3b925915190815260200160405180910390a35060019392505050565b600160a060020a031660009081526001602052604090205490565b60035460009033600160a060020a039081169116146107f557600080fd5b60035460a060020a900460ff161561080c57600080fd5b6003805474ff0000000000000000000000000000000000000000191660a060020a1790557fae5184fba832cb2b1f702aca6117b8d265eaf03ad33eb133f19dde0f5920fa0860405160405180910390a150600190565b600354600160a060020a031681565b60408051908101604052600381527f4453540000000000000000000000000000000000000000000000000000000000602082015281565b6000600160a060020a03831615156108bf57600080fd5b600160a060020a0333166000908152600160205260409020548211156108e457600080fd5b600160a060020a03331660009081526001602052604090205461090d908363ffffffff610b0d16565b600160a060020a033381166000908152600160205260408082209390935590851681522054610942908363ffffffff610b1f16565b600160a060020a0380851660008181526001602052604090819020939093559133909116907fddf252ad1be2c89b69c2b068fc378daa952ba7f163c4a11628f55a4df523b3ef9085905190815260200160405180910390a350600192915050565b600160a060020a0333811660009081526002602090815260408083209386168352929052908120546109db908363ffffffff610b1f16565b600160a060020a0333811660008181526002602090815260408083209489168084529490915290819020849055919290917f8c5be1e5ebec7d5bd14f71427d1e84f3dd0314c0f7b2291e5b200ac8c7c3b92591905190815260200160405180910390a350600192915050565b600160a060020a03918216600090815260026020908152604080832093909416825291909152205490565b60035433600160a060020a03908116911614610a8d57600080fd5b600160a060020a0381161515610aa257600080fd5b600354600160a060020a0380831691167f8be0079c531659141344cd1fd0a4f28419497f9722a3daafe3b4186f6b6457e060405160405180910390a36003805473ffffffffffffffffffffffffffffffffffffffff1916600160a060020a0392909216919091179055565b600082821115610b1957fe5b50900390565b600082820183811015610b2e57fe5b93925050505600a165627a7a72305820883970cb8e5533cfb09415a4f038da7a6311707d0e7dd08d635c092ce872f1290029",
  "source": "pragma solidity ^0.4.18;\r\n\r\nimport \"zeppelin-solidity/contracts/crowdsale/CappedCrowdsale.sol\";\r\nimport \"zeppelin-solidity/contracts/token/MintableToken.sol\";\r\n\r\n\r\n/**\r\n * @title SaftToken\r\n * @dev Very simple ERC20 Token that can be minted.\r\n * It is meant to be used in a crowdsale contract.\r\n */\r\ncontract SaftToken is MintableToken {\r\n    string public constant name = \"DAOStack Saft Token\";\r\n    string public constant symbol = \"DST\";\r\n    uint8 public constant decimals = 18;\r\n}\r\n\r\n\r\n/**\r\n * @title SaftTokenSale\r\n * @dev The DAOStack SAFT token sale.\r\n */\r\ncontract SaftTokenSale is CappedCrowdsale {\r\n\r\n    function SaftTokenSale(uint256 _startTime, uint256 _endTime, uint256 _rate, uint256 _cap, address _wallet)\r\n    public\r\n    CappedCrowdsale(_cap)\r\n    Crowdsale(_startTime, _endTime, _rate, _wallet)\r\n    {\r\n\r\n    }\r\n\r\n    function createTokenContract() internal returns (MintableToken) {\r\n        return new SaftToken();\r\n    }\r\n\r\n}\r\n",
  "sourcePath": "C:\\Users\\dkent\\Documents\\Projects\\GitHub\\DAOStack\\daostack\\contracts\\other\\SaftTokenSale.sol",
  "compiler": {
    "name": "solc",
    "version": "0.4.18+commit.9cf6e910.Emscripten.clang"
  },
  "schemaVersion": "1.0.1",
  "updatedAt": "2017-12-12T22:09:07.111Z"
}