{
  "contractName": "SchemeRegistrar",
  "abi": [
    {
      "constant": true,
      "inputs": [
        {
          "name": "",
          "type": "bytes32"
        }
      ],
      "name": "parameters",
      "outputs": [
        {
          "name": "voteRegisterParams",
          "type": "bytes32"
        },
        {
          "name": "voteRemoveParams",
          "type": "bytes32"
        },
        {
          "name": "intVote",
          "type": "address"
        }
      ],
      "payable": false,
      "stateMutability": "view",
      "type": "function"
    },
    {
      "constant": true,
      "inputs": [
        {
          "name": "",
          "type": "address"
        },
        {
          "name": "",
          "type": "bytes32"
        }
      ],
      "name": "organizationsProposals",
      "outputs": [
        {
          "name": "scheme",
          "type": "address"
        },
        {
          "name": "parametersHash",
          "type": "bytes32"
        },
        {
          "name": "proposalType",
          "type": "uint256"
        },
        {
          "name": "isRegistering",
          "type": "bool"
        },
        {
          "name": "tokenFee",
          "type": "address"
        },
        {
          "name": "fee",
          "type": "uint256"
        },
        {
          "name": "autoRegisterOrganization",
          "type": "bool"
        }
      ],
      "payable": false,
      "stateMutability": "view",
      "type": "function"
    },
    {
      "constant": false,
      "inputs": [
        {
          "name": "_voteRegisterParams",
          "type": "bytes32"
        },
        {
          "name": "_voteRemoveParams",
          "type": "bytes32"
        },
        {
          "name": "_intVote",
          "type": "address"
        }
      ],
      "name": "setParameters",
      "outputs": [
        {
          "name": "",
          "type": "bytes32"
        }
      ],
      "payable": false,
      "stateMutability": "nonpayable",
      "type": "function"
    },
    {
      "constant": false,
      "inputs": [
        {
          "name": "_avatar",
          "type": "address"
        },
        {
          "name": "_scheme",
          "type": "address"
        },
        {
          "name": "_parametersHash",
          "type": "bytes32"
        },
        {
          "name": "_isRegistering",
          "type": "bool"
        },
        {
          "name": "_tokenFee",
          "type": "address"
        },
        {
          "name": "_fee",
          "type": "uint256"
        },
        {
          "name": "_autoRegisterOrganization",
          "type": "bool"
        }
      ],
      "name": "proposeScheme",
      "outputs": [
        {
          "name": "",
          "type": "bytes32"
        }
      ],
      "payable": false,
      "stateMutability": "nonpayable",
      "type": "function"
    },
    {
      "constant": false,
      "inputs": [
        {
          "name": "_proposalId",
          "type": "bytes32"
        },
        {
          "name": "_avatar",
          "type": "address"
        },
        {
          "name": "_param",
          "type": "int256"
        }
      ],
      "name": "execute",
      "outputs": [
        {
          "name": "",
          "type": "bool"
        }
      ],
      "payable": false,
      "stateMutability": "nonpayable",
      "type": "function"
    },
    {
      "constant": true,
      "inputs": [],
      "name": "beneficiary",
      "outputs": [
        {
          "name": "",
          "type": "address"
        }
      ],
      "payable": false,
      "stateMutability": "view",
      "type": "function"
    },
    {
      "constant": false,
      "inputs": [
        {
          "name": "_nativeToken",
          "type": "address"
        },
        {
          "name": "_fee",
          "type": "uint256"
        },
        {
          "name": "_beneficiary",
          "type": "address"
        },
        {
          "name": "_hashedParameters",
          "type": "bytes32"
        }
      ],
      "name": "updateParameters",
      "outputs": [],
      "payable": false,
      "stateMutability": "nonpayable",
      "type": "function"
    },
    {
      "constant": false,
      "inputs": [
        {
          "name": "_avatar",
          "type": "address"
        },
        {
          "name": "_scheme",
          "type": "address"
        }
      ],
      "name": "proposeToRemoveScheme",
      "outputs": [
        {
          "name": "",
          "type": "bytes32"
        }
      ],
      "payable": false,
      "stateMutability": "nonpayable",
      "type": "function"
    },
    {
      "constant": true,
      "inputs": [
        {
          "name": "",
          "type": "address"
        }
      ],
      "name": "organizations",
      "outputs": [
        {
          "name": "",
          "type": "bool"
        }
      ],
      "payable": false,
      "stateMutability": "view",
      "type": "function"
    },
    {
      "constant": true,
      "inputs": [
        {
          "name": "_voteRegisterParams",
          "type": "bytes32"
        },
        {
          "name": "_voteRemoveParams",
          "type": "bytes32"
        },
        {
          "name": "_intVote",
          "type": "address"
        }
      ],
      "name": "getParametersHash",
      "outputs": [
        {
          "name": "",
          "type": "bytes32"
        }
      ],
      "payable": false,
      "stateMutability": "pure",
      "type": "function"
    },
    {
      "constant": true,
      "inputs": [],
      "name": "owner",
      "outputs": [
        {
          "name": "",
          "type": "address"
        }
      ],
      "payable": false,
      "stateMutability": "view",
      "type": "function"
    },
    {
      "constant": false,
      "inputs": [
        {
          "name": "_avatar",
          "type": "address"
        }
      ],
      "name": "registerOrganization",
      "outputs": [],
      "payable": false,
      "stateMutability": "nonpayable",
      "type": "function"
    },
    {
      "constant": true,
      "inputs": [
        {
          "name": "_avatar",
          "type": "address"
        }
      ],
      "name": "isRegistered",
      "outputs": [
        {
          "name": "",
          "type": "bool"
        }
      ],
      "payable": false,
      "stateMutability": "view",
      "type": "function"
    },
    {
      "constant": true,
      "inputs": [],
      "name": "fee",
      "outputs": [
        {
          "name": "",
          "type": "uint256"
        }
      ],
      "payable": false,
      "stateMutability": "view",
      "type": "function"
    },
    {
      "constant": true,
      "inputs": [],
      "name": "nativeToken",
      "outputs": [
        {
          "name": "",
          "type": "address"
        }
      ],
      "payable": false,
      "stateMutability": "view",
      "type": "function"
    },
    {
      "constant": false,
      "inputs": [
        {
          "name": "newOwner",
          "type": "address"
        }
      ],
      "name": "transferOwnership",
      "outputs": [],
      "payable": false,
      "stateMutability": "nonpayable",
      "type": "function"
    },
    {
      "constant": true,
      "inputs": [],
      "name": "hashedParameters",
      "outputs": [
        {
          "name": "",
          "type": "bytes32"
        }
      ],
      "payable": false,
      "stateMutability": "view",
      "type": "function"
    },
    {
      "inputs": [
        {
          "name": "_nativeToken",
          "type": "address"
        },
        {
          "name": "_fee",
          "type": "uint256"
        },
        {
          "name": "_beneficiary",
          "type": "address"
        }
      ],
      "payable": false,
      "stateMutability": "nonpayable",
      "type": "constructor"
    },
    {
      "anonymous": false,
      "inputs": [
        {
          "indexed": true,
          "name": "_avatar",
          "type": "address"
        },
        {
          "indexed": true,
          "name": "_proposalId",
          "type": "bytes32"
        },
        {
          "indexed": true,
          "name": "_intVoteInterface",
          "type": "address"
        },
        {
          "indexed": false,
          "name": "_scheme",
          "type": "address"
        },
        {
          "indexed": false,
          "name": "_parametersHash",
          "type": "bytes32"
        },
        {
          "indexed": false,
          "name": "_isRegistering",
          "type": "bool"
        },
        {
          "indexed": false,
          "name": "_tokenFee",
          "type": "address"
        },
        {
          "indexed": false,
          "name": "_fee",
          "type": "uint256"
        },
        {
          "indexed": false,
          "name": "_autoRegisterOrganization",
          "type": "bool"
        }
      ],
      "name": "LogNewSchemeProposal",
      "type": "event"
    },
    {
      "anonymous": false,
      "inputs": [
        {
          "indexed": true,
          "name": "_avatar",
          "type": "address"
        },
        {
          "indexed": true,
          "name": "_proposalId",
          "type": "bytes32"
        },
        {
          "indexed": true,
          "name": "_intVoteInterface",
          "type": "address"
        },
        {
          "indexed": false,
          "name": "_scheme",
          "type": "address"
        }
      ],
      "name": "LogRemoveSchemeProposal",
      "type": "event"
    },
    {
      "anonymous": false,
      "inputs": [
        {
          "indexed": true,
          "name": "_avatar",
          "type": "address"
        },
        {
          "indexed": true,
          "name": "_proposalId",
          "type": "bytes32"
        }
      ],
      "name": "LogProposalExecuted",
      "type": "event"
    },
    {
      "anonymous": false,
      "inputs": [
        {
          "indexed": true,
          "name": "_avatar",
          "type": "address"
        },
        {
          "indexed": true,
          "name": "_proposalId",
          "type": "bytes32"
        }
      ],
      "name": "LogProposalDeleted",
      "type": "event"
    },
    {
      "anonymous": false,
      "inputs": [
        {
          "indexed": false,
          "name": "_avatar",
          "type": "address"
        }
      ],
      "name": "OrganizationRegistered",
      "type": "event"
    },
    {
      "anonymous": false,
      "inputs": [
        {
          "indexed": false,
          "name": "proposalId",
          "type": "bytes32"
        }
      ],
      "name": "LogNewProposal",
      "type": "event"
    },
    {
      "anonymous": false,
      "inputs": [
        {
          "indexed": true,
          "name": "previousOwner",
          "type": "address"
        },
        {
          "indexed": true,
          "name": "newOwner",
          "type": "address"
        }
      ],
      "name": "OwnershipTransferred",
      "type": "event"
    }
  ],
  "bytecode": "0x6060604052341561000f57600080fd5b60405160608061148783398101604052808051919060200180519190602001805160008054600160a060020a03191633600160a060020a031617815590925061006b91508490849084906401000000006100738102610d751704565b5050506100c6565b60005433600160a060020a0390811691161461008e57600080fd5b60018054600160a060020a0319908116600160a060020a03968716179091556002939093556003805490931691909316179055600455565b6113b2806100d56000396000f3006060604052600436106100d75763ffffffff60e060020a6000350416630250680481146100dc57806306e3a9781461011f5780630a6687fd1461018c5780632d15dd50146101c3578063310ce4e21461020057806338af3eed146102395780634345a6101461026857806357b4c460146102965780635a1f7406146102bb57806377182261146102da5780638da5cb5b146102ff57806390be003c14610312578063c3c5a54714610331578063ddca3f4314610350578063e1758bd814610363578063f2fde38b14610376578063f98e87ba14610395575b600080fd5b34156100e757600080fd5b6100f26004356103a8565b6040519283526020830191909152600160a060020a03166040808301919091526060909101905180910390f35b341561012a57600080fd5b610141600160a060020a03600435166024356103d2565b604051600160a060020a039788168152602081019690965260408087019590955292151560608601529416608084015260a083019390935291151560c082015260e001905180910390f35b341561019757600080fd5b6101b1600435602435600160a060020a036044351661042d565b60405190815260200160405180910390f35b34156101ce57600080fd5b6101b1600160a060020a03600435811690602435811690604435906064351515906084351660a43560c435151561047d565b341561020b57600080fd5b610225600435600160a060020a036024351660443561083a565b604051901515815260200160405180910390f35b341561024457600080fd5b61024c610d66565b604051600160a060020a03909116815260200160405180910390f35b341561027357600080fd5b610294600160a060020a036004358116906024359060443516606435610d75565b005b34156102a157600080fd5b6101b1600160a060020a0360043581169060243516610dc8565b34156102c657600080fd5b610225600160a060020a0360043516610ff0565b34156102e557600080fd5b6101b1600435602435600160a060020a0360443516611005565b341561030a57600080fd5b61024c61104e565b341561031d57600080fd5b610294600160a060020a036004351661105d565b341561033c57600080fd5b610225600160a060020a0360043516611186565b341561035b57600080fd5b6101b16111a4565b341561036e57600080fd5b61024c6111aa565b341561038157600080fd5b610294600160a060020a03600435166111b9565b34156103a057600080fd5b6101b1611247565b600760205260009081526040902080546001820154600290920154909190600160a060020a031683565b6006602090815260009283526040808420909152908252902080546001820154600283015460038401546004850154600590950154600160a060020a03948516959394929360ff808416946101009094049093169290911687565b60008061043b858585611005565b60008181526007602052604090209586556001860194909455505060029092018054600160a060020a031916600160a060020a03939093169290921790915590565b600061048761132a565b600061049161134a565b600160a060020a038b166000908152600560205260409020548b9060ff1615156104ba57600080fd5b8515610533578a600160a060020a031663c3c5a5478d60006040516020015260405160e060020a63ffffffff8416028152600160a060020a039091166004820152602401602060405180830381600087803b151561051757600080fd5b6102c65a03f1151561052857600080fd5b505050604051805150505b600760006105408e61124d565b815260208101919091526040908101600020906060905190810160409081528254825260018301546020830152600290920154600160a060020a0316918101918252945051600160a060020a03166388737b5e600286518f3060006040516020015260405160e060020a63ffffffff871602815260048101949094526024840192909252600160a060020a039081166044840152166064820152608401602060405180830381600087803b15156105f657600080fd5b6102c65a03f1151561060757600080fd5b50505060405180519050925060e06040519081016040908152600160a060020a03808e168352602083018d90526001828401528b151560608401528a16608083015260a0820189905287151560c0830152909250840151600160a060020a031683600019168d600160a060020a03167fa3d27ea573e5dd5b65d4850ff4d0cb2e1f8633c148ff9c19040e1b6c609c03868e8e8e8e8e8e604051600160a060020a03968716815260208101959095529215156040808601919091529190941660608401526080830193909352151560a082015260c001905180910390a4600160a060020a038c1660009081526006602090815260408083208684529091529020829081518154600160a060020a031916600160a060020a03919091161781556020820151600182015560408201518160020155606082015160038201805460ff191691151591909117905560808201518160030160016101000a815481600160a060020a030219169083600160a060020a0316021790555060a0820151816004015560c0820151600591909101805460ff1916911515919091179055506040840151600160a060020a031663339e23d18460013360006040516020015260405160e060020a63ffffffff861602815260048101939093526024830191909152600160a060020a03166044820152606401602060405180830381600087803b151561080f57600080fd5b6102c65a03f1151561082057600080fd5b505050604051805150929c9b505050505050505050505050565b60008061084561134a565b33600160a060020a03166007600061085c8861124d565b8152602081019190915260400160002060020154600160a060020a03161461088357600080fd5b8360011415610cb75784600160a060020a0316638da5cb5b6000604051602001526040518163ffffffff1660e060020a028152600401602060405180830381600087803b15156108d257600080fd5b6102c65a03f115156108e357600080fd5b5050506040518051600160a060020a03871660009081526006602090815260408083208b84529091529081902091945090915060e0905190810160409081528254600160a060020a039081168352600184015460208401526002840154918301918252600384015460ff808216151560608601526101009091049091166080840152600484015460a0840152600590930154909216151560c082015291505160011415610c2c578060a0015115610a2d5781600160a060020a0316638cf1355c826080015183518460a0015160006040516020015260405160e060020a63ffffffff8616028152600160a060020a0393841660048201529190921660248201526044810191909152606401602060405180830381600087803b1515610a0757600080fd5b6102c65a03f11515610a1857600080fd5b505050604051805190501515610a2d57600080fd5b80606001511515610af157600160a060020a03821663a34abaa88251836020015160e060020a60006040516020015260405160e060020a63ffffffff8616028152600160a060020a03909316600484015260248301919091527bffffffffffffffffffffffffffffffffffffffffffffffffffffffff19166044820152606401602060405180830381600087803b1515610ac657600080fd5b6102c65a03f11515610ad757600080fd5b505050604051805190501515610aec57600080fd5b610bbe565b600160a060020a03821663a34abaa8825183602001517c030000000000000000000000000000000000000000000000000000000060006040516020015260405160e060020a63ffffffff8616028152600160a060020a03909316600484015260248301919091527bffffffffffffffffffffffffffffffffffffffffffffffffffffffff19166044820152606401602060405180830381600087803b1515610b9857600080fd5b6102c65a03f11515610ba957600080fd5b505050604051805190501515610bbe57600080fd5b8060c0015115610c2c578051600160a060020a03166390be003c8660405160e060020a63ffffffff8416028152600160a060020a039091166004820152602401600060405180830381600087803b1515610c1757600080fd5b6102c65a03f11515610c2857600080fd5b5050505b806040015160021415610cb757600160a060020a03821663653915e5825160006040516020015260405160e060020a63ffffffff8416028152600160a060020a039091166004820152602401602060405180830381600087803b1515610c9157600080fd5b6102c65a03f11515610ca257600080fd5b505050604051805190501515610cb757600080fd5b600160a060020a03851660008181526006602090815260408083208a84529091528082208054600160a060020a0319168155600181018390556002810183905560038101805474ffffffffffffffffffffffffffffffffffffffffff1916905560048101929092556005909101805460ff191690558791907f1f9b6fe94f8389fd9936094c2246b3cb2b4392e59e72e915e70e6a08a47a1fb9905160405180910390a350600195945050505050565b600354600160a060020a031681565b60005433600160a060020a03908116911614610d9057600080fd5b60018054600160a060020a0319908116600160a060020a03968716179091556002939093556003805490931691909316179055600455565b600080610dd361132a565b600160a060020a0385166000908152600560205260408120548190879060ff161515610dfe57600080fd5b610e078861124d565b600081815260076020526040908190209196506060905190810160409081528254825260018301546020830152600290920154600160a060020a0316918101918252945051925082600160a060020a03166388737b5e600286602001518b3060006040516020015260405160e060020a63ffffffff871602815260048101949094526024840192909252600160a060020a039081166044840152166064820152608401602060405180830381600087803b1515610ec357600080fd5b6102c65a03f11515610ed457600080fd5b5050506040518051600160a060020a038a81166000818152600660209081526040808320868452909152908190206002808201558054600160a060020a0319168d8516179055929550908616925084917f68953fb1bf1b1aeeaaa5832742ffcb54530b6c3d63a03a1cb09a6b69dae43446908b9051600160a060020a03909116815260200160405180910390a482600160a060020a031663339e23d18360013360006040516020015260405160e060020a63ffffffff861602815260048101939093526024830191909152600160a060020a03166044820152606401602060405180830381600087803b1515610fc957600080fd5b6102c65a03f11515610fda57600080fd5b5050506040518051509198975050505050505050565b60056020526000908152604090205460ff1681565b60008383836040519283526020830191909152600160a060020a03166c010000000000000000000000000260408083019190915260549091019051809103902090509392505050565b600054600160a060020a031681565b60006002541180156110885750600160a060020a03811660009081526005602052604090205460ff16155b1561112157600154600354600254600160a060020a03928316926323b872dd92859291169060006040516020015260405160e060020a63ffffffff8616028152600160a060020a0393841660048201529190921660248201526044810191909152606401602060405180830381600087803b151561110557600080fd5b6102c65a03f1151561111657600080fd5b505050604051805150505b600160a060020a03811660009081526005602052604090819020805460ff191660011790557f2178e9c576507a4c15d3deab489af3f699a3dedbff9a7ef27c43a017027710e590829051600160a060020a03909116815260200160405180910390a150565b600160a060020a031660009081526005602052604090205460ff1690565b60025481565b600154600160a060020a031681565b60005433600160a060020a039081169116146111d457600080fd5b600160a060020a03811615156111e957600080fd5b600054600160a060020a0380831691167f8be0079c531659141344cd1fd0a4f28419497f9722a3daafe3b4186f6b6457e060405160405180910390a360008054600160a060020a031916600160a060020a0392909216919091179055565b60045481565b60008082600160a060020a0316638da5cb5b6000604051602001526040518163ffffffff1660e060020a028152600401602060405180830381600087803b151561129657600080fd5b6102c65a03f115156112a757600080fd5b5050506040518051915050600160a060020a0381166346e361b73060006040516020015260405160e060020a63ffffffff8416028152600160a060020a039091166004820152602401602060405180830381600087803b151561130957600080fd5b6102c65a03f1151561131a57600080fd5b5050506040518051949350505050565b606060405190810160409081526000808352602083018190529082015290565b60e06040519081016040908152600080835260208301819052908201819052606082018190526080820181905260a0820181905260c0820152905600a165627a7a72305820b266e190c07a62c2edad6775a05b47ff155c5639324a3742bbf876977eef56f30029",
  "source": "pragma solidity ^0.4.18;\r\n\r\nimport \"../VotingMachines/IntVoteInterface.sol\";\r\nimport \"./UniversalScheme.sol\";\r\n\r\n\r\n/**\r\n * @title A registrar for Schemes for organizations\r\n * @dev The SchemeRegistrar is used for registering and unregistering schemes at organizations\r\n */\r\n\r\ncontract SchemeRegistrar is UniversalScheme {\r\n    event LogNewSchemeProposal(\r\n        address indexed _avatar,\r\n        bytes32 indexed _proposalId,\r\n        address indexed _intVoteInterface,\r\n        address _scheme,\r\n        bytes32 _parametersHash,\r\n        bool _isRegistering,\r\n        StandardToken _tokenFee,\r\n        uint _fee,\r\n        bool _autoRegisterOrganization\r\n    );\r\n    event LogRemoveSchemeProposal(address indexed _avatar,\r\n        bytes32 indexed _proposalId,\r\n        address indexed _intVoteInterface,\r\n        address _scheme\r\n    );\r\n    event LogProposalExecuted(address indexed _avatar, bytes32 indexed _proposalId);\r\n    event LogProposalDeleted(address indexed _avatar, bytes32 indexed _proposalId);\r\n\r\n    // a SchemeProposal is a  proposal to add or remove a scheme to/from the an orgaization\r\n    struct SchemeProposal {\r\n        address scheme; //\r\n        bytes32 parametersHash;\r\n        uint proposalType; // 1: add a schme, 2: remove a scheme.\r\n        bool isRegistering;\r\n        StandardToken tokenFee;\r\n        uint fee;\r\n        bool autoRegisterOrganization;\r\n    }\r\n\r\n    // A mapping from thr organization (Avatar) address to the saved data of the organization:\r\n    mapping(address=>mapping(bytes32=>SchemeProposal)) public organizationsProposals;\r\n\r\n    // A mapping from hashes to parameters (use to store a particular configuration on the controller)\r\n    struct Parameters {\r\n        bytes32 voteRegisterParams;\r\n        bytes32 voteRemoveParams;\r\n        IntVoteInterface intVote;\r\n    }\r\n    mapping(bytes32=>Parameters) public parameters;\r\n\r\n    /**\r\n    * @dev The constructor\r\n    * @param _nativeToken a Token that is used for paying fees for registering\r\n    * @param _fee the fee to pay\r\n    * @param _beneficiary to whom the fee is payed\r\n    */\r\n    function SchemeRegistrar(StandardToken _nativeToken, uint _fee, address _beneficiary) public {\r\n        updateParameters(_nativeToken, _fee, _beneficiary, bytes32(0));\r\n    }\r\n\r\n    /**\r\n    * @dev hash the parameters, save them if necessary, and return the hash value\r\n    */\r\n    function setParameters(\r\n        bytes32 _voteRegisterParams,\r\n        bytes32 _voteRemoveParams,\r\n        IntVoteInterface _intVote\r\n    ) public returns(bytes32)\r\n    {\r\n        bytes32 paramsHash = getParametersHash(_voteRegisterParams, _voteRemoveParams, _intVote);\r\n        parameters[paramsHash].voteRegisterParams = _voteRegisterParams;\r\n        parameters[paramsHash].voteRemoveParams = _voteRemoveParams;\r\n        parameters[paramsHash].intVote = _intVote;\r\n        return paramsHash;\r\n    }\r\n\r\n    function getParametersHash(\r\n        bytes32 _voteRegisterParams,\r\n        bytes32 _voteRemoveParams,\r\n        IntVoteInterface _intVote\r\n    ) public pure returns(bytes32)\r\n    {\r\n        return keccak256(_voteRegisterParams, _voteRemoveParams, _intVote);\r\n    }\r\n\r\n    /**\r\n    * @dev create a proposal to register a scheme\r\n    * @param _scheme the address of the scheme to be registered\r\n    * @param _parametersHash a hash of the configuration of the _scheme\r\n    * @param _isRegistering a boolean represent if the scheme is a registering scheme\r\n    *      that can register other schemes\r\n    * @param _tokenFee a token that will be used to pay any fees needed for registering the avatar\r\n    * @param _fee the fee to be paid\r\n    * @param _avatar the address of the organization the scheme will be registered for\r\n    * @return a proposal Id\r\n    * @dev NB: not only proposes the vote, but also votes for it\r\n    */\r\n    // TODO: check if we cannot derive isRegistering from the _scheme itself\r\n    // TODO: simplify this by removing the _tokenFee and fee params, which can be derived from\r\n    // the scheme (i.e. are equal to _scheme.fee() and scheme.somethingToken())\r\n    function proposeScheme(\r\n        Avatar _avatar,\r\n        address _scheme,\r\n        bytes32 _parametersHash,\r\n        bool _isRegistering,\r\n        StandardToken _tokenFee,\r\n        uint _fee,\r\n        bool _autoRegisterOrganization\r\n    )\r\n    public\r\n    onlyRegisteredOrganization(_avatar)\r\n    returns(bytes32)\r\n    {\r\n        if (_autoRegisterOrganization) {\r\n            //This should revert for non arc scheme which do not have Fallback functions.\r\n            //We do it here to prevent revert at the proposal execution after the voting proccess.\r\n            UniversalScheme(_scheme).isRegistered(Avatar(_avatar));\r\n        }\r\n        // propose\r\n        Parameters memory controllerParams = parameters[getParametersFromController(_avatar)];\r\n\r\n        bytes32 proposalId = controllerParams.intVote.propose(2, controllerParams.voteRegisterParams, _avatar, ExecutableInterface(this));\r\n\r\n        SchemeProposal memory proposal = SchemeProposal({\r\n            scheme: _scheme,\r\n            parametersHash: _parametersHash,\r\n            proposalType: 1,\r\n            isRegistering: _isRegistering,\r\n            tokenFee: _tokenFee,\r\n            fee: _fee,\r\n            autoRegisterOrganization: _autoRegisterOrganization\r\n        });\r\n        LogNewSchemeProposal(\r\n            _avatar,\r\n            proposalId,\r\n            controllerParams.intVote,\r\n            _scheme, _parametersHash,\r\n            _isRegistering,\r\n            _tokenFee,\r\n            _fee,\r\n            _autoRegisterOrganization\r\n        );\r\n        organizationsProposals[_avatar][proposalId] = proposal;\r\n\r\n        // vote for this proposal\r\n        controllerParams.intVote.ownerVote(proposalId, 1, msg.sender); // Automatically votes `yes` in the name of the opener.\r\n        return proposalId;\r\n    }\r\n\r\n    /**\r\n    * @dev propose to remove a scheme for a controller\r\n    * @param _avatar the address of the controller from which we want to remove a scheme\r\n    * @param _scheme the address of the scheme we want to remove\r\n    *\r\n    * NB: not only registers the proposal, but also votes for it\r\n    */\r\n    function proposeToRemoveScheme(Avatar _avatar, address _scheme)\r\n    public\r\n    onlyRegisteredOrganization(_avatar)\r\n    returns(bytes32)\r\n    {\r\n        bytes32 paramsHash = getParametersFromController(_avatar);\r\n        Parameters memory params = parameters[paramsHash];\r\n\r\n        IntVoteInterface intVote = params.intVote;\r\n        bytes32 proposalId = intVote.propose(2, params.voteRemoveParams, _avatar, ExecutableInterface(this));\r\n        \r\n        organizationsProposals[_avatar][proposalId].proposalType = 2;\r\n        organizationsProposals[_avatar][proposalId].scheme = _scheme;\r\n        LogRemoveSchemeProposal(_avatar, proposalId, intVote, _scheme);\r\n        // vote for this proposal\r\n        intVote.ownerVote(proposalId, 1, msg.sender); // Automatically votes `yes` in the name of the opener.\r\n        return proposalId;\r\n    }\r\n\r\n    /**\r\n    * @dev execute a  proposal\r\n    * This method can only be called by the voting machine in which the vote is held.\r\n    * @param _proposalId the ID of the proposal in the voting machine\r\n    * @param _avatar address of the controller\r\n    * @param _param identifies the action to be taken\r\n    */\r\n    // TODO: this call can be simplified if we save the _avatar together with the proposal\r\n    function execute(bytes32 _proposalId, address _avatar, int _param) external returns(bool) {\r\n        // Check the caller is indeed the voting machine:\r\n        require(parameters[getParametersFromController(Avatar(_avatar))].intVote == msg.sender);\r\n\r\n        if (_param == 1) {\r\n\r\n        // Define controller and get the parmas:\r\n            Controller controller = Controller(Avatar(_avatar).owner());\r\n            SchemeProposal memory proposal = organizationsProposals[_avatar][_proposalId];\r\n\r\n        // Add a scheme:\r\n            if (proposal.proposalType == 1) {\r\n                if (proposal.fee != 0) {\r\n                    if (!controller.externalTokenIncreaseApproval(proposal.tokenFee, proposal.scheme, proposal.fee)) {\r\n                        revert();\r\n                      }\r\n                    }\r\n                if (proposal.isRegistering == false) {\r\n                    if (!controller.registerScheme(proposal.scheme, proposal.parametersHash, bytes4(1))) {\r\n                        revert();\r\n                      }\r\n                      } else {\r\n                    if (!controller.registerScheme(proposal.scheme, proposal.parametersHash, bytes4(3))) {\r\n                        revert();\r\n                    }\r\n                }\r\n                if (proposal.autoRegisterOrganization) {\r\n                    UniversalScheme(proposal.scheme).registerOrganization(Avatar(_avatar));\r\n                  }\r\n                }\r\n        // Remove a scheme:\r\n            if ( proposal.proposalType == 2 ) {\r\n                if (!controller.unregisterScheme(proposal.scheme)) {\r\n                    revert();\r\n                  }\r\n                }\r\n          }\r\n        delete organizationsProposals[_avatar][_proposalId];\r\n        LogProposalExecuted(_avatar, _proposalId);\r\n        return true;\r\n    }\r\n}\r\n",
  "sourcePath": "C:\\users\\dkent\\documents\\projects\\GitHub\\DAOStack\\daostack\\contracts\\universalSchemes\\SchemeRegistrar.sol",
  "compiler": {
    "name": "solc",
    "version": "0.4.18+commit.9cf6e910.Emscripten.clang"
  },
  "schemaVersion": "1.0.1",
  "updatedAt": "2017-12-29T21:31:04.866Z"
}