{
  "contractName": "SimpleICO",
  "abi": [
    {
      "constant": true,
      "inputs": [
        {
          "name": "",
          "type": "bytes32"
        }
      ],
      "name": "parameters",
      "outputs": [
        {
          "name": "cap",
          "type": "uint256"
        },
        {
          "name": "price",
          "type": "uint256"
        },
        {
          "name": "startBlock",
          "type": "uint256"
        },
        {
          "name": "endBlock",
          "type": "uint256"
        },
        {
          "name": "beneficiary",
          "type": "address"
        },
        {
          "name": "admin",
          "type": "address"
        }
      ],
      "payable": false,
      "stateMutability": "view",
      "type": "function"
    },
    {
      "constant": false,
      "inputs": [
        {
          "name": "_cap",
          "type": "uint256"
        },
        {
          "name": "_price",
          "type": "uint256"
        },
        {
          "name": "_startBlock",
          "type": "uint256"
        },
        {
          "name": "_endBlock",
          "type": "uint256"
        },
        {
          "name": "_beneficiary",
          "type": "address"
        },
        {
          "name": "_admin",
          "type": "address"
        }
      ],
      "name": "setParameters",
      "outputs": [
        {
          "name": "",
          "type": "bytes32"
        }
      ],
      "payable": false,
      "stateMutability": "nonpayable",
      "type": "function"
    },
    {
      "constant": false,
      "inputs": [
        {
          "name": "_avatar",
          "type": "address"
        },
        {
          "name": "_beneficiary",
          "type": "address"
        }
      ],
      "name": "donate",
      "outputs": [
        {
          "name": "",
          "type": "uint256"
        }
      ],
      "payable": true,
      "stateMutability": "payable",
      "type": "function"
    },
    {
      "constant": true,
      "inputs": [],
      "name": "beneficiary",
      "outputs": [
        {
          "name": "",
          "type": "address"
        }
      ],
      "payable": false,
      "stateMutability": "view",
      "type": "function"
    },
    {
      "constant": false,
      "inputs": [
        {
          "name": "_nativeToken",
          "type": "address"
        },
        {
          "name": "_fee",
          "type": "uint256"
        },
        {
          "name": "_beneficiary",
          "type": "address"
        },
        {
          "name": "_hashedParameters",
          "type": "bytes32"
        }
      ],
      "name": "updateParameters",
      "outputs": [],
      "payable": false,
      "stateMutability": "nonpayable",
      "type": "function"
    },
    {
      "constant": true,
      "inputs": [
        {
          "name": "",
          "type": "address"
        }
      ],
      "name": "organizationsICOInfo",
      "outputs": [
        {
          "name": "paramsHash",
          "type": "bytes32"
        },
        {
          "name": "avatarContractICO",
          "type": "address"
        },
        {
          "name": "totalEthRaised",
          "type": "uint256"
        },
        {
          "name": "isHalted",
          "type": "bool"
        }
      ],
      "payable": false,
      "stateMutability": "view",
      "type": "function"
    },
    {
      "constant": true,
      "inputs": [
        {
          "name": "_cap",
          "type": "uint256"
        },
        {
          "name": "_price",
          "type": "uint256"
        },
        {
          "name": "_startBlock",
          "type": "uint256"
        },
        {
          "name": "_endBlock",
          "type": "uint256"
        },
        {
          "name": "_beneficiary",
          "type": "address"
        },
        {
          "name": "_admin",
          "type": "address"
        }
      ],
      "name": "getParametersHash",
      "outputs": [
        {
          "name": "",
          "type": "bytes32"
        }
      ],
      "payable": false,
      "stateMutability": "pure",
      "type": "function"
    },
    {
      "constant": true,
      "inputs": [
        {
          "name": "",
          "type": "address"
        }
      ],
      "name": "organizations",
      "outputs": [
        {
          "name": "",
          "type": "bool"
        }
      ],
      "payable": false,
      "stateMutability": "view",
      "type": "function"
    },
    {
      "constant": true,
      "inputs": [],
      "name": "owner",
      "outputs": [
        {
          "name": "",
          "type": "address"
        }
      ],
      "payable": false,
      "stateMutability": "view",
      "type": "function"
    },
    {
      "constant": false,
      "inputs": [
        {
          "name": "_avatar",
          "type": "address"
        }
      ],
      "name": "registerOrganization",
      "outputs": [],
      "payable": false,
      "stateMutability": "nonpayable",
      "type": "function"
    },
    {
      "constant": true,
      "inputs": [
        {
          "name": "_avatar",
          "type": "address"
        }
      ],
      "name": "isActive",
      "outputs": [
        {
          "name": "",
          "type": "bool"
        }
      ],
      "payable": false,
      "stateMutability": "view",
      "type": "function"
    },
    {
      "constant": false,
      "inputs": [
        {
          "name": "_avatar",
          "type": "address"
        }
      ],
      "name": "haltICO",
      "outputs": [],
      "payable": false,
      "stateMutability": "nonpayable",
      "type": "function"
    },
    {
      "constant": true,
      "inputs": [
        {
          "name": "_avatar",
          "type": "address"
        }
      ],
      "name": "isRegistered",
      "outputs": [
        {
          "name": "",
          "type": "bool"
        }
      ],
      "payable": false,
      "stateMutability": "view",
      "type": "function"
    },
    {
      "constant": false,
      "inputs": [
        {
          "name": "_avatar",
          "type": "address"
        }
      ],
      "name": "start",
      "outputs": [],
      "payable": false,
      "stateMutability": "nonpayable",
      "type": "function"
    },
    {
      "constant": true,
      "inputs": [],
      "name": "fee",
      "outputs": [
        {
          "name": "",
          "type": "uint256"
        }
      ],
      "payable": false,
      "stateMutability": "view",
      "type": "function"
    },
    {
      "constant": true,
      "inputs": [],
      "name": "nativeToken",
      "outputs": [
        {
          "name": "",
          "type": "address"
        }
      ],
      "payable": false,
      "stateMutability": "view",
      "type": "function"
    },
    {
      "constant": false,
      "inputs": [
        {
          "name": "_avatar",
          "type": "address"
        }
      ],
      "name": "resumeICO",
      "outputs": [],
      "payable": false,
      "stateMutability": "nonpayable",
      "type": "function"
    },
    {
      "constant": false,
      "inputs": [
        {
          "name": "newOwner",
          "type": "address"
        }
      ],
      "name": "transferOwnership",
      "outputs": [],
      "payable": false,
      "stateMutability": "nonpayable",
      "type": "function"
    },
    {
      "constant": true,
      "inputs": [],
      "name": "hashedParameters",
      "outputs": [
        {
          "name": "",
          "type": "bytes32"
        }
      ],
      "payable": false,
      "stateMutability": "view",
      "type": "function"
    },
    {
      "inputs": [
        {
          "name": "_nativeToken",
          "type": "address"
        },
        {
          "name": "_fee",
          "type": "uint256"
        },
        {
          "name": "_beneficiary",
          "type": "address"
        }
      ],
      "payable": false,
      "stateMutability": "nonpayable",
      "type": "constructor"
    },
    {
      "anonymous": false,
      "inputs": [
        {
          "indexed": true,
          "name": "organization",
          "type": "address"
        },
        {
          "indexed": true,
          "name": "_beneficiary",
          "type": "address"
        },
        {
          "indexed": false,
          "name": "_incomingEther",
          "type": "uint256"
        },
        {
          "indexed": true,
          "name": "_tokensAmount",
          "type": "uint256"
        }
      ],
      "name": "DonationReceived",
      "type": "event"
    },
    {
      "anonymous": false,
      "inputs": [
        {
          "indexed": false,
          "name": "_avatar",
          "type": "address"
        }
      ],
      "name": "OrganizationRegistered",
      "type": "event"
    },
    {
      "anonymous": false,
      "inputs": [
        {
          "indexed": false,
          "name": "proposalId",
          "type": "bytes32"
        }
      ],
      "name": "LogNewProposal",
      "type": "event"
    },
    {
      "anonymous": false,
      "inputs": [
        {
          "indexed": true,
          "name": "previousOwner",
          "type": "address"
        },
        {
          "indexed": true,
          "name": "newOwner",
          "type": "address"
        }
      ],
      "name": "OwnershipTransferred",
      "type": "event"
    }
  ],
  "bytecode": "0x6060604052341561000f57600080fd5b6040516060806114b983398101604052808051919060200180519190602001805160008054600160a060020a03191633600160a060020a031617815590925061006b9150849084908490640100000000610073810261085a1704565b5050506100c6565b60005433600160a060020a0390811691161461008e57600080fd5b60018054600160a060020a0319908116600160a060020a03968716179091556002939093556003805490931691909316179055600455565b6113e4806100d56000396000f3006060604052600436106100ed5763ffffffff60e060020a6000350416630250680481146100f25780630d6099391461014c57806321bea7cc1461018f57806338af3eed146101a95780634345a610146101d85780634b9f69b8146102065780634eb09bf4146102595780635a1f74061461028a5780638da5cb5b146102bd57806390be003c146102d05780639f8a13d7146102ef578063bdbb829d1461030e578063c3c5a5471461032d578063dd0b281e1461034c578063ddca3f431461036b578063e1758bd81461037e578063e270bc8114610391578063f2fde38b146103b0578063f98e87ba146103cf575b600080fd5b34156100fd57600080fd5b6101086004356103e2565b60405195865260208601949094526040808601939093526060850191909152600160a060020a03908116608085015290911660a083015260c0909101905180910390f35b341561015757600080fd5b61017d600435602435604435606435600160a060020a0360843581169060a43516610424565b60405190815260200160405180910390f35b61017d600160a060020a036004358116906024351661052c565b34156101b457600080fd5b6101bc61084b565b604051600160a060020a03909116815260200160405180910390f35b34156101e357600080fd5b610204600160a060020a03600435811690602435906044351660643561085a565b005b341561021157600080fd5b610225600160a060020a03600435166108ba565b604051938452600160a060020a03909216602084015260408084019190915290151560608301526080909101905180910390f35b341561026457600080fd5b61017d600435602435604435606435600160a060020a0360843581169060a435166108ee565b341561029557600080fd5b6102a9600160a060020a0360043516610957565b604051901515815260200160405180910390f35b34156102c857600080fd5b6101bc61096c565b34156102db57600080fd5b610204600160a060020a036004351661097b565b34156102fa57600080fd5b6102a9600160a060020a0360043516610aa4565b341561031957600080fd5b610204600160a060020a0360043516610be7565b341561033857600080fd5b6102a9600160a060020a0360043516610c47565b341561035757600080fd5b610204600160a060020a0360043516610c65565b341561037657600080fd5b61017d610d6d565b341561038957600080fd5b6101bc610d73565b341561039c57600080fd5b610204600160a060020a0360043516610d82565b34156103bb57600080fd5b610204600160a060020a0360043516610ddf565b34156103da57600080fd5b61017d610e7a565b6007602052600090815260409020805460018201546002830154600384015460048501546005909501549394929391929091600160a060020a03918216911686565b6000806104358888888888886108ee565b60008181526007602052604090205490915015156105215760c0604051908101604090815289825260208083018a905281830189905260608301889052600160a060020a038088166080850152861660a0840152600084815260079091522081518155602082015181600101556040820151816002015560608201518160030155608082015160048201805473ffffffffffffffffffffffffffffffffffffffff1916600160a060020a039290921691909117905560a0820151600591909101805473ffffffffffffffffffffffffffffffffffffffff1916600160a060020a03909216919091179055505b979650505050505050565b6000610536610fa5565b61053e610fcc565b600160a060020a038516600090815260066020526040808220829182918291608090519081016040908152825482526001830154600160a060020a0316602083015260028301549082015260039091015460ff161515606082015295506007600087518152602081019190915260409081016000209060c0905190810160409081528254825260018301546020830152600283015490820152600382015460608201526004820154600160a060020a03908116608083015260059092015490911660a0820152945061060f89610aa4565b151561061a57600080fd5b85606001511561062957600080fd5b61063f866040015186519063ffffffff610e8016565b3411156106755761065c866040015186519063ffffffff610e8016565b935061066e348563ffffffff610e8016565b9250610679565b3493505b61068e8560200151859063ffffffff610e9216565b91508460800151600160a060020a031684156108fc0285604051600060405180830381858888f1935050505015156106c557600080fd5b88600160a060020a0316638da5cb5b6000604051602001526040518163ffffffff1660e060020a028152600401602060405180830381600087803b151561070b57600080fd5b6102c65a03f1151561071c57600080fd5b5050506040518051915050600160a060020a0381166310c5b328838a60006040516020015260405160e060020a63ffffffff85160281526004810192909252600160a060020a03166024820152604401602060405180830381600087803b151561078557600080fd5b6102c65a03f1151561079657600080fd5b5050506040518051905015156107ab57600080fd5b82156107e257600160a060020a03881683156108fc0284604051600060405180830381858888f1935050505015156107e257600080fd5b600160a060020a03808a166000818152600660205260409081902060020180548801905584928b1691907fce9409ee3dc10e35de83dda0f830e4a13935452188fe71a956b850ecb839425f9088905190815260200160405180910390a450979650505050505050565b600354600160a060020a031681565b60005433600160a060020a0390811691161461087557600080fd5b6001805473ffffffffffffffffffffffffffffffffffffffff19908116600160a060020a03968716179091556002939093556003805490931691909316179055600455565b60066020526000908152604090208054600182015460028301546003909301549192600160a060020a039091169160ff1684565b6000868686868686604051958652602086019490945260408086019390935260608501919091526c01000000000000000000000000600160a060020a03918216810260808601529216909102609483015260a89091019051809103902090509695505050505050565b60056020526000908152604090205460ff1681565b600054600160a060020a031681565b60006002541180156109a65750600160a060020a03811660009081526005602052604090205460ff16155b15610a3f57600154600354600254600160a060020a03928316926323b872dd92859291169060006040516020015260405160e060020a63ffffffff8616028152600160a060020a0393841660048201529190921660248201526044810191909152606401602060405180830381600087803b1515610a2357600080fd5b6102c65a03f11515610a3457600080fd5b505050604051805150505b600160a060020a03811660009081526005602052604090819020805460ff191660011790557f2178e9c576507a4c15d3deab489af3f699a3dedbff9a7ef27c43a017027710e590829051600160a060020a03909116815260200160405180910390a150565b6000610aae610fa5565b610ab6610fcc565b600160a060020a0384166000908152600660205260409081902090608090519081016040908152825482526001830154600160a060020a0316602083015260028301549082015260039091015460ff161515606082015291506007600083518152602081019190915260409081016000209060c090519081016040908152825482526001830154602080840191909152600284015482840152600384015460608401526004840154600160a060020a039081166080850152600594850154811660a0850152881660009081529390529091205490915060ff161515610b9e5760009250610be0565b8051826040015110610bb35760009250610be0565b80606001514310610bc75760009250610be0565b80604001514311610bdb5760009250610be0565b600192505b5050919050565b600160a060020a0380821660009081526006602090815260408083205483526007909152902060050154338216911614610c2057600080fd5b600160a060020a03166000908152600660205260409020600301805460ff19166001179055565b600160a060020a031660009081526005602052604090205460ff1690565b610c6d610fa5565b610c7682610aa4565b15610c8057600080fd5b610c8982610ec8565b815260076000825181526020810191909152604001600020541515610cad57600080fd5b8130610cb7611015565b600160a060020a0392831681529116602082015260409081019051809103906000f0801515610ce557600080fd5b600160a060020a039081166020808401919091529083166000908152600690915260409020819081518155602082015160018201805473ffffffffffffffffffffffffffffffffffffffff1916600160a060020a0392909216919091179055604082015181600201556060820151600391909101805460ff1916911515919091179055505050565b60025481565b600154600160a060020a031681565b600160a060020a0380821660009081526006602090815260408083205483526007909152902060050154338216911614610dbb57600080fd5b600160a060020a03166000908152600660205260409020600301805460ff19169055565b60005433600160a060020a03908116911614610dfa57600080fd5b600160a060020a0381161515610e0f57600080fd5b600054600160a060020a0380831691167f8be0079c531659141344cd1fd0a4f28419497f9722a3daafe3b4186f6b6457e060405160405180910390a36000805473ffffffffffffffffffffffffffffffffffffffff1916600160a060020a0392909216919091179055565b60045481565b600082821115610e8c57fe5b50900390565b600080831515610ea55760009150610ec1565b50828202828482811515610eb557fe5b0414610ebd57fe5b8091505b5092915050565b60008082600160a060020a0316638da5cb5b6000604051602001526040518163ffffffff1660e060020a028152600401602060405180830381600087803b1515610f1157600080fd5b6102c65a03f11515610f2257600080fd5b5050506040518051915050600160a060020a0381166346e361b73060006040516020015260405160e060020a63ffffffff8416028152600160a060020a039091166004820152602401602060405180830381600087803b1515610f8457600080fd5b6102c65a03f11515610f9557600080fd5b5050506040518051949350505050565b60806040519081016040908152600080835260208301819052908201819052606082015290565b60c060405190810160405280600081526020016000815260200160008152602001600081526020016000600160a060020a031681526020016000600160a060020a031681525090565b604051610393806110268339019056006060604052341561000f57600080fd5b604051604080610393833981016040528080519190602001805160008054600160a060020a03338116600160a060020a0319928316179092556001805496831696821696909617909555600280549190921694169390931790925550506103188061007b6000396000f3006060604052600436106100775763ffffffff7c01000000000000000000000000000000000000000000000000000000006000350416631ebbede2811461012e57806323bd4d7a1461015d57806383197ef0146101705780638da5cb5b14610183578063f2fde38b14610196578063f5074f41146101b5575b34151561008357600080fd5b600254600154600160a060020a03918216916321bea7cc91349116336000604051602001526040517c010000000000000000000000000000000000000000000000000000000063ffffffff8616028152600160a060020a039283166004820152911660248201526044016020604051808303818588803b151561010557600080fd5b6125ee5a03f1151561011657600080fd5b5050505060405180511515905061012c57600080fd5b005b341561013957600080fd5b6101416101d4565b604051600160a060020a03909116815260200160405180910390f35b341561016857600080fd5b6101416101e3565b341561017b57600080fd5b61012c6101f2565b341561018e57600080fd5b61014161021b565b34156101a157600080fd5b61012c600160a060020a036004351661022a565b34156101c057600080fd5b61012c600160a060020a03600435166102c5565b600254600160a060020a031681565b600154600160a060020a031681565b60005433600160a060020a0390811691161461020d57600080fd5b600054600160a060020a0316ff5b600054600160a060020a031681565b60005433600160a060020a0390811691161461024557600080fd5b600160a060020a038116151561025a57600080fd5b600054600160a060020a0380831691167f8be0079c531659141344cd1fd0a4f28419497f9722a3daafe3b4186f6b6457e060405160405180910390a36000805473ffffffffffffffffffffffffffffffffffffffff1916600160a060020a0392909216919091179055565b60005433600160a060020a039081169116146102e057600080fd5b80600160a060020a0316ff00a165627a7a72305820493184bff5490b8faf0143f84171302c487f56805bd80602c117beb91eabe9c40029a165627a7a72305820ccd3d181a78eaf03c262873f3b5fe0321a0f2dbbbe225e4e58625ac1f8e785180029",
  "source": "pragma solidity ^0.4.18;\r\n\r\nimport \"./UniversalScheme.sol\";\r\nimport \"zeppelin-solidity/contracts/ownership/Ownable.sol\";\r\nimport \"zeppelin-solidity/contracts/math/SafeMath.sol\";\r\nimport \"zeppelin-solidity/contracts/lifecycle/Destructible.sol\";\r\n\r\n\r\n/**\r\n * @title An avatar contract for ICO.\r\n * @dev Allow people to donate by simply sending ether to an address.\r\n */\r\ncontract MirrorContractICO is Destructible {\r\n    Avatar public organization; // The organization address (the avatar)\r\n    SimpleICO public simpleICO;  // The ICO contract address\r\n    /**\r\n    * @dev Constructor, setting the organization and ICO scheme.\r\n    * @param _organization The organization's avatar.\r\n    * @param _simpleICO The ICO Scheme.\r\n    */\r\n    function MirrorContractICO(Avatar _organization, SimpleICO _simpleICO) public {\r\n        organization = _organization;\r\n        simpleICO = _simpleICO;\r\n    }\r\n\r\n    /**\r\n    * @dev Fallback function, when ether is sent it will donate to the ICO.\r\n    * The ether will be returned if the donation is failed.\r\n    */\r\n    function () public payable {\r\n        // Not to waste gas, if no value.\r\n        require(msg.value != 0);\r\n\r\n        // Return ether if couln't donate.\r\n        if (simpleICO.donate.value(msg.value)(organization, msg.sender) == 0) {\r\n            revert();\r\n        }\r\n    }\r\n}\r\n\r\n\r\n/**\r\n * @title SimpleICO scheme.\r\n * @dev A universal scheme to allow organizations to open a simple ICO and get donations.\r\n */\r\ncontract SimpleICO is UniversalScheme {\r\n    using SafeMath for uint;\r\n\r\n    // Struct holding the data for each organization\r\n    struct Organization {\r\n        bytes32 paramsHash; // Save the parameters approved by the org to open the ICO, so reules of ICO will not change.\r\n        address avatarContractICO; // Avatar is a contract for users that want to send eth without calling a funciton.\r\n        uint totalEthRaised;\r\n        bool isHalted; // The admin of the ICO can halt the ICO at any time, and also resume it.\r\n    }\r\n\r\n    // A mapping from hashes to parameters (use to store a particular configuration on the controller)\r\n    struct Parameters {\r\n        uint cap; // Cap in Eth\r\n        uint price; // Price represents Tokens per 1 Eth\r\n        uint startBlock;\r\n        uint endBlock;\r\n        address beneficiary; // all funds received will be transffered to this address.\r\n        address admin; // The admin can halt or resume ICO.\r\n    }\r\n\r\n    // A mapping from the organization (Avatar) address to the saved data of the organization:\r\n    mapping(address=>Organization) public organizationsICOInfo;\r\n\r\n    mapping(bytes32=>Parameters) public parameters;\r\n\r\n    event DonationReceived(address indexed organization, address indexed _beneficiary, uint _incomingEther, uint indexed _tokensAmount);\r\n\r\n    /**\r\n     * @dev Constructor, Updating the initial prarmeters\r\n     * @param _nativeToken The native token of the ICO\r\n     * @param _fee The fee for intiating the ICO\r\n     * @param _beneficiary The address that will receive the ethers\r\n     */\r\n    function SimpleICO(StandardToken _nativeToken, uint _fee, address _beneficiary) public {\r\n        updateParameters(_nativeToken, _fee, _beneficiary, bytes32(0));\r\n    }\r\n\r\n    /**\r\n    * @dev Hash the parameters, save them if necessary, and return the hash value\r\n    * @param _cap the ico cap\r\n    * @param _price  represents Tokens per 1 Eth\r\n    * @param _startBlock  ico start block\r\n    * @param _endBlock ico end\r\n    * @param _beneficiary the ico ether beneficiary\r\n    * @param _admin the address of the ico admin which can hald and resume the ICO.\r\n    * @return bytes32 -the params hash\r\n    */\r\n    function setParameters(\r\n        uint _cap,\r\n        uint _price,\r\n        uint _startBlock,\r\n        uint _endBlock,\r\n        address _beneficiary,\r\n        address _admin\r\n    )\r\n        public\r\n        returns(bytes32)\r\n    {\r\n        bytes32 paramsHash = getParametersHash(\r\n            _cap,\r\n            _price,\r\n            _startBlock,\r\n            _endBlock,\r\n            _beneficiary,\r\n            _admin\r\n        );\r\n        if (parameters[paramsHash].cap == 0) {\r\n            parameters[paramsHash] = Parameters({\r\n                cap: _cap,\r\n                price: _price,\r\n                startBlock: _startBlock,\r\n                endBlock:_endBlock,\r\n                beneficiary:_beneficiary,\r\n                admin:_admin\r\n            });\r\n        }\r\n        return paramsHash;\r\n    }\r\n\r\n    /**\r\n    * @dev Hash the parameters and return the hash value\r\n    * @param _cap the ico cap\r\n    * @param _price  represents Tokens per 1 Eth\r\n    * @param _startBlock  ico start block\r\n    * @param _endBlock ico end\r\n    * @param _beneficiary the ico ether beneficiary\r\n    * @param _admin the address of the ico admin which can hald and resume the ICO.\r\n    * @return bytes32 -the params hash\r\n    */\r\n    function getParametersHash(\r\n        uint _cap,\r\n        uint _price,\r\n        uint _startBlock,\r\n        uint _endBlock,\r\n        address _beneficiary,\r\n        address _admin\r\n    )\r\n        public\r\n        pure\r\n        returns(bytes32)\r\n   {\r\n        return (keccak256(\r\n            _cap,\r\n            _price,\r\n            _startBlock,\r\n            _endBlock,\r\n            _beneficiary,\r\n            _admin\r\n        ));\r\n    }\r\n\r\n    /**\r\n     * @dev start an ICO\r\n     * @param _avatar The Avatar's of the organization\r\n     */\r\n    function start(Avatar _avatar) public {\r\n        require(!isActive(_avatar));\r\n        Organization memory org;\r\n        org.paramsHash = getParametersFromController(_avatar);\r\n        require(parameters[org.paramsHash].cap != 0);\r\n        org.avatarContractICO = new MirrorContractICO(_avatar, this);\r\n        organizationsICOInfo[_avatar] = org;\r\n    }\r\n\r\n    /**\r\n     * @dev Allowing admin to halt an ICO.\r\n     * @param _avatar The Avatar's of the organization\r\n     */\r\n    function haltICO(address _avatar) public {\r\n        require(msg.sender == parameters[organizationsICOInfo[_avatar].paramsHash].admin);\r\n        organizationsICOInfo[_avatar].isHalted = true;\r\n    }\r\n\r\n    /**\r\n     * @dev Allowing admin to reopen an ICO.\r\n     * @param _avatar The Avatar's of the organization\r\n     */\r\n    function resumeICO(address _avatar) public {\r\n        require(msg.sender == parameters[organizationsICOInfo[_avatar].paramsHash].admin);\r\n        organizationsICOInfo[_avatar].isHalted = false;\r\n    }\r\n\r\n    /**\r\n     * @dev Check is an ICO is active (halted is still considered active). Active ICO:\r\n     * 1. The organization is registered.\r\n     * 2. The ICO didn't reach it's cap yet.\r\n     * 3. The current block isn't bigger than the \"endBlock\" & Smaller then the \"startBlock\"\r\n     * @param _avatar The Avatar's of the organization\r\n     * @return bool which represents a successful of the function\r\n     */\r\n    function isActive(address _avatar) public constant returns(bool) {\r\n        Organization memory org = organizationsICOInfo[_avatar];\r\n        Parameters memory params = parameters[org.paramsHash];\r\n        if (! organizations[_avatar]) {\r\n            return false;\r\n        }\r\n        if (org.totalEthRaised >= params.cap) {\r\n            return false;\r\n        }\r\n        if (block.number >= params.endBlock) {\r\n            return false;\r\n        }\r\n        if (block.number <= params.startBlock) {\r\n            return false;\r\n        }\r\n        return true;\r\n    }\r\n\r\n    /**\r\n     * @dev Donating ethers to get tokens.\r\n     * If the donation is higher than the remaining ethers in the \"cap\",\r\n     * The donator will get the change in ethers.\r\n     * @param _avatar The Avatar's of the organization.\r\n     * @param _beneficiary The donator's address - which will receive the ICO's tokens.\r\n     * @return bool which represents a successful of the function\r\n     */\r\n    function donate(Avatar _avatar, address _beneficiary) public payable returns(uint) {\r\n        Organization memory org = organizationsICOInfo[_avatar];\r\n        Parameters memory params = parameters[org.paramsHash];\r\n\r\n        // Check ICO is active:\r\n        require(isActive(_avatar));\r\n\r\n        // Check ICO is not halted:\r\n        require(!org.isHalted);\r\n\r\n\r\n        uint incomingEther;\r\n        uint change;\r\n\r\n        // Compute how much tokens to buy:\r\n        if ( msg.value > (params.cap).sub(org.totalEthRaised) ) {\r\n            incomingEther = (params.cap).sub(org.totalEthRaised);\r\n            change = (msg.value).sub(incomingEther);\r\n        } else {\r\n            incomingEther = msg.value;\r\n        }\r\n        uint tokens = incomingEther.mul(params.price);\r\n        // Send ether to the defined address, mint, and send change to beneficiary:\r\n        params.beneficiary.transfer(incomingEther);\r\n\r\n        Controller controller = Controller(_avatar.owner());\r\n        if (!controller.mintTokens(tokens, _beneficiary)) {\r\n            revert();\r\n        }\r\n        if (change != 0) {\r\n            _beneficiary.transfer(change);\r\n        }\r\n        // Update total raised, call event and return amount of tokens bought:\r\n        organizationsICOInfo[_avatar].totalEthRaised += incomingEther;\r\n        DonationReceived(_avatar, _beneficiary, incomingEther, tokens);\r\n        return tokens;\r\n    }\r\n}\r\n",
  "sourcePath": "C:\\users\\dkent\\documents\\projects\\GitHub\\DAOStack\\daostack\\contracts\\universalSchemes\\SimpleICO.sol",
  "compiler": {
    "name": "solc",
    "version": "0.4.18+commit.9cf6e910.Emscripten.clang"
  },
  "schemaVersion": "1.0.1",
  "updatedAt": "2017-12-29T21:31:04.912Z"
}