{
  "contractName": "TokenCapGC",
  "abi": [
    {
      "constant": false,
      "inputs": [
        {
          "name": "",
          "type": "address"
        },
        {
          "name": "_paramsHash",
          "type": "bytes32"
        },
        {
          "name": "",
          "type": "bytes"
        }
      ],
      "name": "post",
      "outputs": [
        {
          "name": "",
          "type": "bool"
        }
      ],
      "payable": false,
      "stateMutability": "nonpayable",
      "type": "function"
    },
    {
      "constant": true,
      "inputs": [
        {
          "name": "_token",
          "type": "address"
        },
        {
          "name": "_cap",
          "type": "uint256"
        }
      ],
      "name": "getParametersHash",
      "outputs": [
        {
          "name": "",
          "type": "bytes32"
        }
      ],
      "payable": false,
      "stateMutability": "pure",
      "type": "function"
    },
    {
      "constant": false,
      "inputs": [
        {
          "name": "",
          "type": "address"
        },
        {
          "name": "",
          "type": "bytes32"
        },
        {
          "name": "",
          "type": "bytes"
        }
      ],
      "name": "pre",
      "outputs": [
        {
          "name": "",
          "type": "bool"
        }
      ],
      "payable": false,
      "stateMutability": "nonpayable",
      "type": "function"
    },
    {
      "constant": false,
      "inputs": [
        {
          "name": "_token",
          "type": "address"
        },
        {
          "name": "_cap",
          "type": "uint256"
        }
      ],
      "name": "setParameters",
      "outputs": [
        {
          "name": "",
          "type": "bytes32"
        }
      ],
      "payable": false,
      "stateMutability": "nonpayable",
      "type": "function"
    },
    {
      "constant": true,
      "inputs": [
        {
          "name": "",
          "type": "bytes32"
        }
      ],
      "name": "params",
      "outputs": [
        {
          "name": "token",
          "type": "address"
        },
        {
          "name": "cap",
          "type": "uint256"
        }
      ],
      "payable": false,
      "stateMutability": "view",
      "type": "function"
    }
  ],
  "bytecode": "0x6060604052341561000f57600080fd5b6103748061001e6000396000f30060606040526004361061006c5763ffffffff7c01000000000000000000000000000000000000000000000000000000006000350416631ab9b33a811461007157806378fc063c146100ea57806389eaee6a1461011e578063c419816114610183578063dc6ab527146101a5575b600080fd5b341561007c57600080fd5b6100d660048035600160a060020a03169060248035919060649060443590810190830135806020601f820181900481020160405190810160405281815292919060208401838380828437509496506101dd95505050505050565b604051901515815260200160405180910390f35b34156100f557600080fd5b61010c600160a060020a0360043516602435610289565b60405190815260200160405180910390f35b341561012957600080fd5b6100d660048035600160a060020a03169060248035919060649060443590810190830135806020601f820181900481020160405190810160405281815292919060208401838380828437509496506102c595505050505050565b341561018e57600080fd5b61010c600160a060020a03600435166024356102ce565b34156101b057600080fd5b6101bb600435610323565b604051600160a060020a03909216825260208201526040908101905180910390f35b600082815260208190526040808220600181015490549091600160a060020a03909116906318160ddd90849051602001526040518163ffffffff167c0100000000000000000000000000000000000000000000000000000000028152600401602060405180830381600087803b151561025557600080fd5b6102c65a03f1151561026657600080fd5b50505060405180519050111561027e57506000610282565b5060015b9392505050565b60008282604051600160a060020a03929092166c0100000000000000000000000002825260148201526034016040518091039020905092915050565b60019392505050565b6000806102db8484610289565b60008181526020819052604090208054600160a060020a03871673ffffffffffffffffffffffffffffffffffffffff1990911617815560010184905591508190505092915050565b60006020819052908152604090208054600190910154600160a060020a0390911690825600a165627a7a7230582079eb2bcd3bc02d193d30760017c9956ddd74b8d2cb51899adbf09dfebd9c44c10029",
  "source": "pragma solidity ^0.4.18;\r\n\r\nimport \"zeppelin-solidity/contracts/token/StandardToken.sol\";\r\n\r\n\r\n/**\r\n * @title Token Cap Global Constraint\r\n * @dev A simple global contraint to cap the number of tokens.\r\n */\r\n\r\ncontract TokenCapGC {\r\n    // A set of parameters, on which the cap will be checked:\r\n    struct Parameters {\r\n        StandardToken token;\r\n        uint cap;\r\n    }\r\n\r\n    // Mapping from the hash of the parameters to the parameters themselves:\r\n    mapping (bytes32=>Parameters) public params;\r\n\r\n\r\n    // Adding a new set of parameters:\r\n    function setParameters(StandardToken _token, uint _cap) public returns(bytes32) {\r\n        bytes32 paramsHash = getParametersHash(_token, _cap);\r\n        params[paramsHash].token = _token;\r\n        params[paramsHash].cap = _cap;\r\n        return paramsHash;\r\n    }\r\n\r\n    // The format of the hashing of the parameters:\r\n    function getParametersHash(StandardToken _token, uint _cap) public pure returns(bytes32) {\r\n        return (keccak256(_token, _cap));\r\n    }\r\n\r\n    // This global contraint only checks the state after the action, so here we just return true:\r\n    function pre(address, bytes32, bytes) public returns(bool) {\r\n        return true;\r\n    }\r\n\r\n    // Checking the cap:\r\n    function post(address, bytes32 _paramsHash, bytes) public returns(bool) {\r\n        if ( params[_paramsHash].token.totalSupply() > params[_paramsHash].cap)\r\n            return false;\r\n        return true;\r\n    }\r\n}\r\n",
  "sourcePath": "C:\\Users\\dkent\\Documents\\Projects\\GitHub\\DAOStack\\daostack\\contracts\\globalConstraints\\TokenCapGC.sol",
  "compiler": {
    "name": "solc",
    "version": "0.4.18+commit.9cf6e910.Emscripten.clang"
  },
  "schemaVersion": "1.0.1",
  "updatedAt": "2017-12-13T19:15:29.672Z"
}