{
  "contractName": "TokenCapGC",
  "abi": [
    {
      "constant": true,
      "inputs": [
        {
          "name": "",
          "type": "address"
        },
        {
          "name": "_paramsHash",
          "type": "bytes32"
        },
        {
          "name": "",
          "type": "bytes"
        }
      ],
      "name": "post",
      "outputs": [
        {
          "name": "",
          "type": "bool"
        }
      ],
      "payable": false,
      "stateMutability": "view",
      "type": "function"
    },
    {
      "constant": true,
      "inputs": [
        {
          "name": "_token",
          "type": "address"
        },
        {
          "name": "_cap",
          "type": "uint256"
        }
      ],
      "name": "getParametersHash",
      "outputs": [
        {
          "name": "",
          "type": "bytes32"
        }
      ],
      "payable": false,
      "stateMutability": "pure",
      "type": "function"
    },
    {
      "constant": true,
      "inputs": [
        {
          "name": "",
          "type": "address"
        },
        {
          "name": "",
          "type": "bytes32"
        },
        {
          "name": "",
          "type": "bytes"
        }
      ],
      "name": "pre",
      "outputs": [
        {
          "name": "",
          "type": "bool"
        }
      ],
      "payable": false,
      "stateMutability": "pure",
      "type": "function"
    },
    {
      "constant": false,
      "inputs": [
        {
          "name": "_token",
          "type": "address"
        },
        {
          "name": "_cap",
          "type": "uint256"
        }
      ],
      "name": "setParameters",
      "outputs": [
        {
          "name": "",
          "type": "bytes32"
        }
      ],
      "payable": false,
      "stateMutability": "nonpayable",
      "type": "function"
    },
    {
      "constant": true,
      "inputs": [
        {
          "name": "",
          "type": "bytes32"
        }
      ],
      "name": "params",
      "outputs": [
        {
          "name": "token",
          "type": "address"
        },
        {
          "name": "cap",
          "type": "uint256"
        }
      ],
      "payable": false,
      "stateMutability": "view",
      "type": "function"
    }
  ],
  "bytecode": "0x6060604052341561000f57600080fd5b6103958061001e6000396000f30060606040526004361061006c5763ffffffff7c01000000000000000000000000000000000000000000000000000000006000350416631ab9b33a811461007157806378fc063c146100ea57806389eaee6a1461011e578063c419816114610183578063dc6ab527146101a5575b600080fd5b341561007c57600080fd5b6100d660048035600160a060020a03169060248035919060649060443590810190830135806020601f820181900481020160405190810160405281815292919060208401838380828437509496506101dd95505050505050565b604051901515815260200160405180910390f35b34156100f557600080fd5b61010c600160a060020a03600435166024356102aa565b60405190815260200160405180910390f35b341561012957600080fd5b6100d660048035600160a060020a03169060248035919060649060443590810190830135806020601f820181900481020160405190810160405281815292919060208401838380828437509496506102e695505050505050565b341561018e57600080fd5b61010c600160a060020a03600435166024356102ef565b34156101b057600080fd5b6101bb600435610344565b604051600160a060020a03909216825260208201526040908101905180910390f35b600082815260208190526040812054600160a060020a0316158015906102925750600083815260208190526040808220600181015490549092600160a060020a03909116916318160ddd919051602001526040518163ffffffff167c0100000000000000000000000000000000000000000000000000000000028152600401602060405180830381600087803b151561027557600080fd5b6102c65a03f1151561028657600080fd5b50505060405180519050115b1561029f575060006102a3565b5060015b9392505050565b60008282604051600160a060020a03929092166c0100000000000000000000000002825260148201526034016040518091039020905092915050565b60019392505050565b6000806102fc84846102aa565b60008181526020819052604090208054600160a060020a03871673ffffffffffffffffffffffffffffffffffffffff1990911617815560010184905591508190505092915050565b60006020819052908152604090208054600190910154600160a060020a0390911690825600a165627a7a723058205bc2e5c4282adb7b03dc8308d303aa0a11f74725cbdb80d841b12a6f6787b4bb0029",
  "source": "pragma solidity ^0.4.18;\r\n\r\nimport \"zeppelin-solidity/contracts/token/StandardToken.sol\";\r\n\r\n\r\n/**\r\n * @title Token Cap Global Constraint\r\n * @dev A simple global contraint to cap the number of tokens.\r\n */\r\n\r\ncontract TokenCapGC {\r\n    // A set of parameters, on which the cap will be checked:\r\n    struct Parameters {\r\n        StandardToken token;\r\n        uint cap;\r\n    }\r\n\r\n    // Mapping from the hash of the parameters to the parameters themselves:\r\n    mapping (bytes32=>Parameters) public params;\r\n\r\n\r\n    /**\r\n     * @dev adding a new set of parametrs\r\n     * @param  _token the token to add to the params.\r\n     * @param _cap the cap to check the total supply against.\r\n     * @return the calculated parameters hash\r\n     */\r\n    function setParameters(StandardToken _token, uint _cap) public returns(bytes32) {\r\n        bytes32 paramsHash = getParametersHash(_token, _cap);\r\n        params[paramsHash].token = _token;\r\n        params[paramsHash].cap = _cap;\r\n        return paramsHash;\r\n    }\r\n\r\n    /**\r\n     * @dev calculate and returns the hash of the given parameters\r\n     * @param  _token the token to add to the params.\r\n     * @param _cap the cap to check the total supply against.\r\n     * @return the calculated parameters hash\r\n     */\r\n    function getParametersHash(StandardToken _token, uint _cap) public pure returns(bytes32) {\r\n        return (keccak256(_token, _cap));\r\n    }\r\n\r\n    /**\r\n     * @dev check the constraint after the action.\r\n     * This global contraint only checks the state after the action, so here we just return true:\r\n     * @return true\r\n     */\r\n    function pre(address, bytes32, bytes) public pure returns(bool) {\r\n        return true;\r\n    }\r\n\r\n    /**\r\n     * @dev check the total supply cap.\r\n     * @param  _paramsHash the parameters hash to check the total supply cap against.\r\n     * @return bool which represents a success\r\n     */\r\n    function post(address, bytes32 _paramsHash, bytes) public view returns(bool) {\r\n        if ((params[_paramsHash].token != StandardToken(0)) &&\r\n            ( params[_paramsHash].token.totalSupply() > params[_paramsHash].cap)) {\r\n            return false;\r\n          }\r\n        return true;\r\n    }\r\n}\r\n",
  "sourcePath": "C:\\Users\\dkent\\Documents\\Projects\\GitHub\\DAOStack\\daostack\\contracts\\globalConstraints\\TokenCapGC.sol",
  "compiler": {
    "name": "solc",
    "version": "0.4.18+commit.9cf6e910.Emscripten.clang"
  },
  "schemaVersion": "1.0.1",
  "updatedAt": "2017-12-17T14:52:56.183Z"
}