{
  "contractName": "UpgradeScheme",
  "abi": [
    {
      "constant": true,
      "inputs": [
        {
          "name": "_voteParams",
          "type": "bytes32"
        },
        {
          "name": "_intVote",
          "type": "address"
        }
      ],
      "name": "getParametersHash",
      "outputs": [
        {
          "name": "",
          "type": "bytes32"
        }
      ],
      "payable": false,
      "stateMutability": "pure",
      "type": "function"
    },
    {
      "constant": false,
      "inputs": [
        {
          "name": "_proposalId",
          "type": "bytes32"
        },
        {
          "name": "_avatar",
          "type": "address"
        },
        {
          "name": "_param",
          "type": "int256"
        }
      ],
      "name": "execute",
      "outputs": [
        {
          "name": "",
          "type": "bool"
        }
      ],
      "payable": false,
      "stateMutability": "nonpayable",
      "type": "function"
    },
    {
      "constant": true,
      "inputs": [],
      "name": "beneficiary",
      "outputs": [
        {
          "name": "",
          "type": "address"
        }
      ],
      "payable": false,
      "stateMutability": "view",
      "type": "function"
    },
    {
      "constant": false,
      "inputs": [
        {
          "name": "_avatar",
          "type": "address"
        },
        {
          "name": "_scheme",
          "type": "address"
        },
        {
          "name": "_params",
          "type": "bytes32"
        },
        {
          "name": "_tokenFee",
          "type": "address"
        },
        {
          "name": "_fee",
          "type": "uint256"
        }
      ],
      "name": "proposeChangeUpgradingScheme",
      "outputs": [
        {
          "name": "",
          "type": "bytes32"
        }
      ],
      "payable": false,
      "stateMutability": "nonpayable",
      "type": "function"
    },
    {
      "constant": false,
      "inputs": [
        {
          "name": "_nativeToken",
          "type": "address"
        },
        {
          "name": "_fee",
          "type": "uint256"
        },
        {
          "name": "_beneficiary",
          "type": "address"
        },
        {
          "name": "_hashedParameters",
          "type": "bytes32"
        }
      ],
      "name": "updateParameters",
      "outputs": [],
      "payable": false,
      "stateMutability": "nonpayable",
      "type": "function"
    },
    {
      "constant": true,
      "inputs": [
        {
          "name": "",
          "type": "address"
        }
      ],
      "name": "organizations",
      "outputs": [
        {
          "name": "isRegistered",
          "type": "bool"
        }
      ],
      "payable": false,
      "stateMutability": "view",
      "type": "function"
    },
    {
      "constant": false,
      "inputs": [
        {
          "name": "_voteParams",
          "type": "bytes32"
        },
        {
          "name": "_intVote",
          "type": "address"
        }
      ],
      "name": "setParameters",
      "outputs": [
        {
          "name": "",
          "type": "bytes32"
        }
      ],
      "payable": false,
      "stateMutability": "nonpayable",
      "type": "function"
    },
    {
      "constant": false,
      "inputs": [
        {
          "name": "_avatar",
          "type": "address"
        },
        {
          "name": "_newController",
          "type": "address"
        }
      ],
      "name": "proposeUpgrade",
      "outputs": [
        {
          "name": "",
          "type": "bytes32"
        }
      ],
      "payable": false,
      "stateMutability": "nonpayable",
      "type": "function"
    },
    {
      "constant": true,
      "inputs": [],
      "name": "owner",
      "outputs": [
        {
          "name": "",
          "type": "address"
        }
      ],
      "payable": false,
      "stateMutability": "view",
      "type": "function"
    },
    {
      "constant": false,
      "inputs": [
        {
          "name": "_avatar",
          "type": "address"
        }
      ],
      "name": "registerOrganization",
      "outputs": [],
      "payable": false,
      "stateMutability": "nonpayable",
      "type": "function"
    },
    {
      "constant": true,
      "inputs": [
        {
          "name": "_avatar",
          "type": "address"
        }
      ],
      "name": "isRegistered",
      "outputs": [
        {
          "name": "",
          "type": "bool"
        }
      ],
      "payable": false,
      "stateMutability": "view",
      "type": "function"
    },
    {
      "constant": true,
      "inputs": [],
      "name": "fee",
      "outputs": [
        {
          "name": "",
          "type": "uint256"
        }
      ],
      "payable": false,
      "stateMutability": "view",
      "type": "function"
    },
    {
      "constant": true,
      "inputs": [],
      "name": "nativeToken",
      "outputs": [
        {
          "name": "",
          "type": "address"
        }
      ],
      "payable": false,
      "stateMutability": "view",
      "type": "function"
    },
    {
      "constant": false,
      "inputs": [
        {
          "name": "newOwner",
          "type": "address"
        }
      ],
      "name": "transferOwnership",
      "outputs": [],
      "payable": false,
      "stateMutability": "nonpayable",
      "type": "function"
    },
    {
      "constant": true,
      "inputs": [],
      "name": "hashedParameters",
      "outputs": [
        {
          "name": "",
          "type": "bytes32"
        }
      ],
      "payable": false,
      "stateMutability": "view",
      "type": "function"
    },
    {
      "inputs": [
        {
          "name": "_nativeToken",
          "type": "address"
        },
        {
          "name": "_fee",
          "type": "uint256"
        },
        {
          "name": "_beneficiary",
          "type": "address"
        }
      ],
      "payable": false,
      "stateMutability": "nonpayable",
      "type": "constructor"
    },
    {
      "anonymous": false,
      "inputs": [
        {
          "indexed": true,
          "name": "_avatar",
          "type": "address"
        },
        {
          "indexed": true,
          "name": "_proposalId",
          "type": "bytes32"
        },
        {
          "indexed": true,
          "name": "_intVoteInterface",
          "type": "address"
        },
        {
          "indexed": false,
          "name": "_newController",
          "type": "address"
        }
      ],
      "name": "LogNewUpgradeProposal",
      "type": "event"
    },
    {
      "anonymous": false,
      "inputs": [
        {
          "indexed": true,
          "name": "_avatar",
          "type": "address"
        },
        {
          "indexed": true,
          "name": "_proposalId",
          "type": "bytes32"
        },
        {
          "indexed": true,
          "name": "_intVoteInterface",
          "type": "address"
        },
        {
          "indexed": false,
          "name": "newUpgradeScheme",
          "type": "address"
        },
        {
          "indexed": false,
          "name": "_params",
          "type": "bytes32"
        },
        {
          "indexed": false,
          "name": "tokenFee",
          "type": "address"
        },
        {
          "indexed": false,
          "name": "fee",
          "type": "uint256"
        }
      ],
      "name": "LogChangeUpgradeSchemeProposal",
      "type": "event"
    },
    {
      "anonymous": false,
      "inputs": [
        {
          "indexed": true,
          "name": "_avatar",
          "type": "address"
        },
        {
          "indexed": true,
          "name": "_proposalId",
          "type": "bytes32"
        }
      ],
      "name": "LogProposalExecuted",
      "type": "event"
    },
    {
      "anonymous": false,
      "inputs": [
        {
          "indexed": true,
          "name": "_avatar",
          "type": "address"
        },
        {
          "indexed": true,
          "name": "_proposalId",
          "type": "bytes32"
        }
      ],
      "name": "LogProposalDeleted",
      "type": "event"
    },
    {
      "anonymous": false,
      "inputs": [
        {
          "indexed": false,
          "name": "_avatar",
          "type": "address"
        }
      ],
      "name": "LogOrgRegistered",
      "type": "event"
    },
    {
      "anonymous": false,
      "inputs": [
        {
          "indexed": false,
          "name": "proposalId",
          "type": "bytes32"
        }
      ],
      "name": "LogNewProposal",
      "type": "event"
    },
    {
      "anonymous": false,
      "inputs": [
        {
          "indexed": true,
          "name": "previousOwner",
          "type": "address"
        },
        {
          "indexed": true,
          "name": "newOwner",
          "type": "address"
        }
      ],
      "name": "OwnershipTransferred",
      "type": "event"
    }
  ],
  "bytecode": "0x6060604052341561000f57600080fd5b60405160608061128b83398101604052808051919060200180519190602001805160008054600160a060020a03191633600160a060020a031617815590925061006b91508490849084906401000000006100738102610b111704565b5050506100c6565b60005433600160a060020a0390811691161461008e57600080fd5b60018054600160a060020a0319908116600160a060020a03968716179091556002939093556003805490931691909316179055600455565b6111b6806100d56000396000f3006060604052600436106100c15763ffffffff60e060020a6000350416632453732a81146100c6578063310ce4e2146100fa57806338af3eed14610133578063426ba248146101625780634345a610146101945780635a1f7406146101c257806368e14dac146101e1578063887fbd1c146102035780638da5cb5b1461022857806390be003c1461023b578063c3c5a5471461025a578063ddca3f4314610279578063e1758bd81461028c578063f2fde38b1461029f578063f98e87ba146102be575b600080fd5b34156100d157600080fd5b6100e8600435600160a060020a03602435166102d1565b60405190815260200160405180910390f35b341561010557600080fd5b61011f600435600160a060020a036024351660443561030d565b604051901515815260200160405180910390f35b341561013e57600080fd5b6101466107da565b604051600160a060020a03909116815260200160405180910390f35b341561016d57600080fd5b6100e8600160a060020a0360043581169060243581169060443590606435166084356107e9565b341561019f57600080fd5b6101c0600160a060020a036004358116906024359060443516606435610b11565b005b34156101cd57600080fd5b61011f600160a060020a0360043516610b64565b34156101ec57600080fd5b6100e8600435600160a060020a0360243516610b79565b341561020e57600080fd5b6100e8600160a060020a0360043581169060243516610bc1565b341561023357600080fd5b610146610e46565b341561024657600080fd5b6101c0600160a060020a0360043516610e55565b341561026557600080fd5b61011f600160a060020a0360043516610f8f565b341561028457600080fd5b6100e8610fad565b341561029757600080fd5b610146610fb3565b34156102aa57600080fd5b6101c0600160a060020a0360043516610fc2565b34156102c957600080fd5b6100e8611050565b6000808383604051918252600160a060020a03166c01000000000000000000000000026020820152603401604051908190039020949350505050565b600080610318611133565b600033600160a060020a03166006600061033189611056565b8152602081019190915260400160002060010154600160a060020a03161461035857600080fd5b600185146103be57600160a060020a03861660009081526005602090815260408083208a8452600190810190925282208054600160a060020a031990811682558183018490556002820184905560038201805490911690556004019190915593506107d0565b85600160a060020a0316638da5cb5b6000604051602001526040518163ffffffff1660e060020a028152600401602060405180830381600087803b151561040457600080fd5b6102c65a03f1151561041557600080fd5b5050506040518051600160a060020a03881660009081526005602090815260408083208c84526001019091529081902091955090915060a0905190810160409081528254600160a060020a039081168352600184015460208401526002840154918301918252600384015416606083015260049092015460808201529250516001141561051a57600160a060020a03831663b9c2ee82835160006040516020015260405160e060020a63ffffffff8416028152600160a060020a039091166004820152602401602060405180830381600087803b15156104f457600080fd5b6102c65a03f1151561050557600080fd5b50505060405180519050151561051a57600080fd5b8160400151600214156107765782600160a060020a0316639fe027263060006040516020015260405160e060020a63ffffffff8416028152600160a060020a039091166004820152602401602060405180830381600087803b151561057e57600080fd5b6102c65a03f1151561058f57600080fd5b505050604051805191505060808201511561063d5782600160a060020a03166379c6ad9e83606001518451856080015160006040516020015260405160e060020a63ffffffff8616028152600160a060020a0393841660048201529190921660248201526044810191909152606401602060405180830381600087803b151561061757600080fd5b6102c65a03f1151561062857600080fd5b50505060405180519050151561063d57600080fd5b600160a060020a03831663a34abaa8835184602001518460006040516020015260405160e060020a63ffffffff8616028152600160a060020a03909316600484015260248301919091527fffffffff00000000000000000000000000000000000000000000000000000000166044820152606401602060405180830381600087803b15156106ca57600080fd5b6102c65a03f115156106db57600080fd5b5050506040518051905015156106f057600080fd5b600160a060020a0330168251600160a060020a0316146107765782600160a060020a0316636bafaa596000604051602001526040518163ffffffff1660e060020a028152600401602060405180830381600087803b151561075057600080fd5b6102c65a03f1151561076157600080fd5b50505060405180519050151561077657600080fd5b600160a060020a03861660009081526005602090815260408083208a8452600190810190925282208054600160a060020a031990811682558183018490556002820184905560038201805490911690556004019190915593505b5050509392505050565b600354600160a060020a031681565b60006107f3611161565b6107fb611173565b600080610806611133565b600160a060020a038b166000908152600560209081526040918290209151908101604052905460ff16151581529450600660006108428d611056565b81526020810191909152604090810160002090805190810160405281548152600190910154600160a060020a0316602082015293508451151561088457600080fd5b83602001519250600160a060020a0383166388737b5e600286518e3060006040516020015260405160e060020a63ffffffff871602815260048101949094526024840192909252600160a060020a039081166044840152166064820152608401602060405180830381600087803b15156108fd57600080fd5b6102c65a03f1151561090e57600080fd5b5050506040518051600160a060020a038d16600090815260056020908152604080832084845260010190915290206002015490935015905061094f57600080fd5b60a06040519081016040908152600160a060020a03808d16835260208084018d90526002838501528b82166060850152608084018b9052908e1660009081526005825282812086825260010190915220909150819081518154600160a060020a031916600160a060020a039190911617815560208201516001820155604082015181600201556060820151600382018054600160a060020a031916600160a060020a03929092169190911790556080820151600490910155506020840151600160a060020a031682600019168c600160a060020a03167f2d846aeb8264bef18d7393145472cfc99afb135a60ea2c6a6dc368b03e5483498d8d8d8d604051600160a060020a039485168152602081019390935292166040808301919091526060820192909252608001905180910390a482600160a060020a031663339e23d18360013360006040516020015260405160e060020a63ffffffff861602815260048101939093526024830191909152600160a060020a03166044820152606401602060405180830381600087803b1515610ae757600080fd5b6102c65a03f11515610af857600080fd5b505050604051805150919b9a5050505050505050505050565b60005433600160a060020a03908116911614610b2c57600080fd5b60018054600160a060020a0319908116600160a060020a03968716179091556002939093556003805490931691909316179055600455565b60056020526000908152604090205460ff1681565b600080610b8684846102d1565b60008181526006602052604090208581556001018054600160a060020a038616600160a060020a031990911617905591508190505092915050565b6000610bcb611161565b610bd3611173565b600160a060020a0385166000908152600560209081526040808320919051908101604052905460ff1615158152925082511515610c0f57600080fd5b60066000610c1c88611056565b81526020810191909152604090810160002090805190810160405281548152600190910154600160a060020a03166020820190815290925051600160a060020a03166388737b5e60028451893060006040516020015260405160e060020a63ffffffff871602815260048101949094526024840192909252600160a060020a039081166044840152166064820152608401602060405180830381600087803b1515610cc657600080fd5b6102c65a03f11515610cd757600080fd5b5050506040518051600160a060020a0388166000908152600560209081526040808320848452600101909152902060020154909250159050610d1857600080fd5b600160a060020a03868116600090815260056020908152604080832085845260019081018352922060028101929092558154600160a060020a031916928816929092179055820151600160a060020a0316816000191687600160a060020a03167fa96bac6ecd2db240cb777e078d2fceafc3cb9c2aceefe34b827f802d4a1a798088604051600160a060020a03909116815260200160405180910390a48160200151600160a060020a031663339e23d18260013360006040516020015260405160e060020a63ffffffff861602815260048101939093526024830191909152600160a060020a03166044820152606401602060405180830381600087803b1515610e2157600080fd5b6102c65a03f11515610e3257600080fd5b505050604051805150909695505050505050565b600054600160a060020a031681565b610e5d611161565b6000600254118015610e885750600160a060020a03821660009081526005602052604090205460ff16155b15610f2157600154600354600254600160a060020a03928316926323b872dd92869291169060006040516020015260405160e060020a63ffffffff8616028152600160a060020a0393841660048201529190921660248201526044810191909152606401602060405180830381600087803b1515610f0557600080fd5b6102c65a03f11515610f1657600080fd5b505050604051805150505b60018152600160a060020a038216600090815260056020526040902081908151815460ff1916901515179055507fe9db4686ffcf478f0c9aa617f5d4f8ad2672b75414d7bea26368c6f65fb418df82604051600160a060020a03909116815260200160405180910390a15050565b600160a060020a031660009081526005602052604090205460ff1690565b60025481565b600154600160a060020a031681565b60005433600160a060020a03908116911614610fdd57600080fd5b600160a060020a0381161515610ff257600080fd5b600054600160a060020a0380831691167f8be0079c531659141344cd1fd0a4f28419497f9722a3daafe3b4186f6b6457e060405160405180910390a360008054600160a060020a031916600160a060020a0392909216919091179055565b60045481565b60008082600160a060020a0316638da5cb5b6000604051602001526040518163ffffffff1660e060020a028152600401602060405180830381600087803b151561109f57600080fd5b6102c65a03f115156110b057600080fd5b5050506040518051915050600160a060020a0381166346e361b73060006040516020015260405160e060020a63ffffffff8416028152600160a060020a039091166004820152602401602060405180830381600087803b151561111257600080fd5b6102c65a03f1151561112357600080fd5b5050506040518051949350505050565b60a0604051908101604090815260008083526020830181905290820181905260608201819052608082015290565b60206040519081016040526000815290565b6040805190810160405260008082526020820152905600a165627a7a72305820ad0546454b608914b2bca54446be67d01d37c1173e7832d86f122b22dbd635540029",
  "source": "pragma solidity ^0.4.18;\r\n\r\nimport \"../VotingMachines/IntVoteInterface.sol\";\r\nimport \"./UniversalScheme.sol\";\r\n\r\n\r\n/**\r\n * @title A schme to manage the upgrade of an organization.\r\n * @dev The schme is used to upgrade the controller of an organization to a new controller.\r\n */\r\n\r\ncontract UpgradeScheme is UniversalScheme, ExecutableInterface {\r\n    event LogNewUpgradeProposal(\r\n        address indexed _avatar,\r\n        bytes32 indexed _proposalId,\r\n        address indexed _intVoteInterface,\r\n        address _newController\r\n    );\r\n    event LogChangeUpgradeSchemeProposal(\r\n        address indexed _avatar,\r\n        bytes32 indexed _proposalId,\r\n        address indexed _intVoteInterface,\r\n        address newUpgradeScheme,\r\n        bytes32 _params,\r\n        StandardToken tokenFee,\r\n        uint fee\r\n    );\r\n    event LogProposalExecuted(address indexed _avatar, bytes32 indexed _proposalId);\r\n    event LogProposalDeleted(address indexed _avatar, bytes32 indexed _proposalId);\r\n\r\n    // Details of an upgrade proposal:\r\n    struct UpgradeProposal {\r\n        address newContOrScheme; // Either the new conroller we upgrade to, or the new upgrading scheme.\r\n        bytes32 params; // Params for the new upgrading scheme.\r\n        uint proposalType; // 1: Upgrade controller, 2: change upgrade scheme.\r\n        StandardToken tokenFee;\r\n        uint fee;\r\n    }\r\n\r\n    // Struct holding the data for each organization\r\n    struct Organization {\r\n        bool isRegistered;\r\n        mapping(bytes32=>UpgradeProposal) proposals;\r\n    }\r\n\r\n\r\n    // A mapping from thr organization (Avatar) address to the saved data of the organization:\r\n    mapping(address=>Organization) public organizations;\r\n\r\n    // A mapping from hashes to parameters (use to store a particular configuration on the controller)\r\n    struct Parameters {\r\n        bytes32 voteParams;\r\n        IntVoteInterface intVote;\r\n    }\r\n\r\n    mapping(bytes32=>Parameters) parameters;\r\n\r\n    /**\r\n    * @dev the constructor takes a token address, fee and beneficiary\r\n    */\r\n    function UpgradeScheme(StandardToken _nativeToken, uint _fee, address _beneficiary) public {\r\n        updateParameters(_nativeToken, _fee, _beneficiary, bytes32(0));\r\n    }\r\n\r\n    /**\r\n    * @dev hash the parameters, save them if necessary, and return the hash value\r\n    */\r\n    function setParameters(\r\n        bytes32 _voteParams,\r\n        IntVoteInterface _intVote\r\n    ) public returns(bytes32)\r\n    {\r\n        bytes32 paramsHash = getParametersHash(_voteParams, _intVote);\r\n        parameters[paramsHash].voteParams = _voteParams;\r\n        parameters[paramsHash].intVote = _intVote;\r\n        return paramsHash;\r\n    }\r\n\r\n    /**\r\n    * @dev return a hash of the given parameters\r\n    */\r\n    function getParametersHash(\r\n        bytes32 _voteParams,\r\n        IntVoteInterface _intVote\r\n    ) public pure returns(bytes32)\r\n    {\r\n        bytes32 paramsHash = (keccak256(_voteParams, _intVote));\r\n        return paramsHash;\r\n    }\r\n\r\n    function isRegistered(address _avatar) public constant returns(bool) {\r\n        return organizations[_avatar].isRegistered;\r\n    }\r\n\r\n    /**\r\n    * @dev registering an organization to the univarsal scheme\r\n    * @param _avatar avatar of the organization\r\n    */\r\n    function registerOrganization(Avatar _avatar) public {\r\n        // Pay fees for using scheme:\r\n        if ((fee > 0) && (! organizations[_avatar].isRegistered)) {\r\n            nativeToken.transferFrom(_avatar, beneficiary, fee);\r\n        }\r\n\r\n        Organization memory org;\r\n        org.isRegistered = true;\r\n        organizations[_avatar] = org;\r\n        LogOrgRegistered(_avatar);\r\n    }\r\n\r\n    /**\r\n    * @dev porpose an upgrade of the organization's controller\r\n    * @param _avatar avatar of the organization\r\n    * @param _newController address of the new controller that is being porposed\r\n    * @return an id which represents the porposal\r\n    */\r\n    function proposeUpgrade(Avatar _avatar, address _newController) public returns(bytes32) {\r\n        Organization memory org = organizations[_avatar];\r\n        require(org.isRegistered); // Check org is registred to use this universal scheme.\r\n        Parameters memory params = parameters[getParametersFromController(_avatar)];\r\n        bytes32 proposalId = params.intVote.propose(2, params.voteParams, _avatar, ExecutableInterface(this));\r\n        if (organizations[_avatar].proposals[proposalId].proposalType != 0) {\r\n            revert();\r\n        }\r\n        organizations[_avatar].proposals[proposalId].proposalType = 1;\r\n        organizations[_avatar].proposals[proposalId].newContOrScheme = _newController;\r\n        LogNewUpgradeProposal(_avatar, proposalId, params.intVote, _newController);\r\n        params.intVote.ownerVote(proposalId, 1, msg.sender); // Automatically votes `yes` in the name of the opener.\r\n        return proposalId;\r\n    }\r\n\r\n    /**\r\n    * @dev porpose to replace this schme by another upgrading scheme\r\n    * @param _avatar avatar of the organization\r\n    * @param _scheme address of the new upgrad ing scheme\r\n    * @param _params ???\r\n    * @param _tokenFee  ???\r\n    * @param _fee ???\r\n    * @return an id which represents the porposal\r\n    */\r\n    function proposeChangeUpgradingScheme(\r\n        Avatar _avatar,\r\n        address _scheme,\r\n        bytes32 _params,\r\n        StandardToken _tokenFee,\r\n        uint _fee\r\n    )\r\n        public\r\n        returns(bytes32)\r\n    {\r\n        Organization memory org = organizations[_avatar];\r\n        Parameters memory params = parameters[getParametersFromController(_avatar)];\r\n\r\n        require(org.isRegistered); // Check org is registred to use this universal scheme.\r\n        IntVoteInterface intVote = params.intVote;\r\n        bytes32 proposalId = intVote.propose(2, params.voteParams, _avatar, ExecutableInterface(this));\r\n        if (organizations[_avatar].proposals[proposalId].proposalType != 0) {\r\n            revert();\r\n        }\r\n\r\n        // Setting the struct:\r\n        UpgradeProposal memory proposal = UpgradeProposal({\r\n            proposalType: 2,\r\n            newContOrScheme: _scheme,\r\n            params: _params,\r\n            tokenFee: _tokenFee,\r\n            fee: _fee\r\n        });\r\n        organizations[_avatar].proposals[proposalId] = proposal;\r\n\r\n        LogChangeUpgradeSchemeProposal(\r\n            _avatar,\r\n            proposalId,\r\n            params.intVote,\r\n            _scheme,\r\n            _params,\r\n            _tokenFee,\r\n            _fee\r\n        );\r\n        intVote.ownerVote(proposalId, 1, msg.sender); // Automatically votes `yes` in the name of the opener.\r\n        return proposalId;\r\n    }\r\n\r\n    /**\r\n    * @dev execution of proposals, can only be called by the voting machine in which the vote is held.\r\n    * @param _proposalId the ID of the voting in the voting machine\r\n    * @param _avatar address of the controller\r\n    * @param _param a parameter of the voting result, 0 is no and 1 is yes.\r\n    */\r\n    function execute(bytes32 _proposalId, address _avatar, int _param) public returns(bool) {\r\n        // Check the caller is indeed the voting machine:\r\n        require(parameters[getParametersFromController(Avatar(_avatar))].intVote == msg.sender);\r\n        // Check if vote was successful:\r\n        if (_param != 1) {\r\n            delete organizations[_avatar].proposals[_proposalId];\r\n            return true;\r\n        }\r\n        // Define controller and get the parmas:\r\n        Controller controller = Controller(Avatar(_avatar).owner());\r\n        UpgradeProposal memory proposal = organizations[_avatar].proposals[_proposalId];\r\n\r\n        // Upgrading controller:\r\n        if (proposal.proposalType == 1) {\r\n            if (!controller.upgradeController(proposal.newContOrScheme)) {\r\n                revert();\r\n            }\r\n        }\r\n\r\n        // Changing upgrade scheme:\r\n        if (proposal.proposalType == 2) {\r\n            bytes4 permissions = controller.getSchemePermissions(this);\r\n            if (proposal.fee != 0) {\r\n                if (!controller.externalTokenApprove(proposal.tokenFee, proposal.newContOrScheme, proposal.fee)) {\r\n                    revert();\r\n                }\r\n            }\r\n            if (!controller.registerScheme(proposal.newContOrScheme, proposal.params, permissions)) {\r\n                revert();\r\n            }\r\n            if (proposal.newContOrScheme != address(this) ) {\r\n                if (!controller.unregisterSelf()) {\r\n                    revert();\r\n                }\r\n            }\r\n        }\r\n        delete organizations[_avatar].proposals[_proposalId];\r\n        return true;\r\n    }\r\n}\r\n",
  "sourcePath": "C:\\Users\\dkent\\Documents\\Projects\\GitHub\\DAOStack\\daostack\\contracts\\universalSchemes\\UpgradeScheme.sol",
  "compiler": {
    "name": "solc",
    "version": "0.4.18+commit.9cf6e910.Emscripten.clang"
  },
  "schemaVersion": "1.0.1",
  "updatedAt": "2017-12-13T19:15:29.726Z"
}