{
  "contractName": "UpgradeScheme",
  "abi": [
    {
      "constant": true,
      "inputs": [
        {
          "name": "",
          "type": "bytes32"
        }
      ],
      "name": "parameters",
      "outputs": [
        {
          "name": "voteParams",
          "type": "bytes32"
        },
        {
          "name": "intVote",
          "type": "address"
        }
      ],
      "payable": false,
      "stateMutability": "view",
      "type": "function"
    },
    {
      "constant": true,
      "inputs": [
        {
          "name": "",
          "type": "address"
        },
        {
          "name": "",
          "type": "bytes32"
        }
      ],
      "name": "organizationsProposals",
      "outputs": [
        {
          "name": "upgradeContract",
          "type": "address"
        },
        {
          "name": "params",
          "type": "bytes32"
        },
        {
          "name": "proposalType",
          "type": "uint256"
        },
        {
          "name": "tokenFee",
          "type": "address"
        },
        {
          "name": "fee",
          "type": "uint256"
        }
      ],
      "payable": false,
      "stateMutability": "view",
      "type": "function"
    },
    {
      "constant": true,
      "inputs": [
        {
          "name": "_voteParams",
          "type": "bytes32"
        },
        {
          "name": "_intVote",
          "type": "address"
        }
      ],
      "name": "getParametersHash",
      "outputs": [
        {
          "name": "",
          "type": "bytes32"
        }
      ],
      "payable": false,
      "stateMutability": "pure",
      "type": "function"
    },
    {
      "constant": false,
      "inputs": [
        {
          "name": "_proposalId",
          "type": "bytes32"
        },
        {
          "name": "_avatar",
          "type": "address"
        },
        {
          "name": "_param",
          "type": "int256"
        }
      ],
      "name": "execute",
      "outputs": [
        {
          "name": "",
          "type": "bool"
        }
      ],
      "payable": false,
      "stateMutability": "nonpayable",
      "type": "function"
    },
    {
      "constant": true,
      "inputs": [],
      "name": "beneficiary",
      "outputs": [
        {
          "name": "",
          "type": "address"
        }
      ],
      "payable": false,
      "stateMutability": "view",
      "type": "function"
    },
    {
      "constant": false,
      "inputs": [
        {
          "name": "_avatar",
          "type": "address"
        },
        {
          "name": "_scheme",
          "type": "address"
        },
        {
          "name": "_params",
          "type": "bytes32"
        },
        {
          "name": "_tokenFee",
          "type": "address"
        },
        {
          "name": "_fee",
          "type": "uint256"
        }
      ],
      "name": "proposeChangeUpgradingScheme",
      "outputs": [
        {
          "name": "",
          "type": "bytes32"
        }
      ],
      "payable": false,
      "stateMutability": "nonpayable",
      "type": "function"
    },
    {
      "constant": false,
      "inputs": [
        {
          "name": "_nativeToken",
          "type": "address"
        },
        {
          "name": "_fee",
          "type": "uint256"
        },
        {
          "name": "_beneficiary",
          "type": "address"
        },
        {
          "name": "_hashedParameters",
          "type": "bytes32"
        }
      ],
      "name": "updateParameters",
      "outputs": [],
      "payable": false,
      "stateMutability": "nonpayable",
      "type": "function"
    },
    {
      "constant": true,
      "inputs": [
        {
          "name": "",
          "type": "address"
        }
      ],
      "name": "organizations",
      "outputs": [
        {
          "name": "",
          "type": "bool"
        }
      ],
      "payable": false,
      "stateMutability": "view",
      "type": "function"
    },
    {
      "constant": false,
      "inputs": [
        {
          "name": "_voteParams",
          "type": "bytes32"
        },
        {
          "name": "_intVote",
          "type": "address"
        }
      ],
      "name": "setParameters",
      "outputs": [
        {
          "name": "",
          "type": "bytes32"
        }
      ],
      "payable": false,
      "stateMutability": "nonpayable",
      "type": "function"
    },
    {
      "constant": false,
      "inputs": [
        {
          "name": "_avatar",
          "type": "address"
        },
        {
          "name": "_newController",
          "type": "address"
        }
      ],
      "name": "proposeUpgrade",
      "outputs": [
        {
          "name": "",
          "type": "bytes32"
        }
      ],
      "payable": false,
      "stateMutability": "nonpayable",
      "type": "function"
    },
    {
      "constant": true,
      "inputs": [],
      "name": "owner",
      "outputs": [
        {
          "name": "",
          "type": "address"
        }
      ],
      "payable": false,
      "stateMutability": "view",
      "type": "function"
    },
    {
      "constant": false,
      "inputs": [
        {
          "name": "_avatar",
          "type": "address"
        }
      ],
      "name": "registerOrganization",
      "outputs": [],
      "payable": false,
      "stateMutability": "nonpayable",
      "type": "function"
    },
    {
      "constant": true,
      "inputs": [
        {
          "name": "_avatar",
          "type": "address"
        }
      ],
      "name": "isRegistered",
      "outputs": [
        {
          "name": "",
          "type": "bool"
        }
      ],
      "payable": false,
      "stateMutability": "view",
      "type": "function"
    },
    {
      "constant": true,
      "inputs": [],
      "name": "fee",
      "outputs": [
        {
          "name": "",
          "type": "uint256"
        }
      ],
      "payable": false,
      "stateMutability": "view",
      "type": "function"
    },
    {
      "constant": true,
      "inputs": [],
      "name": "nativeToken",
      "outputs": [
        {
          "name": "",
          "type": "address"
        }
      ],
      "payable": false,
      "stateMutability": "view",
      "type": "function"
    },
    {
      "constant": false,
      "inputs": [
        {
          "name": "newOwner",
          "type": "address"
        }
      ],
      "name": "transferOwnership",
      "outputs": [],
      "payable": false,
      "stateMutability": "nonpayable",
      "type": "function"
    },
    {
      "constant": true,
      "inputs": [],
      "name": "hashedParameters",
      "outputs": [
        {
          "name": "",
          "type": "bytes32"
        }
      ],
      "payable": false,
      "stateMutability": "view",
      "type": "function"
    },
    {
      "inputs": [
        {
          "name": "_nativeToken",
          "type": "address"
        },
        {
          "name": "_fee",
          "type": "uint256"
        },
        {
          "name": "_beneficiary",
          "type": "address"
        }
      ],
      "payable": false,
      "stateMutability": "nonpayable",
      "type": "constructor"
    },
    {
      "anonymous": false,
      "inputs": [
        {
          "indexed": true,
          "name": "_avatar",
          "type": "address"
        },
        {
          "indexed": true,
          "name": "_proposalId",
          "type": "bytes32"
        },
        {
          "indexed": true,
          "name": "_intVoteInterface",
          "type": "address"
        },
        {
          "indexed": false,
          "name": "_newController",
          "type": "address"
        }
      ],
      "name": "LogNewUpgradeProposal",
      "type": "event"
    },
    {
      "anonymous": false,
      "inputs": [
        {
          "indexed": true,
          "name": "_avatar",
          "type": "address"
        },
        {
          "indexed": true,
          "name": "_proposalId",
          "type": "bytes32"
        },
        {
          "indexed": true,
          "name": "_intVoteInterface",
          "type": "address"
        },
        {
          "indexed": false,
          "name": "newUpgradeScheme",
          "type": "address"
        },
        {
          "indexed": false,
          "name": "_params",
          "type": "bytes32"
        },
        {
          "indexed": false,
          "name": "tokenFee",
          "type": "address"
        },
        {
          "indexed": false,
          "name": "fee",
          "type": "uint256"
        }
      ],
      "name": "LogChangeUpgradeSchemeProposal",
      "type": "event"
    },
    {
      "anonymous": false,
      "inputs": [
        {
          "indexed": true,
          "name": "_avatar",
          "type": "address"
        },
        {
          "indexed": true,
          "name": "_proposalId",
          "type": "bytes32"
        }
      ],
      "name": "LogProposalExecuted",
      "type": "event"
    },
    {
      "anonymous": false,
      "inputs": [
        {
          "indexed": true,
          "name": "_avatar",
          "type": "address"
        },
        {
          "indexed": true,
          "name": "_proposalId",
          "type": "bytes32"
        }
      ],
      "name": "LogProposalDeleted",
      "type": "event"
    },
    {
      "anonymous": false,
      "inputs": [
        {
          "indexed": false,
          "name": "_avatar",
          "type": "address"
        }
      ],
      "name": "OrganizationRegistered",
      "type": "event"
    },
    {
      "anonymous": false,
      "inputs": [
        {
          "indexed": false,
          "name": "proposalId",
          "type": "bytes32"
        }
      ],
      "name": "LogNewProposal",
      "type": "event"
    },
    {
      "anonymous": false,
      "inputs": [
        {
          "indexed": true,
          "name": "previousOwner",
          "type": "address"
        },
        {
          "indexed": true,
          "name": "newOwner",
          "type": "address"
        }
      ],
      "name": "OwnershipTransferred",
      "type": "event"
    }
  ],
  "bytecode": "0x6060604052341561000f57600080fd5b6040516060806112a283398101604052808051919060200180519190602001805160008054600160a060020a03191633600160a060020a031617815590925061006b91508490849084906401000000006100738102610b9e1704565b5050506100c6565b60005433600160a060020a0390811691161461008e57600080fd5b60018054600160a060020a0319908116600160a060020a03968716179091556002939093556003805490931691909316179055600455565b6111cd806100d56000396000f3006060604052600436106100d75763ffffffff60e060020a6000350416630250680481146100dc57806306e3a978146101135780632453732a14610170578063310ce4e2146101a457806338af3eed146101dd578063426ba2481461020c5780634345a6101461023e5780635a1f74061461026c57806368e14dac1461028b578063887fbd1c146102ad5780638da5cb5b146102d257806390be003c146102e5578063c3c5a54714610304578063ddca3f4314610323578063e1758bd814610336578063f2fde38b14610349578063f98e87ba14610368575b600080fd5b34156100e757600080fd5b6100f260043561037b565b604051918252600160a060020a031660208201526040908101905180910390f35b341561011e57600080fd5b610135600160a060020a036004351660243561039d565b604051600160a060020a039586168152602081019490945260408085019390935293166060830152608082019290925260a001905180910390f35b341561017b57600080fd5b610192600435600160a060020a03602435166103e4565b60405190815260200160405180910390f35b34156101af57600080fd5b6101c9600435600160a060020a036024351660443561041e565b604051901515815260200160405180910390f35b34156101e857600080fd5b6101f0610889565b604051600160a060020a03909116815260200160405180910390f35b341561021757600080fd5b610192600160a060020a036004358116906024358116906044359060643516608435610898565b341561024957600080fd5b61026a600160a060020a036004358116906024359060443516606435610b9e565b005b341561027757600080fd5b6101c9600160a060020a0360043516610bf1565b341561029657600080fd5b610192600435600160a060020a0360243516610c06565b34156102b857600080fd5b610192600160a060020a0360043581169060243516610c4e565b34156102dd57600080fd5b6101f0610e80565b34156102f057600080fd5b61026a600160a060020a0360043516610e8f565b341561030f57600080fd5b6101c9600160a060020a0360043516610fb8565b341561032e57600080fd5b610192610fd6565b341561034157600080fd5b6101f0610fdc565b341561035457600080fd5b61026a600160a060020a0360043516610feb565b341561037357600080fd5b610192611079565b60076020526000908152604090208054600190910154600160a060020a031682565b600660209081526000928352604080842090915290825290208054600182015460028301546003840154600490940154600160a060020a0393841694929391929091169085565b60008282604051918252600160a060020a03166c010000000000000000000000000260208201526034016040518091039020905092915050565b60008061042961115c565b600033600160a060020a0316600760006104428961107f565b8152602081019190915260400160002060010154600160a060020a03161461046957600080fd5b84600114156108275785600160a060020a0316638da5cb5b6000604051602001526040518163ffffffff1660e060020a028152600401602060405180830381600087803b15156104b857600080fd5b6102c65a03f115156104c957600080fd5b5050506040518051600160a060020a03881660009081526006602090815260408083208c84529091529081902091955090915060a0905190810160409081528254600160a060020a03908116835260018401546020840152600284015491830191825260038401541660608301526004909201546080820152925051600114156105cb57600160a060020a03831663b9c2ee82835160006040516020015260405160e060020a63ffffffff8416028152600160a060020a039091166004820152602401602060405180830381600087803b15156105a557600080fd5b6102c65a03f115156105b657600080fd5b5050506040518051905015156105cb57600080fd5b8160400151600214156108275782600160a060020a0316639fe027263060006040516020015260405160e060020a63ffffffff8416028152600160a060020a039091166004820152602401602060405180830381600087803b151561062f57600080fd5b6102c65a03f1151561064057600080fd5b50505060405180519150506080820151156106ee5782600160a060020a0316638cf1355c83606001518451856080015160006040516020015260405160e060020a63ffffffff8616028152600160a060020a0393841660048201529190921660248201526044810191909152606401602060405180830381600087803b15156106c857600080fd5b6102c65a03f115156106d957600080fd5b5050506040518051905015156106ee57600080fd5b600160a060020a03831663a34abaa8835184602001518460006040516020015260405160e060020a63ffffffff8616028152600160a060020a03909316600484015260248301919091527fffffffff00000000000000000000000000000000000000000000000000000000166044820152606401602060405180830381600087803b151561077b57600080fd5b6102c65a03f1151561078c57600080fd5b5050506040518051905015156107a157600080fd5b600160a060020a0330168251600160a060020a0316146108275782600160a060020a0316636bafaa596000604051602001526040518163ffffffff1660e060020a028152600401602060405180830381600087803b151561080157600080fd5b6102c65a03f1151561081257600080fd5b50505060405180519050151561082757600080fd5b50505050600160a060020a039190911660009081526006602090815260408083209483529390529182208054600160a060020a031990811682556001808301859055600283018590556003830180549092169091556004909101929092555090565b600354600160a060020a031681565b60006108a261118a565b6000806108ad61115c565b600160a060020a038a166000908152600560205260409020548a9060ff1615156108d657600080fd5b600760006108e38d61107f565b81526020810191909152604090810160002090805190810160405281548152600190910154600160a060020a031660208201908152909550519350600160a060020a0384166388737b5e600287518e3060006040516020015260405160e060020a63ffffffff871602815260048101949094526024840192909252600160a060020a039081166044840152166064820152608401602060405180830381600087803b151561099057600080fd5b6102c65a03f115156109a157600080fd5b5050506040518051600160a060020a038d1660009081526006602090815260408083208484529091529020600201549094501590506109df57600080fd5b60a06040519081016040908152600160a060020a03808d16835260208084018d90526002838501528b82166060850152608084018b9052908e1660009081526006825282812087825290915220909250829081518154600160a060020a031916600160a060020a039190911617815560208201516001820155604082015181600201556060820151600382018054600160a060020a031916600160a060020a03929092169190911790556080820151600490910155506020850151600160a060020a031683600019168c600160a060020a03167f2d846aeb8264bef18d7393145472cfc99afb135a60ea2c6a6dc368b03e5483498d8d8d8d604051600160a060020a039485168152602081019390935292166040808301919091526060820192909252608001905180910390a483600160a060020a031663339e23d18460013360006040516020015260405160e060020a63ffffffff861602815260048101939093526024830191909152600160a060020a03166044820152606401602060405180830381600087803b1515610b7457600080fd5b6102c65a03f11515610b8557600080fd5b505050604051805150929b9a5050505050505050505050565b60005433600160a060020a03908116911614610bb957600080fd5b60018054600160a060020a0319908116600160a060020a03968716179091556002939093556003805490931691909316179055600455565b60056020526000908152604090205460ff1681565b600080610c1384846103e4565b60008181526007602052604090208581556001018054600160a060020a038616600160a060020a031990911617905591508190505092915050565b6000610c5861118a565b600160a060020a038416600090815260056020526040812054859060ff161515610c8157600080fd5b60076000610c8e8861107f565b81526020810191909152604090810160002090805190810160405281548152600190910154600160a060020a03166020820190815290935051600160a060020a03166388737b5e60028551893060006040516020015260405160e060020a63ffffffff871602815260048101949094526024840192909252600160a060020a039081166044840152166064820152608401602060405180830381600087803b1515610d3857600080fd5b6102c65a03f11515610d4957600080fd5b5050506040518051600160a060020a0388811660009081526006602090815260408083208584528252909120600160028201558054600160a060020a031916928a16929092179091559093508401905051600160a060020a0316826000191687600160a060020a03167fa96bac6ecd2db240cb777e078d2fceafc3cb9c2aceefe34b827f802d4a1a798088604051600160a060020a03909116815260200160405180910390a48260200151600160a060020a031663339e23d18360013360006040516020015260405160e060020a63ffffffff861602815260048101939093526024830191909152600160a060020a03166044820152606401602060405180830381600087803b1515610e5b57600080fd5b6102c65a03f11515610e6c57600080fd5b505050604051805150919695505050505050565b600054600160a060020a031681565b6000600254118015610eba5750600160a060020a03811660009081526005602052604090205460ff16155b15610f5357600154600354600254600160a060020a03928316926323b872dd92859291169060006040516020015260405160e060020a63ffffffff8616028152600160a060020a0393841660048201529190921660248201526044810191909152606401602060405180830381600087803b1515610f3757600080fd5b6102c65a03f11515610f4857600080fd5b505050604051805150505b600160a060020a03811660009081526005602052604090819020805460ff191660011790557f2178e9c576507a4c15d3deab489af3f699a3dedbff9a7ef27c43a017027710e590829051600160a060020a03909116815260200160405180910390a150565b600160a060020a031660009081526005602052604090205460ff1690565b60025481565b600154600160a060020a031681565b60005433600160a060020a0390811691161461100657600080fd5b600160a060020a038116151561101b57600080fd5b600054600160a060020a0380831691167f8be0079c531659141344cd1fd0a4f28419497f9722a3daafe3b4186f6b6457e060405160405180910390a360008054600160a060020a031916600160a060020a0392909216919091179055565b60045481565b60008082600160a060020a0316638da5cb5b6000604051602001526040518163ffffffff1660e060020a028152600401602060405180830381600087803b15156110c857600080fd5b6102c65a03f115156110d957600080fd5b5050506040518051915050600160a060020a0381166346e361b73060006040516020015260405160e060020a63ffffffff8416028152600160a060020a039091166004820152602401602060405180830381600087803b151561113b57600080fd5b6102c65a03f1151561114c57600080fd5b5050506040518051949350505050565b60a0604051908101604090815260008083526020830181905290820181905260608201819052608082015290565b6040805190810160405260008082526020820152905600a165627a7a72305820c85e90b29dd33ead7990b5b1f2b800067673f4e968e3678bb2f9665e7061f2160029",
  "source": "pragma solidity ^0.4.18;\r\n\r\nimport \"../VotingMachines/IntVoteInterface.sol\";\r\nimport \"./UniversalScheme.sol\";\r\n\r\n\r\n/**\r\n * @title A schme to manage the upgrade of an organization.\r\n * @dev The schme is used to upgrade the controller of an organization to a new controller.\r\n */\r\n\r\ncontract UpgradeScheme is UniversalScheme, ExecutableInterface {\r\n    event LogNewUpgradeProposal(\r\n        address indexed _avatar,\r\n        bytes32 indexed _proposalId,\r\n        address indexed _intVoteInterface,\r\n        address _newController\r\n    );\r\n    event LogChangeUpgradeSchemeProposal(\r\n        address indexed _avatar,\r\n        bytes32 indexed _proposalId,\r\n        address indexed _intVoteInterface,\r\n        address newUpgradeScheme,\r\n        bytes32 _params,\r\n        StandardToken tokenFee,\r\n        uint fee\r\n    );\r\n    event LogProposalExecuted(address indexed _avatar, bytes32 indexed _proposalId);\r\n    event LogProposalDeleted(address indexed _avatar, bytes32 indexed _proposalId);\r\n\r\n    // Details of an upgrade proposal:\r\n    struct UpgradeProposal {\r\n        address upgradeContract; // Either the new conroller we upgrade to, or the new upgrading scheme.\r\n        bytes32 params; // Params for the new upgrading scheme.\r\n        uint proposalType; // 1: Upgrade controller, 2: change upgrade scheme.\r\n        StandardToken tokenFee;\r\n        uint fee;\r\n    }\r\n\r\n    // A mapping from the organization's (Avatar) address to the saved data of the organization:\r\n    mapping(address=>mapping(bytes32=>UpgradeProposal)) public organizationsProposals;\r\n\r\n    // A mapping from hashes to parameters (use to store a particular configuration on the controller)\r\n    struct Parameters {\r\n        bytes32 voteParams;\r\n        IntVoteInterface intVote;\r\n    }\r\n\r\n    mapping(bytes32=>Parameters) public parameters;\r\n\r\n    /**\r\n    * @dev the constructor takes a token address, fee and beneficiary\r\n    */\r\n    function UpgradeScheme(StandardToken _nativeToken, uint _fee, address _beneficiary) public {\r\n        updateParameters(_nativeToken, _fee, _beneficiary, bytes32(0));\r\n    }\r\n\r\n    /**\r\n    * @dev hash the parameters, save them if necessary, and return the hash value\r\n    */\r\n    function setParameters(\r\n        bytes32 _voteParams,\r\n        IntVoteInterface _intVote\r\n    ) public returns(bytes32)\r\n    {\r\n        bytes32 paramsHash = getParametersHash(_voteParams, _intVote);\r\n        parameters[paramsHash].voteParams = _voteParams;\r\n        parameters[paramsHash].intVote = _intVote;\r\n        return paramsHash;\r\n    }\r\n\r\n    /**\r\n    * @dev return a hash of the given parameters\r\n    */\r\n    function getParametersHash(\r\n        bytes32 _voteParams,\r\n        IntVoteInterface _intVote\r\n    ) public pure returns(bytes32)\r\n    {\r\n        return  (keccak256(_voteParams, _intVote));\r\n    }\r\n\r\n    /**\r\n    * @dev propose an upgrade of the organization's controller\r\n    * @param _avatar avatar of the organization\r\n    * @param _newController address of the new controller that is being proposed\r\n    * @return an id which represents the proposal\r\n    */\r\n    function proposeUpgrade(Avatar _avatar, address _newController)\r\n        public\r\n        onlyRegisteredOrganization(_avatar)\r\n        returns(bytes32)\r\n    {\r\n        Parameters memory params = parameters[getParametersFromController(_avatar)];\r\n        bytes32 proposalId = params.intVote.propose(2, params.voteParams, _avatar, ExecutableInterface(this));\r\n        organizationsProposals[_avatar][proposalId].proposalType = 1;\r\n        organizationsProposals[_avatar][proposalId].upgradeContract = _newController;\r\n        LogNewUpgradeProposal(_avatar, proposalId, params.intVote, _newController);\r\n        params.intVote.ownerVote(proposalId, 1, msg.sender); // Automatically votes `yes` in the name of the proposal submitter.*/\r\n        return proposalId;\r\n    }\r\n\r\n    /**\r\n    * @dev propose to replace this scheme by another upgrading scheme\r\n    * @param _avatar avatar of the organization\r\n    * @param _scheme address of the new upgrading scheme\r\n    * @param _params ???\r\n    * @param _tokenFee  ???\r\n    * @param _fee ???\r\n    * @return an id which represents the proposal\r\n    */\r\n    function proposeChangeUpgradingScheme(\r\n        Avatar _avatar,\r\n        address _scheme,\r\n        bytes32 _params,\r\n        StandardToken _tokenFee,\r\n        uint _fee\r\n    )\r\n        public\r\n        onlyRegisteredOrganization(_avatar)\r\n        returns(bytes32)\r\n    {\r\n        Parameters memory params = parameters[getParametersFromController(_avatar)];\r\n        IntVoteInterface intVote = params.intVote;\r\n        bytes32 proposalId = intVote.propose(2, params.voteParams, _avatar, ExecutableInterface(this));\r\n        if (organizationsProposals[_avatar][proposalId].proposalType != 0) {\r\n            revert();\r\n        }\r\n\r\n        UpgradeProposal memory proposal = UpgradeProposal({\r\n            proposalType: 2,\r\n            upgradeContract: _scheme,\r\n            params: _params,\r\n            tokenFee: _tokenFee,\r\n            fee: _fee\r\n        });\r\n        organizationsProposals[_avatar][proposalId] = proposal;\r\n\r\n        LogChangeUpgradeSchemeProposal(\r\n            _avatar,\r\n            proposalId,\r\n            params.intVote,\r\n            _scheme,\r\n            _params,\r\n            _tokenFee,\r\n            _fee\r\n        );\r\n        intVote.ownerVote(proposalId, 1, msg.sender); // Automatically votes `yes` in the name of the opener.\r\n        return proposalId;\r\n    }\r\n\r\n    /**\r\n    * @dev execution of proposals, can only be called by the voting machine in which the vote is held.\r\n    * @param _proposalId the ID of the voting in the voting machine\r\n    * @param _avatar address of the controller\r\n    * @param _param a parameter of the voting result, 0 is no and 1 is yes.\r\n    */\r\n    function execute(bytes32 _proposalId, address _avatar, int _param) public returns(bool) {\r\n        // Check the caller is indeed the voting machine:\r\n        require(parameters[getParametersFromController(Avatar(_avatar))].intVote == msg.sender);\r\n        // Check if vote was successful:\r\n        if (_param == 1) {\r\n\r\n        // Define controller and get the parmas:\r\n            Controller controller = Controller(Avatar(_avatar).owner());\r\n            UpgradeProposal memory proposal = organizationsProposals[_avatar][_proposalId];\r\n\r\n        // Upgrading controller:\r\n            if (proposal.proposalType == 1) {\r\n                if (!controller.upgradeController(proposal.upgradeContract)) {\r\n                    revert();\r\n                  }\r\n                }\r\n\r\n        // Changing upgrade scheme:\r\n            if (proposal.proposalType == 2) {\r\n                bytes4 permissions = controller.getSchemePermissions(this);\r\n                if (proposal.fee != 0) {\r\n                    if (!controller.externalTokenIncreaseApproval(proposal.tokenFee, proposal.upgradeContract, proposal.fee)) {\r\n                        revert();\r\n                      }\r\n                    }\r\n                if (!controller.registerScheme(proposal.upgradeContract, proposal.params, permissions)) {\r\n                    revert();\r\n                  }\r\n                if (proposal.upgradeContract != address(this) ) {\r\n                    if (!controller.unregisterSelf()) {\r\n                        revert();\r\n                      }\r\n                    }\r\n                  }\r\n                }\r\n        delete organizationsProposals[_avatar][_proposalId];\r\n        return true;\r\n    }\r\n}\r\n",
  "sourcePath": "C:\\users\\dkent\\documents\\projects\\GitHub\\DAOStack\\daostack\\contracts\\universalSchemes\\UpgradeScheme.sol",
  "compiler": {
    "name": "solc",
    "version": "0.4.18+commit.9cf6e910.Emscripten.clang"
  },
  "schemaVersion": "1.0.1",
  "updatedAt": "2017-12-29T21:31:04.938Z"
}