{
  "contractName": "VestingScheme",
  "abi": [
    {
      "constant": true,
      "inputs": [
        {
          "name": "",
          "type": "bytes32"
        }
      ],
      "name": "parameters",
      "outputs": [
        {
          "name": "voteParams",
          "type": "bytes32"
        },
        {
          "name": "intVote",
          "type": "address"
        }
      ],
      "payable": false,
      "stateMutability": "view",
      "type": "function"
    },
    {
      "constant": true,
      "inputs": [
        {
          "name": "",
          "type": "address"
        },
        {
          "name": "",
          "type": "bytes32"
        }
      ],
      "name": "organizationsData",
      "outputs": [
        {
          "name": "token",
          "type": "address"
        },
        {
          "name": "beneficiary",
          "type": "address"
        },
        {
          "name": "returnOnCancelAddress",
          "type": "address"
        },
        {
          "name": "startingBlock",
          "type": "uint256"
        },
        {
          "name": "amountPerPeriod",
          "type": "uint256"
        },
        {
          "name": "periodLength",
          "type": "uint256"
        },
        {
          "name": "numOfAgreedPeriods",
          "type": "uint256"
        },
        {
          "name": "cliffInPeriods",
          "type": "uint256"
        },
        {
          "name": "signaturesReqToCancel",
          "type": "uint256"
        },
        {
          "name": "collectedPeriods",
          "type": "uint256"
        },
        {
          "name": "signaturesReceivedCounter",
          "type": "uint256"
        }
      ],
      "payable": false,
      "stateMutability": "view",
      "type": "function"
    },
    {
      "constant": true,
      "inputs": [
        {
          "name": "_voteParams",
          "type": "bytes32"
        },
        {
          "name": "_intVote",
          "type": "address"
        }
      ],
      "name": "getParametersHash",
      "outputs": [
        {
          "name": "",
          "type": "bytes32"
        }
      ],
      "payable": false,
      "stateMutability": "pure",
      "type": "function"
    },
    {
      "constant": false,
      "inputs": [
        {
          "name": "_proposalId",
          "type": "bytes32"
        },
        {
          "name": "_avatar",
          "type": "address"
        },
        {
          "name": "_param",
          "type": "int256"
        }
      ],
      "name": "execute",
      "outputs": [
        {
          "name": "",
          "type": "bool"
        }
      ],
      "payable": false,
      "stateMutability": "nonpayable",
      "type": "function"
    },
    {
      "constant": true,
      "inputs": [],
      "name": "beneficiary",
      "outputs": [
        {
          "name": "",
          "type": "address"
        }
      ],
      "payable": false,
      "stateMutability": "view",
      "type": "function"
    },
    {
      "constant": false,
      "inputs": [
        {
          "name": "_nativeToken",
          "type": "address"
        },
        {
          "name": "_fee",
          "type": "uint256"
        },
        {
          "name": "_beneficiary",
          "type": "address"
        },
        {
          "name": "_hashedParameters",
          "type": "bytes32"
        }
      ],
      "name": "updateParameters",
      "outputs": [],
      "payable": false,
      "stateMutability": "nonpayable",
      "type": "function"
    },
    {
      "constant": true,
      "inputs": [
        {
          "name": "",
          "type": "address"
        }
      ],
      "name": "organizations",
      "outputs": [
        {
          "name": "",
          "type": "bool"
        }
      ],
      "payable": false,
      "stateMutability": "view",
      "type": "function"
    },
    {
      "constant": false,
      "inputs": [
        {
          "name": "_beneficiary",
          "type": "address"
        },
        {
          "name": "_returnOnCancelAddress",
          "type": "address"
        },
        {
          "name": "_startingBlock",
          "type": "uint256"
        },
        {
          "name": "_amountPerPeriod",
          "type": "uint256"
        },
        {
          "name": "_periodLength",
          "type": "uint256"
        },
        {
          "name": "_numOfAgreedPeriods",
          "type": "uint256"
        },
        {
          "name": "_cliffInPeriods",
          "type": "uint256"
        },
        {
          "name": "_signaturesReqToCancel",
          "type": "uint256"
        },
        {
          "name": "_signersArray",
          "type": "address[]"
        },
        {
          "name": "_avatar",
          "type": "address"
        }
      ],
      "name": "proposeVestingAgreement",
      "outputs": [
        {
          "name": "",
          "type": "bytes32"
        }
      ],
      "payable": false,
      "stateMutability": "nonpayable",
      "type": "function"
    },
    {
      "constant": false,
      "inputs": [
        {
          "name": "_voteParams",
          "type": "bytes32"
        },
        {
          "name": "_intVote",
          "type": "address"
        }
      ],
      "name": "setParameters",
      "outputs": [
        {
          "name": "",
          "type": "bytes32"
        }
      ],
      "payable": false,
      "stateMutability": "nonpayable",
      "type": "function"
    },
    {
      "constant": false,
      "inputs": [
        {
          "name": "_agreementId",
          "type": "uint256"
        }
      ],
      "name": "revokeSignToCancelAgreement",
      "outputs": [],
      "payable": false,
      "stateMutability": "nonpayable",
      "type": "function"
    },
    {
      "constant": false,
      "inputs": [
        {
          "name": "_agreementId",
          "type": "uint256"
        }
      ],
      "name": "signToCancelAgreement",
      "outputs": [],
      "payable": false,
      "stateMutability": "nonpayable",
      "type": "function"
    },
    {
      "constant": true,
      "inputs": [],
      "name": "owner",
      "outputs": [
        {
          "name": "",
          "type": "address"
        }
      ],
      "payable": false,
      "stateMutability": "view",
      "type": "function"
    },
    {
      "constant": false,
      "inputs": [
        {
          "name": "_avatar",
          "type": "address"
        }
      ],
      "name": "registerOrganization",
      "outputs": [],
      "payable": false,
      "stateMutability": "nonpayable",
      "type": "function"
    },
    {
      "constant": true,
      "inputs": [
        {
          "name": "",
          "type": "uint256"
        }
      ],
      "name": "agreements",
      "outputs": [
        {
          "name": "token",
          "type": "address"
        },
        {
          "name": "beneficiary",
          "type": "address"
        },
        {
          "name": "returnOnCancelAddress",
          "type": "address"
        },
        {
          "name": "startingBlock",
          "type": "uint256"
        },
        {
          "name": "amountPerPeriod",
          "type": "uint256"
        },
        {
          "name": "periodLength",
          "type": "uint256"
        },
        {
          "name": "numOfAgreedPeriods",
          "type": "uint256"
        },
        {
          "name": "cliffInPeriods",
          "type": "uint256"
        },
        {
          "name": "signaturesReqToCancel",
          "type": "uint256"
        },
        {
          "name": "collectedPeriods",
          "type": "uint256"
        },
        {
          "name": "signaturesReceivedCounter",
          "type": "uint256"
        }
      ],
      "payable": false,
      "stateMutability": "view",
      "type": "function"
    },
    {
      "constant": true,
      "inputs": [
        {
          "name": "_avatar",
          "type": "address"
        }
      ],
      "name": "isRegistered",
      "outputs": [
        {
          "name": "",
          "type": "bool"
        }
      ],
      "payable": false,
      "stateMutability": "view",
      "type": "function"
    },
    {
      "constant": false,
      "inputs": [
        {
          "name": "_agreementId",
          "type": "uint256"
        }
      ],
      "name": "collect",
      "outputs": [],
      "payable": false,
      "stateMutability": "nonpayable",
      "type": "function"
    },
    {
      "constant": true,
      "inputs": [],
      "name": "fee",
      "outputs": [
        {
          "name": "",
          "type": "uint256"
        }
      ],
      "payable": false,
      "stateMutability": "view",
      "type": "function"
    },
    {
      "constant": true,
      "inputs": [],
      "name": "nativeToken",
      "outputs": [
        {
          "name": "",
          "type": "address"
        }
      ],
      "payable": false,
      "stateMutability": "view",
      "type": "function"
    },
    {
      "constant": false,
      "inputs": [
        {
          "name": "newOwner",
          "type": "address"
        }
      ],
      "name": "transferOwnership",
      "outputs": [],
      "payable": false,
      "stateMutability": "nonpayable",
      "type": "function"
    },
    {
      "constant": false,
      "inputs": [
        {
          "name": "_token",
          "type": "address"
        },
        {
          "name": "_beneficiary",
          "type": "address"
        },
        {
          "name": "_returnOnCancelAddress",
          "type": "address"
        },
        {
          "name": "_startingBlock",
          "type": "uint256"
        },
        {
          "name": "_amountPerPeriod",
          "type": "uint256"
        },
        {
          "name": "_periodLength",
          "type": "uint256"
        },
        {
          "name": "_numOfAgreedPeriods",
          "type": "uint256"
        },
        {
          "name": "_cliffInPeriods",
          "type": "uint256"
        },
        {
          "name": "_signaturesReqToCancel",
          "type": "uint256"
        },
        {
          "name": "_signersArray",
          "type": "address[]"
        }
      ],
      "name": "createVestedAgreement",
      "outputs": [
        {
          "name": "",
          "type": "uint256"
        }
      ],
      "payable": false,
      "stateMutability": "nonpayable",
      "type": "function"
    },
    {
      "constant": true,
      "inputs": [],
      "name": "hashedParameters",
      "outputs": [
        {
          "name": "",
          "type": "bytes32"
        }
      ],
      "payable": false,
      "stateMutability": "view",
      "type": "function"
    },
    {
      "inputs": [
        {
          "name": "_nativeToken",
          "type": "address"
        },
        {
          "name": "_fee",
          "type": "uint256"
        },
        {
          "name": "_beneficiary",
          "type": "address"
        }
      ],
      "payable": false,
      "stateMutability": "nonpayable",
      "type": "constructor"
    },
    {
      "anonymous": false,
      "inputs": [
        {
          "indexed": true,
          "name": "_avatar",
          "type": "address"
        }
      ],
      "name": "LogRegisterOrg",
      "type": "event"
    },
    {
      "anonymous": false,
      "inputs": [
        {
          "indexed": true,
          "name": "_avatar",
          "type": "address"
        },
        {
          "indexed": false,
          "name": "_proposalId",
          "type": "bytes32"
        }
      ],
      "name": "LogAgreementProposal",
      "type": "event"
    },
    {
      "anonymous": false,
      "inputs": [
        {
          "indexed": true,
          "name": "_avatar",
          "type": "address"
        },
        {
          "indexed": false,
          "name": "_proposalId",
          "type": "bytes32"
        },
        {
          "indexed": false,
          "name": "_result",
          "type": "int256"
        }
      ],
      "name": "LogExecutaion",
      "type": "event"
    },
    {
      "anonymous": false,
      "inputs": [
        {
          "indexed": true,
          "name": "_agreementId",
          "type": "uint256"
        }
      ],
      "name": "NewVestedAgreement",
      "type": "event"
    },
    {
      "anonymous": false,
      "inputs": [
        {
          "indexed": true,
          "name": "_agreementId",
          "type": "uint256"
        },
        {
          "indexed": true,
          "name": "_signer",
          "type": "address"
        }
      ],
      "name": "SignToCancelAgreement",
      "type": "event"
    },
    {
      "anonymous": false,
      "inputs": [
        {
          "indexed": true,
          "name": "_agreementId",
          "type": "uint256"
        },
        {
          "indexed": true,
          "name": "_signer",
          "type": "address"
        }
      ],
      "name": "RevokeSignToCancelAgreement",
      "type": "event"
    },
    {
      "anonymous": false,
      "inputs": [
        {
          "indexed": true,
          "name": "_agreementId",
          "type": "uint256"
        }
      ],
      "name": "LogAgreementCancel",
      "type": "event"
    },
    {
      "anonymous": false,
      "inputs": [
        {
          "indexed": true,
          "name": "_agreementId",
          "type": "uint256"
        }
      ],
      "name": "LogCollect",
      "type": "event"
    },
    {
      "anonymous": false,
      "inputs": [
        {
          "indexed": false,
          "name": "_avatar",
          "type": "address"
        }
      ],
      "name": "OrganizationRegistered",
      "type": "event"
    },
    {
      "anonymous": false,
      "inputs": [
        {
          "indexed": false,
          "name": "proposalId",
          "type": "bytes32"
        }
      ],
      "name": "LogNewProposal",
      "type": "event"
    },
    {
      "anonymous": false,
      "inputs": [
        {
          "indexed": true,
          "name": "previousOwner",
          "type": "address"
        },
        {
          "indexed": true,
          "name": "newOwner",
          "type": "address"
        }
      ],
      "name": "OwnershipTransferred",
      "type": "event"
    }
  ],
  "bytecode": "0x6060604052341561000f57600080fd5b604051606080611edb83398101604052808051919060200180519190602001805160008054600160a060020a03191633600160a060020a031617815590925061006b915084908490849064010000000061007381026109dc1704565b5050506100c6565b60005433600160a060020a0390811691161461008e57600080fd5b60018054600160a060020a0319908116600160a060020a03968716179091556002939093556003805490931691909316179055600455565b611e06806100d56000396000f3006060604052600436106101035763ffffffff60e060020a60003504166302506804811461010857806307377bd61461013f5780632453732a146101c9578063310ce4e2146101fd57806338af3eed146102365780634345a610146102655780635a1f74061461029357806367b60390146102b257806368e14dac1461030457806389d75221146103265780638b087f3f1461033c5780638da5cb5b1461035257806390be003c14610365578063bd14de9614610384578063c3c5a5471461039a578063ce3f865f146103b9578063ddca3f43146103cf578063e1758bd8146103e2578063f2fde38b146103f5578063f76f3fb114610414578063f98e87ba14610466575b600080fd5b341561011357600080fd5b61011e600435610479565b604051918252600160a060020a031660208201526040908101905180910390f35b341561014a57600080fd5b610161600160a060020a036004351660243561049b565b604051600160a060020a039b8c168152998b1660208b0152979099166040808a01919091526060890196909652608088019490945260a087019290925260c086015260e085015261010084015261012083019390935261014082015261016001905180910390f35b34156101d457600080fd5b6101eb600435600160a060020a036024351661050c565b60405190815260200160405180910390f35b341561020857600080fd5b610222600435600160a060020a0360243516604435610546565b604051901515815260200160405180910390f35b341561024157600080fd5b6102496109cd565b604051600160a060020a03909116815260200160405180910390f35b341561027057600080fd5b610291600160a060020a0360043581169060243590604435166064356109dc565b005b341561029e57600080fd5b610222600160a060020a0360043516610a2f565b34156102bd57600080fd5b6101eb600160a060020a03600480358216916024803582169260443592606435926084359260a4359260c4359260e435926101043591820192910135906101243516610a44565b341561030f57600080fd5b6101eb600435600160a060020a0360243516610ff0565b341561033157600080fd5b610291600435611037565b341561034757600080fd5b610291600435611108565b341561035d57600080fd5b6102496111f6565b341561037057600080fd5b610291600160a060020a0360043516611205565b341561038f57600080fd5b61016160043561132e565b34156103a557600080fd5b610222600160a060020a0360043516611396565b34156103c457600080fd5b6102916004356113b4565b34156103da57600080fd5b6101eb611600565b34156103ed57600080fd5b610249611606565b341561040057600080fd5b610291600160a060020a0360043516611615565b341561041f57600080fd5b6101eb60048035600160a060020a0390811691602480358316926044351691606435916084359160a4359160c4359160e435916101043591610124359182019101356116a3565b341561047157600080fd5b6101eb611974565b60076020526000908152604090208054600190910154600160a060020a031682565b6006602081815260009384526040808520909152918352912080546001820154600283015460038401546004850154600586015496860154600787015460088801546009890154600a90990154600160a060020a039889169a9789169998909616979496939593949293919290918b565b60008282604051918252600160a060020a03166c010000000000000000000000000260208201526034016040518091039020905092915050565b6000610550611d4d565b60008033600160a060020a03166007600061056a8961197a565b8152602081019190915260400160002060010154600160a060020a03161461059157600080fd5b85600160a060020a03167ff121f53b91542562889d6f7b9f02d6bca6f7141c143024d9dcb571024abb6f22888760405191825260208201526040908101905180910390a2600160a060020a03861660009081526006602090815260408083208a84529091529081902090610160905190810160405290816000820160009054906101000a9004600160a060020a0316600160a060020a0316600160a060020a031681526020016001820160009054906101000a9004600160a060020a0316600160a060020a0316600160a060020a031681526020016002820160009054906101000a9004600160a060020a0316600160a060020a0316600160a060020a0316815260200160038201548152602001600482015481526020016005820154815260200160068201548152602001600782015481526020016008820154815260200160098201548152602001600a8201548152505092506006600087600160a060020a0316600160a060020a0316815260200190815260200160002060008860001916600019168152602001908152602001600020600080820160006101000a815490600160a060020a0302191690556001820160006101000a815490600160a060020a0302191690556002820160006101000a815490600160a060020a0302191690556003820160009055600482016000905560058201600090556006820160009055600782016000905560088201600090556009820160009055600a820160009055505084600114156109c05785600160a060020a0316638da5cb5b6000604051602001526040518163ffffffff1660e060020a028152600401602060405180830381600087803b151561080457600080fd5b6102c65a03f1151561081557600080fd5b50505060405180519050915061083a8360c0015184608001519063ffffffff611a5716565b905081600160a060020a03166310c5b328823060006040516020015260405160e060020a63ffffffff85160281526004810192909252600160a060020a03166024820152604401602060405180830381600087803b151561089a57600080fd5b6102c65a03f115156108ab57600080fd5b505050604051805150506009546000908152600860205260409020839081518154600160a060020a031916600160a060020a03919091161781556020820151600182018054600160a060020a031916600160a060020a03929092169190911790556040820151600282018054600160a060020a031916600160a060020a0392909216919091179055606082015181600301556080820151816004015560a0820151816005015560c0820151816006015560e0820151816007015561010082015181600801556101208201518160090155610140820151600a909101555060098054600181019091557f7f4395349c6d693bbcef2c3c3133c966a84bf7d8f720d00fc21c9290a200acf760405160405180910390a25b5060019695505050505050565b600354600160a060020a031681565b60005433600160a060020a039081169116146109f757600080fd5b60018054600160a060020a0319908116600160a060020a03968716179091556002939093556003805490931691909316179055600455565b60056020526000908152604090205460ff1681565b6000610a4e611dc3565b600160a060020a0383166000908152600560205260408120548190859060ff161515610a7957600080fd5b60076000610a868861197a565b81526020810191909152604090810160002090805190810160405281548152600190910154600160a060020a03166020820190815290945051600160a060020a03166388737b5e60028651893060006040516020015260405160e060020a63ffffffff871602815260048101949094526024840192909252600160a060020a039081166044840152166064820152608401602060405180830381600087803b1515610b3057600080fd5b6102c65a03f11515610b4157600080fd5b505050604051805193505086891015610b5657fe5b60008c11610b6057fe5b600091505b86821015610be257600160a060020a03861660009081526006602090815260408083208684529091528120600191600b909101908a8a86818110610ba557fe5b60209081029290920135600160a060020a0316835250810191909152604001600020805460ff191691151591909117905560019190910190610b65565b85600160a060020a031663e1758bd86000604051602001526040518163ffffffff1660e060020a028152600401602060405180830381600087803b1515610c2857600080fd5b6102c65a03f11515610c3957600080fd5b505050604051805190506006600088600160a060020a0316600160a060020a031681526020019081526020016000206000856000191660001916815260200190815260200160002060000160006101000a815481600160a060020a030219169083600160a060020a031602179055508f6006600088600160a060020a0316600160a060020a031681526020019081526020016000206000856000191660001916815260200190815260200160002060010160006101000a815481600160a060020a030219169083600160a060020a031602179055508e6006600088600160a060020a0316600160a060020a031681526020019081526020016000206000856000191660001916815260200190815260200160002060020160006101000a815481600160a060020a030219169083600160a060020a031602179055508d6006600088600160a060020a0316600160a060020a0316815260200190815260200160002060008560001916600019168152602001908152602001600020600301819055508c6006600088600160a060020a0316600160a060020a0316815260200190815260200160002060008560001916600019168152602001908152602001600020600401819055508b6006600088600160a060020a0316600160a060020a0316815260200190815260200160002060008560001916600019168152602001908152602001600020600501819055508a6006600088600160a060020a0316600160a060020a031681526020019081526020016000206000856000191660001916815260200190815260200160002060060181905550896006600088600160a060020a0316600160a060020a031681526020019081526020016000206000856000191660001916815260200190815260200160002060070181905550886006600088600160a060020a0316600160a060020a0316815260200190815260200160002060008560001916600019168152602001908152602001600020600801819055508360200151600160a060020a031663339e23d18460013360006040516020015260405160e060020a63ffffffff861602815260048101939093526024830191909152600160a060020a03166044820152606401602060405180830381600087803b1515610f8457600080fd5b6102c65a03f11515610f9557600080fd5b50505060405180515050600160a060020a0386167f829775c7c14610e4ccd53086fdfc812d824654065dc0d529c88ad5a1d9c15e318460405190815260200160405180910390a250909e9d5050505050505050505050505050565b600080610ffd848461050c565b60008181526007602052604090208581556001018054600160a060020a031916600160a060020a03861617905591508190505b5092915050565b6000818152600860209081526040808320600160a060020a0333168452600b01909152812054829060ff16151561106d57600080fd5b6000838152600860209081526040808320600160a060020a0333168452600c81019092529091205490925060ff1615156110a657600080fd5b600160a060020a0333166000818152600c8401602052604090819020805460ff19169055600a8401805460001901905584907f1df7a752240c027cfb74557fd4dac3f5e69b4da33fd2bf627af62bec9e8293c0905160405180910390a3505050565b6000818152600860209081526040808320600160a060020a0333168452600b01909152812054829060ff16151561113e57600080fd5b6000838152600860209081526040808320600160a060020a0333168452600c81019092529091205490925060ff161561117657600080fd5b600160a060020a0333166000818152600c8401602052604090819020805460ff19166001908117909155600a85018054909101905584907f034fb4ee0593caf676b3d6d46cc590311e4119cdb1349abb1502647c4076fce2905160405180910390a3816008015482600a015414156111f1576111f183611a89565b505050565b600054600160a060020a031681565b60006002541180156112305750600160a060020a03811660009081526005602052604090205460ff16155b156112c957600154600354600254600160a060020a03928316926323b872dd92859291169060006040516020015260405160e060020a63ffffffff8616028152600160a060020a0393841660048201529190921660248201526044810191909152606401602060405180830381600087803b15156112ad57600080fd5b6102c65a03f115156112be57600080fd5b505050604051805150505b600160a060020a03811660009081526005602052604090819020805460ff191660011790557f2178e9c576507a4c15d3deab489af3f699a3dedbff9a7ef27c43a017027710e590829051600160a060020a03909116815260200160405180910390a150565b600860208190526000918252604090912080546001820154600283015460038401546004850154600586015460068701546007880154988801546009890154600a90990154600160a060020a039889169a97891699969098169794969395929491939290918b565b600160a060020a031660009081526005602052604090205460ff1690565b6113bc611d4d565b60008281526008602052604081206001015481908190859033600160a060020a039081169116146113ec57600080fd5b6000868152600860205260409081902090610160905190810160409081528254600160a060020a039081168352600184015481166020840152600284015416908201526003820154606082015260048201546080820152600582015460a08201908152600683015460c0830152600783015460e083015260088301546101008301526009830154610120830152600a9092015461014082015295506114ad90516114a18760600151439063ffffffff611d1516565b9063ffffffff611d2716565b93508460e001518410156114bd57fe5b8460c0015184106114e9576114e28561012001518660c001519063ffffffff611d1516565b9250611502565b6114ff856101200151859063ffffffff611d1516565b92505b600086815260086020526040902060090154611524908463ffffffff611d3e16565b60008781526008602052604090206009015561154b6080860151849063ffffffff611a5716565b91508451600160a060020a031663a9059cbb86602001518460006040516020015260405160e060020a63ffffffff8516028152600160a060020a0390921660048301526024820152604401602060405180830381600087803b15156115af57600080fd5b6102c65a03f115156115c057600080fd5b5050506040518051905050857f4ceba015d961d93f1d6825703b730a8ba05619c005dfd8073aee773dc6725fbb60405160405180910390a2505050505050565b60025481565b600154600160a060020a031681565b60005433600160a060020a0390811691161461163057600080fd5b600160a060020a038116151561164557600080fd5b600054600160a060020a0380831691167f8be0079c531659141344cd1fd0a4f28419497f9722a3daafe3b4186f6b6457e060405160405180910390a360008054600160a060020a031916600160a060020a0392909216919091179055565b60008080838610156116b157fe5b600089116116bb57fe5b6116cb8a8963ffffffff611a5716565b91508d600160a060020a03166323b872dd33308560006040516020015260405160e060020a63ffffffff8616028152600160a060020a0393841660048201529190921660248201526044810191909152606401602060405180830381600087803b151561173757600080fd5b6102c65a03f1151561174857600080fd5b50505060405180519050508d60086000600954815260200190815260200160002060000160006101000a815481600160a060020a030219169083600160a060020a031602179055508c60086000600954815260200190815260200160002060010160006101000a815481600160a060020a030219169083600160a060020a031602179055508b60086000600954815260200190815260200160002060020160006101000a815481600160a060020a030219169083600160a060020a031602179055508a6008600060095481526020019081526020016000206003018190555089600860006009548152602001908152602001600020600401819055508860086000600954815260200190815260200160002060050181905550876008600060095481526020019081526020016000206006018190555086600860006009548152602001908152602001600020600701819055508560086000600954815260200190815260200160002060080181905550600090505b83811015611924576009546000908152600860205260408120600191600b909101908787858181106118eb57fe5b60209081029290920135600160a060020a0316835250810191909152604001600020805460ff19169115159190911790556001016118bd565b60098054600181019091557f7f4395349c6d693bbcef2c3c3133c966a84bf7d8f720d00fc21c9290a200acf760405160405180910390a25050600954600019019c9b505050505050505050505050565b60045481565b60008082600160a060020a0316638da5cb5b6000604051602001526040518163ffffffff1660e060020a028152600401602060405180830381600087803b15156119c357600080fd5b6102c65a03f115156119d457600080fd5b5050506040518051915050600160a060020a0381166346e361b73060006040516020015260405160e060020a63ffffffff8416028152600160a060020a039091166004820152602401602060405180830381600087803b1515611a3657600080fd5b6102c65a03f11515611a4757600080fd5b5050506040518051949350505050565b600080831515611a6a5760009150611030565b50828202828482811515611a7a57fe5b0414611a8257fe5b9392505050565b611a91611d4d565b6000828152600860205260408082208291610160905190810160405290816000820160009054906101000a9004600160a060020a0316600160a060020a0316600160a060020a031681526020016001820160009054906101000a9004600160a060020a0316600160a060020a0316600160a060020a031681526020016002820160009054906101000a9004600160a060020a0316600160a060020a0316600160a060020a0316815260200160038201548152602001600482015481526020016005820154815260200160068201548152602001600782015481526020016008820154815260200160098201548152602001600a82015481525050925060086000858152602001908152602001600020600080820160006101000a815490600160a060020a0302191690556001820160006101000a815490600160a060020a0302191690556002820160006101000a815490600160a060020a0302191690556003820160009055600482016000905560058201600090556006820160009055600782016000905560088201600090556009820160009055600a8201600090555050611c4b8361012001518460c001519063ffffffff611d1516565b9150611c628360800151839063ffffffff611a5716565b90508251600160a060020a031663a9059cbb84604001518360006040516020015260405160e060020a63ffffffff8516028152600160a060020a0390921660048301526024820152604401602060405180830381600087803b1515611cc657600080fd5b6102c65a03f11515611cd757600080fd5b5050506040518051905050837f4016499ca917ca97a24e45e837c1aef655c0f84eef18c36493cf3191c961c83160405160405180910390a250505050565b600082821115611d2157fe5b50900390565b6000808284811515611d3557fe5b04949350505050565b600082820183811015611a8257fe5b610160604051908101604052806000600160a060020a031681526020016000600160a060020a031681526020016000600160a060020a0316815260200160008152602001600081526020016000815260200160008152602001600081526020016000815260200160008152602001600081525090565b6040805190810160405260008082526020820152905600a165627a7a72305820ba7266d18045d0a93a62e2a6370b426b986d310407d2afc4f601b06b57fea41d0029",
  "source": "pragma solidity ^0.4.18;\r\n\r\nimport \"../VotingMachines/IntVoteInterface.sol\";\r\nimport \"./UniversalScheme.sol\";\r\n\r\n\r\n/**\r\n * @title A schme for vesting.\r\n * @dev Can be used without organization just as a vesting component.\r\n */\r\n\r\ncontract VestingScheme is UniversalScheme, ExecutableInterface {\r\n    using SafeMath for uint;\r\n\r\n    event LogRegisterOrg(address indexed _avatar);\r\n    event LogAgreementProposal(address indexed _avatar, bytes32 _proposalId);\r\n    event LogExecutaion(address indexed _avatar, bytes32 _proposalId, int _result);\r\n    event NewVestedAgreement(uint indexed _agreementId);\r\n    event SignToCancelAgreement(uint indexed _agreementId, address indexed _signer);\r\n    event RevokeSignToCancelAgreement(uint indexed _agreementId, address indexed _signer);\r\n    event LogAgreementCancel(uint indexed _agreementId);\r\n    event LogCollect(uint indexed _agreementId);\r\n\r\n\r\n    // The data for each vesterd agreement:\r\n    struct Agreement {\r\n        StandardToken token;\r\n        address beneficiary;\r\n        address returnOnCancelAddress;\r\n        uint startingBlock;\r\n        uint amountPerPeriod;\r\n        uint periodLength;\r\n        uint numOfAgreedPeriods;\r\n        uint cliffInPeriods;\r\n        uint signaturesReqToCancel;\r\n        uint collectedPeriods;\r\n        uint signaturesReceivedCounter;\r\n        mapping(address=>bool) signers;\r\n        mapping(address=>bool) signaturesReceived;\r\n    }\r\n\r\n\r\n    struct Parameters {\r\n        bytes32 voteParams;\r\n        IntVoteInterface intVote;\r\n    }\r\n\r\n    // A mapping from thr organization (Avatar) address to the saved data of the organization:\r\n    mapping(address=>mapping(bytes32=>Agreement)) public organizationsData;\r\n\r\n    // A mapping from hashes to parameters (use to store a particular configuration on the controller)\r\n    mapping(bytes32=>Parameters) public parameters;\r\n\r\n    // A mapping from index to Agreement\r\n    mapping(uint=>Agreement) public agreements;\r\n\r\n    uint agreementsCounter;\r\n\r\n    // Modifier, only the signers on an agreement:\r\n    modifier onlySigner(uint _agreementId) {\r\n        require(agreements[_agreementId].signers[msg.sender]);\r\n        _;\r\n    }\r\n\r\n    // Modifier, only the beneficiary on an agreement:\r\n    modifier onlyBeneficiary(uint _agreementId) {\r\n        require(agreements[_agreementId].beneficiary == msg.sender);\r\n        _;\r\n    }\r\n\r\n    /**\r\n     * @dev Constructor, Updating the initial prarmeters\r\n     * @param _nativeToken The native token of the ICO\r\n     * @param _fee The fee for intiating the ICO\r\n     * @param _beneficiary The address that will receive the ethers\r\n     */\r\n    function VestingScheme(StandardToken _nativeToken, uint _fee, address _beneficiary) public {\r\n        updateParameters(_nativeToken, _fee, _beneficiary, bytes32(0));\r\n    }\r\n\r\n    /**\r\n    * @dev Hash the parameters, save them if necessary, and return the hash value\r\n    * @param _voteParams -  voting parameters\r\n    * @param _intVote  - voting machine contract.\r\n    * @return bytes32 -the parameters hash\r\n    */\r\n    function setParameters(\r\n        bytes32 _voteParams,\r\n        IntVoteInterface _intVote\r\n    ) public returns(bytes32)\r\n    {\r\n        bytes32 paramsHash = getParametersHash(_voteParams, _intVote);\r\n        parameters[paramsHash].voteParams = _voteParams;\r\n        parameters[paramsHash].intVote = _intVote;\r\n        return paramsHash;\r\n    }\r\n\r\n    /**\r\n    * @dev Hash the parameters,and return the hash value\r\n    * @param _voteParams -  voting parameters\r\n    * @param _intVote  - voting machine contract.\r\n    * @return bytes32 -the parameters hash\r\n    */\r\n    function getParametersHash(\r\n        bytes32 _voteParams,\r\n        IntVoteInterface _intVote\r\n    ) public pure returns(bytes32)\r\n    {\r\n        return  (keccak256(_voteParams, _intVote));\r\n    }\r\n\r\n    /**\r\n    * @dev Proposing a vesting agreement in an organization.\r\n    * @param _beneficiary the beneficiary of the agreement.\r\n    * @param _returnOnCancelAddress where to send the tokens in case of stoping.\r\n    * @param _startingBlock the block from which the agreement starts.\r\n    * @param _amountPerPeriod amount of tokens per period.\r\n    * @param _periodLength period length in blocks.\r\n    * @param _numOfAgreedPeriods how many periods agreed on.\r\n    * @param _cliffInPeriods the length of the cliff in periods.\r\n    * @param _signaturesReqToCancel number of signatures required to cancel agreement.\r\n    * @param _signersArray avatar array of adresses that can sign to cancel agreement.\r\n    * @param _avatar avatar of the organization.\r\n    * @return bytes32 the proposalId\r\n    */\r\n    function proposeVestingAgreement(\r\n        address _beneficiary,\r\n        address _returnOnCancelAddress,\r\n        uint _startingBlock,\r\n        uint _amountPerPeriod,\r\n        uint _periodLength,\r\n        uint _numOfAgreedPeriods,\r\n        uint _cliffInPeriods,\r\n        uint _signaturesReqToCancel,\r\n        address[] _signersArray,\r\n        Avatar _avatar\r\n    )\r\n    external\r\n    onlyRegisteredOrganization(_avatar)\r\n    returns(bytes32)\r\n    {\r\n        // Open voting:\r\n        Parameters memory params = parameters[getParametersFromController(_avatar)];\r\n        bytes32 proposalId = params.intVote.propose(2, params.voteParams, _avatar, ExecutableInterface(this));\r\n        assert(_signaturesReqToCancel >= _signersArray.length);\r\n        assert(_periodLength > 0);\r\n        // Write the signers mapping:\r\n        for (uint cnt = 0; cnt<_signersArray.length; cnt++) {\r\n            organizationsData[_avatar][proposalId].signers[_signersArray[cnt]] = true;\r\n        }\r\n        // Write parameters:\r\n        organizationsData[_avatar][proposalId].token = Avatar(_avatar).nativeToken();\r\n        organizationsData[_avatar][proposalId].beneficiary = _beneficiary;\r\n        organizationsData[_avatar][proposalId].returnOnCancelAddress = _returnOnCancelAddress;\r\n        organizationsData[_avatar][proposalId].startingBlock = _startingBlock;\r\n        organizationsData[_avatar][proposalId].amountPerPeriod = _amountPerPeriod;\r\n        organizationsData[_avatar][proposalId].periodLength = _periodLength;\r\n        organizationsData[_avatar][proposalId].numOfAgreedPeriods = _numOfAgreedPeriods;\r\n        organizationsData[_avatar][proposalId].cliffInPeriods = _cliffInPeriods;\r\n        organizationsData[_avatar][proposalId].signaturesReqToCancel = _signaturesReqToCancel;\r\n\r\n        params.intVote.ownerVote(proposalId, 1, msg.sender); // Automatically votes `yes` in the name of the opener.\r\n\r\n        // Log:\r\n        LogAgreementProposal(_avatar, proposalId);\r\n        return proposalId;\r\n    }\r\n\r\n    /**\r\n    * @dev execution of proposals, can only be called by the voting machine in which the vote is held.\r\n    * @param _proposalId the ID of the voting in the voting machine\r\n    * @param _avatar address of the controller\r\n    * @param _param a parameter of the voting result, 0 is no and 1 is yes.\r\n    * @return bool which represents a successful of the function\r\n    */\r\n    function execute(bytes32 _proposalId, address _avatar, int _param) public returns(bool) {\r\n        // Check the caller is indeed the voting machine:\r\n        require(parameters[getParametersFromController(Avatar(_avatar))].intVote == msg.sender);\r\n\r\n        // Log execition:\r\n        LogExecutaion(_avatar, _proposalId, _param);\r\n\r\n        Agreement memory proposedAgreement = organizationsData[_avatar][_proposalId];\r\n        delete organizationsData[_avatar][_proposalId];\r\n\r\n        // Check if vote was successful:\r\n        if (_param == 1) {\r\n        // Define controller and mint tokens, check minting actually took place:\r\n            Controller controller = Controller(Avatar(_avatar).owner());\r\n            uint tokensToMint = proposedAgreement.amountPerPeriod.mul(proposedAgreement.numOfAgreedPeriods);\r\n            controller.mintTokens(tokensToMint, this);\r\n            agreements[agreementsCounter] = proposedAgreement;\r\n            agreementsCounter++;\r\n        // Log the new agreement:\r\n            NewVestedAgreement(agreementsCounter-1);\r\n       }\r\n        return true;\r\n    }\r\n\r\n    /**\r\n    * @dev Creating a vesting agreement.\r\n    * @param _token the relevant token in the agreement.\r\n    * @param _beneficiary the beneficiary of the agreement.\r\n    * @param _returnOnCancelAddress where to send the tokens in case of stoping.\r\n    * @param _startingBlock the block from which the agreement starts.\r\n    * @param _amountPerPeriod amount of tokens per period.\r\n    * @param _periodLength period length in blocks.\r\n    * @param _numOfAgreedPeriods how many periods agreed on.\r\n    * @param _cliffInPeriods the length of the cliff in periods.\r\n    * @param _signaturesReqToCancel number of signatures required to cancel agreement.\r\n    * @param _signersArray avatar array of adresses that can sign to cancel agreement.\r\n    * @return uint the agreement index.\r\n    */\r\n    function createVestedAgreement(\r\n        StandardToken _token,\r\n        address _beneficiary,\r\n        address _returnOnCancelAddress,\r\n        uint _startingBlock,\r\n        uint _amountPerPeriod,\r\n        uint _periodLength,\r\n        uint _numOfAgreedPeriods,\r\n        uint _cliffInPeriods,\r\n        uint _signaturesReqToCancel,\r\n        address[] _signersArray\r\n    )\r\n        external\r\n        returns(uint)\r\n    {\r\n        assert(_signaturesReqToCancel >= _signersArray.length);\r\n        assert(_periodLength > 0);\r\n        // Collect funds:\r\n        uint totalAmount = _amountPerPeriod.mul(_numOfAgreedPeriods);\r\n        _token.transferFrom(msg.sender, this, totalAmount);\r\n\r\n        // Write parameters:\r\n        agreements[agreementsCounter].token = _token;\r\n        agreements[agreementsCounter].beneficiary = _beneficiary;\r\n        agreements[agreementsCounter].returnOnCancelAddress = _returnOnCancelAddress;\r\n        agreements[agreementsCounter].startingBlock = _startingBlock;\r\n        agreements[agreementsCounter].amountPerPeriod = _amountPerPeriod;\r\n        agreements[agreementsCounter].periodLength = _periodLength;\r\n        agreements[agreementsCounter].numOfAgreedPeriods = _numOfAgreedPeriods;\r\n        agreements[agreementsCounter].cliffInPeriods = _cliffInPeriods;\r\n        agreements[agreementsCounter].signaturesReqToCancel = _signaturesReqToCancel;\r\n\r\n        // Write the signers mapping:\r\n        for (uint cnt = 0; cnt<_signersArray.length; cnt++) {\r\n            agreements[agreementsCounter].signers[_signersArray[cnt]] = true;\r\n        }\r\n\r\n        // Increment the agreements counter:\r\n        agreementsCounter++;\r\n\r\n        // Log new agreement and return id:\r\n        NewVestedAgreement(agreementsCounter-1);\r\n        return(agreementsCounter-1);\r\n    }\r\n\r\n    /**\r\n    * @dev Function to sign to cancel an agreement.\r\n    * @param _agreementId the relevant agreement.\r\n    */\r\n    function signToCancelAgreement(uint _agreementId) public onlySigner(_agreementId) {\r\n        Agreement storage agreement = agreements[_agreementId];\r\n\r\n        // Check attempt to double sign:\r\n        require(! agreement.signaturesReceived[msg.sender]);\r\n\r\n        // Sign:\r\n        agreement.signaturesReceived[msg.sender] = true;\r\n        agreement.signaturesReceivedCounter++;\r\n\r\n        SignToCancelAgreement(_agreementId,msg.sender);\r\n\r\n        // Check if threshhold crossed:\r\n        if (agreement.signaturesReceivedCounter == agreement.signaturesReqToCancel) {\r\n            cancelAgreement(_agreementId);\r\n        }\r\n    }\r\n\r\n    /**\r\n    * @dev Function to revoke vote for canceling agreement.\r\n    * @param _agreementId the relevant agreement.\r\n    */\r\n    function revokeSignToCancelAgreement(uint _agreementId) public onlySigner(_agreementId) {\r\n        Agreement storage agreement = agreements[_agreementId];\r\n\r\n        // Check signer did sign:\r\n        require(agreement.signaturesReceived[msg.sender]);\r\n\r\n        // Revoke signature:\r\n        agreement.signaturesReceived[msg.sender] = false;\r\n        agreement.signaturesReceivedCounter--;\r\n\r\n        RevokeSignToCancelAgreement(_agreementId,msg.sender);\r\n    }\r\n\r\n    /**\r\n    * @dev Function for a beneficiary to collect.\r\n    * @param _agreementId the relevant agreement.\r\n    */\r\n    function collect(uint _agreementId) public onlyBeneficiary(_agreementId) {\r\n        Agreement memory agreement = agreements[_agreementId];\r\n        uint periodsFromStartingBlock = (block.number.sub(agreement.startingBlock)).div(agreement.periodLength);\r\n        assert(periodsFromStartingBlock >= agreement.cliffInPeriods);\r\n\r\n        // Compute periods to pay:\r\n        uint periodsToPay;\r\n        if (periodsFromStartingBlock >= agreement.numOfAgreedPeriods) {\r\n            periodsToPay = agreement.numOfAgreedPeriods.sub(agreement.collectedPeriods);\r\n        } else {\r\n            periodsToPay = periodsFromStartingBlock.sub(agreement.collectedPeriods);\r\n        }\r\n        // Update periods paid:\r\n        agreements[_agreementId].collectedPeriods = agreements[_agreementId].collectedPeriods.add(periodsToPay);\r\n\r\n        // Transfer:\r\n        uint tokensToTransfer = periodsToPay.mul(agreement.amountPerPeriod);\r\n        agreement.token.transfer(agreement.beneficiary, tokensToTransfer);\r\n\r\n        // Log collecing:\r\n        LogCollect(_agreementId);\r\n    }\r\n\r\n    /**\r\n    * @dev Internal function, to cancel an agreement.\r\n    * @param _agreementId the relevant agreement.\r\n    */\r\n    function cancelAgreement(uint _agreementId) internal {\r\n        Agreement memory agreement = agreements[_agreementId];\r\n        delete  agreements[_agreementId];\r\n        uint periodsLeft = agreement.numOfAgreedPeriods.sub(agreement.collectedPeriods);\r\n        uint tokensLeft = periodsLeft.mul(agreement.amountPerPeriod);\r\n        agreement.token.transfer(agreement.returnOnCancelAddress, tokensLeft);\r\n        // Log canceling agreement:\r\n        LogAgreementCancel(_agreementId);\r\n    }\r\n}\r\n",
  "sourcePath": "C:\\users\\dkent\\documents\\projects\\GitHub\\DAOStack\\daostack\\contracts\\universalSchemes\\VestingScheme.sol",
  "compiler": {
    "name": "solc",
    "version": "0.4.18+commit.9cf6e910.Emscripten.clang"
  },
  "schemaVersion": "1.0.1",
  "updatedAt": "2017-12-29T21:23:16.993Z"
}