{
  "contractName": "VoteInOrganizationScheme",
  "abi": [
    {
      "constant": true,
      "inputs": [
        {
          "name": "",
          "type": "bytes32"
        }
      ],
      "name": "parameters",
      "outputs": [
        {
          "name": "intVote",
          "type": "address"
        },
        {
          "name": "voteParams",
          "type": "bytes32"
        }
      ],
      "payable": false,
      "stateMutability": "view",
      "type": "function"
    },
    {
      "constant": true,
      "inputs": [
        {
          "name": "",
          "type": "address"
        },
        {
          "name": "",
          "type": "bytes32"
        }
      ],
      "name": "organizationsData",
      "outputs": [
        {
          "name": "originalIntVote",
          "type": "address"
        },
        {
          "name": "originalProposalId",
          "type": "bytes32"
        },
        {
          "name": "originalNumOfChoices",
          "type": "uint256"
        }
      ],
      "payable": false,
      "stateMutability": "view",
      "type": "function"
    },
    {
      "constant": true,
      "inputs": [
        {
          "name": "_voteParams",
          "type": "bytes32"
        },
        {
          "name": "_intVote",
          "type": "address"
        }
      ],
      "name": "getParametersHash",
      "outputs": [
        {
          "name": "",
          "type": "bytes32"
        }
      ],
      "payable": false,
      "stateMutability": "pure",
      "type": "function"
    },
    {
      "constant": false,
      "inputs": [
        {
          "name": "_proposalId",
          "type": "bytes32"
        },
        {
          "name": "_avatar",
          "type": "address"
        },
        {
          "name": "_param",
          "type": "int256"
        }
      ],
      "name": "execute",
      "outputs": [
        {
          "name": "",
          "type": "bool"
        }
      ],
      "payable": false,
      "stateMutability": "nonpayable",
      "type": "function"
    },
    {
      "constant": true,
      "inputs": [],
      "name": "beneficiary",
      "outputs": [
        {
          "name": "",
          "type": "address"
        }
      ],
      "payable": false,
      "stateMutability": "view",
      "type": "function"
    },
    {
      "constant": false,
      "inputs": [
        {
          "name": "_nativeToken",
          "type": "address"
        },
        {
          "name": "_fee",
          "type": "uint256"
        },
        {
          "name": "_beneficiary",
          "type": "address"
        },
        {
          "name": "_hashedParameters",
          "type": "bytes32"
        }
      ],
      "name": "updateParameters",
      "outputs": [],
      "payable": false,
      "stateMutability": "nonpayable",
      "type": "function"
    },
    {
      "constant": false,
      "inputs": [
        {
          "name": "_avatar",
          "type": "address"
        },
        {
          "name": "_originalIntVote",
          "type": "address"
        },
        {
          "name": "_originalProposalId",
          "type": "bytes32"
        }
      ],
      "name": "proposeVote",
      "outputs": [
        {
          "name": "",
          "type": "bytes32"
        }
      ],
      "payable": false,
      "stateMutability": "nonpayable",
      "type": "function"
    },
    {
      "constant": true,
      "inputs": [
        {
          "name": "",
          "type": "address"
        }
      ],
      "name": "organizations",
      "outputs": [
        {
          "name": "",
          "type": "bool"
        }
      ],
      "payable": false,
      "stateMutability": "view",
      "type": "function"
    },
    {
      "constant": false,
      "inputs": [
        {
          "name": "_voteParams",
          "type": "bytes32"
        },
        {
          "name": "_intVote",
          "type": "address"
        }
      ],
      "name": "setParameters",
      "outputs": [
        {
          "name": "",
          "type": "bytes32"
        }
      ],
      "payable": false,
      "stateMutability": "nonpayable",
      "type": "function"
    },
    {
      "constant": false,
      "inputs": [
        {
          "name": "_params",
          "type": "bytes32[]"
        }
      ],
      "name": "action",
      "outputs": [
        {
          "name": "",
          "type": "bool"
        }
      ],
      "payable": false,
      "stateMutability": "nonpayable",
      "type": "function"
    },
    {
      "constant": true,
      "inputs": [],
      "name": "owner",
      "outputs": [
        {
          "name": "",
          "type": "address"
        }
      ],
      "payable": false,
      "stateMutability": "view",
      "type": "function"
    },
    {
      "constant": false,
      "inputs": [
        {
          "name": "_avatar",
          "type": "address"
        }
      ],
      "name": "registerOrganization",
      "outputs": [],
      "payable": false,
      "stateMutability": "nonpayable",
      "type": "function"
    },
    {
      "constant": true,
      "inputs": [
        {
          "name": "_avatar",
          "type": "address"
        }
      ],
      "name": "isRegistered",
      "outputs": [
        {
          "name": "",
          "type": "bool"
        }
      ],
      "payable": false,
      "stateMutability": "view",
      "type": "function"
    },
    {
      "constant": true,
      "inputs": [],
      "name": "fee",
      "outputs": [
        {
          "name": "",
          "type": "uint256"
        }
      ],
      "payable": false,
      "stateMutability": "view",
      "type": "function"
    },
    {
      "constant": true,
      "inputs": [],
      "name": "nativeToken",
      "outputs": [
        {
          "name": "",
          "type": "address"
        }
      ],
      "payable": false,
      "stateMutability": "view",
      "type": "function"
    },
    {
      "constant": false,
      "inputs": [
        {
          "name": "newOwner",
          "type": "address"
        }
      ],
      "name": "transferOwnership",
      "outputs": [],
      "payable": false,
      "stateMutability": "nonpayable",
      "type": "function"
    },
    {
      "constant": true,
      "inputs": [],
      "name": "hashedParameters",
      "outputs": [
        {
          "name": "",
          "type": "bytes32"
        }
      ],
      "payable": false,
      "stateMutability": "view",
      "type": "function"
    },
    {
      "inputs": [
        {
          "name": "_nativeToken",
          "type": "address"
        },
        {
          "name": "_fee",
          "type": "uint256"
        },
        {
          "name": "_beneficiary",
          "type": "address"
        }
      ],
      "payable": false,
      "stateMutability": "nonpayable",
      "type": "constructor"
    },
    {
      "anonymous": false,
      "inputs": [
        {
          "indexed": true,
          "name": "_avatar",
          "type": "address"
        },
        {
          "indexed": true,
          "name": "_proposalId",
          "type": "bytes32"
        },
        {
          "indexed": true,
          "name": "_intVoteInterface",
          "type": "address"
        },
        {
          "indexed": false,
          "name": "_originalIntVote",
          "type": "address"
        },
        {
          "indexed": false,
          "name": "_originalProposalId",
          "type": "bytes32"
        },
        {
          "indexed": false,
          "name": "_originalNumOfChoices",
          "type": "uint256"
        }
      ],
      "name": "NewVoteProposal",
      "type": "event"
    },
    {
      "anonymous": false,
      "inputs": [
        {
          "indexed": true,
          "name": "_avatar",
          "type": "address"
        },
        {
          "indexed": true,
          "name": "_proposalId",
          "type": "bytes32"
        }
      ],
      "name": "ProposalExecuted",
      "type": "event"
    },
    {
      "anonymous": false,
      "inputs": [
        {
          "indexed": true,
          "name": "_avatar",
          "type": "address"
        },
        {
          "indexed": true,
          "name": "_proposalId",
          "type": "bytes32"
        }
      ],
      "name": "ProposalDeleted",
      "type": "event"
    },
    {
      "anonymous": false,
      "inputs": [
        {
          "indexed": false,
          "name": "_avatar",
          "type": "address"
        }
      ],
      "name": "OrganizationRegistered",
      "type": "event"
    },
    {
      "anonymous": false,
      "inputs": [
        {
          "indexed": false,
          "name": "proposalId",
          "type": "bytes32"
        }
      ],
      "name": "LogNewProposal",
      "type": "event"
    },
    {
      "anonymous": false,
      "inputs": [
        {
          "indexed": true,
          "name": "previousOwner",
          "type": "address"
        },
        {
          "indexed": true,
          "name": "newOwner",
          "type": "address"
        }
      ],
      "name": "OwnershipTransferred",
      "type": "event"
    }
  ],
  "bytecode": "0x6060604052341561000f57600080fd5b604051606080610f2b83398101604052808051919060200180519190602001805160008054600160a060020a03191633600160a060020a031617815590925061006b915084908490849064010000000061007381026107201704565b5050506100c6565b60005433600160a060020a0390811691161461008e57600080fd5b60018054600160a060020a0319908116600160a060020a03968716179091556002939093556003805490931691909316179055600455565b610e56806100d56000396000f3006060604052600436106100d75763ffffffff60e060020a6000350416630250680481146100dc57806307377bd6146101145780632453732a14610164578063310ce4e21461019857806338af3eed146101d15780634345a6101461020057806358b376591461022e5780635a1f74061461025657806368e14dac146102755780637ff4b630146102975780638da5cb5b146102e657806390be003c146102f9578063c3c5a54714610318578063ddca3f4314610337578063e1758bd81461034a578063f2fde38b1461035d578063f98e87ba1461037c575b600080fd5b34156100e757600080fd5b6100f260043561038f565b604051600160a060020a03909216825260208201526040908101905180910390f35b341561011f57600080fd5b610136600160a060020a03600435166024356103b4565b604051600160a060020a03909316835260208301919091526040808301919091526060909101905180910390f35b341561016f57600080fd5b610186600435600160a060020a03602435166103ea565b60405190815260200160405180910390f35b34156101a357600080fd5b6101bd600435600160a060020a0360243516604435610424565b604051901515815260200160405180910390f35b34156101dc57600080fd5b6101e4610711565b604051600160a060020a03909116815260200160405180910390f35b341561020b57600080fd5b61022c600160a060020a036004358116906024359060443516606435610720565b005b341561023957600080fd5b610186600160a060020a0360043581169060243516604435610780565b341561026157600080fd5b6101bd600160a060020a03600435166109f1565b341561028057600080fd5b610186600435600160a060020a0360243516610a06565b34156102a257600080fd5b6101bd6004602481358181019083013580602081810201604051908101604052809392919081815260200183836020028082843750949650610a5b95505050505050565b34156102f157600080fd5b6101e4610b19565b341561030457600080fd5b61022c600160a060020a0360043516610b28565b341561032357600080fd5b6101bd600160a060020a0360043516610c51565b341561034257600080fd5b610186610c6f565b341561035557600080fd5b6101e4610c75565b341561036857600080fd5b61022c600160a060020a0360043516610c84565b341561038757600080fd5b610186610d1f565b60076020526000908152604090208054600190910154600160a060020a039091169082565b6006602090815260009283526040808420909152908252902080546001820154600290920154600160a060020a03909116919083565b60008282604051918252600160a060020a03166c010000000000000000000000000260208201526034016040518091039020905092915050565b600061042e610de1565b600080610439610e01565b33600160a060020a0316600760006104508a610d25565b8152602081019190915260400160002054600160a060020a03161461047457600080fd5b600160a060020a03871660009081526006602090815260408083208b845290915290819020906060905190810160409081528254600160a060020a03908116835260018085015460208086019190915260029586015484860152918c166000818152600684528481208f8252909352838320805473ffffffffffffffffffffffffffffffffffffffff191681559182018390559401559095508991907f6bc0cb9e9967b59a69ace442598e1df4368d38661bd5c0800fbcbc9fe855fbbe905160405180910390a36001925085156106ce5786600160a060020a0316638da5cb5b6000604051602001526040518163ffffffff1660e060020a028152600401602060405180830381600087803b151561058b57600080fd5b6102c65a03f1151561059c57600080fd5b50505060405180519050915060036040518059106105b75750595b908082528060200260200182016040525090508351600160a060020a0316816000815181106105e257fe5b60209081029091018101919091528401518160018151811061060057fe5b60209081029091010152858160028151811061061857fe5b60209081029091010152600160a060020a03821663277d811e826000604051602001526040518263ffffffff1660e060020a0281526004018080602001828103825283818151815260200191508051906020019060200280838360005b8381101561068d578082015183820152602001610675565b5050505090500192505050602060405180830381600087803b15156106b157600080fd5b6102c65a03f115156106c257600080fd5b50505060405180519350505b87600160a060020a0388167f253ad9614c337848bbe7dc3b18b439d139ef5787282b5a517ba7296513d1f53360405160405180910390a350909695505050505050565b600354600160a060020a031681565b60005433600160a060020a0390811691161461073b57600080fd5b6001805473ffffffffffffffffffffffffffffffffffffffff19908116600160a060020a03968716179091556002939093556003805490931691909316179055600455565b60008061078b610e13565b600160a060020a0386166000908152600560205260408120548190889060ff1615156107b657600080fd5b87600160a060020a031663a003651d8860006040516020015260405160e060020a63ffffffff84160281526004810191909152602401602060405180830381600087803b151561080557600080fd5b6102c65a03f1151561081657600080fd5b5050506040518051905094506007600061082f8b610d25565b8152602081019190915260409081016000209080519081016040528154600160a060020a03168152600190910154602082015293508351925082600160a060020a03166388737b5e8660010186602001518c3060006040516020015260405160e060020a63ffffffff871602815260048101949094526024840192909252600160a060020a039081166044840152166064820152608401602060405180830381600087803b15156108df57600080fd5b6102c65a03f115156108f057600080fd5b50505060405180519050915060606040519081016040908152600160a060020a03808b16835260208084018b9052828401899052908c16600090815260068252828120868252909152208151815473ffffffffffffffffffffffffffffffffffffffff1916600160a060020a0391909116178155602082015160018201556040820151600290910155508351600160a060020a031682600019168a600160a060020a03167fa04e76655fd38a7c9579a6fde8864276137b505c346dc2a2ae185946772abcd78b8b8a604051600160a060020a03909316835260208301919091526040808301919091526060909101905180910390a450979650505050505050565b60056020526000908152604090205460ff1681565b600080610a1384846103ea565b60008181526007602052604090206001810195909555845473ffffffffffffffffffffffffffffffffffffffff1916600160a060020a03949094169390931790935550919050565b60008082600081518110610a6b57fe5b906020019060200201519050600160a060020a038116639ef1204c84600181518110610a9357fe5b9060200190602002015185600281518110610aaa57fe5b9060200190602002015160006040516020015260405160e060020a63ffffffff851602815260048101929092526024820152604401602060405180830381600087803b1515610af857600080fd5b6102c65a03f11515610b0957600080fd5b5050506040518051949350505050565b600054600160a060020a031681565b6000600254118015610b535750600160a060020a03811660009081526005602052604090205460ff16155b15610bec57600154600354600254600160a060020a03928316926323b872dd92859291169060006040516020015260405160e060020a63ffffffff8616028152600160a060020a0393841660048201529190921660248201526044810191909152606401602060405180830381600087803b1515610bd057600080fd5b6102c65a03f11515610be157600080fd5b505050604051805150505b600160a060020a03811660009081526005602052604090819020805460ff191660011790557f2178e9c576507a4c15d3deab489af3f699a3dedbff9a7ef27c43a017027710e590829051600160a060020a03909116815260200160405180910390a150565b600160a060020a031660009081526005602052604090205460ff1690565b60025481565b600154600160a060020a031681565b60005433600160a060020a03908116911614610c9f57600080fd5b600160a060020a0381161515610cb457600080fd5b600054600160a060020a0380831691167f8be0079c531659141344cd1fd0a4f28419497f9722a3daafe3b4186f6b6457e060405160405180910390a36000805473ffffffffffffffffffffffffffffffffffffffff1916600160a060020a0392909216919091179055565b60045481565b60008082600160a060020a0316638da5cb5b6000604051602001526040518163ffffffff1660e060020a028152600401602060405180830381600087803b1515610d6e57600080fd5b6102c65a03f11515610d7f57600080fd5b5050506040518051915050600160a060020a0381166346e361b73060006040516020015260405160e060020a63ffffffff8416028152600160a060020a039091166004820152602401602060405180830381600087803b1515610af857600080fd5b606060405190810160409081526000808352602083018190529082015290565b60206040519081016040526000815290565b6040805190810160405260008082526020820152905600a165627a7a723058205cd0ee2af74c46e474e49329e276ffca6d4bd7a6b781625e1c2464986abd39220029",
  "source": "pragma solidity ^0.4.18;\r\n\r\nimport \"../VotingMachines/IntVoteInterface.sol\";\r\nimport \"./UniversalScheme.sol\";\r\n\r\n\r\n/**\r\n * @title VoteInOrganizationScheme.\r\n * @dev A scheme to allow an organization to vote in a proposal.\r\n */\r\n\r\n// ToDo: Documentation and tests!\r\n\r\ncontract VoteInOrganizationScheme is UniversalScheme, ExecutableInterface, ActionInterface {\r\n    event NewVoteProposal(\r\n        address indexed _avatar,\r\n        bytes32 indexed _proposalId,\r\n        address indexed _intVoteInterface,\r\n        IntVoteInterface _originalIntVote,\r\n        bytes32 _originalProposalId,\r\n        uint _originalNumOfChoices\r\n    );\r\n    event ProposalExecuted(address indexed _avatar, bytes32 indexed _proposalId);\r\n    event ProposalDeleted(address indexed _avatar, bytes32 indexed _proposalId);\r\n\r\n    // Details of a voting proposal:\r\n    struct VoteProposal {\r\n        IntVoteInterface originalIntVote;\r\n        bytes32 originalProposalId;\r\n        uint originalNumOfChoices;\r\n    }\r\n\r\n    // A mapping from thr organization (Avatar) address to the saved data of the organization:\r\n    mapping(address=>mapping(bytes32=>VoteProposal)) public organizationsData;\r\n\r\n\r\n    struct Parameters {\r\n        IntVoteInterface intVote;\r\n        bytes32 voteParams;\r\n    }\r\n\r\n    // A mapping from hashes to parameters (use to store a particular configuration on the controller)\r\n    mapping(bytes32=>Parameters) public parameters;\r\n\r\n    /**\r\n     * @dev Constructor, Updating the initial prarmeters\r\n     * @param _nativeToken The native token of the ICO\r\n     * @param _fee The fee for intiating the ICO\r\n     * @param _beneficiary The address that will receive the ethers\r\n     */\r\n    function VoteInOrganizationScheme(StandardToken _nativeToken, uint _fee, address _beneficiary) public {\r\n        updateParameters(_nativeToken, _fee, _beneficiary, bytes32(0));\r\n    }\r\n\r\n    /**\r\n    * @dev Hash the parameters, save them if necessary, and return the hash value\r\n    * @param _voteParams -  voting parameters\r\n    * @param _intVote  - voting machine contract.\r\n    * @return bytes32 -the parameters hash\r\n    */\r\n    function setParameters(\r\n        bytes32 _voteParams,\r\n        IntVoteInterface _intVote\r\n    ) public returns(bytes32)\r\n    {\r\n        bytes32 paramsHash = getParametersHash(_voteParams, _intVote);\r\n        parameters[paramsHash].voteParams = _voteParams;\r\n        parameters[paramsHash].intVote = _intVote;\r\n        return paramsHash;\r\n    }\r\n\r\n    /**\r\n    * @dev Hash the parameters,and return the hash value\r\n    * @param _voteParams -  voting parameters\r\n    * @param _intVote  - voting machine contract.\r\n    * @return bytes32 -the parameters hash\r\n    */\r\n    function getParametersHash(\r\n        bytes32 _voteParams,\r\n        IntVoteInterface _intVote\r\n    ) public pure returns(bytes32)\r\n    {\r\n        return keccak256(_voteParams, _intVote);\r\n    }\r\n\r\n    /**\r\n    * @dev propose to vote in other organization\r\n    *      The function trigger NewVoteProposal event\r\n    * @param _avatar avatar of the organization\r\n    * @param _originalIntVote the other organization voting machine\r\n    * @param _originalProposalId the other organization proposal id\r\n    * @return an id which represents the proposal\r\n    */\r\n    function proposeVote(Avatar _avatar, IntVoteInterface _originalIntVote, bytes32 _originalProposalId)\r\n    public\r\n    onlyRegisteredOrganization(_avatar)\r\n    returns(bytes32)\r\n    {\r\n        uint numOfChoices = _originalIntVote.getNumberOfChoices(_originalProposalId);\r\n        Parameters memory params = parameters[getParametersFromController(_avatar)];\r\n        IntVoteInterface intVote = params.intVote;\r\n        bytes32 proposalId = intVote.propose(numOfChoices+1, params.voteParams, _avatar, ExecutableInterface(this));\r\n\r\n        organizationsData[_avatar][proposalId] = VoteProposal({\r\n            originalIntVote: _originalIntVote,\r\n            originalProposalId: _originalProposalId,\r\n            originalNumOfChoices: numOfChoices\r\n        });\r\n        NewVoteProposal(\r\n            _avatar,\r\n            proposalId,\r\n            params.intVote,\r\n            _originalIntVote,\r\n            _originalProposalId,\r\n            numOfChoices\r\n        );\r\n        return proposalId;\r\n    }\r\n\r\n    /**\r\n    * @dev execution of proposals, can only be called by the voting machine in which the vote is held.\r\n    *      This function will trigger ProposalDeleted and ProposalExecuted events\r\n    * @param _proposalId the ID of the voting in the voting machine\r\n    * @param _avatar address of the controller\r\n    * @param _param a parameter of the voting result 0 to numOfChoices .\r\n    * @return bool which indicate success.\r\n    */\r\n    function execute(bytes32 _proposalId, address _avatar, int _param) public returns(bool) {\r\n        // Check the caller is indeed the voting machine:\r\n        require(parameters[getParametersFromController(Avatar(_avatar))].intVote == msg.sender);\r\n\r\n        // Save proposal to memory and delete from storage:\r\n        VoteProposal memory proposal = organizationsData[_avatar][_proposalId];\r\n        delete organizationsData[_avatar][_proposalId];\r\n        ProposalDeleted(_avatar, _proposalId);\r\n        bool retVal = true;\r\n        // If no decision do nothing:\r\n        if (_param != 0) {\r\n        // Define controller and get the parmas:\r\n            Controller controller = Controller(Avatar(_avatar).owner());\r\n            bytes32[] memory tmp = new bytes32[](3);\r\n            tmp[0] = bytes32(address(proposal.originalIntVote));\r\n            tmp[1] = proposal.originalProposalId;\r\n            tmp[2] = bytes32(_param);\r\n            retVal = controller.genericAction(tmp);\r\n          }\r\n        ProposalExecuted(_avatar, _proposalId);\r\n        return retVal;\r\n    }\r\n\r\n    /**\r\n    * @dev do the actual voting in the other organization in behalf of the organization's avatar.\r\n    *      This function is deleted called by the organization.\r\n    * @param _params array represent the voting .\r\n    *        _params[0] - the address of the voting machine.\r\n    *        _params[1] - the proposalId.\r\n    *        _params[2] - the voting machins params.\r\n    * @return bool which indicate success.\r\n    */\r\n    function action(bytes32[] _params) public returns(bool) {\r\n        IntVoteInterface intVote = IntVoteInterface(address(_params[0]));\r\n        return intVote.vote(_params[1], uint(_params[2]));\r\n    }\r\n}\r\n",
  "sourcePath": "C:\\Users\\dkent\\Documents\\Projects\\GitHub\\DAOStack\\daostack\\contracts\\universalSchemes\\VoteInOrganizationScheme.sol",
  "compiler": {
    "name": "solc",
    "version": "0.4.18+commit.9cf6e910.Emscripten.clang"
  },
  "schemaVersion": "1.0.1",
  "updatedAt": "2017-12-29T14:00:20.659Z"
}