{
  "contractName": "VoteInOrganizationScheme",
  "abi": [
    {
      "constant": true,
      "inputs": [
        {
          "name": "_voteParams",
          "type": "bytes32"
        },
        {
          "name": "_intVote",
          "type": "address"
        }
      ],
      "name": "getParametersHash",
      "outputs": [
        {
          "name": "",
          "type": "bytes32"
        }
      ],
      "payable": false,
      "stateMutability": "pure",
      "type": "function"
    },
    {
      "constant": false,
      "inputs": [
        {
          "name": "_proposalId",
          "type": "bytes32"
        },
        {
          "name": "_avatar",
          "type": "address"
        },
        {
          "name": "_param",
          "type": "int256"
        }
      ],
      "name": "execute",
      "outputs": [
        {
          "name": "",
          "type": "bool"
        }
      ],
      "payable": false,
      "stateMutability": "nonpayable",
      "type": "function"
    },
    {
      "constant": true,
      "inputs": [],
      "name": "beneficiary",
      "outputs": [
        {
          "name": "",
          "type": "address"
        }
      ],
      "payable": false,
      "stateMutability": "view",
      "type": "function"
    },
    {
      "constant": false,
      "inputs": [
        {
          "name": "_nativeToken",
          "type": "address"
        },
        {
          "name": "_fee",
          "type": "uint256"
        },
        {
          "name": "_beneficiary",
          "type": "address"
        },
        {
          "name": "_hashedParameters",
          "type": "bytes32"
        }
      ],
      "name": "updateParameters",
      "outputs": [],
      "payable": false,
      "stateMutability": "nonpayable",
      "type": "function"
    },
    {
      "constant": false,
      "inputs": [
        {
          "name": "_avatar",
          "type": "address"
        },
        {
          "name": "_originalIntVote",
          "type": "address"
        },
        {
          "name": "_originalProposalId",
          "type": "bytes32"
        }
      ],
      "name": "proposeVote",
      "outputs": [
        {
          "name": "",
          "type": "bytes32"
        }
      ],
      "payable": false,
      "stateMutability": "nonpayable",
      "type": "function"
    },
    {
      "constant": true,
      "inputs": [
        {
          "name": "",
          "type": "address"
        }
      ],
      "name": "organizations",
      "outputs": [
        {
          "name": "isRegistered",
          "type": "bool"
        }
      ],
      "payable": false,
      "stateMutability": "view",
      "type": "function"
    },
    {
      "constant": false,
      "inputs": [
        {
          "name": "_voteParams",
          "type": "bytes32"
        },
        {
          "name": "_intVote",
          "type": "address"
        }
      ],
      "name": "setParameters",
      "outputs": [
        {
          "name": "",
          "type": "bytes32"
        }
      ],
      "payable": false,
      "stateMutability": "nonpayable",
      "type": "function"
    },
    {
      "constant": false,
      "inputs": [
        {
          "name": "_params",
          "type": "bytes32[]"
        }
      ],
      "name": "action",
      "outputs": [
        {
          "name": "",
          "type": "bool"
        }
      ],
      "payable": false,
      "stateMutability": "nonpayable",
      "type": "function"
    },
    {
      "constant": true,
      "inputs": [],
      "name": "owner",
      "outputs": [
        {
          "name": "",
          "type": "address"
        }
      ],
      "payable": false,
      "stateMutability": "view",
      "type": "function"
    },
    {
      "constant": false,
      "inputs": [
        {
          "name": "_avatar",
          "type": "address"
        }
      ],
      "name": "registerOrganization",
      "outputs": [],
      "payable": false,
      "stateMutability": "nonpayable",
      "type": "function"
    },
    {
      "constant": true,
      "inputs": [
        {
          "name": "_avatar",
          "type": "address"
        }
      ],
      "name": "isRegistered",
      "outputs": [
        {
          "name": "",
          "type": "bool"
        }
      ],
      "payable": false,
      "stateMutability": "view",
      "type": "function"
    },
    {
      "constant": true,
      "inputs": [],
      "name": "fee",
      "outputs": [
        {
          "name": "",
          "type": "uint256"
        }
      ],
      "payable": false,
      "stateMutability": "view",
      "type": "function"
    },
    {
      "constant": true,
      "inputs": [],
      "name": "nativeToken",
      "outputs": [
        {
          "name": "",
          "type": "address"
        }
      ],
      "payable": false,
      "stateMutability": "view",
      "type": "function"
    },
    {
      "constant": false,
      "inputs": [
        {
          "name": "newOwner",
          "type": "address"
        }
      ],
      "name": "transferOwnership",
      "outputs": [],
      "payable": false,
      "stateMutability": "nonpayable",
      "type": "function"
    },
    {
      "constant": true,
      "inputs": [],
      "name": "hashedParameters",
      "outputs": [
        {
          "name": "",
          "type": "bytes32"
        }
      ],
      "payable": false,
      "stateMutability": "view",
      "type": "function"
    },
    {
      "inputs": [
        {
          "name": "_nativeToken",
          "type": "address"
        },
        {
          "name": "_fee",
          "type": "uint256"
        },
        {
          "name": "_beneficiary",
          "type": "address"
        }
      ],
      "payable": false,
      "stateMutability": "nonpayable",
      "type": "constructor"
    },
    {
      "anonymous": false,
      "inputs": [
        {
          "indexed": true,
          "name": "_avatar",
          "type": "address"
        },
        {
          "indexed": true,
          "name": "_proposalId",
          "type": "bytes32"
        },
        {
          "indexed": true,
          "name": "_intVoteInterface",
          "type": "address"
        },
        {
          "indexed": false,
          "name": "_originalIntVote",
          "type": "address"
        },
        {
          "indexed": false,
          "name": "_originalProposalId",
          "type": "bytes32"
        },
        {
          "indexed": false,
          "name": "_originalNumOfChoices",
          "type": "uint256"
        }
      ],
      "name": "LogNewVoteProposal",
      "type": "event"
    },
    {
      "anonymous": false,
      "inputs": [
        {
          "indexed": true,
          "name": "_avatar",
          "type": "address"
        },
        {
          "indexed": true,
          "name": "_proposalId",
          "type": "bytes32"
        }
      ],
      "name": "LogProposalExecuted",
      "type": "event"
    },
    {
      "anonymous": false,
      "inputs": [
        {
          "indexed": true,
          "name": "_avatar",
          "type": "address"
        },
        {
          "indexed": true,
          "name": "_proposalId",
          "type": "bytes32"
        }
      ],
      "name": "LogProposalDeleted",
      "type": "event"
    },
    {
      "anonymous": false,
      "inputs": [
        {
          "indexed": false,
          "name": "_avatar",
          "type": "address"
        }
      ],
      "name": "LogOrgRegistered",
      "type": "event"
    },
    {
      "anonymous": false,
      "inputs": [
        {
          "indexed": false,
          "name": "proposalId",
          "type": "bytes32"
        }
      ],
      "name": "LogNewProposal",
      "type": "event"
    },
    {
      "anonymous": false,
      "inputs": [
        {
          "indexed": true,
          "name": "previousOwner",
          "type": "address"
        },
        {
          "indexed": true,
          "name": "newOwner",
          "type": "address"
        }
      ],
      "name": "OwnershipTransferred",
      "type": "event"
    }
  ],
  "bytecode": "0x6060604052341561000f57600080fd5b604051606080610f0783398101604052808051919060200180519190602001805160008054600160a060020a03191633600160a060020a031617815590925061006b9150849084908490640100000000610073810261066a1704565b5050506100c6565b60005433600160a060020a0390811691161461008e57600080fd5b60018054600160a060020a0319908116600160a060020a03968716179091556002939093556003805490931691909316179055600455565b610e32806100d56000396000f3006060604052600436106100c15763ffffffff60e060020a6000350416632453732a81146100c6578063310ce4e2146100fa57806338af3eed146101335780634345a6101461016257806358b37659146101905780635a1f7406146101b857806368e14dac146101d75780637ff4b630146101f95780638da5cb5b1461024857806390be003c1461025b578063c3c5a5471461027a578063ddca3f4314610299578063e1758bd8146102ac578063f2fde38b146102bf578063f98e87ba146102de575b600080fd5b34156100d157600080fd5b6100e8600435600160a060020a03602435166102f1565b60405190815260200160405180910390f35b341561010557600080fd5b61011f600435600160a060020a036024351660443561032d565b604051901515815260200160405180910390f35b341561013e57600080fd5b61014661065b565b604051600160a060020a03909116815260200160405180910390f35b341561016d57600080fd5b61018e600160a060020a03600435811690602435906044351660643561066a565b005b341561019b57600080fd5b6100e8600160a060020a03600435811690602435166044356106ca565b34156101c357600080fd5b61011f600160a060020a036004351661098f565b34156101e257600080fd5b6100e8600435600160a060020a03602435166109a4565b341561020457600080fd5b61011f60046024813581810190830135806020818102016040519081016040528093929190818152602001838360200280828437509496506109f995505050505050565b341561025357600080fd5b610146610ac3565b341561026657600080fd5b61018e600160a060020a0360043516610ad2565b341561028557600080fd5b61011f600160a060020a0360043516610c0c565b34156102a457600080fd5b6100e8610c2a565b34156102b757600080fd5b610146610c30565b34156102ca57600080fd5b61018e600160a060020a0360043516610c3f565b34156102e957600080fd5b6100e8610cda565b6000808383604051918252600160a060020a03166c01000000000000000000000000026020820152603401604051908190039020949350505050565b6000610337610dbd565b6000610341610ddd565b33600160a060020a03166006600061035889610ce0565b8152602081019190915260400160002054600160a060020a03161461037c57600080fd5b600160a060020a03861660009081526005602090815260408083208a845260010190915290819020906060905190810160409081528254600160a060020a03908116835260018085015460208086019190915260029586015484860152918b166000908152600583528381208d82528201909252918120805473ffffffffffffffffffffffffffffffffffffffff1916815591820181905592019190915592508415156104635786600160a060020a0387167fb5a530776d05e9cd7b304c6670fc54c08de4635c6c958237204d61215ca1ce3460405160405180910390a360019350610651565b85600160a060020a0316638da5cb5b6000604051602001526040518163ffffffff1660e060020a028152600401602060405180830381600087803b15156104a957600080fd5b6102c65a03f115156104ba57600080fd5b505050604051805192505060408301518513156104d657600094505b60036040518059106104e55750595b908082528060200260200182016040525090508251600160a060020a03168160008151811061051057fe5b60209081029091018101919091528301518160028151811061052e57fe5b60209081029091010152848160038151811061054657fe5b60209081029091010152600160a060020a038216636ce15a5430836000604051602001526040518363ffffffff1660e060020a0281526004018083600160a060020a0316600160a060020a0316815260200180602001828103825283818151815260200191508051906020019060200280838360005b838110156105d45780820151838201526020016105bc565b505050509050019350505050602060405180830381600087803b15156105f957600080fd5b6102c65a03f1151561060a57600080fd5b505050604051805150879050600160a060020a0387167f1f9b6fe94f8389fd9936094c2246b3cb2b4392e59e72e915e70e6a08a47a1fb960405160405180910390a3600193505b5050509392505050565b600354600160a060020a031681565b60005433600160a060020a0390811691161461068557600080fd5b6001805473ffffffffffffffffffffffffffffffffffffffff19908116600160a060020a03968716179091556002939093556003805490931691909316179055600455565b60006106d4610ddd565b60006106de610def565b600160a060020a03871660009081526005602090815260408083208392909151908101604052905460ff161515815294508451151561071c57600080fd5b87600160a060020a031663a003651d8860006040516020015260405160e060020a63ffffffff84160281526004810191909152602401602060405180830381600087803b151561076b57600080fd5b6102c65a03f1151561077c57600080fd5b505050604051805190509350600660006107958b610ce0565b8152602081019190915260409081016000209080519081016040528154600160a060020a03168152600190910154602082015292508251915081600160a060020a03166388737b5e8560010185602001518c3060006040516020015260405160e060020a63ffffffff871602815260048101949094526024840192909252600160a060020a039081166044840152166064820152608401602060405180830381600087803b151561084557600080fd5b6102c65a03f1151561085657600080fd5b5050506040518051600160a060020a038b16600090815260056020908152604080832084845260010190915290206002015490925015905061089757600080fd5b60606040519081016040908152600160a060020a03808b16835260208084018b9052828401889052908c16600090815260058252828120858252600101909152208151815473ffffffffffffffffffffffffffffffffffffffff1916600160a060020a0391909116178155602082015160018201556040820151600290910155508251600160a060020a031681600019168a600160a060020a03167f7cc111fb0ca4cca22593ef5c203a80bdf580126f809df7aec05e8b057cc5aa9c8b8b89604051600160a060020a03909316835260208301919091526040808301919091526060909101905180910390a498975050505050505050565b60056020526000908152604090205460ff1681565b6000806109b184846102f1565b60008181526006602052604090206001810195909555845473ffffffffffffffffffffffffffffffffffffffff1916600160a060020a03949094169390931790935550919050565b60008060008084600081518110610a0c57fe5b90602001906020020151925084600181518110610a2557fe5b90602001906020020151915084600281518110610a3e57fe5b906020019060200201519050600160a060020a038316639ef1204c838360006040516020015260405160e060020a63ffffffff851602815260048101929092526024820152604401602060405180830381600087803b1515610a9f57600080fd5b6102c65a03f11515610ab057600080fd5b5050506040518051905050505050919050565b600054600160a060020a031681565b610ada610ddd565b6000600254118015610b055750600160a060020a03821660009081526005602052604090205460ff16155b15610b9e57600154600354600254600160a060020a03928316926323b872dd92869291169060006040516020015260405160e060020a63ffffffff8616028152600160a060020a0393841660048201529190921660248201526044810191909152606401602060405180830381600087803b1515610b8257600080fd5b6102c65a03f11515610b9357600080fd5b505050604051805150505b60018152600160a060020a038216600090815260056020526040902081908151815460ff1916901515179055507fe9db4686ffcf478f0c9aa617f5d4f8ad2672b75414d7bea26368c6f65fb418df82604051600160a060020a03909116815260200160405180910390a15050565b600160a060020a031660009081526005602052604090205460ff1690565b60025481565b600154600160a060020a031681565b60005433600160a060020a03908116911614610c5a57600080fd5b600160a060020a0381161515610c6f57600080fd5b600054600160a060020a0380831691167f8be0079c531659141344cd1fd0a4f28419497f9722a3daafe3b4186f6b6457e060405160405180910390a36000805473ffffffffffffffffffffffffffffffffffffffff1916600160a060020a0392909216919091179055565b60045481565b60008082600160a060020a0316638da5cb5b6000604051602001526040518163ffffffff1660e060020a028152600401602060405180830381600087803b1515610d2957600080fd5b6102c65a03f11515610d3a57600080fd5b5050506040518051915050600160a060020a0381166346e361b73060006040516020015260405160e060020a63ffffffff8416028152600160a060020a039091166004820152602401602060405180830381600087803b1515610d9c57600080fd5b6102c65a03f11515610dad57600080fd5b5050506040518051949350505050565b606060405190810160409081526000808352602083018190529082015290565b60206040519081016040526000815290565b6040805190810160405260008082526020820152905600a165627a7a723058205215f566bfc17a59a55a03c023aadc9ca0d27e76b9fba1560ee79d05524645f50029",
  "source": "pragma solidity ^0.4.18;\r\n\r\nimport \"../VotingMachines/IntVoteInterface.sol\";\r\nimport \"./UniversalScheme.sol\";\r\n\r\n\r\n/**\r\n * @title VoteInOrganizationScheme.\r\n * @dev A scheme to allow an organization to vote in a proposal.\r\n */\r\n\r\n// ToDo: Documentation and tests!\r\n\r\ncontract VoteInOrganizationScheme is UniversalScheme, ExecutableInterface, ActionInterface {\r\n    event LogNewVoteProposal(\r\n        address indexed _avatar,\r\n        bytes32 indexed _proposalId,\r\n        address indexed _intVoteInterface,\r\n        IntVoteInterface _originalIntVote,\r\n        bytes32 _originalProposalId,\r\n        uint _originalNumOfChoices\r\n    );\r\n    event LogProposalExecuted(address indexed _avatar, bytes32 indexed _proposalId);\r\n    event LogProposalDeleted(address indexed _avatar, bytes32 indexed _proposalId);\r\n\r\n    // Details of a voting proposal:\r\n    struct VoteProposal {\r\n        IntVoteInterface originalIntVote;\r\n        bytes32 originalProposalId;\r\n        uint originalNumOfChoices;\r\n    }\r\n\r\n    // Struct holding the data for each organization\r\n    struct Organization {\r\n        bool isRegistered;\r\n        mapping(bytes32=>VoteProposal) proposals;\r\n    }\r\n\r\n    // A mapping from thr organization (Avatar) address to the saved data of the organization:\r\n    mapping(address=>Organization) public organizations;\r\n\r\n    // A mapping from hashes to parameters (use to store a particular configuration on the controller)\r\n    struct Parameters {\r\n        IntVoteInterface intVote;\r\n        bytes32 voteParams;\r\n    }\r\n\r\n    mapping(bytes32=>Parameters) parameters;\r\n\r\n    /**\r\n    * @dev the constructor takes a token address, fee and beneficiary\r\n    */\r\n    function VoteInOrganizationScheme(StandardToken _nativeToken, uint _fee, address _beneficiary) public {\r\n        updateParameters(_nativeToken, _fee, _beneficiary, bytes32(0));\r\n    }\r\n\r\n    /**\r\n    * @dev hash the parameters, save them if necessary, and return the hash value\r\n    */\r\n    function setParameters(\r\n        bytes32 _voteParams,\r\n        IntVoteInterface _intVote\r\n    ) public returns(bytes32)\r\n    {\r\n        bytes32 paramsHash = getParametersHash(_voteParams, _intVote);\r\n        parameters[paramsHash].voteParams = _voteParams;\r\n        parameters[paramsHash].intVote = _intVote;\r\n        return paramsHash;\r\n    }\r\n\r\n    /**\r\n    * @dev return a hash of the given parameters\r\n    */\r\n    function getParametersHash(\r\n        bytes32 _voteParams,\r\n        IntVoteInterface _intVote\r\n    ) public pure returns(bytes32)\r\n    {\r\n        bytes32 paramsHash = (keccak256(_voteParams, _intVote));\r\n        return paramsHash;\r\n    }\r\n\r\n    function isRegistered(address _avatar) public constant returns(bool) {\r\n        return organizations[_avatar].isRegistered;\r\n    }\r\n\r\n    /**\r\n    * @dev registering an organization to the univarsal scheme\r\n    * @param _avatar avatar of the organization\r\n    */\r\n    function registerOrganization(Avatar _avatar) public {\r\n        // Pay fees for using scheme:\r\n        if ((fee > 0) && (! organizations[_avatar].isRegistered)) {\r\n            nativeToken.transferFrom(_avatar, beneficiary, fee);\r\n        }\r\n\r\n        Organization memory org;\r\n        org.isRegistered = true;\r\n        organizations[_avatar] = org;\r\n        LogOrgRegistered(_avatar);\r\n    }\r\n\r\n    function proposeVote(Avatar _avatar, IntVoteInterface _originalIntVote, bytes32 _originalProposalId) public returns(bytes32) {\r\n        Organization memory org = organizations[_avatar];\r\n        require(org.isRegistered); // Check org is registred to use this universal scheme.\r\n        uint numOfChoices = _originalIntVote.getNumberOfChoices(_originalProposalId);\r\n        Parameters memory params = parameters[getParametersFromController(_avatar)];\r\n        IntVoteInterface intVote = params.intVote;\r\n        bytes32 proposalId = intVote.propose(numOfChoices+1, params.voteParams, _avatar, ExecutableInterface(this));\r\n        if (organizations[_avatar].proposals[proposalId].originalNumOfChoices != 0) {\r\n            revert();\r\n        }\r\n        organizations[_avatar].proposals[proposalId] = VoteProposal({\r\n            originalIntVote: _originalIntVote,\r\n            originalProposalId: _originalProposalId,\r\n            originalNumOfChoices: numOfChoices\r\n        });\r\n        LogNewVoteProposal(\r\n            _avatar,\r\n            proposalId,\r\n            params.intVote,\r\n            _originalIntVote,\r\n            _originalProposalId,\r\n            numOfChoices\r\n        );\r\n        return proposalId;\r\n    }\r\n\r\n    /**\r\n    * @dev execution of proposals, can only be called by the voting machine in which the vote is held.\r\n    * @param _proposalId the ID of the voting in the voting machine\r\n    * @param _avatar address of the controller\r\n    * @param _param a parameter of the voting result, 0 is no and 1 is yes.\r\n    */\r\n    function execute(bytes32 _proposalId, address _avatar, int _param) public returns(bool) {\r\n        // Check the caller is indeed the voting machine:\r\n        require(parameters[getParametersFromController(Avatar(_avatar))].intVote == msg.sender);\r\n\r\n        // Save proposal to memory and delete from storage:\r\n        VoteProposal memory proposal = organizations[_avatar].proposals[_proposalId];\r\n        delete organizations[_avatar].proposals[_proposalId];\r\n\r\n        // If no decision do nothing:\r\n        if (_param == 0) {\r\n            LogProposalDeleted(_avatar, _proposalId);\r\n            return true;\r\n        }\r\n\r\n        // Define controller and get the parmas:\r\n        Controller controller = Controller(Avatar(_avatar).owner());\r\n        if (_param > int(proposal.originalNumOfChoices)) {\r\n            _param = 0;\r\n        }\r\n        bytes32[] memory tmp = new bytes32[](3);\r\n        tmp[0] = bytes32(address(proposal.originalIntVote));\r\n        tmp[2] = proposal.originalProposalId;\r\n        tmp[3] = bytes32(_param);\r\n        controller.genericAction(this, tmp);\r\n        LogProposalExecuted(_avatar, _proposalId);\r\n        return true;\r\n    }\r\n\r\n    function action(bytes32[] _params) public returns(bool) {\r\n        IntVoteInterface intVote = IntVoteInterface(address(_params[0]));\r\n        bytes32 proposalId = _params[1];\r\n        uint vote = uint(_params[2]);\r\n        intVote.vote(proposalId, vote);\r\n    }\r\n}\r\n",
  "sourcePath": "C:\\users\\dkent\\documents\\projects\\GitHub\\DAOStack\\daostack\\contracts\\universalSchemes\\VoteInOrganizationScheme.sol",
  "compiler": {
    "name": "solc",
    "version": "0.4.18+commit.9cf6e910.Emscripten.clang"
  },
  "schemaVersion": "1.0.1",
  "updatedAt": "2017-12-12T06:13:10.587Z"
}